{
  "abi": [
    {
      "inputs": [],
      "stateMutability": "nonpayable",
      "type": "constructor"
    },
    {
      "anonymous": false,
      "inputs": [
        {
          "indexed": false,
          "internalType": "address",
          "name": "strategy",
          "type": "address"
        },
        {
          "indexed": false,
          "internalType": "bool",
          "name": "disabled",
          "type": "bool"
        }
      ],
      "name": "DisableHealthCheck",
      "type": "event"
    },
    {
      "inputs": [
        {
          "internalType": "address",
          "name": "strategy",
          "type": "address"
        },
        {
          "internalType": "uint256",
          "name": "profit",
          "type": "uint256"
        },
        {
          "internalType": "uint256",
          "name": "loss",
          "type": "uint256"
        },
        {
          "internalType": "uint256",
          "name": "debtPayment",
          "type": "uint256"
        },
        {
          "internalType": "uint256",
          "name": "debtOutstanding",
          "type": "uint256"
        },
        {
          "internalType": "uint256",
          "name": "totalDebt",
          "type": "uint256"
        }
      ],
      "name": "check",
      "outputs": [
        {
          "internalType": "bool",
          "name": "",
          "type": "bool"
        }
      ],
      "stateMutability": "view",
      "type": "function"
    },
    {
      "inputs": [
        {
          "internalType": "uint256",
          "name": "profit",
          "type": "uint256"
        },
        {
          "internalType": "uint256",
          "name": "loss",
          "type": "uint256"
        },
        {
          "internalType": "uint256",
          "name": "debtPayment",
          "type": "uint256"
        },
        {
          "internalType": "uint256",
          "name": "debtOutstanding",
          "type": "uint256"
        },
        {
          "internalType": "uint256",
          "name": "totalDebt",
          "type": "uint256"
        }
      ],
      "name": "check",
      "outputs": [
        {
          "internalType": "bool",
          "name": "",
          "type": "bool"
        }
      ],
      "stateMutability": "view",
      "type": "function"
    },
    {
      "inputs": [
        {
          "internalType": "address",
          "name": "",
          "type": "address"
        }
      ],
      "name": "checks",
      "outputs": [
        {
          "internalType": "address",
          "name": "",
          "type": "address"
        }
      ],
      "stateMutability": "view",
      "type": "function"
    },
    {
      "inputs": [
        {
          "internalType": "address",
          "name": "",
          "type": "address"
        }
      ],
      "name": "disabledCheck",
      "outputs": [
        {
          "internalType": "bool",
          "name": "",
          "type": "bool"
        }
      ],
      "stateMutability": "view",
      "type": "function"
    },
    {
      "inputs": [
        {
          "internalType": "address",
          "name": "_strategy",
          "type": "address"
        }
      ],
      "name": "doHealthCheck",
      "outputs": [
        {
          "internalType": "bool",
          "name": "",
          "type": "bool"
        }
      ],
      "stateMutability": "view",
      "type": "function"
    },
    {
      "inputs": [
        {
          "internalType": "address",
          "name": "_strategy",
          "type": "address"
        }
      ],
      "name": "enableCheck",
      "outputs": [],
      "stateMutability": "nonpayable",
      "type": "function"
    },
    {
      "inputs": [],
      "name": "governance",
      "outputs": [
        {
          "internalType": "address",
          "name": "",
          "type": "address"
        }
      ],
      "stateMutability": "view",
      "type": "function"
    },
    {
      "inputs": [],
      "name": "lossLimitRatio",
      "outputs": [
        {
          "internalType": "uint256",
          "name": "",
          "type": "uint256"
        }
      ],
      "stateMutability": "view",
      "type": "function"
    },
    {
      "inputs": [],
      "name": "management",
      "outputs": [
        {
          "internalType": "address",
          "name": "",
          "type": "address"
        }
      ],
      "stateMutability": "view",
      "type": "function"
    },
    {
      "inputs": [],
      "name": "profitLimitRatio",
      "outputs": [
        {
          "internalType": "uint256",
          "name": "",
          "type": "uint256"
        }
      ],
      "stateMutability": "view",
      "type": "function"
    },
    {
      "inputs": [
        {
          "internalType": "address",
          "name": "_strategy",
          "type": "address"
        },
        {
          "internalType": "address",
          "name": "_check",
          "type": "address"
        }
      ],
      "name": "setCheck",
      "outputs": [],
      "stateMutability": "nonpayable",
      "type": "function"
    },
    {
      "inputs": [
        {
          "internalType": "address",
          "name": "_strategy",
          "type": "address"
        },
        {
          "internalType": "bool",
          "name": "disabled",
          "type": "bool"
        }
      ],
      "name": "setDisabledCheck",
      "outputs": [],
      "stateMutability": "nonpayable",
      "type": "function"
    },
    {
      "inputs": [
        {
          "internalType": "address",
          "name": "_governance",
          "type": "address"
        }
      ],
      "name": "setGovernance",
      "outputs": [],
      "stateMutability": "nonpayable",
      "type": "function"
    },
    {
      "inputs": [
        {
          "internalType": "address",
          "name": "_management",
          "type": "address"
        }
      ],
      "name": "setManagement",
      "outputs": [],
      "stateMutability": "nonpayable",
      "type": "function"
    },
    {
      "inputs": [
        {
          "internalType": "uint256",
          "name": "_profitLimitRatio",
          "type": "uint256"
        }
      ],
      "name": "setProfitLimitRatio",
      "outputs": [],
      "stateMutability": "nonpayable",
      "type": "function"
    },
    {
      "inputs": [
        {
          "internalType": "address",
          "name": "_strategy",
          "type": "address"
        },
        {
          "internalType": "uint256",
          "name": "_profitLimitRatio",
          "type": "uint256"
        },
        {
          "internalType": "uint256",
          "name": "_lossLimitRatio",
          "type": "uint256"
        }
      ],
      "name": "setStrategyLimits",
      "outputs": [],
      "stateMutability": "nonpayable",
      "type": "function"
    },
    {
      "inputs": [
        {
          "internalType": "uint256",
          "name": "_lossLimitRatio",
          "type": "uint256"
        }
      ],
      "name": "setlossLimitRatio",
      "outputs": [],
      "stateMutability": "nonpayable",
      "type": "function"
    },
    {
      "inputs": [
        {
          "internalType": "address",
          "name": "",
          "type": "address"
        }
      ],
      "name": "strategiesLimits",
      "outputs": [
        {
          "internalType": "uint256",
          "name": "profitLimitRatio",
          "type": "uint256"
        },
        {
          "internalType": "uint256",
          "name": "lossLimitRatio",
          "type": "uint256"
        },
        {
          "internalType": "bool",
          "name": "exists",
          "type": "bool"
        }
      ],
      "stateMutability": "view",
      "type": "function"
    }
  ],
  "bytecode": "608060405234801561001057600080fd5b50600380546001600160a01b031990811633908117909255600480549091169091179055606460005560018055610beb8061004c6000396000f3fe608060405234801561001057600080fd5b50600436106101155760003560e01c80636e905e17116100a25780639abf315b116100715780639abf315b146102f4578063ab033ea914610322578063c70fa00b14610348578063c93543371461037d578063d4a22bde146103c357610115565b80636e905e17146102a15780637d969932146102c757806388a8d602146102cf578063950b3d73146102d757610115565b80631afdc5a2116100e95780631afdc5a2146101e957806327fff0db14610217578063458add98146102595780634a5d09431461027f5780635aa6e6751461029957610115565b8062fd31f01461011a578063039aa2501461014e57806306bfaf04146101745780630ef5ee02146101cc575b600080fd5b61014c6004803603606081101561013057600080fd5b506001600160a01b0381351690602081013590604001356103e9565b005b61014c6004803603602081101561016457600080fd5b50356001600160a01b03166104be565b6101b8600480360360c081101561018a57600080fd5b506001600160a01b038135169060208101359060408101359060608101359060808101359060a001356105d4565b604080519115158252519081900360200190f35b61014c600480360360208110156101e257600080fd5b5035610604565b61014c600480360360408110156101ff57600080fd5b506001600160a01b0381358116916020013516610679565b61023d6004803603602081101561022d57600080fd5b50356001600160a01b0316610709565b604080516001600160a01b039092168252519081900360200190f35b6101b86004803603602081101561026f57600080fd5b50356001600160a01b0316610724565b610287610739565b60408051918252519081900360200190f35b61023d61073f565b6101b8600480360360208110156102b757600080fd5b50356001600160a01b031661074e565b61028761076d565b61023d610773565b61014c600480360360208110156102ed57600080fd5b5035610782565b61014c6004803603604081101561030a57600080fd5b506001600160a01b03813516906020013515156107f7565b61014c6004803603602081101561033857600080fd5b50356001600160a01b03166108c9565b6101b8600480360360a081101561035e57600080fd5b508035906020810135906040810135906060810135906080013561094b565b6103a36004803603602081101561039357600080fd5b50356001600160a01b0316610967565b604080519384526020840192909252151582820152519081900360600190f35b61014c600480360360208110156103d957600080fd5b50356001600160a01b031661098a565b6003546001600160a01b031633148061040c57506004546001600160a01b031633145b61044b576040805162461bcd60e51b815260206004820152600b60248201526a08585d5d1a1bdc9a5e995960aa1b604482015290519081900360640190fd5b612710811061045957600080fd5b612710821061046757600080fd5b60408051606081018252928352602080840192835260018483018181526001600160a01b03969096166000908152600292839052929092209351845591519083015591519101805460ff1916911515919091179055565b80806001600160a01b031663fbfa77cf6040518163ffffffff1660e01b815260040160206040518083038186803b1580156104f857600080fd5b505afa15801561050c573d6000803e3d6000fd5b505050506040513d602081101561052257600080fd5b50516001600160a01b0316331461056e576040805162461bcd60e51b815260206004820152600b60248201526a08585d5d1a1bdc9a5e995960aa1b604482015290519081900360640190fd5b604080516001600160a01b03841681526000602082015281517f39a1b49b104add7a4ab248fd98e46543a5226da38ae34128c7979301649900c1929181900390910190a1506001600160a01b03166000908152600660205260409020805460ff19169055565b60006001600160a01b0387166105e957600080fd5b6105f7878787878787610a0c565b90505b9695505050505050565b6003546001600160a01b031633148061062757506004546001600160a01b031633145b610666576040805162461bcd60e51b815260206004820152600b60248201526a08585d5d1a1bdc9a5e995960aa1b604482015290519081900360640190fd5b612710811061067457600080fd5b600155565b6003546001600160a01b031633148061069c57506004546001600160a01b031633145b6106db576040805162461bcd60e51b815260206004820152600b60248201526a08585d5d1a1bdc9a5e995960aa1b604482015290519081900360640190fd5b6001600160a01b03918216600090815260056020526040902080546001600160a01b03191691909216179055565b6005602052600090815260409020546001600160a01b031681565b60066020526000908152604090205460ff1681565b60005481565b6003546001600160a01b031681565b6001600160a01b031660009081526006602052604090205460ff161590565b60015481565b6004546001600160a01b031681565b6003546001600160a01b03163314806107a557506004546001600160a01b031633145b6107e4576040805162461bcd60e51b815260206004820152600b60248201526a08585d5d1a1bdc9a5e995960aa1b604482015290519081900360640190fd5b61271081106107f257600080fd5b600055565b6003546001600160a01b031633148061081a57506004546001600160a01b031633145b610859576040805162461bcd60e51b815260206004820152600b60248201526a08585d5d1a1bdc9a5e995960aa1b604482015290519081900360640190fd5b604080516001600160a01b0384168152821515602082015281517f39a1b49b104add7a4ab248fd98e46543a5226da38ae34128c7979301649900c1929181900390910190a16001600160a01b03919091166000908152600660205260409020805460ff1916911515919091179055565b6003546001600160a01b03163314610916576040805162461bcd60e51b815260206004820152600b60248201526a08585d5d1a1bdc9a5e995960aa1b604482015290519081900360640190fd5b6001600160a01b03811661092957600080fd5b600380546001600160a01b0319166001600160a01b0392909216919091179055565b60003361095c818888888888610a0c565b979650505050505050565b600260208190526000918252604090912080546001820154919092015460ff1683565b6003546001600160a01b031633146109d7576040805162461bcd60e51b815260206004820152600b60248201526a08585d5d1a1bdc9a5e995960aa1b604482015290519081900360640190fd5b6001600160a01b0381166109ea57600080fd5b600480546001600160a01b0319166001600160a01b0392909216919091179055565b6001600160a01b0380871660009081526005602052604081205490911680610a4257610a3a88888886610ae0565b9150506105fa565b6040805163022c80df60e51b81526001600160a01b038a81166004830152602482018a90526044820189905260648201889052608482018790529151918316916345901be09160a480820192602092909190829003018186803b158015610aa857600080fd5b505afa158015610abc573d6000803e3d6000fd5b505050506040513d6020811015610ad257600080fd5b505198975050505050505050565b6000610aea610b92565b506001600160a01b03851660009081526002602081815260408084208151606081018352815481526001820154938101939093529092015460ff161580159282019290925291908190610b4557505080516020820151610b4e565b50506000546001545b61271085830204871115610b685760009350505050610b8a565b61271085820204861115610b825760009350505050610b8a565b600193505050505b949350505050565b60405180606001604052806000815260200160008152602001600015158152509056fea2646970667358221220c490dcbd828f2776a1a9bff057ea88da87f2058a4d64293cfebd2a677637401464736f6c634300060c0033",
  "bytecodeSha1": "0e95bf26c313c3f29cce6b7a48e308811add0bf1",
  "compiler": {
    "evm_version": "istanbul",
    "optimizer": {
      "enabled": true,
      "runs": 200
    },
    "version": "0.6.12+commit.27d51765"
  },
  "contractName": "CommonHealthCheck",
  "language": "Solidity",
  "natspec": {
    "kind": "dev",
    "methods": {},
    "version": 1
  },
  "opcodes": "PUSH1 0x80 PUSH1 0x40 MSTORE CALLVALUE DUP1 ISZERO PUSH2 0x10 JUMPI PUSH1 0x0 DUP1 REVERT JUMPDEST POP PUSH1 0x4 CALLDATASIZE LT PUSH2 0x115 JUMPI PUSH1 0x0 CALLDATALOAD PUSH1 0xE0 SHR DUP1 PUSH4 0x6E905E17 GT PUSH2 0xA2 JUMPI DUP1 PUSH4 0x9ABF315B GT PUSH2 0x71 JUMPI DUP1 PUSH4 0x9ABF315B EQ PUSH2 0x2F4 JUMPI DUP1 PUSH4 0xAB033EA9 EQ PUSH2 0x322 JUMPI DUP1 PUSH4 0xC70FA00B EQ PUSH2 0x348 JUMPI DUP1 PUSH4 0xC9354337 EQ PUSH2 0x37D JUMPI DUP1 PUSH4 0xD4A22BDE EQ PUSH2 0x3C3 JUMPI PUSH2 0x115 JUMP JUMPDEST DUP1 PUSH4 0x6E905E17 EQ PUSH2 0x2A1 JUMPI DUP1 PUSH4 0x7D969932 EQ PUSH2 0x2C7 JUMPI DUP1 PUSH4 0x88A8D602 EQ PUSH2 0x2CF JUMPI DUP1 PUSH4 0x950B3D73 EQ PUSH2 0x2D7 JUMPI PUSH2 0x115 JUMP JUMPDEST DUP1 PUSH4 0x1AFDC5A2 GT PUSH2 0xE9 JUMPI DUP1 PUSH4 0x1AFDC5A2 EQ PUSH2 0x1E9 JUMPI DUP1 PUSH4 0x27FFF0DB EQ PUSH2 0x217 JUMPI DUP1 PUSH4 0x458ADD98 EQ PUSH2 0x259 JUMPI DUP1 PUSH4 0x4A5D0943 EQ PUSH2 0x27F JUMPI DUP1 PUSH4 0x5AA6E675 EQ PUSH2 0x299 JUMPI PUSH2 0x115 JUMP JUMPDEST DUP1 PUSH3 0xFD31F0 EQ PUSH2 0x11A JUMPI DUP1 PUSH4 0x39AA250 EQ PUSH2 0x14E JUMPI DUP1 PUSH4 0x6BFAF04 EQ PUSH2 0x174 JUMPI DUP1 PUSH4 0xEF5EE02 EQ PUSH2 0x1CC JUMPI JUMPDEST PUSH1 0x0 DUP1 REVERT JUMPDEST PUSH2 0x14C PUSH1 0x4 DUP1 CALLDATASIZE SUB PUSH1 0x60 DUP2 LT ISZERO PUSH2 0x130 JUMPI PUSH1 0x0 DUP1 REVERT JUMPDEST POP PUSH1 0x1 PUSH1 0x1 PUSH1 0xA0 SHL SUB DUP2 CALLDATALOAD AND SWAP1 PUSH1 0x20 DUP2 ADD CALLDATALOAD SWAP1 PUSH1 0x40 ADD CALLDATALOAD PUSH2 0x3E9 JUMP JUMPDEST STOP JUMPDEST PUSH2 0x14C PUSH1 0x4 DUP1 CALLDATASIZE SUB PUSH1 0x20 DUP2 LT ISZERO PUSH2 0x164 JUMPI PUSH1 0x0 DUP1 REVERT JUMPDEST POP CALLDATALOAD PUSH1 0x1 PUSH1 0x1 PUSH1 0xA0 SHL SUB AND PUSH2 0x4BE JUMP JUMPDEST PUSH2 0x1B8 PUSH1 0x4 DUP1 CALLDATASIZE SUB PUSH1 0xC0 DUP2 LT ISZERO PUSH2 0x18A JUMPI PUSH1 0x0 DUP1 REVERT JUMPDEST POP PUSH1 0x1 PUSH1 0x1 PUSH1 0xA0 SHL SUB DUP2 CALLDATALOAD AND SWAP1 PUSH1 0x20 DUP2 ADD CALLDATALOAD SWAP1 PUSH1 0x40 DUP2 ADD CALLDATALOAD SWAP1 PUSH1 0x60 DUP2 ADD CALLDATALOAD SWAP1 PUSH1 0x80 DUP2 ADD CALLDATALOAD SWAP1 PUSH1 0xA0 ADD CALLDATALOAD PUSH2 0x5D4 JUMP JUMPDEST PUSH1 0x40 DUP1 MLOAD SWAP2 ISZERO ISZERO DUP3 MSTORE MLOAD SWAP1 DUP2 SWAP1 SUB PUSH1 0x20 ADD SWAP1 RETURN JUMPDEST PUSH2 0x14C PUSH1 0x4 DUP1 CALLDATASIZE SUB PUSH1 0x20 DUP2 LT ISZERO PUSH2 0x1E2 JUMPI PUSH1 0x0 DUP1 REVERT JUMPDEST POP CALLDATALOAD PUSH2 0x604 JUMP JUMPDEST PUSH2 0x14C PUSH1 0x4 DUP1 CALLDATASIZE SUB PUSH1 0x40 DUP2 LT ISZERO PUSH2 0x1FF JUMPI PUSH1 0x0 DUP1 REVERT JUMPDEST POP PUSH1 0x1 PUSH1 0x1 PUSH1 0xA0 SHL SUB DUP2 CALLDATALOAD DUP2 AND SWAP2 PUSH1 0x20 ADD CALLDATALOAD AND PUSH2 0x679 JUMP JUMPDEST PUSH2 0x23D PUSH1 0x4 DUP1 CALLDATASIZE SUB PUSH1 0x20 DUP2 LT ISZERO PUSH2 0x22D JUMPI PUSH1 0x0 DUP1 REVERT JUMPDEST POP CALLDATALOAD PUSH1 0x1 PUSH1 0x1 PUSH1 0xA0 SHL SUB AND PUSH2 0x709 JUMP JUMPDEST PUSH1 0x40 DUP1 MLOAD PUSH1 0x1 PUSH1 0x1 PUSH1 0xA0 SHL SUB SWAP1 SWAP3 AND DUP3 MSTORE MLOAD SWAP1 DUP2 SWAP1 SUB PUSH1 0x20 ADD SWAP1 RETURN JUMPDEST PUSH2 0x1B8 PUSH1 0x4 DUP1 CALLDATASIZE SUB PUSH1 0x20 DUP2 LT ISZERO PUSH2 0x26F JUMPI PUSH1 0x0 DUP1 REVERT JUMPDEST POP CALLDATALOAD PUSH1 0x1 PUSH1 0x1 PUSH1 0xA0 SHL SUB AND PUSH2 0x724 JUMP JUMPDEST PUSH2 0x287 PUSH2 0x739 JUMP JUMPDEST PUSH1 0x40 DUP1 MLOAD SWAP2 DUP3 MSTORE MLOAD SWAP1 DUP2 SWAP1 SUB PUSH1 0x20 ADD SWAP1 RETURN JUMPDEST PUSH2 0x23D PUSH2 0x73F JUMP JUMPDEST PUSH2 0x1B8 PUSH1 0x4 DUP1 CALLDATASIZE SUB PUSH1 0x20 DUP2 LT ISZERO PUSH2 0x2B7 JUMPI PUSH1 0x0 DUP1 REVERT JUMPDEST POP CALLDATALOAD PUSH1 0x1 PUSH1 0x1 PUSH1 0xA0 SHL SUB AND PUSH2 0x74E JUMP JUMPDEST PUSH2 0x287 PUSH2 0x76D JUMP JUMPDEST PUSH2 0x23D PUSH2 0x773 JUMP JUMPDEST PUSH2 0x14C PUSH1 0x4 DUP1 CALLDATASIZE SUB PUSH1 0x20 DUP2 LT ISZERO PUSH2 0x2ED JUMPI PUSH1 0x0 DUP1 REVERT JUMPDEST POP CALLDATALOAD PUSH2 0x782 JUMP JUMPDEST PUSH2 0x14C PUSH1 0x4 DUP1 CALLDATASIZE SUB PUSH1 0x40 DUP2 LT ISZERO PUSH2 0x30A JUMPI PUSH1 0x0 DUP1 REVERT JUMPDEST POP PUSH1 0x1 PUSH1 0x1 PUSH1 0xA0 SHL SUB DUP2 CALLDATALOAD AND SWAP1 PUSH1 0x20 ADD CALLDATALOAD ISZERO ISZERO PUSH2 0x7F7 JUMP JUMPDEST PUSH2 0x14C PUSH1 0x4 DUP1 CALLDATASIZE SUB PUSH1 0x20 DUP2 LT ISZERO PUSH2 0x338 JUMPI PUSH1 0x0 DUP1 REVERT JUMPDEST POP CALLDATALOAD PUSH1 0x1 PUSH1 0x1 PUSH1 0xA0 SHL SUB AND PUSH2 0x8C9 JUMP JUMPDEST PUSH2 0x1B8 PUSH1 0x4 DUP1 CALLDATASIZE SUB PUSH1 0xA0 DUP2 LT ISZERO PUSH2 0x35E JUMPI PUSH1 0x0 DUP1 REVERT JUMPDEST POP DUP1 CALLDATALOAD SWAP1 PUSH1 0x20 DUP2 ADD CALLDATALOAD SWAP1 PUSH1 0x40 DUP2 ADD CALLDATALOAD SWAP1 PUSH1 0x60 DUP2 ADD CALLDATALOAD SWAP1 PUSH1 0x80 ADD CALLDATALOAD PUSH2 0x94B JUMP JUMPDEST PUSH2 0x3A3 PUSH1 0x4 DUP1 CALLDATASIZE SUB PUSH1 0x20 DUP2 LT ISZERO PUSH2 0x393 JUMPI PUSH1 0x0 DUP1 REVERT JUMPDEST POP CALLDATALOAD PUSH1 0x1 PUSH1 0x1 PUSH1 0xA0 SHL SUB AND PUSH2 0x967 JUMP JUMPDEST PUSH1 0x40 DUP1 MLOAD SWAP4 DUP5 MSTORE PUSH1 0x20 DUP5 ADD SWAP3 SWAP1 SWAP3 MSTORE ISZERO ISZERO DUP3 DUP3 ADD MSTORE MLOAD SWAP1 DUP2 SWAP1 SUB PUSH1 0x60 ADD SWAP1 RETURN JUMPDEST PUSH2 0x14C PUSH1 0x4 DUP1 CALLDATASIZE SUB PUSH1 0x20 DUP2 LT ISZERO PUSH2 0x3D9 JUMPI PUSH1 0x0 DUP1 REVERT JUMPDEST POP CALLDATALOAD PUSH1 0x1 PUSH1 0x1 PUSH1 0xA0 SHL SUB AND PUSH2 0x98A JUMP JUMPDEST PUSH1 0x3 SLOAD PUSH1 0x1 PUSH1 0x1 PUSH1 0xA0 SHL SUB AND CALLER EQ DUP1 PUSH2 0x40C JUMPI POP PUSH1 0x4 SLOAD PUSH1 0x1 PUSH1 0x1 PUSH1 0xA0 SHL SUB AND CALLER EQ JUMPDEST PUSH2 0x44B JUMPI PUSH1 0x40 DUP1 MLOAD PUSH3 0x461BCD PUSH1 0xE5 SHL DUP2 MSTORE PUSH1 0x20 PUSH1 0x4 DUP3 ADD MSTORE PUSH1 0xB PUSH1 0x24 DUP3 ADD MSTORE PUSH11 0x8585D5D1A1BDC9A5E9959 PUSH1 0xAA SHL PUSH1 0x44 DUP3 ADD MSTORE SWAP1 MLOAD SWAP1 DUP2 SWAP1 SUB PUSH1 0x64 ADD SWAP1 REVERT JUMPDEST PUSH2 0x2710 DUP2 LT PUSH2 0x459 JUMPI PUSH1 0x0 DUP1 REVERT JUMPDEST PUSH2 0x2710 DUP3 LT PUSH2 0x467 JUMPI PUSH1 0x0 DUP1 REVERT JUMPDEST PUSH1 0x40 DUP1 MLOAD PUSH1 0x60 DUP2 ADD DUP3 MSTORE SWAP3 DUP4 MSTORE PUSH1 0x20 DUP1 DUP5 ADD SWAP3 DUP4 MSTORE PUSH1 0x1 DUP5 DUP4 ADD DUP2 DUP2 MSTORE PUSH1 0x1 PUSH1 0x1 PUSH1 0xA0 SHL SUB SWAP7 SWAP1 SWAP7 AND PUSH1 0x0 SWAP1 DUP2 MSTORE PUSH1 0x2 SWAP3 DUP4 SWAP1 MSTORE SWAP3 SWAP1 SWAP3 KECCAK256 SWAP4 MLOAD DUP5 SSTORE SWAP2 MLOAD SWAP1 DUP4 ADD SSTORE SWAP2 MLOAD SWAP2 ADD DUP1 SLOAD PUSH1 0xFF NOT AND SWAP2 ISZERO ISZERO SWAP2 SWAP1 SWAP2 OR SWAP1 SSTORE JUMP JUMPDEST DUP1 DUP1 PUSH1 0x1 PUSH1 0x1 PUSH1 0xA0 SHL SUB AND PUSH4 0xFBFA77CF PUSH1 0x40 MLOAD DUP2 PUSH4 0xFFFFFFFF AND PUSH1 0xE0 SHL DUP2 MSTORE PUSH1 0x4 ADD PUSH1 0x20 PUSH1 0x40 MLOAD DUP1 DUP4 SUB DUP2 DUP7 DUP1 EXTCODESIZE ISZERO DUP1 ISZERO PUSH2 0x4F8 JUMPI PUSH1 0x0 DUP1 REVERT JUMPDEST POP GAS STATICCALL ISZERO DUP1 ISZERO PUSH2 0x50C JUMPI RETURNDATASIZE PUSH1 0x0 DUP1 RETURNDATACOPY RETURNDATASIZE PUSH1 0x0 REVERT JUMPDEST POP POP POP POP PUSH1 0x40 MLOAD RETURNDATASIZE PUSH1 0x20 DUP2 LT ISZERO PUSH2 0x522 JUMPI PUSH1 0x0 DUP1 REVERT JUMPDEST POP MLOAD PUSH1 0x1 PUSH1 0x1 PUSH1 0xA0 SHL SUB AND CALLER EQ PUSH2 0x56E JUMPI PUSH1 0x40 DUP1 MLOAD PUSH3 0x461BCD PUSH1 0xE5 SHL DUP2 MSTORE PUSH1 0x20 PUSH1 0x4 DUP3 ADD MSTORE PUSH1 0xB PUSH1 0x24 DUP3 ADD MSTORE PUSH11 0x8585D5D1A1BDC9A5E9959 PUSH1 0xAA SHL PUSH1 0x44 DUP3 ADD MSTORE SWAP1 MLOAD SWAP1 DUP2 SWAP1 SUB PUSH1 0x64 ADD SWAP1 REVERT JUMPDEST PUSH1 0x40 DUP1 MLOAD PUSH1 0x1 PUSH1 0x1 PUSH1 0xA0 SHL SUB DUP5 AND DUP2 MSTORE PUSH1 0x0 PUSH1 0x20 DUP3 ADD MSTORE DUP2 MLOAD PUSH32 0x39A1B49B104ADD7A4AB248FD98E46543A5226DA38AE34128C7979301649900C1 SWAP3 SWAP2 DUP2 SWAP1 SUB SWAP1 SWAP2 ADD SWAP1 LOG1 POP PUSH1 0x1 PUSH1 0x1 PUSH1 0xA0 SHL SUB AND PUSH1 0x0 SWAP1 DUP2 MSTORE PUSH1 0x6 PUSH1 0x20 MSTORE PUSH1 0x40 SWAP1 KECCAK256 DUP1 SLOAD PUSH1 0xFF NOT AND SWAP1 SSTORE JUMP JUMPDEST PUSH1 0x0 PUSH1 0x1 PUSH1 0x1 PUSH1 0xA0 SHL SUB DUP8 AND PUSH2 0x5E9 JUMPI PUSH1 0x0 DUP1 REVERT JUMPDEST PUSH2 0x5F7 DUP8 DUP8 DUP8 DUP8 DUP8 DUP8 PUSH2 0xA0C JUMP JUMPDEST SWAP1 POP JUMPDEST SWAP7 SWAP6 POP POP POP POP POP POP JUMP JUMPDEST PUSH1 0x3 SLOAD PUSH1 0x1 PUSH1 0x1 PUSH1 0xA0 SHL SUB AND CALLER EQ DUP1 PUSH2 0x627 JUMPI POP PUSH1 0x4 SLOAD PUSH1 0x1 PUSH1 0x1 PUSH1 0xA0 SHL SUB AND CALLER EQ JUMPDEST PUSH2 0x666 JUMPI PUSH1 0x40 DUP1 MLOAD PUSH3 0x461BCD PUSH1 0xE5 SHL DUP2 MSTORE PUSH1 0x20 PUSH1 0x4 DUP3 ADD MSTORE PUSH1 0xB PUSH1 0x24 DUP3 ADD MSTORE PUSH11 0x8585D5D1A1BDC9A5E9959 PUSH1 0xAA SHL PUSH1 0x44 DUP3 ADD MSTORE SWAP1 MLOAD SWAP1 DUP2 SWAP1 SUB PUSH1 0x64 ADD SWAP1 REVERT JUMPDEST PUSH2 0x2710 DUP2 LT PUSH2 0x674 JUMPI PUSH1 0x0 DUP1 REVERT JUMPDEST PUSH1 0x1 SSTORE JUMP JUMPDEST PUSH1 0x3 SLOAD PUSH1 0x1 PUSH1 0x1 PUSH1 0xA0 SHL SUB AND CALLER EQ DUP1 PUSH2 0x69C JUMPI POP PUSH1 0x4 SLOAD PUSH1 0x1 PUSH1 0x1 PUSH1 0xA0 SHL SUB AND CALLER EQ JUMPDEST PUSH2 0x6DB JUMPI PUSH1 0x40 DUP1 MLOAD PUSH3 0x461BCD PUSH1 0xE5 SHL DUP2 MSTORE PUSH1 0x20 PUSH1 0x4 DUP3 ADD MSTORE PUSH1 0xB PUSH1 0x24 DUP3 ADD MSTORE PUSH11 0x8585D5D1A1BDC9A5E9959 PUSH1 0xAA SHL PUSH1 0x44 DUP3 ADD MSTORE SWAP1 MLOAD SWAP1 DUP2 SWAP1 SUB PUSH1 0x64 ADD SWAP1 REVERT JUMPDEST PUSH1 0x1 PUSH1 0x1 PUSH1 0xA0 SHL SUB SWAP2 DUP3 AND PUSH1 0x0 SWAP1 DUP2 MSTORE PUSH1 0x5 PUSH1 0x20 MSTORE PUSH1 0x40 SWAP1 KECCAK256 DUP1 SLOAD PUSH1 0x1 PUSH1 0x1 PUSH1 0xA0 SHL SUB NOT AND SWAP2 SWAP1 SWAP3 AND OR SWAP1 SSTORE JUMP JUMPDEST PUSH1 0x5 PUSH1 0x20 MSTORE PUSH1 0x0 SWAP1 DUP2 MSTORE PUSH1 0x40 SWAP1 KECCAK256 SLOAD PUSH1 0x1 PUSH1 0x1 PUSH1 0xA0 SHL SUB AND DUP2 JUMP JUMPDEST PUSH1 0x6 PUSH1 0x20 MSTORE PUSH1 0x0 SWAP1 DUP2 MSTORE PUSH1 0x40 SWAP1 KECCAK256 SLOAD PUSH1 0xFF AND DUP2 JUMP JUMPDEST PUSH1 0x0 SLOAD DUP2 JUMP JUMPDEST PUSH1 0x3 SLOAD PUSH1 0x1 PUSH1 0x1 PUSH1 0xA0 SHL SUB AND DUP2 JUMP JUMPDEST PUSH1 0x1 PUSH1 0x1 PUSH1 0xA0 SHL SUB AND PUSH1 0x0 SWAP1 DUP2 MSTORE PUSH1 0x6 PUSH1 0x20 MSTORE PUSH1 0x40 SWAP1 KECCAK256 SLOAD PUSH1 0xFF AND ISZERO SWAP1 JUMP JUMPDEST PUSH1 0x1 SLOAD DUP2 JUMP JUMPDEST PUSH1 0x4 SLOAD PUSH1 0x1 PUSH1 0x1 PUSH1 0xA0 SHL SUB AND DUP2 JUMP JUMPDEST PUSH1 0x3 SLOAD PUSH1 0x1 PUSH1 0x1 PUSH1 0xA0 SHL SUB AND CALLER EQ DUP1 PUSH2 0x7A5 JUMPI POP PUSH1 0x4 SLOAD PUSH1 0x1 PUSH1 0x1 PUSH1 0xA0 SHL SUB AND CALLER EQ JUMPDEST PUSH2 0x7E4 JUMPI PUSH1 0x40 DUP1 MLOAD PUSH3 0x461BCD PUSH1 0xE5 SHL DUP2 MSTORE PUSH1 0x20 PUSH1 0x4 DUP3 ADD MSTORE PUSH1 0xB PUSH1 0x24 DUP3 ADD MSTORE PUSH11 0x8585D5D1A1BDC9A5E9959 PUSH1 0xAA SHL PUSH1 0x44 DUP3 ADD MSTORE SWAP1 MLOAD SWAP1 DUP2 SWAP1 SUB PUSH1 0x64 ADD SWAP1 REVERT JUMPDEST PUSH2 0x2710 DUP2 LT PUSH2 0x7F2 JUMPI PUSH1 0x0 DUP1 REVERT JUMPDEST PUSH1 0x0 SSTORE JUMP JUMPDEST PUSH1 0x3 SLOAD PUSH1 0x1 PUSH1 0x1 PUSH1 0xA0 SHL SUB AND CALLER EQ DUP1 PUSH2 0x81A JUMPI POP PUSH1 0x4 SLOAD PUSH1 0x1 PUSH1 0x1 PUSH1 0xA0 SHL SUB AND CALLER EQ JUMPDEST PUSH2 0x859 JUMPI PUSH1 0x40 DUP1 MLOAD PUSH3 0x461BCD PUSH1 0xE5 SHL DUP2 MSTORE PUSH1 0x20 PUSH1 0x4 DUP3 ADD MSTORE PUSH1 0xB PUSH1 0x24 DUP3 ADD MSTORE PUSH11 0x8585D5D1A1BDC9A5E9959 PUSH1 0xAA SHL PUSH1 0x44 DUP3 ADD MSTORE SWAP1 MLOAD SWAP1 DUP2 SWAP1 SUB PUSH1 0x64 ADD SWAP1 REVERT JUMPDEST PUSH1 0x40 DUP1 MLOAD PUSH1 0x1 PUSH1 0x1 PUSH1 0xA0 SHL SUB DUP5 AND DUP2 MSTORE DUP3 ISZERO ISZERO PUSH1 0x20 DUP3 ADD MSTORE DUP2 MLOAD PUSH32 0x39A1B49B104ADD7A4AB248FD98E46543A5226DA38AE34128C7979301649900C1 SWAP3 SWAP2 DUP2 SWAP1 SUB SWAP1 SWAP2 ADD SWAP1 LOG1 PUSH1 0x1 PUSH1 0x1 PUSH1 0xA0 SHL SUB SWAP2 SWAP1 SWAP2 AND PUSH1 0x0 SWAP1 DUP2 MSTORE PUSH1 0x6 PUSH1 0x20 MSTORE PUSH1 0x40 SWAP1 KECCAK256 DUP1 SLOAD PUSH1 0xFF NOT AND SWAP2 ISZERO ISZERO SWAP2 SWAP1 SWAP2 OR SWAP1 SSTORE JUMP JUMPDEST PUSH1 0x3 SLOAD PUSH1 0x1 PUSH1 0x1 PUSH1 0xA0 SHL SUB AND CALLER EQ PUSH2 0x916 JUMPI PUSH1 0x40 DUP1 MLOAD PUSH3 0x461BCD PUSH1 0xE5 SHL DUP2 MSTORE PUSH1 0x20 PUSH1 0x4 DUP3 ADD MSTORE PUSH1 0xB PUSH1 0x24 DUP3 ADD MSTORE PUSH11 0x8585D5D1A1BDC9A5E9959 PUSH1 0xAA SHL PUSH1 0x44 DUP3 ADD MSTORE SWAP1 MLOAD SWAP1 DUP2 SWAP1 SUB PUSH1 0x64 ADD SWAP1 REVERT JUMPDEST PUSH1 0x1 PUSH1 0x1 PUSH1 0xA0 SHL SUB DUP2 AND PUSH2 0x929 JUMPI PUSH1 0x0 DUP1 REVERT JUMPDEST PUSH1 0x3 DUP1 SLOAD PUSH1 0x1 PUSH1 0x1 PUSH1 0xA0 SHL SUB NOT AND PUSH1 0x1 PUSH1 0x1 PUSH1 0xA0 SHL SUB SWAP3 SWAP1 SWAP3 AND SWAP2 SWAP1 SWAP2 OR SWAP1 SSTORE JUMP JUMPDEST PUSH1 0x0 CALLER PUSH2 0x95C DUP2 DUP9 DUP9 DUP9 DUP9 DUP9 PUSH2 0xA0C JUMP JUMPDEST SWAP8 SWAP7 POP POP POP POP POP POP POP JUMP JUMPDEST PUSH1 0x2 PUSH1 0x20 DUP2 SWAP1 MSTORE PUSH1 0x0 SWAP2 DUP3 MSTORE PUSH1 0x40 SWAP1 SWAP2 KECCAK256 DUP1 SLOAD PUSH1 0x1 DUP3 ADD SLOAD SWAP2 SWAP1 SWAP3 ADD SLOAD PUSH1 0xFF AND DUP4 JUMP JUMPDEST PUSH1 0x3 SLOAD PUSH1 0x1 PUSH1 0x1 PUSH1 0xA0 SHL SUB AND CALLER EQ PUSH2 0x9D7 JUMPI PUSH1 0x40 DUP1 MLOAD PUSH3 0x461BCD PUSH1 0xE5 SHL DUP2 MSTORE PUSH1 0x20 PUSH1 0x4 DUP3 ADD MSTORE PUSH1 0xB PUSH1 0x24 DUP3 ADD MSTORE PUSH11 0x8585D5D1A1BDC9A5E9959 PUSH1 0xAA SHL PUSH1 0x44 DUP3 ADD MSTORE SWAP1 MLOAD SWAP1 DUP2 SWAP1 SUB PUSH1 0x64 ADD SWAP1 REVERT JUMPDEST PUSH1 0x1 PUSH1 0x1 PUSH1 0xA0 SHL SUB DUP2 AND PUSH2 0x9EA JUMPI PUSH1 0x0 DUP1 REVERT JUMPDEST PUSH1 0x4 DUP1 SLOAD PUSH1 0x1 PUSH1 0x1 PUSH1 0xA0 SHL SUB NOT AND PUSH1 0x1 PUSH1 0x1 PUSH1 0xA0 SHL SUB SWAP3 SWAP1 SWAP3 AND SWAP2 SWAP1 SWAP2 OR SWAP1 SSTORE JUMP JUMPDEST PUSH1 0x1 PUSH1 0x1 PUSH1 0xA0 SHL SUB DUP1 DUP8 AND PUSH1 0x0 SWAP1 DUP2 MSTORE PUSH1 0x5 PUSH1 0x20 MSTORE PUSH1 0x40 DUP2 KECCAK256 SLOAD SWAP1 SWAP2 AND DUP1 PUSH2 0xA42 JUMPI PUSH2 0xA3A DUP9 DUP9 DUP9 DUP7 PUSH2 0xAE0 JUMP JUMPDEST SWAP2 POP POP PUSH2 0x5FA JUMP JUMPDEST PUSH1 0x40 DUP1 MLOAD PUSH4 0x22C80DF PUSH1 0xE5 SHL DUP2 MSTORE PUSH1 0x1 PUSH1 0x1 PUSH1 0xA0 SHL SUB DUP11 DUP2 AND PUSH1 0x4 DUP4 ADD MSTORE PUSH1 0x24 DUP3 ADD DUP11 SWAP1 MSTORE PUSH1 0x44 DUP3 ADD DUP10 SWAP1 MSTORE PUSH1 0x64 DUP3 ADD DUP9 SWAP1 MSTORE PUSH1 0x84 DUP3 ADD DUP8 SWAP1 MSTORE SWAP2 MLOAD SWAP2 DUP4 AND SWAP2 PUSH4 0x45901BE0 SWAP2 PUSH1 0xA4 DUP1 DUP3 ADD SWAP3 PUSH1 0x20 SWAP3 SWAP1 SWAP2 SWAP1 DUP3 SWAP1 SUB ADD DUP2 DUP7 DUP1 EXTCODESIZE ISZERO DUP1 ISZERO PUSH2 0xAA8 JUMPI PUSH1 0x0 DUP1 REVERT JUMPDEST POP GAS STATICCALL ISZERO DUP1 ISZERO PUSH2 0xABC JUMPI RETURNDATASIZE PUSH1 0x0 DUP1 RETURNDATACOPY RETURNDATASIZE PUSH1 0x0 REVERT JUMPDEST POP POP POP POP PUSH1 0x40 MLOAD RETURNDATASIZE PUSH1 0x20 DUP2 LT ISZERO PUSH2 0xAD2 JUMPI PUSH1 0x0 DUP1 REVERT JUMPDEST POP MLOAD SWAP9 SWAP8 POP POP POP POP POP POP POP POP JUMP JUMPDEST PUSH1 0x0 PUSH2 0xAEA PUSH2 0xB92 JUMP JUMPDEST POP PUSH1 0x1 PUSH1 0x1 PUSH1 0xA0 SHL SUB DUP6 AND PUSH1 0x0 SWAP1 DUP2 MSTORE PUSH1 0x2 PUSH1 0x20 DUP2 DUP2 MSTORE PUSH1 0x40 DUP1 DUP5 KECCAK256 DUP2 MLOAD PUSH1 0x60 DUP2 ADD DUP4 MSTORE DUP2 SLOAD DUP2 MSTORE PUSH1 0x1 DUP3 ADD SLOAD SWAP4 DUP2 ADD SWAP4 SWAP1 SWAP4 MSTORE SWAP1 SWAP3 ADD SLOAD PUSH1 0xFF AND ISZERO DUP1 ISZERO SWAP3 DUP3 ADD SWAP3 SWAP1 SWAP3 MSTORE SWAP2 SWAP1 DUP2 SWAP1 PUSH2 0xB45 JUMPI POP POP DUP1 MLOAD PUSH1 0x20 DUP3 ADD MLOAD PUSH2 0xB4E JUMP JUMPDEST POP POP PUSH1 0x0 SLOAD PUSH1 0x1 SLOAD JUMPDEST PUSH2 0x2710 DUP6 DUP4 MUL DIV DUP8 GT ISZERO PUSH2 0xB68 JUMPI PUSH1 0x0 SWAP4 POP POP POP POP PUSH2 0xB8A JUMP JUMPDEST PUSH2 0x2710 DUP6 DUP3 MUL DIV DUP7 GT ISZERO PUSH2 0xB82 JUMPI PUSH1 0x0 SWAP4 POP POP POP POP PUSH2 0xB8A JUMP JUMPDEST PUSH1 0x1 SWAP4 POP POP POP POP JUMPDEST SWAP5 SWAP4 POP POP POP POP JUMP JUMPDEST PUSH1 0x40 MLOAD DUP1 PUSH1 0x60 ADD PUSH1 0x40 MSTORE DUP1 PUSH1 0x0 DUP2 MSTORE PUSH1 0x20 ADD PUSH1 0x0 DUP2 MSTORE PUSH1 0x20 ADD PUSH1 0x0 ISZERO ISZERO DUP2 MSTORE POP SWAP1 JUMP INVALID LOG2 PUSH5 0x6970667358 0x22 SLT KECCAK256 0xC4 SWAP1 0xDC 0xBD DUP3 DUP16 0x27 PUSH23 0xA1A9BFF057EA88DA87F2058A4D64293CFEBD2A67763740 EQ PUSH5 0x736F6C6343 STOP MOD 0xC STOP CALLER ",
  "sha1": "84fdf7825f6d9fca7deaf3b04fe29aed4d273e61",
  "source": "// SPDX-License-Identifier: GPL-3.0\npragma solidity >=0.6.0 <0.7.0;\n\nimport {ICustomHealthCheck} from \"./interfaces/ICustomHealthCheck.sol\";\nimport {StrategyAPI} from \"./BaseStrategy.sol\";\n\nstruct Limits {\n    uint256 profitLimitRatio;\n    uint256 lossLimitRatio;\n    bool exists;\n}\n\ncontract CommonHealthCheck {\n    // Default Settings for all strategies\n    uint256 constant MAX_BPS = 10_000;\n    uint256 public profitLimitRatio;\n    uint256 public lossLimitRatio;\n    mapping(address => Limits) public strategiesLimits;\n\n    address public governance;\n    address public management;\n\n    mapping(address => address) public checks;\n    mapping(address => bool) public disabledCheck;\n    event DisableHealthCheck(address strategy, bool disabled);\n\n    modifier onlyGovernance() {\n        require(msg.sender == governance, \"!authorized\");\n        _;\n    }\n\n    modifier onlyAuthorized() {\n        require(msg.sender == governance || msg.sender == management, \"!authorized\");\n        _;\n    }\n\n    modifier onlyVault(address strategy) {\n        require(msg.sender == StrategyAPI(strategy).vault(), \"!authorized\");\n        _;\n    }\n\n    constructor() public {\n        governance = msg.sender;\n        management = msg.sender;\n        profitLimitRatio = 100;\n        lossLimitRatio = 1;\n    }\n\n    function setGovernance(address _governance) external onlyGovernance {\n        require(_governance != address(0));\n        governance = _governance;\n    }\n\n    function setManagement(address _management) external onlyGovernance {\n        require(_management != address(0));\n        management = _management;\n    }\n\n    function setProfitLimitRatio(uint256 _profitLimitRatio) external onlyAuthorized {\n        require(_profitLimitRatio < MAX_BPS);\n        profitLimitRatio = _profitLimitRatio;\n    }\n\n    function setlossLimitRatio(uint256 _lossLimitRatio) external onlyAuthorized {\n        require(_lossLimitRatio < MAX_BPS);\n        lossLimitRatio = _lossLimitRatio;\n    }\n\n    function setStrategyLimits(\n        address _strategy,\n        uint256 _profitLimitRatio,\n        uint256 _lossLimitRatio\n    ) external onlyAuthorized {\n        require(_lossLimitRatio < MAX_BPS);\n        require(_profitLimitRatio < MAX_BPS);\n        strategiesLimits[_strategy] = Limits(_profitLimitRatio, _lossLimitRatio, true);\n    }\n\n    function setCheck(address _strategy, address _check) external onlyAuthorized {\n        checks[_strategy] = _check;\n    }\n\n    function enableCheck(address _strategy) external onlyVault(_strategy) {\n        emit DisableHealthCheck(_strategy, false);\n        disabledCheck[_strategy] = false;\n    }\n\n    function setDisabledCheck(address _strategy, bool disabled) external onlyAuthorized {\n        emit DisableHealthCheck(_strategy, disabled);\n        disabledCheck[_strategy] = disabled;\n    }\n\n    function doHealthCheck(address _strategy) external view returns (bool) {\n        return !disabledCheck[_strategy];\n    }\n\n    function check(\n        uint256 profit,\n        uint256 loss,\n        uint256 debtPayment,\n        uint256 debtOutstanding,\n        uint256 totalDebt\n    ) external view returns (bool) {\n        address strategy = msg.sender;\n\n        return _runChecks(strategy, profit, loss, debtPayment, debtOutstanding, totalDebt);\n    }\n\n    function check(\n        address strategy,\n        uint256 profit,\n        uint256 loss,\n        uint256 debtPayment,\n        uint256 debtOutstanding,\n        uint256 totalDebt\n    ) external view returns (bool) {\n        require(strategy != address(0));\n\n        return _runChecks(strategy, profit, loss, debtPayment, debtOutstanding, totalDebt);\n    }\n\n    function _runChecks(\n        address strategy,\n        uint256 profit,\n        uint256 loss,\n        uint256 debtPayment,\n        uint256 debtOutstanding,\n        uint256 totalDebt\n    ) internal view returns (bool) {\n        address customCheck = checks[strategy];\n\n        if (customCheck == address(0)) {\n            return _executeDefaultCheck(strategy, profit, loss, totalDebt);\n        }\n\n        return ICustomHealthCheck(customCheck).check(strategy, profit, loss, debtPayment, debtOutstanding);\n    }\n\n    function _executeDefaultCheck(\n        address strategy,\n        uint256 _profit,\n        uint256 _loss,\n        uint256 _totalDebt\n    ) internal view returns (bool) {\n        Limits memory limits = strategiesLimits[strategy];\n        uint256 _profitLimitRatio;\n        uint256 _lossLimitRatio;\n        if (limits.exists) {\n            _profitLimitRatio = limits.profitLimitRatio;\n            _lossLimitRatio = limits.lossLimitRatio;\n        } else {\n            _profitLimitRatio = profitLimitRatio;\n            _lossLimitRatio = lossLimitRatio;\n        }\n\n        if (_profit > ((_totalDebt * _profitLimitRatio) / MAX_BPS)) {\n            return false;\n        }\n        if (_loss > ((_totalDebt * _lossLimitRatio) / MAX_BPS)) {\n            return false;\n        }\n        return true;\n    }\n}\n",
  "sourcePath": "contracts/CommonHealthCheck.sol",
  "type": "contract"
}