{
  "abi": [
    {
      "inputs": [
        {
          "internalType": "address",
          "name": "_want",
          "type": "address"
        },
        {
          "internalType": "address",
          "name": "_vault",
          "type": "address"
        }
      ],
      "stateMutability": "nonpayable",
      "type": "constructor"
    },
    {
      "inputs": [],
      "name": "delegatedAssets",
      "outputs": [
        {
          "internalType": "uint256",
          "name": "",
          "type": "uint256"
        }
      ],
      "stateMutability": "view",
      "type": "function"
    },
    {
      "inputs": [],
      "name": "initialReport",
      "outputs": [],
      "stateMutability": "nonpayable",
      "type": "function"
    },
    {
      "inputs": [],
      "name": "nextLoss",
      "outputs": [
        {
          "internalType": "uint256",
          "name": "",
          "type": "uint256"
        }
      ],
      "stateMutability": "view",
      "type": "function"
    },
    {
      "inputs": [],
      "name": "nextWidthdraw",
      "outputs": [
        {
          "internalType": "uint256",
          "name": "",
          "type": "uint256"
        }
      ],
      "stateMutability": "view",
      "type": "function"
    },
    {
      "inputs": [
        {
          "internalType": "uint256",
          "name": "_nextWithdraw",
          "type": "uint256"
        },
        {
          "internalType": "uint256",
          "name": "_nextLoss",
          "type": "uint256"
        }
      ],
      "name": "setNext",
      "outputs": [],
      "stateMutability": "nonpayable",
      "type": "function"
    },
    {
      "inputs": [],
      "name": "totalDebt",
      "outputs": [
        {
          "internalType": "uint256",
          "name": "",
          "type": "uint256"
        }
      ],
      "stateMutability": "view",
      "type": "function"
    },
    {
      "inputs": [],
      "name": "vault",
      "outputs": [
        {
          "internalType": "address",
          "name": "",
          "type": "address"
        }
      ],
      "stateMutability": "view",
      "type": "function"
    },
    {
      "inputs": [],
      "name": "want",
      "outputs": [
        {
          "internalType": "address",
          "name": "",
          "type": "address"
        }
      ],
      "stateMutability": "view",
      "type": "function"
    },
    {
      "inputs": [
        {
          "internalType": "uint256",
          "name": "",
          "type": "uint256"
        }
      ],
      "name": "withdraw",
      "outputs": [
        {
          "internalType": "uint256",
          "name": "loss",
          "type": "uint256"
        }
      ],
      "stateMutability": "nonpayable",
      "type": "function"
    }
  ],
  "bytecode": "60c06040523480156200001157600080fd5b5060405162000f5538038062000f55833981810160405260408110156200003757600080fd5b5080516020918201516001600160601b0319606083811b821660805282901b1660a052909162000081906001600160a01b03841690839060001990620001ce62000089821b17901c565b505062000474565b80158062000113575060408051636eb1769f60e11b81523060048201526001600160a01b03848116602483015291519185169163dd62ed3e91604480820192602092909190829003018186803b158015620000e357600080fd5b505afa158015620000f8573d6000803e3d6000fd5b505050506040513d60208110156200010f57600080fd5b5051155b620001505760405162461bcd60e51b815260040180806020018281038252603681526020018062000f1f6036913960400191505060405180910390fd5b604080516001600160a01b038416602482015260448082018490528251808303909101815260649091019091526020810180516001600160e01b0390811663095ea7b360e01b17909152620001a8918591620001ad16565b505050565b606062000209826040518060400160405280602081526020017f5361666545524332303a206c6f772d6c6576656c2063616c6c206661696c6564815250856001600160a01b03166200026960201b620002e6179092919060201c565b805190915015620001a8578080602001905160208110156200022a57600080fd5b5051620001a85760405162461bcd60e51b815260040180806020018281038252602a81526020018062000ef5602a913960400191505060405180910390fd5b60606200027a848460008562000282565b949350505050565b60606200028f856200043a565b620002e1576040805162461bcd60e51b815260206004820152601d60248201527f416464726573733a2063616c6c20746f206e6f6e2d636f6e7472616374000000604482015290519081900360640190fd5b60006060866001600160a01b031685876040518082805190602001908083835b60208310620003225780518252601f19909201916020918201910162000301565b6001836020036101000a03801982511681845116808217855250505050505090500191505060006040518083038185875af1925050503d806000811462000386576040519150601f19603f3d011682016040523d82523d6000602084013e6200038b565b606091505b50915091508115620003a15791506200027a9050565b805115620003b25780518082602001fd5b8360405162461bcd60e51b81526004018080602001828103825283818151815260200191508051906020019080838360005b83811015620003fe578181015183820152602001620003e4565b50505050905090810190601f1680156200042c5780820380516001836020036101000a031916815260200191505b509250505060405180910390fd5b6000813f7fc5d2460186f7233c927e7db2dcc703c0e500b653ca82273b7bfad8045d85a4708181148015906200027a575050151592915050565b60805160601c60a05160601c610a3e620004b7600039806101a65280610353528061040d5280610499525080610142528061032452806108095250610a3e6000f3fe608060405234801561001057600080fd5b50600436106100935760003560e01c8063d555c3f911610066578063d555c3f9146100fb578063d941d95a14610120578063e29ea55614610128578063fbfa77cf14610130578063fc7b9c181461013857610093565b80631f1fcd51146100985780632e1a7d4d146100bc5780635bbf0428146100eb5780638e6350e2146100f3575b600080fd5b6100a0610140565b604080516001600160a01b039092168252519081900360200190f35b6100d9600480360360208110156100d257600080fd5b5035610164565b60408051918252519081900360200190f35b6100d9610179565b6100d961017f565b61011e6004803603604081101561011157600080fd5b5080359060200135610184565b005b6100d961018f565b61011e610195565b6100a06101a4565b6100d96101c8565b7f000000000000000000000000000000000000000000000000000000000000000081565b60025460015461017490826102fd565b919050565b60025481565b600081565b600191909155600255565b60015481565b6101a260008060006103e9565b565b7f000000000000000000000000000000000000000000000000000000000000000081565b60005481565b801580610254575060408051636eb1769f60e11b81523060048201526001600160a01b03848116602483015291519185169163dd62ed3e91604480820192602092909190829003018186803b15801561022657600080fd5b505afa15801561023a573d6000803e3d6000fd5b505050506040513d602081101561025057600080fd5b5051155b61028f5760405162461bcd60e51b81526004018080602001828103825260368152602001806109d36036913960400191505060405180910390fd5b604080516001600160a01b038416602482015260448082018490528251808303909101815260649091019091526020810180516001600160e01b031663095ea7b360e01b1790526102e1908490610560565b505050565b60606102f58484600085610611565b949350505050565b61031c81610316846000546107bc90919063ffffffff16565b906107bc565b6000819055507f00000000000000000000000000000000000000000000000000000000000000006001600160a01b031663a9059cbb7f0000000000000000000000000000000000000000000000000000000000000000846040518363ffffffff1660e01b815260040180836001600160a01b0316815260200182815260200192505050602060405180830381600087803b1580156103b957600080fd5b505af11580156103cd573d6000803e3d6000fd5b505050506040513d60208110156103e357600080fd5b50505050565b600080546103f790846107bc565b90506000610403610805565b90506000610495847f00000000000000000000000000000000000000000000000000000000000000006001600160a01b031663bf3759b56040518163ffffffff1660e01b815260040160206040518083038186803b15801561046457600080fd5b505afa158015610478573d6000803e3d6000fd5b505050506040513d602081101561048e57600080fd5b50516108a5565b90507f00000000000000000000000000000000000000000000000000000000000000006001600160a01b031663a1d9bafc8787846040518463ffffffff1660e01b8152600401808481526020018381526020018281526020019350505050602060405180830381600087803b15801561050d57600080fd5b505af1158015610521573d6000803e3d6000fd5b505050506040513d602081101561053757600080fd5b5060009050610544610805565b90506105548361031686846108bb565b60005550505050505050565b60606105b5826040518060400160405280602081526020017f5361666545524332303a206c6f772d6c6576656c2063616c6c206661696c6564815250856001600160a01b03166102e69092919063ffffffff16565b8051909150156102e1578080602001905160208110156105d457600080fd5b50516102e15760405162461bcd60e51b815260040180806020018281038252602a8152602001806109a9602a913960400191505060405180910390fd5b606061061c85610915565b61066d576040805162461bcd60e51b815260206004820152601d60248201527f416464726573733a2063616c6c20746f206e6f6e2d636f6e7472616374000000604482015290519081900360640190fd5b60006060866001600160a01b031685876040518082805190602001908083835b602083106106ac5780518252601f19909201916020918201910161068d565b6001836020036101000a03801982511681845116808217855250505050505090500191505060006040518083038185875af1925050503d806000811461070e576040519150601f19603f3d011682016040523d82523d6000602084013e610713565b606091505b509150915081156107275791506102f59050565b8051156107375780518082602001fd5b8360405162461bcd60e51b81526004018080602001828103825283818151815260200191508051906020019080838360005b83811015610781578181015183820152602001610769565b50505050905090810190601f1680156107ae5780820380516001836020036101000a031916815260200191505b509250505060405180910390fd5b60006107fe83836040518060400160405280601e81526020017f536166654d6174683a207375627472616374696f6e206f766572666c6f77000081525061094e565b9392505050565b60007f00000000000000000000000000000000000000000000000000000000000000006001600160a01b03166370a08231306040518263ffffffff1660e01b815260040180826001600160a01b0316815260200191505060206040518083038186803b15801561087457600080fd5b505afa158015610888573d6000803e3d6000fd5b505050506040513d602081101561089e57600080fd5b5051905090565b60008183106108b457816107fe565b5090919050565b6000828201838110156107fe576040805162461bcd60e51b815260206004820152601b60248201527f536166654d6174683a206164646974696f6e206f766572666c6f770000000000604482015290519081900360640190fd5b6000813f7fc5d2460186f7233c927e7db2dcc703c0e500b653ca82273b7bfad8045d85a4708181148015906102f5575050151592915050565b600081848411156109a05760405162461bcd60e51b8152602060048201818152835160248401528351909283926044909101919085019080838360008315610781578181015183820152602001610769565b50505090039056fe5361666545524332303a204552433230206f7065726174696f6e20646964206e6f7420737563636565645361666545524332303a20617070726f76652066726f6d206e6f6e2d7a65726f20746f206e6f6e2d7a65726f20616c6c6f77616e6365a2646970667358221220c1a9761a787523a58f5e9966b9b7397bba3b25657a523e16f10647c8f05f680b64736f6c634300060c00335361666545524332303a204552433230206f7065726174696f6e20646964206e6f7420737563636565645361666545524332303a20617070726f76652066726f6d206e6f6e2d7a65726f20746f206e6f6e2d7a65726f20616c6c6f77616e6365",
  "bytecodeSha1": "da39a3ee5e6b4b0d3255bfef95601890afd80709",
  "compiler": {
    "evm_version": "istanbul",
    "optimizer": {
      "enabled": true,
      "runs": 200
    },
    "version": "0.6.12+commit.27d51765"
  },
  "contractName": "SimpleStrategy",
  "language": "Solidity",
  "natspec": {
    "kind": "dev",
    "methods": {},
    "version": 1
  },
  "opcodes": "PUSH1 0x80 PUSH1 0x40 MSTORE CALLVALUE DUP1 ISZERO PUSH2 0x10 JUMPI PUSH1 0x0 DUP1 REVERT JUMPDEST POP PUSH1 0x4 CALLDATASIZE LT PUSH2 0x93 JUMPI PUSH1 0x0 CALLDATALOAD PUSH1 0xE0 SHR DUP1 PUSH4 0xD555C3F9 GT PUSH2 0x66 JUMPI DUP1 PUSH4 0xD555C3F9 EQ PUSH2 0xFB JUMPI DUP1 PUSH4 0xD941D95A EQ PUSH2 0x120 JUMPI DUP1 PUSH4 0xE29EA556 EQ PUSH2 0x128 JUMPI DUP1 PUSH4 0xFBFA77CF EQ PUSH2 0x130 JUMPI DUP1 PUSH4 0xFC7B9C18 EQ PUSH2 0x138 JUMPI PUSH2 0x93 JUMP JUMPDEST DUP1 PUSH4 0x1F1FCD51 EQ PUSH2 0x98 JUMPI DUP1 PUSH4 0x2E1A7D4D EQ PUSH2 0xBC JUMPI DUP1 PUSH4 0x5BBF0428 EQ PUSH2 0xEB JUMPI DUP1 PUSH4 0x8E6350E2 EQ PUSH2 0xF3 JUMPI JUMPDEST PUSH1 0x0 DUP1 REVERT JUMPDEST PUSH2 0xA0 PUSH2 0x140 JUMP JUMPDEST PUSH1 0x40 DUP1 MLOAD PUSH1 0x1 PUSH1 0x1 PUSH1 0xA0 SHL SUB SWAP1 SWAP3 AND DUP3 MSTORE MLOAD SWAP1 DUP2 SWAP1 SUB PUSH1 0x20 ADD SWAP1 RETURN JUMPDEST PUSH2 0xD9 PUSH1 0x4 DUP1 CALLDATASIZE SUB PUSH1 0x20 DUP2 LT ISZERO PUSH2 0xD2 JUMPI PUSH1 0x0 DUP1 REVERT JUMPDEST POP CALLDATALOAD PUSH2 0x164 JUMP JUMPDEST PUSH1 0x40 DUP1 MLOAD SWAP2 DUP3 MSTORE MLOAD SWAP1 DUP2 SWAP1 SUB PUSH1 0x20 ADD SWAP1 RETURN JUMPDEST PUSH2 0xD9 PUSH2 0x179 JUMP JUMPDEST PUSH2 0xD9 PUSH2 0x17F JUMP JUMPDEST PUSH2 0x11E PUSH1 0x4 DUP1 CALLDATASIZE SUB PUSH1 0x40 DUP2 LT ISZERO PUSH2 0x111 JUMPI PUSH1 0x0 DUP1 REVERT JUMPDEST POP DUP1 CALLDATALOAD SWAP1 PUSH1 0x20 ADD CALLDATALOAD PUSH2 0x184 JUMP JUMPDEST STOP JUMPDEST PUSH2 0xD9 PUSH2 0x18F JUMP JUMPDEST PUSH2 0x11E PUSH2 0x195 JUMP JUMPDEST PUSH2 0xA0 PUSH2 0x1A4 JUMP JUMPDEST PUSH2 0xD9 PUSH2 0x1C8 JUMP JUMPDEST PUSH32 0x0 DUP2 JUMP JUMPDEST PUSH1 0x2 SLOAD PUSH1 0x1 SLOAD PUSH2 0x174 SWAP1 DUP3 PUSH2 0x2FD JUMP JUMPDEST SWAP2 SWAP1 POP JUMP JUMPDEST PUSH1 0x2 SLOAD DUP2 JUMP JUMPDEST PUSH1 0x0 DUP2 JUMP JUMPDEST PUSH1 0x1 SWAP2 SWAP1 SWAP2 SSTORE PUSH1 0x2 SSTORE JUMP JUMPDEST PUSH1 0x1 SLOAD DUP2 JUMP JUMPDEST PUSH2 0x1A2 PUSH1 0x0 DUP1 PUSH1 0x0 PUSH2 0x3E9 JUMP JUMPDEST JUMP JUMPDEST PUSH32 0x0 DUP2 JUMP JUMPDEST PUSH1 0x0 SLOAD DUP2 JUMP JUMPDEST DUP1 ISZERO DUP1 PUSH2 0x254 JUMPI POP PUSH1 0x40 DUP1 MLOAD PUSH4 0x6EB1769F PUSH1 0xE1 SHL DUP2 MSTORE ADDRESS PUSH1 0x4 DUP3 ADD MSTORE PUSH1 0x1 PUSH1 0x1 PUSH1 0xA0 SHL SUB DUP5 DUP2 AND PUSH1 0x24 DUP4 ADD MSTORE SWAP2 MLOAD SWAP2 DUP6 AND SWAP2 PUSH4 0xDD62ED3E SWAP2 PUSH1 0x44 DUP1 DUP3 ADD SWAP3 PUSH1 0x20 SWAP3 SWAP1 SWAP2 SWAP1 DUP3 SWAP1 SUB ADD DUP2 DUP7 DUP1 EXTCODESIZE ISZERO DUP1 ISZERO PUSH2 0x226 JUMPI PUSH1 0x0 DUP1 REVERT JUMPDEST POP GAS STATICCALL ISZERO DUP1 ISZERO PUSH2 0x23A JUMPI RETURNDATASIZE PUSH1 0x0 DUP1 RETURNDATACOPY RETURNDATASIZE PUSH1 0x0 REVERT JUMPDEST POP POP POP POP PUSH1 0x40 MLOAD RETURNDATASIZE PUSH1 0x20 DUP2 LT ISZERO PUSH2 0x250 JUMPI PUSH1 0x0 DUP1 REVERT JUMPDEST POP MLOAD ISZERO JUMPDEST PUSH2 0x28F JUMPI PUSH1 0x40 MLOAD PUSH3 0x461BCD PUSH1 0xE5 SHL DUP2 MSTORE PUSH1 0x4 ADD DUP1 DUP1 PUSH1 0x20 ADD DUP3 DUP2 SUB DUP3 MSTORE PUSH1 0x36 DUP2 MSTORE PUSH1 0x20 ADD DUP1 PUSH2 0x9D3 PUSH1 0x36 SWAP2 CODECOPY PUSH1 0x40 ADD SWAP2 POP POP PUSH1 0x40 MLOAD DUP1 SWAP2 SUB SWAP1 REVERT JUMPDEST PUSH1 0x40 DUP1 MLOAD PUSH1 0x1 PUSH1 0x1 PUSH1 0xA0 SHL SUB DUP5 AND PUSH1 0x24 DUP3 ADD MSTORE PUSH1 0x44 DUP1 DUP3 ADD DUP5 SWAP1 MSTORE DUP3 MLOAD DUP1 DUP4 SUB SWAP1 SWAP2 ADD DUP2 MSTORE PUSH1 0x64 SWAP1 SWAP2 ADD SWAP1 SWAP2 MSTORE PUSH1 0x20 DUP2 ADD DUP1 MLOAD PUSH1 0x1 PUSH1 0x1 PUSH1 0xE0 SHL SUB AND PUSH4 0x95EA7B3 PUSH1 0xE0 SHL OR SWAP1 MSTORE PUSH2 0x2E1 SWAP1 DUP5 SWAP1 PUSH2 0x560 JUMP JUMPDEST POP POP POP JUMP JUMPDEST PUSH1 0x60 PUSH2 0x2F5 DUP5 DUP5 PUSH1 0x0 DUP6 PUSH2 0x611 JUMP JUMPDEST SWAP5 SWAP4 POP POP POP POP JUMP JUMPDEST PUSH2 0x31C DUP2 PUSH2 0x316 DUP5 PUSH1 0x0 SLOAD PUSH2 0x7BC SWAP1 SWAP2 SWAP1 PUSH4 0xFFFFFFFF AND JUMP JUMPDEST SWAP1 PUSH2 0x7BC JUMP JUMPDEST PUSH1 0x0 DUP2 SWAP1 SSTORE POP PUSH32 0x0 PUSH1 0x1 PUSH1 0x1 PUSH1 0xA0 SHL SUB AND PUSH4 0xA9059CBB PUSH32 0x0 DUP5 PUSH1 0x40 MLOAD DUP4 PUSH4 0xFFFFFFFF AND PUSH1 0xE0 SHL DUP2 MSTORE PUSH1 0x4 ADD DUP1 DUP4 PUSH1 0x1 PUSH1 0x1 PUSH1 0xA0 SHL SUB AND DUP2 MSTORE PUSH1 0x20 ADD DUP3 DUP2 MSTORE PUSH1 0x20 ADD SWAP3 POP POP POP PUSH1 0x20 PUSH1 0x40 MLOAD DUP1 DUP4 SUB DUP2 PUSH1 0x0 DUP8 DUP1 EXTCODESIZE ISZERO DUP1 ISZERO PUSH2 0x3B9 JUMPI PUSH1 0x0 DUP1 REVERT JUMPDEST POP GAS CALL ISZERO DUP1 ISZERO PUSH2 0x3CD JUMPI RETURNDATASIZE PUSH1 0x0 DUP1 RETURNDATACOPY RETURNDATASIZE PUSH1 0x0 REVERT JUMPDEST POP POP POP POP PUSH1 0x40 MLOAD RETURNDATASIZE PUSH1 0x20 DUP2 LT ISZERO PUSH2 0x3E3 JUMPI PUSH1 0x0 DUP1 REVERT JUMPDEST POP POP POP POP JUMP JUMPDEST PUSH1 0x0 DUP1 SLOAD PUSH2 0x3F7 SWAP1 DUP5 PUSH2 0x7BC JUMP JUMPDEST SWAP1 POP PUSH1 0x0 PUSH2 0x403 PUSH2 0x805 JUMP JUMPDEST SWAP1 POP PUSH1 0x0 PUSH2 0x495 DUP5 PUSH32 0x0 PUSH1 0x1 PUSH1 0x1 PUSH1 0xA0 SHL SUB AND PUSH4 0xBF3759B5 PUSH1 0x40 MLOAD DUP2 PUSH4 0xFFFFFFFF AND PUSH1 0xE0 SHL DUP2 MSTORE PUSH1 0x4 ADD PUSH1 0x20 PUSH1 0x40 MLOAD DUP1 DUP4 SUB DUP2 DUP7 DUP1 EXTCODESIZE ISZERO DUP1 ISZERO PUSH2 0x464 JUMPI PUSH1 0x0 DUP1 REVERT JUMPDEST POP GAS STATICCALL ISZERO DUP1 ISZERO PUSH2 0x478 JUMPI RETURNDATASIZE PUSH1 0x0 DUP1 RETURNDATACOPY RETURNDATASIZE PUSH1 0x0 REVERT JUMPDEST POP POP POP POP PUSH1 0x40 MLOAD RETURNDATASIZE PUSH1 0x20 DUP2 LT ISZERO PUSH2 0x48E JUMPI PUSH1 0x0 DUP1 REVERT JUMPDEST POP MLOAD PUSH2 0x8A5 JUMP JUMPDEST SWAP1 POP PUSH32 0x0 PUSH1 0x1 PUSH1 0x1 PUSH1 0xA0 SHL SUB AND PUSH4 0xA1D9BAFC DUP8 DUP8 DUP5 PUSH1 0x40 MLOAD DUP5 PUSH4 0xFFFFFFFF AND PUSH1 0xE0 SHL DUP2 MSTORE PUSH1 0x4 ADD DUP1 DUP5 DUP2 MSTORE PUSH1 0x20 ADD DUP4 DUP2 MSTORE PUSH1 0x20 ADD DUP3 DUP2 MSTORE PUSH1 0x20 ADD SWAP4 POP POP POP POP PUSH1 0x20 PUSH1 0x40 MLOAD DUP1 DUP4 SUB DUP2 PUSH1 0x0 DUP8 DUP1 EXTCODESIZE ISZERO DUP1 ISZERO PUSH2 0x50D JUMPI PUSH1 0x0 DUP1 REVERT JUMPDEST POP GAS CALL ISZERO DUP1 ISZERO PUSH2 0x521 JUMPI RETURNDATASIZE PUSH1 0x0 DUP1 RETURNDATACOPY RETURNDATASIZE PUSH1 0x0 REVERT JUMPDEST POP POP POP POP PUSH1 0x40 MLOAD RETURNDATASIZE PUSH1 0x20 DUP2 LT ISZERO PUSH2 0x537 JUMPI PUSH1 0x0 DUP1 REVERT JUMPDEST POP PUSH1 0x0 SWAP1 POP PUSH2 0x544 PUSH2 0x805 JUMP JUMPDEST SWAP1 POP PUSH2 0x554 DUP4 PUSH2 0x316 DUP7 DUP5 PUSH2 0x8BB JUMP JUMPDEST PUSH1 0x0 SSTORE POP POP POP POP POP POP POP JUMP JUMPDEST PUSH1 0x60 PUSH2 0x5B5 DUP3 PUSH1 0x40 MLOAD DUP1 PUSH1 0x40 ADD PUSH1 0x40 MSTORE DUP1 PUSH1 0x20 DUP2 MSTORE PUSH1 0x20 ADD PUSH32 0x5361666545524332303A206C6F772D6C6576656C2063616C6C206661696C6564 DUP2 MSTORE POP DUP6 PUSH1 0x1 PUSH1 0x1 PUSH1 0xA0 SHL SUB AND PUSH2 0x2E6 SWAP1 SWAP3 SWAP2 SWAP1 PUSH4 0xFFFFFFFF AND JUMP JUMPDEST DUP1 MLOAD SWAP1 SWAP2 POP ISZERO PUSH2 0x2E1 JUMPI DUP1 DUP1 PUSH1 0x20 ADD SWAP1 MLOAD PUSH1 0x20 DUP2 LT ISZERO PUSH2 0x5D4 JUMPI PUSH1 0x0 DUP1 REVERT JUMPDEST POP MLOAD PUSH2 0x2E1 JUMPI PUSH1 0x40 MLOAD PUSH3 0x461BCD PUSH1 0xE5 SHL DUP2 MSTORE PUSH1 0x4 ADD DUP1 DUP1 PUSH1 0x20 ADD DUP3 DUP2 SUB DUP3 MSTORE PUSH1 0x2A DUP2 MSTORE PUSH1 0x20 ADD DUP1 PUSH2 0x9A9 PUSH1 0x2A SWAP2 CODECOPY PUSH1 0x40 ADD SWAP2 POP POP PUSH1 0x40 MLOAD DUP1 SWAP2 SUB SWAP1 REVERT JUMPDEST PUSH1 0x60 PUSH2 0x61C DUP6 PUSH2 0x915 JUMP JUMPDEST PUSH2 0x66D JUMPI PUSH1 0x40 DUP1 MLOAD PUSH3 0x461BCD PUSH1 0xE5 SHL DUP2 MSTORE PUSH1 0x20 PUSH1 0x4 DUP3 ADD MSTORE PUSH1 0x1D PUSH1 0x24 DUP3 ADD MSTORE PUSH32 0x416464726573733A2063616C6C20746F206E6F6E2D636F6E7472616374000000 PUSH1 0x44 DUP3 ADD MSTORE SWAP1 MLOAD SWAP1 DUP2 SWAP1 SUB PUSH1 0x64 ADD SWAP1 REVERT JUMPDEST PUSH1 0x0 PUSH1 0x60 DUP7 PUSH1 0x1 PUSH1 0x1 PUSH1 0xA0 SHL SUB AND DUP6 DUP8 PUSH1 0x40 MLOAD DUP1 DUP3 DUP1 MLOAD SWAP1 PUSH1 0x20 ADD SWAP1 DUP1 DUP4 DUP4 JUMPDEST PUSH1 0x20 DUP4 LT PUSH2 0x6AC JUMPI DUP1 MLOAD DUP3 MSTORE PUSH1 0x1F NOT SWAP1 SWAP3 ADD SWAP2 PUSH1 0x20 SWAP2 DUP3 ADD SWAP2 ADD PUSH2 0x68D JUMP JUMPDEST PUSH1 0x1 DUP4 PUSH1 0x20 SUB PUSH2 0x100 EXP SUB DUP1 NOT DUP3 MLOAD AND DUP2 DUP5 MLOAD AND DUP1 DUP3 OR DUP6 MSTORE POP POP POP POP POP POP SWAP1 POP ADD SWAP2 POP POP PUSH1 0x0 PUSH1 0x40 MLOAD DUP1 DUP4 SUB DUP2 DUP6 DUP8 GAS CALL SWAP3 POP POP POP RETURNDATASIZE DUP1 PUSH1 0x0 DUP2 EQ PUSH2 0x70E JUMPI PUSH1 0x40 MLOAD SWAP2 POP PUSH1 0x1F NOT PUSH1 0x3F RETURNDATASIZE ADD AND DUP3 ADD PUSH1 0x40 MSTORE RETURNDATASIZE DUP3 MSTORE RETURNDATASIZE PUSH1 0x0 PUSH1 0x20 DUP5 ADD RETURNDATACOPY PUSH2 0x713 JUMP JUMPDEST PUSH1 0x60 SWAP2 POP JUMPDEST POP SWAP2 POP SWAP2 POP DUP2 ISZERO PUSH2 0x727 JUMPI SWAP2 POP PUSH2 0x2F5 SWAP1 POP JUMP JUMPDEST DUP1 MLOAD ISZERO PUSH2 0x737 JUMPI DUP1 MLOAD DUP1 DUP3 PUSH1 0x20 ADD REVERT JUMPDEST DUP4 PUSH1 0x40 MLOAD PUSH3 0x461BCD PUSH1 0xE5 SHL DUP2 MSTORE PUSH1 0x4 ADD DUP1 DUP1 PUSH1 0x20 ADD DUP3 DUP2 SUB DUP3 MSTORE DUP4 DUP2 DUP2 MLOAD DUP2 MSTORE PUSH1 0x20 ADD SWAP2 POP DUP1 MLOAD SWAP1 PUSH1 0x20 ADD SWAP1 DUP1 DUP4 DUP4 PUSH1 0x0 JUMPDEST DUP4 DUP2 LT ISZERO PUSH2 0x781 JUMPI DUP2 DUP2 ADD MLOAD DUP4 DUP3 ADD MSTORE PUSH1 0x20 ADD PUSH2 0x769 JUMP JUMPDEST POP POP POP POP SWAP1 POP SWAP1 DUP2 ADD SWAP1 PUSH1 0x1F AND DUP1 ISZERO PUSH2 0x7AE JUMPI DUP1 DUP3 SUB DUP1 MLOAD PUSH1 0x1 DUP4 PUSH1 0x20 SUB PUSH2 0x100 EXP SUB NOT AND DUP2 MSTORE PUSH1 0x20 ADD SWAP2 POP JUMPDEST POP SWAP3 POP POP POP PUSH1 0x40 MLOAD DUP1 SWAP2 SUB SWAP1 REVERT JUMPDEST PUSH1 0x0 PUSH2 0x7FE DUP4 DUP4 PUSH1 0x40 MLOAD DUP1 PUSH1 0x40 ADD PUSH1 0x40 MSTORE DUP1 PUSH1 0x1E DUP2 MSTORE PUSH1 0x20 ADD PUSH32 0x536166654D6174683A207375627472616374696F6E206F766572666C6F770000 DUP2 MSTORE POP PUSH2 0x94E JUMP JUMPDEST SWAP4 SWAP3 POP POP POP JUMP JUMPDEST PUSH1 0x0 PUSH32 0x0 PUSH1 0x1 PUSH1 0x1 PUSH1 0xA0 SHL SUB AND PUSH4 0x70A08231 ADDRESS PUSH1 0x40 MLOAD DUP3 PUSH4 0xFFFFFFFF AND PUSH1 0xE0 SHL DUP2 MSTORE PUSH1 0x4 ADD DUP1 DUP3 PUSH1 0x1 PUSH1 0x1 PUSH1 0xA0 SHL SUB AND DUP2 MSTORE PUSH1 0x20 ADD SWAP2 POP POP PUSH1 0x20 PUSH1 0x40 MLOAD DUP1 DUP4 SUB DUP2 DUP7 DUP1 EXTCODESIZE ISZERO DUP1 ISZERO PUSH2 0x874 JUMPI PUSH1 0x0 DUP1 REVERT JUMPDEST POP GAS STATICCALL ISZERO DUP1 ISZERO PUSH2 0x888 JUMPI RETURNDATASIZE PUSH1 0x0 DUP1 RETURNDATACOPY RETURNDATASIZE PUSH1 0x0 REVERT JUMPDEST POP POP POP POP PUSH1 0x40 MLOAD RETURNDATASIZE PUSH1 0x20 DUP2 LT ISZERO PUSH2 0x89E JUMPI PUSH1 0x0 DUP1 REVERT JUMPDEST POP MLOAD SWAP1 POP SWAP1 JUMP JUMPDEST PUSH1 0x0 DUP2 DUP4 LT PUSH2 0x8B4 JUMPI DUP2 PUSH2 0x7FE JUMP JUMPDEST POP SWAP1 SWAP2 SWAP1 POP JUMP JUMPDEST PUSH1 0x0 DUP3 DUP3 ADD DUP4 DUP2 LT ISZERO PUSH2 0x7FE JUMPI PUSH1 0x40 DUP1 MLOAD PUSH3 0x461BCD PUSH1 0xE5 SHL DUP2 MSTORE PUSH1 0x20 PUSH1 0x4 DUP3 ADD MSTORE PUSH1 0x1B PUSH1 0x24 DUP3 ADD MSTORE PUSH32 0x536166654D6174683A206164646974696F6E206F766572666C6F770000000000 PUSH1 0x44 DUP3 ADD MSTORE SWAP1 MLOAD SWAP1 DUP2 SWAP1 SUB PUSH1 0x64 ADD SWAP1 REVERT JUMPDEST PUSH1 0x0 DUP2 EXTCODEHASH PUSH32 0xC5D2460186F7233C927E7DB2DCC703C0E500B653CA82273B7BFAD8045D85A470 DUP2 DUP2 EQ DUP1 ISZERO SWAP1 PUSH2 0x2F5 JUMPI POP POP ISZERO ISZERO SWAP3 SWAP2 POP POP JUMP JUMPDEST PUSH1 0x0 DUP2 DUP5 DUP5 GT ISZERO PUSH2 0x9A0 JUMPI PUSH1 0x40 MLOAD PUSH3 0x461BCD PUSH1 0xE5 SHL DUP2 MSTORE PUSH1 0x20 PUSH1 0x4 DUP3 ADD DUP2 DUP2 MSTORE DUP4 MLOAD PUSH1 0x24 DUP5 ADD MSTORE DUP4 MLOAD SWAP1 SWAP3 DUP4 SWAP3 PUSH1 0x44 SWAP1 SWAP2 ADD SWAP2 SWAP1 DUP6 ADD SWAP1 DUP1 DUP4 DUP4 PUSH1 0x0 DUP4 ISZERO PUSH2 0x781 JUMPI DUP2 DUP2 ADD MLOAD DUP4 DUP3 ADD MSTORE PUSH1 0x20 ADD PUSH2 0x769 JUMP JUMPDEST POP POP POP SWAP1 SUB SWAP1 JUMP INVALID MSTORE8 PUSH2 0x6665 GASLIMIT MSTORE NUMBER ORIGIN ADDRESS GASPRICE KECCAK256 GASLIMIT MSTORE NUMBER ORIGIN ADDRESS KECCAK256 PUSH16 0x7065726174696F6E20646964206E6F74 KECCAK256 PUSH20 0x7563636565645361666545524332303A20617070 PUSH19 0x6F76652066726F6D206E6F6E2D7A65726F2074 PUSH16 0x206E6F6E2D7A65726F20616C6C6F7761 PUSH15 0x6365A2646970667358221220C1A976 BYTE PUSH25 0x7523A58F5E9966B9B7397BBA3B25657A523E16F10647C8F05F PUSH9 0xB64736F6C63430006 0xC STOP CALLER ",
  "sha1": "0260698e778752000b44af998cf5bbc71ceafb4f",
  "source": "// SPDX-License-Identifier: GPL-3.0-only\npragma solidity ^0.6.12;\n\nimport {Math} from \"@openzeppelin/contracts/math/Math.sol\";\nimport {SafeMath} from \"@openzeppelin/contracts/math/SafeMath.sol\";\nimport {IERC20} from \"@openzeppelin/contracts/token/ERC20/IERC20.sol\";\nimport {SafeERC20} from \"@openzeppelin/contracts/token/ERC20/SafeERC20.sol\";\nimport {VaultAPI} from \"../BaseStrategy.sol\";\n\ninterface IStrategy {\n    function want() external view returns (address);\n\n    function vault() external view returns (address);\n\n    function delegatedAssets() external view returns (uint256);\n\n    function withdraw(uint256 _amount) external returns (uint256 loss);\n}\n\ncontract SimpleStrategy is IStrategy {\n    using SafeMath for uint256;\n    using SafeERC20 for IERC20;\n\n    address public immutable override want;\n    address public immutable override vault;\n    uint256 public constant override delegatedAssets = 0;\n    uint256 public totalDebt;\n    uint256 public nextWidthdraw;\n    uint256 public nextLoss;\n\n    constructor(address _want, address _vault) public {\n        want = _want;\n        vault = _vault;\n        IERC20(_want).safeApprove(_vault, type(uint256).max);\n    }\n\n    function setNext(uint256 _nextWithdraw, uint256 _nextLoss) external {\n        nextWidthdraw = _nextWithdraw;\n        nextLoss = _nextLoss;\n    }\n\n    function withdraw(uint256) external override returns (uint256 loss) {\n        loss = nextLoss;\n        _withdraw(nextWidthdraw, loss);\n    }\n\n    function initialReport() external {\n        _report(0, 0, 0);\n    }\n\n    function _withdraw(uint256 _withdrawAmount, uint256 _loss) internal {\n        totalDebt = totalDebt.sub(_withdrawAmount).sub(_loss);\n        IERC20(want).transfer(vault, _withdrawAmount);\n    }\n\n    function _reserves() internal view returns (uint256) {\n        return IERC20(want).balanceOf(address(this));\n    }\n\n    function _report(\n        uint256 _gain,\n        uint256 _loss,\n        uint256 _debtPayment\n    ) internal {\n        uint256 newTotalDebt = totalDebt.sub(_loss);\n        uint256 balanceBefore = _reserves();\n        uint256 debtPayment = Math.min(_debtPayment, VaultAPI(vault).debtOutstanding());\n        VaultAPI(vault).report(_gain, _loss, debtPayment);\n        uint256 balanceAfter = _reserves();\n        totalDebt = newTotalDebt.add(balanceAfter).sub(balanceBefore);\n    }\n}\n",
  "sourcePath": "contracts/test/SimpleStrategy.sol",
  "type": "contract"
}