{
  "abi": [
    {
      "inputs": [
        {
          "internalType": "address",
          "name": "_vault",
          "type": "address"
        }
      ],
      "stateMutability": "nonpayable",
      "type": "constructor"
    },
    {
      "anonymous": false,
      "inputs": [],
      "name": "EmergencyExitEnabled",
      "type": "event"
    },
    {
      "anonymous": false,
      "inputs": [
        {
          "indexed": false,
          "internalType": "uint256",
          "name": "profit",
          "type": "uint256"
        },
        {
          "indexed": false,
          "internalType": "uint256",
          "name": "loss",
          "type": "uint256"
        },
        {
          "indexed": false,
          "internalType": "uint256",
          "name": "debtPayment",
          "type": "uint256"
        },
        {
          "indexed": false,
          "internalType": "uint256",
          "name": "debtOutstanding",
          "type": "uint256"
        }
      ],
      "name": "Harvested",
      "type": "event"
    },
    {
      "anonymous": false,
      "inputs": [
        {
          "indexed": false,
          "internalType": "uint256",
          "name": "debtThreshold",
          "type": "uint256"
        }
      ],
      "name": "UpdatedDebtThreshold",
      "type": "event"
    },
    {
      "anonymous": false,
      "inputs": [
        {
          "indexed": false,
          "internalType": "address",
          "name": "newKeeper",
          "type": "address"
        }
      ],
      "name": "UpdatedKeeper",
      "type": "event"
    },
    {
      "anonymous": false,
      "inputs": [
        {
          "indexed": false,
          "internalType": "uint256",
          "name": "delay",
          "type": "uint256"
        }
      ],
      "name": "UpdatedMaxReportDelay",
      "type": "event"
    },
    {
      "anonymous": false,
      "inputs": [
        {
          "indexed": false,
          "internalType": "string",
          "name": "metadataURI",
          "type": "string"
        }
      ],
      "name": "UpdatedMetadataURI",
      "type": "event"
    },
    {
      "anonymous": false,
      "inputs": [
        {
          "indexed": false,
          "internalType": "uint256",
          "name": "delay",
          "type": "uint256"
        }
      ],
      "name": "UpdatedMinReportDelay",
      "type": "event"
    },
    {
      "anonymous": false,
      "inputs": [
        {
          "indexed": false,
          "internalType": "uint256",
          "name": "profitFactor",
          "type": "uint256"
        }
      ],
      "name": "UpdatedProfitFactor",
      "type": "event"
    },
    {
      "anonymous": false,
      "inputs": [
        {
          "indexed": false,
          "internalType": "address",
          "name": "rewards",
          "type": "address"
        }
      ],
      "name": "UpdatedRewards",
      "type": "event"
    },
    {
      "anonymous": false,
      "inputs": [
        {
          "indexed": false,
          "internalType": "address",
          "name": "newStrategist",
          "type": "address"
        }
      ],
      "name": "UpdatedStrategist",
      "type": "event"
    },
    {
      "inputs": [],
      "name": "DENOMINATOR",
      "outputs": [
        {
          "internalType": "uint256",
          "name": "",
          "type": "uint256"
        }
      ],
      "stateMutability": "view",
      "type": "function"
    },
    {
      "inputs": [],
      "name": "apiVersion",
      "outputs": [
        {
          "internalType": "string",
          "name": "",
          "type": "string"
        }
      ],
      "stateMutability": "pure",
      "type": "function"
    },
    {
      "inputs": [],
      "name": "approveAll",
      "outputs": [],
      "stateMutability": "nonpayable",
      "type": "function"
    },
    {
      "inputs": [],
      "name": "balanceOfPool",
      "outputs": [
        {
          "internalType": "uint256",
          "name": "",
          "type": "uint256"
        }
      ],
      "stateMutability": "view",
      "type": "function"
    },
    {
      "inputs": [],
      "name": "balanceOfWant",
      "outputs": [
        {
          "internalType": "uint256",
          "name": "",
          "type": "uint256"
        }
      ],
      "stateMutability": "view",
      "type": "function"
    },
    {
      "inputs": [],
      "name": "booster",
      "outputs": [
        {
          "internalType": "address",
          "name": "",
          "type": "address"
        }
      ],
      "stateMutability": "view",
      "type": "function"
    },
    {
      "inputs": [],
      "name": "crv",
      "outputs": [
        {
          "internalType": "address",
          "name": "",
          "type": "address"
        }
      ],
      "stateMutability": "view",
      "type": "function"
    },
    {
      "inputs": [],
      "name": "curve",
      "outputs": [
        {
          "internalType": "address",
          "name": "",
          "type": "address"
        }
      ],
      "stateMutability": "view",
      "type": "function"
    },
    {
      "inputs": [],
      "name": "cvx",
      "outputs": [
        {
          "internalType": "address",
          "name": "",
          "type": "address"
        }
      ],
      "stateMutability": "view",
      "type": "function"
    },
    {
      "inputs": [],
      "name": "dai",
      "outputs": [
        {
          "internalType": "address",
          "name": "",
          "type": "address"
        }
      ],
      "stateMutability": "view",
      "type": "function"
    },
    {
      "inputs": [],
      "name": "debtThreshold",
      "outputs": [
        {
          "internalType": "uint256",
          "name": "",
          "type": "uint256"
        }
      ],
      "stateMutability": "view",
      "type": "function"
    },
    {
      "inputs": [],
      "name": "delegatedAssets",
      "outputs": [
        {
          "internalType": "uint256",
          "name": "",
          "type": "uint256"
        }
      ],
      "stateMutability": "view",
      "type": "function"
    },
    {
      "inputs": [
        {
          "internalType": "uint256",
          "name": "",
          "type": "uint256"
        }
      ],
      "name": "dex",
      "outputs": [
        {
          "internalType": "address",
          "name": "",
          "type": "address"
        }
      ],
      "stateMutability": "view",
      "type": "function"
    },
    {
      "inputs": [],
      "name": "emergencyExit",
      "outputs": [
        {
          "internalType": "bool",
          "name": "",
          "type": "bool"
        }
      ],
      "stateMutability": "view",
      "type": "function"
    },
    {
      "inputs": [],
      "name": "estimatedTotalAssets",
      "outputs": [
        {
          "internalType": "uint256",
          "name": "",
          "type": "uint256"
        }
      ],
      "stateMutability": "view",
      "type": "function"
    },
    {
      "inputs": [
        {
          "internalType": "uint256",
          "name": "_amtInWei",
          "type": "uint256"
        }
      ],
      "name": "ethToWant",
      "outputs": [
        {
          "internalType": "uint256",
          "name": "",
          "type": "uint256"
        }
      ],
      "stateMutability": "view",
      "type": "function"
    },
    {
      "inputs": [],
      "name": "harvest",
      "outputs": [],
      "stateMutability": "nonpayable",
      "type": "function"
    },
    {
      "inputs": [
        {
          "internalType": "uint256",
          "name": "callCost",
          "type": "uint256"
        }
      ],
      "name": "harvestTrigger",
      "outputs": [
        {
          "internalType": "bool",
          "name": "",
          "type": "bool"
        }
      ],
      "stateMutability": "view",
      "type": "function"
    },
    {
      "inputs": [],
      "name": "id",
      "outputs": [
        {
          "internalType": "uint256",
          "name": "",
          "type": "uint256"
        }
      ],
      "stateMutability": "view",
      "type": "function"
    },
    {
      "inputs": [],
      "name": "isActive",
      "outputs": [
        {
          "internalType": "bool",
          "name": "",
          "type": "bool"
        }
      ],
      "stateMutability": "view",
      "type": "function"
    },
    {
      "inputs": [],
      "name": "isClaimExtras",
      "outputs": [
        {
          "internalType": "bool",
          "name": "",
          "type": "bool"
        }
      ],
      "stateMutability": "view",
      "type": "function"
    },
    {
      "inputs": [],
      "name": "isClaimRewards",
      "outputs": [
        {
          "internalType": "bool",
          "name": "",
          "type": "bool"
        }
      ],
      "stateMutability": "view",
      "type": "function"
    },
    {
      "inputs": [],
      "name": "keepCRV",
      "outputs": [
        {
          "internalType": "uint256",
          "name": "",
          "type": "uint256"
        }
      ],
      "stateMutability": "view",
      "type": "function"
    },
    {
      "inputs": [],
      "name": "keeper",
      "outputs": [
        {
          "internalType": "address",
          "name": "",
          "type": "address"
        }
      ],
      "stateMutability": "view",
      "type": "function"
    },
    {
      "inputs": [],
      "name": "maxReportDelay",
      "outputs": [
        {
          "internalType": "uint256",
          "name": "",
          "type": "uint256"
        }
      ],
      "stateMutability": "view",
      "type": "function"
    },
    {
      "inputs": [],
      "name": "metadataURI",
      "outputs": [
        {
          "internalType": "string",
          "name": "",
          "type": "string"
        }
      ],
      "stateMutability": "view",
      "type": "function"
    },
    {
      "inputs": [
        {
          "internalType": "address",
          "name": "_newStrategy",
          "type": "address"
        }
      ],
      "name": "migrate",
      "outputs": [],
      "stateMutability": "nonpayable",
      "type": "function"
    },
    {
      "inputs": [],
      "name": "minReportDelay",
      "outputs": [
        {
          "internalType": "uint256",
          "name": "",
          "type": "uint256"
        }
      ],
      "stateMutability": "view",
      "type": "function"
    },
    {
      "inputs": [],
      "name": "name",
      "outputs": [
        {
          "internalType": "string",
          "name": "",
          "type": "string"
        }
      ],
      "stateMutability": "view",
      "type": "function"
    },
    {
      "inputs": [
        {
          "internalType": "uint256",
          "name": "",
          "type": "uint256"
        }
      ],
      "name": "pathTarget",
      "outputs": [
        {
          "internalType": "address",
          "name": "",
          "type": "address"
        }
      ],
      "stateMutability": "view",
      "type": "function"
    },
    {
      "inputs": [],
      "name": "profitFactor",
      "outputs": [
        {
          "internalType": "uint256",
          "name": "",
          "type": "uint256"
        }
      ],
      "stateMutability": "view",
      "type": "function"
    },
    {
      "inputs": [],
      "name": "rewardContract",
      "outputs": [
        {
          "internalType": "address",
          "name": "",
          "type": "address"
        }
      ],
      "stateMutability": "view",
      "type": "function"
    },
    {
      "inputs": [],
      "name": "rewards",
      "outputs": [
        {
          "internalType": "address",
          "name": "",
          "type": "address"
        }
      ],
      "stateMutability": "view",
      "type": "function"
    },
    {
      "inputs": [
        {
          "internalType": "uint256",
          "name": "_debtThreshold",
          "type": "uint256"
        }
      ],
      "name": "setDebtThreshold",
      "outputs": [],
      "stateMutability": "nonpayable",
      "type": "function"
    },
    {
      "inputs": [],
      "name": "setEmergencyExit",
      "outputs": [],
      "stateMutability": "nonpayable",
      "type": "function"
    },
    {
      "inputs": [
        {
          "internalType": "bool",
          "name": "_isClaimExtras",
          "type": "bool"
        }
      ],
      "name": "setIsClaimExtras",
      "outputs": [],
      "stateMutability": "nonpayable",
      "type": "function"
    },
    {
      "inputs": [
        {
          "internalType": "bool",
          "name": "_isClaimRewards",
          "type": "bool"
        }
      ],
      "name": "setIsClaimRewards",
      "outputs": [],
      "stateMutability": "nonpayable",
      "type": "function"
    },
    {
      "inputs": [
        {
          "internalType": "uint256",
          "name": "_keepCRV",
          "type": "uint256"
        }
      ],
      "name": "setKeepCRV",
      "outputs": [],
      "stateMutability": "nonpayable",
      "type": "function"
    },
    {
      "inputs": [
        {
          "internalType": "address",
          "name": "_keeper",
          "type": "address"
        }
      ],
      "name": "setKeeper",
      "outputs": [],
      "stateMutability": "nonpayable",
      "type": "function"
    },
    {
      "inputs": [
        {
          "internalType": "uint256",
          "name": "_delay",
          "type": "uint256"
        }
      ],
      "name": "setMaxReportDelay",
      "outputs": [],
      "stateMutability": "nonpayable",
      "type": "function"
    },
    {
      "inputs": [
        {
          "internalType": "string",
          "name": "_metadataURI",
          "type": "string"
        }
      ],
      "name": "setMetadataURI",
      "outputs": [],
      "stateMutability": "nonpayable",
      "type": "function"
    },
    {
      "inputs": [
        {
          "internalType": "uint256",
          "name": "_delay",
          "type": "uint256"
        }
      ],
      "name": "setMinReportDelay",
      "outputs": [],
      "stateMutability": "nonpayable",
      "type": "function"
    },
    {
      "inputs": [
        {
          "internalType": "uint256",
          "name": "_tokenId",
          "type": "uint256"
        },
        {
          "internalType": "uint256",
          "name": "_id",
          "type": "uint256"
        }
      ],
      "name": "setPathTarget",
      "outputs": [],
      "stateMutability": "nonpayable",
      "type": "function"
    },
    {
      "inputs": [
        {
          "internalType": "uint256",
          "name": "_profitFactor",
          "type": "uint256"
        }
      ],
      "name": "setProfitFactor",
      "outputs": [],
      "stateMutability": "nonpayable",
      "type": "function"
    },
    {
      "inputs": [
        {
          "internalType": "address",
          "name": "_rewards",
          "type": "address"
        }
      ],
      "name": "setRewards",
      "outputs": [],
      "stateMutability": "nonpayable",
      "type": "function"
    },
    {
      "inputs": [
        {
          "internalType": "address",
          "name": "_strategist",
          "type": "address"
        }
      ],
      "name": "setStrategist",
      "outputs": [],
      "stateMutability": "nonpayable",
      "type": "function"
    },
    {
      "inputs": [],
      "name": "strategist",
      "outputs": [
        {
          "internalType": "address",
          "name": "",
          "type": "address"
        }
      ],
      "stateMutability": "view",
      "type": "function"
    },
    {
      "inputs": [],
      "name": "sushiswap",
      "outputs": [
        {
          "internalType": "address",
          "name": "",
          "type": "address"
        }
      ],
      "stateMutability": "view",
      "type": "function"
    },
    {
      "inputs": [
        {
          "internalType": "address",
          "name": "_token",
          "type": "address"
        }
      ],
      "name": "sweep",
      "outputs": [],
      "stateMutability": "nonpayable",
      "type": "function"
    },
    {
      "inputs": [
        {
          "internalType": "uint256",
          "name": "_id",
          "type": "uint256"
        },
        {
          "internalType": "address",
          "name": "_dex",
          "type": "address"
        }
      ],
      "name": "switchDex",
      "outputs": [],
      "stateMutability": "nonpayable",
      "type": "function"
    },
    {
      "inputs": [],
      "name": "tend",
      "outputs": [],
      "stateMutability": "nonpayable",
      "type": "function"
    },
    {
      "inputs": [
        {
          "internalType": "uint256",
          "name": "callCostInWei",
          "type": "uint256"
        }
      ],
      "name": "tendTrigger",
      "outputs": [
        {
          "internalType": "bool",
          "name": "",
          "type": "bool"
        }
      ],
      "stateMutability": "view",
      "type": "function"
    },
    {
      "inputs": [],
      "name": "uniswap",
      "outputs": [
        {
          "internalType": "address",
          "name": "",
          "type": "address"
        }
      ],
      "stateMutability": "view",
      "type": "function"
    },
    {
      "inputs": [],
      "name": "usdc",
      "outputs": [
        {
          "internalType": "address",
          "name": "",
          "type": "address"
        }
      ],
      "stateMutability": "view",
      "type": "function"
    },
    {
      "inputs": [],
      "name": "usdt",
      "outputs": [
        {
          "internalType": "address",
          "name": "",
          "type": "address"
        }
      ],
      "stateMutability": "view",
      "type": "function"
    },
    {
      "inputs": [],
      "name": "vault",
      "outputs": [
        {
          "internalType": "contract VaultAPI",
          "name": "",
          "type": "address"
        }
      ],
      "stateMutability": "view",
      "type": "function"
    },
    {
      "inputs": [],
      "name": "voter",
      "outputs": [
        {
          "internalType": "address",
          "name": "",
          "type": "address"
        }
      ],
      "stateMutability": "view",
      "type": "function"
    },
    {
      "inputs": [],
      "name": "want",
      "outputs": [
        {
          "internalType": "contract IERC20",
          "name": "",
          "type": "address"
        }
      ],
      "stateMutability": "view",
      "type": "function"
    },
    {
      "inputs": [],
      "name": "weth",
      "outputs": [
        {
          "internalType": "address",
          "name": "",
          "type": "address"
        }
      ],
      "stateMutability": "view",
      "type": "function"
    },
    {
      "inputs": [
        {
          "internalType": "uint256",
          "name": "_amountNeeded",
          "type": "uint256"
        }
      ],
      "name": "withdraw",
      "outputs": [
        {
          "internalType": "uint256",
          "name": "_loss",
          "type": "uint256"
        }
      ],
      "stateMutability": "nonpayable",
      "type": "function"
    },
    {
      "inputs": [],
      "name": "withdrawToConvexDepositTokens",
      "outputs": [],
      "stateMutability": "nonpayable",
      "type": "function"
    }
  ],
  "bytecode": "60806040523480156200001157600080fd5b506040516200517b3803806200517b833981016040819052620000349162000ec2565b80806200004481338080620002d4565b505061a8c06006556203f4806007556103e8600881905569d3c21bcecceda10000006009908155600f91909155600d80546001600160a01b03191673bebc44782c7db0a1a60cb6fe97d0b483032ff1c7179055600b819055600a805461ff001916610100179055604051631526fe2760e01b8152600091829173f403c135812408bfbe8713b5a23a04b3d48aae3191631526fe2791620000e8919060040162001180565b60c06040518083038186803b1580156200010157600080fd5b505afa15801562000116573d6000803e3d6000fd5b505050506040513d601f19601f820116820180604052508101906200013c919062000ee7565b5050600554939550935050506001600160a01b038084169116146200017e5760405162461bcd60e51b8152600401620001759062001034565b60405180910390fd5b600c80546001600160a01b0319166001600160a01b038316179055620001a3620004b0565b604080516002808252606082018352909160208301908036833750508151620001d492601092506020019062000e19565b50620001e260008062000758565b620001f06001600062000758565b6040805160028082526060820183529091602083019080368337505081516200022192600e92506020019062000e19565b5073d9e1ce17f2641f24ae83637ab66a2cca9c378b9f600e6000815481106200024657fe5b9060005260206000200160006101000a8154816001600160a01b0302191690836001600160a01b0316021790555073d9e1ce17f2641f24ae83637ab66a2cca9c378b9f600e6001815481106200029857fe5b600091825260209091200180546001600160a01b0319166001600160a01b0392909216919091179055620002cb62000838565b505050620011bc565b6005546001600160a01b031615620003005760405162461bcd60e51b815260040162000175906200106b565b600180546001600160a01b0319166001600160a01b03868116919091179182905560408051637e062a3560e11b81529051929091169163fc0c546a91600480820192602092909190829003018186803b1580156200035d57600080fd5b505afa15801562000372573d6000803e3d6000fd5b505050506040513d601f19601f8201168201806040525081019062000398919062000ec2565b600580546001600160a01b0319166001600160a01b039283161790819055620003d291168560001962000b4a602090811b620017bc17901c565b600280546001600160a01b038086166001600160a01b0319928316179092556003805485841690831617908190556004805485851693169290921782556000600681905562015180600755606460085560095560015460405163095ea7b360e01b81529084169363095ea7b393620004539390911691600019910162000fe6565b602060405180830381600087803b1580156200046e57600080fd5b505af115801562000483573d6000803e3d6000fd5b505050506040513d601f19601f82011682018060405250810190620004a9919062000f73565b5050505050565b60055460405163095ea7b360e01b81526001600160a01b039091169063095ea7b390620004f99073f403c135812408bfbe8713b5a23a04b3d48aae319060009060040162000fe6565b602060405180830381600087803b1580156200051457600080fd5b505af115801562000529573d6000803e3d6000fd5b505050506040513d601f19601f820116820180604052508101906200054f919062000f73565b5060055460405163095ea7b360e01b81526001600160a01b039091169063095ea7b3906200059a9073f403c135812408bfbe8713b5a23a04b3d48aae31906000199060040162000fe6565b602060405180830381600087803b158015620005b557600080fd5b505af1158015620005ca573d6000803e3d6000fd5b505050506040513d601f19601f82011682018060405250810190620005f0919062000f73565b50600d546200062c90736b175474e89094c44da98b954eedeac495271d0f906001600160a01b0316600062000b4a602090811b620017bc17901c565b600d546200066890736b175474e89094c44da98b954eedeac495271d0f906001600160a01b031660001962000b4a602090811b620017bc17901c565b600d54620006a39073a0b86991c6218b36c1d19d4a2e9eb0ce3606eb48906001600160a01b0316600062000b4a602090811b620017bc17901c565b600d54620006df9073a0b86991c6218b36c1d19d4a2e9eb0ce3606eb48906001600160a01b031660001962000b4a602090811b620017bc17901c565b600d546200071a9073dac17f958d2ee523a2206206994597c13d831ec7906001600160a01b0316600062000b4a602090811b620017bc17901c565b600d54620007569073dac17f958d2ee523a2206206994597c13d831ec7906001600160a01b031660001962000b4a602090811b620017bc17901c565b565b80620007b557736b175474e89094c44da98b954eedeac495271d0f601083815481106200078157fe5b9060005260206000200160006101000a8154816001600160a01b0302191690836001600160a01b0316021790555062000834565b8060011415620007e25773a0b86991c6218b36c1d19d4a2e9eb0ce3606eb48601083815481106200078157fe5b73dac17f958d2ee523a2206206994597c13d831ec7601083815481106200080557fe5b9060005260206000200160006101000a8154816001600160a01b0302191690836001600160a01b031602179055505b5050565b73d533a949740bb3306d119cc777fa900ba034cd526001600160a01b031663095ea7b3600e6000815481106200086a57fe5b60009182526020822001546040516001600160e01b031960e085901b168152620008a4926001600160a01b03909216919060040162000fe6565b602060405180830381600087803b158015620008bf57600080fd5b505af1158015620008d4573d6000803e3d6000fd5b505050506040513d601f19601f82011682018060405250810190620008fa919062000f73565b5073d533a949740bb3306d119cc777fa900ba034cd526001600160a01b031663095ea7b3600e6000815481106200092d57fe5b6000918252602090912001546040516001600160e01b031960e084901b16815262000969916001600160a01b0316906000199060040162000fe6565b602060405180830381600087803b1580156200098457600080fd5b505af115801562000999573d6000803e3d6000fd5b505050506040513d601f19601f82011682018060405250810190620009bf919062000f73565b50734e3fbd56cd56c3e72c1403e103b45db9da5b9d2b6001600160a01b031663095ea7b3600e600181548110620009f257fe5b60009182526020822001546040516001600160e01b031960e085901b16815262000a2c926001600160a01b03909216919060040162000fe6565b602060405180830381600087803b15801562000a4757600080fd5b505af115801562000a5c573d6000803e3d6000fd5b505050506040513d601f19601f8201168201806040525081019062000a82919062000f73565b50734e3fbd56cd56c3e72c1403e103b45db9da5b9d2b6001600160a01b031663095ea7b3600e60018154811062000ab557fe5b6000918252602090912001546040516001600160e01b031960e084901b16815262000af1916001600160a01b0316906000199060040162000fe6565b602060405180830381600087803b15801562000b0c57600080fd5b505af115801562000b21573d6000803e3d6000fd5b505050506040513d601f19601f8201168201806040525081019062000b47919062000f73565b50565b80158062000bd95750604051636eb1769f60e11b81526001600160a01b0384169063dd62ed3e9062000b83903090869060040162000fcc565b60206040518083038186803b15801562000b9c57600080fd5b505afa15801562000bb1573d6000803e3d6000fd5b505050506040513d601f19601f8201168201806040525081019062000bd7919062000f95565b155b62000bf85760405162461bcd60e51b8152600401620001759062001123565b62000c538363095ea7b360e01b848460405160240162000c1a92919062000fe6565b60408051808303601f190181529190526020810180516001600160e01b0319939093166001600160e01b039384161790529062000c5816565b505050565b606062000cb4826040518060400160405280602081526020017f5361666545524332303a206c6f772d6c6576656c2063616c6c206661696c6564815250856001600160a01b031662000cf460201b620018bb179092919060201c565b80519091501562000c53578080602001905181019062000cd5919062000f73565b62000c535760405162461bcd60e51b81526004016200017590620010d9565b606062000d05848460008562000d0d565b949350505050565b606062000d1a8562000ddf565b62000d395760405162461bcd60e51b81526004016200017590620010a2565b60006060866001600160a01b0316858760405162000d58919062000fae565b60006040518083038185875af1925050503d806000811462000d97576040519150601f19603f3d011682016040523d82523d6000602084013e62000d9c565b606091505b5091509150811562000db257915062000d059050565b80511562000dc35780518082602001fd5b8360405162461bcd60e51b815260040162000175919062000fff565b6000813f7fc5d2460186f7233c927e7db2dcc703c0e500b653ca82273b7bfad8045d85a47081811480159062000d05575050151592915050565b82805482825590600052602060002090810192821562000e71579160200282015b8281111562000e7157825182546001600160a01b0319166001600160a01b0390911617825560209092019160019091019062000e3a565b5062000e7f92915062000e83565b5090565b5b8082111562000e7f5780546001600160a01b031916815560010162000e84565b80516001600160a01b038116811462000ebc57600080fd5b92915050565b60006020828403121562000ed4578081fd5b62000ee0838362000ea4565b9392505050565b60008060008060008060c0878903121562000f00578182fd5b62000f0c888862000ea4565b955062000f1d886020890162000ea4565b945062000f2e886040890162000ea4565b935062000f3f886060890162000ea4565b925062000f50886080890162000ea4565b915060a0870151801515811462000f65578182fd5b809150509295509295509295565b60006020828403121562000f85578081fd5b8151801515811462000ee0578182fd5b60006020828403121562000fa7578081fd5b5051919050565b6000825162000fc281846020870162001189565b9190910192915050565b6001600160a01b0392831681529116602082015260400190565b6001600160a01b03929092168252602082015260400190565b60006020825282518060208401526200102081604085016020870162001189565b601f01601f19169190910160400192915050565b6020808252601f908201527f636f6e7374727563746f723a20696e636f7272656374206c7020746f6b656e00604082015260600190565b6020808252601c908201527f537472617465677920616c726561647920696e697469616c697a656400000000604082015260600190565b6020808252601d908201527f416464726573733a2063616c6c20746f206e6f6e2d636f6e7472616374000000604082015260600190565b6020808252602a908201527f5361666545524332303a204552433230206f7065726174696f6e20646964206e6040820152691bdd081cdd58d8d9595960b21b606082015260800190565b60208082526036908201527f5361666545524332303a20617070726f76652066726f6d206e6f6e2d7a65726f60408201527f20746f206e6f6e2d7a65726f20616c6c6f77616e636500000000000000000000606082015260800190565b90815260200190565b60005b83811015620011a65781810151838201526020016200118c565b83811115620011b6576000848401525b50505050565b613faf80620011cc6000396000f3fe608060405234801561001057600080fd5b50600436106103af5760003560e01c80636ea69d62116101f45780639be287851161011a578063ce5494bb116100ad578063f017c92f1161007c578063f017c92f14610697578063f4b9fa75146106aa578063fbfa77cf146106b2578063fcf2d0ad146106ba576103af565b8063ce5494bb14610656578063ec38a86214610669578063ed882c2b1461067c578063efbb5cb01461068f576103af565b8063c1a3d44c116100e9578063c1a3d44c14610620578063c6def07614610628578063c768780314610630578063c7b9d53014610643576103af565b80639be28785146106005780639ec5a89414610608578063aced166114610610578063af640d0f14610618576103af565b80638516c2c811610192578063918f867411610161578063918f8674146105d5578063923c1d61146105dd578063955383bd146105e557806395e80c50146105f8576103af565b80638516c2c81461059f5780638cdfe166146105b25780638e6350e2146105ba57806391397ab4146105c2576103af565b8063750521f5116101ce578063750521f51461055e578063780022a0146105715780637fef901a1461058457806381639eda1461058c576103af565b80636ea69d621461053b5780637165485d14610543578063748747e61461054b576103af565b80632e1a7d4d116102d9578063440368a311610277578063565399a011610246578063565399a0146104fa5780636095dd7b1461050d578063650d1880146105205780636a4874a114610533576103af565b8063440368a3146104da5780634641257d146104e257806346c96aac146104ea5780635641ec03146104f2576103af565b8063380d0c08116102b3578063380d0c08146104af57806339a172a8146104b75780633e413bee146104ca5780633fc8cef3146104d2576103af565b80632e1a7d4d1461048c5780632f48ab7d1461049f57806334659dc5146104a7576103af565b80631d12f28b1161035157806324d16c1a1161032057806324d16c1a1461046157806325829410146104745780632681f7e41461047c57806328b7ccf714610484576103af565b80631d12f28b146104345780631f1fcd511461043c5780631fe4a6861461045157806322f3e2d414610459576103af565b80630acd095b1161038d5780630acd095b146103ef5780630f969b871461040457806311588086146104175780631c459a7f1461042c576103af565b806301681a62146103b457806303ee438c146103c957806306fdde03146103e7575b600080fd5b6103c76103c23660046137a2565b6106c2565b005b6103d1610826565b6040516103de9190613c22565b60405180910390f35b6103d16108b4565b6103f7610959565b6040516103de9190613be8565b6103c7610412366004613a1e565b610967565b61041f6109af565b6040516103de9190613e28565b6103f7610a35565b61041f610a44565b610444610a4a565b6040516103de9190613b2b565b610444610a59565b6103f7610a68565b61044461046f366004613a1e565b610b09565b6103d1610b30565b610444610b4f565b61041f610b67565b61041f61049a366004613a1e565b610b6d565b610444610bc8565b6103c7610be0565b6103c7610cfa565b6103c76104c5366004613a1e565b610d14565b610444610d51565b610444610d69565b6103c7610d81565b6103c7610e0c565b610444610fe1565b6103f7610ff9565b610444610508366004613a1e565b611002565b6103c761051b366004613a7d565b61100f565b6103f761052e366004613a1e565b611021565b610444611029565b610444611041565b610444611050565b6103c76105593660046137a2565b61105f565b6103c761056c3660046138a7565b6110c5565b61041f61057f366004613a1e565b611117565b61041f61111a565b6103c761059a366004613a4e565b611120565b6103c76105ad36600461386f565b61116c565b61041f611190565b61041f611196565b6103c76105d0366004613a1e565b61119b565b61041f6111d8565b6104446111de565b6103c76105f3366004613a1e565b6111f6565b61041f611203565b610444611209565b610444611221565b610444611230565b61041f61123f565b61041f611245565b610444611276565b6103c761063e36600461386f565b61128e565b6103c76106513660046137a2565b6112b0565b6103c76106643660046137a2565b611316565b6103c76106773660046137a2565b611401565b6103f761068a366004613a1e565b6114ca565b61041f61169e565b6103c76106a5366004613a1e565b6116b9565b6104446116f6565b61044461170e565b6103c761171d565b6106ca6118d2565b6005546001600160a01b03828116911614156107015760405162461bcd60e51b81526004016106f890613c55565b60405180910390fd5b6001546001600160a01b038281169116141561072f5760405162461bcd60e51b81526004016106f890613d0c565b60606107396118f7565b905060005b81518110156107945781818151811061075357fe5b60200260200101516001600160a01b0316836001600160a01b0316141561078c5760405162461bcd60e51b81526004016106f890613dae565b60010161073e565b50610822826107a161199c565b6040516370a0823160e01b81526001600160a01b038616906370a08231906107cd903090600401613b2b565b60206040518083038186803b1580156107e557600080fd5b505afa1580156107f9573d6000803e3d6000fd5b505050506040513d601f19601f8201168201806040525081019061081d9190613a36565b611a19565b5050565b6000805460408051602060026001851615610100026000190190941693909304601f810184900484028201840190925281815292918301828280156108ac5780601f10610881576101008083540402835291602001916108ac565b820191906000526020600020905b81548152906001019060200180831161088f57829003601f168201915b505050505081565b600554604080516395d89b4160e01b815290516060926001600160a01b0316916395d89b41916004808301926000929190829003018186803b1580156108f957600080fd5b505afa15801561090d573d6000803e3d6000fd5b505050506040513d6000823e601f3d908101601f191682016040526109359190810190613914565b6040516020016109459190613afd565b604051602081830303815290604052905090565b600a54610100900460ff1681565b61096f611a38565b60098190556040517fa68ba126373d04c004c5748c300c9fca12bd444b3d4332e261f3bd2bac4a8600906109a4908390613e28565b60405180910390a150565b600c546040516370a0823160e01b81526000916001600160a01b0316906370a08231906109e0903090600401613b2b565b60206040518083038186803b1580156109f857600080fd5b505afa158015610a0c573d6000803e3d6000fd5b505050506040513d601f19601f82011682018060405250810190610a309190613a36565b905090565b600a5462010000900460ff1681565b60095481565b6005546001600160a01b031681565b6002546001600160a01b031681565b6001546040516339ebf82360e01b815260009182916001600160a01b03909116906339ebf82390610a9d903090600401613b2b565b6101206040518083038186803b158015610ab657600080fd5b505afa158015610aca573d6000803e3d6000fd5b505050506040513d601f19601f82011682018060405250810190610aee91906139a0565b604001511180610a3057506000610b0361169e565b11905090565b600e8181548110610b1657fe5b6000918252602090912001546001600160a01b0316905081565b604080518082019091526005815264302e342e3360d81b602082015290565b737a250d5630b4cf539739df2c5dacb4c659f2488d81565b60075481565b6001546000906001600160a01b03163314610b9a5760405162461bcd60e51b81526004016106f890613cec565b6000610ba583611a5d565b600554909350909150610bc2906001600160a01b03163383611a19565b50919050565b73dac17f958d2ee523a2206206994597c13d831ec781565b610be8611a38565b600c546040516370a0823160e01b81526000916001600160a01b0316906370a0823190610c19903090600401613b2b565b60206040518083038186803b158015610c3157600080fd5b505afa158015610c45573d6000803e3d6000fd5b505050506040513d601f19601f82011682018060405250810190610c699190613a36565b600c54600a54604051631c683a1b60e11b81529293506001600160a01b03909116916338d0743691610ca8918591610100900460ff1690600401613e4a565b602060405180830381600087803b158015610cc257600080fd5b505af1158015610cd6573d6000803e3d6000fd5b505050506040513d601f19601f82011682018060405250810190610822919061388b565b610d02611a38565b610d0a611aaf565b610d12611cf5565b565b610d1c611a38565b60068190556040517fbb2c369a0355a34b02ab5fce0643150c87e1c8dfe7c918d465591879f57948b1906109a4908390613e28565b73a0b86991c6218b36c1d19d4a2e9eb0ce3606eb4881565b73c02aaa39b223fe8d0a0e5c4f27ead9083c756cc281565b610d89611fe8565b6001546040805163bf3759b560e01b81529051610d12926001600160a01b03169163bf3759b5916004808301926020929190829003018186803b158015610dcf57600080fd5b505afa158015610de3573d6000803e3d6000fd5b505050506040513d601f19601f82011682018060405250810190610e079190613a36565b61215b565b610e14611fe8565b6000806000600160009054906101000a90046001600160a01b03166001600160a01b031663bf3759b56040518163ffffffff1660e01b815260040160206040518083038186803b158015610e6757600080fd5b505afa158015610e7b573d6000803e3d6000fd5b505050506040513d601f19601f82011682018060405250810190610e9f9190613a36565b600a5490915060009060ff1615610efc576000610eba611245565b905082811015610ed557610ece8382612284565b9350610eea565b82811115610eea57610ee78184612284565b94505b610ef48385612284565b915050610f0d565b610f05826122cf565b919550935090505b6001546040516328766ebf60e21b81526001600160a01b039091169063a1d9bafc90610f4190879087908690600401613eae565b602060405180830381600087803b158015610f5b57600080fd5b505af1158015610f6f573d6000803e3d6000fd5b505050506040513d601f19601f82011682018060405250810190610f939190613a36565b9150610f9e8261215b565b7f4c0f499ffe6befa0ca7c826b0916cf87bea98de658013e76938489368d60d50984848385604051610fd39493929190613ec4565b60405180910390a150505050565b73f147b8125d2ef93fb6965db97d6746952a13393481565b600a5460ff1681565b60108181548110610b1657fe5b611017611a38565b6108228282612b99565b60005b919050565b73d533a949740bb3306d119cc777fa900ba034cd5281565b600c546001600160a01b031681565b600d546001600160a01b031681565b611067611a38565b6001600160a01b03811661107a57600080fd5b600480546001600160a01b0319166001600160a01b0383161790556040517f2f202ddb4a2e345f6323ed90f8fc8559d770a7abbbeee84dde8aca3351fe7154906109a4908390613b2b565b6110cd611a38565b6110d9600083836136c3565b507f300e67d5a415b6d015a471d9c7b95dd58f3e8290af965e84e0f845de2996dda6828260405161110b929190613bf3565b60405180910390a15050565b90565b600f5481565b611128611a38565b80600e838154811061113657fe5b9060005260206000200160006101000a8154816001600160a01b0302191690836001600160a01b03160217905550610822611cf5565b611174611a38565b600a8054911515620100000262ff000019909216919091179055565b60085481565b600090565b6111a3611a38565b60088190556040517fd94596337df4c2f0f44d30a7fc5db1c7bb60d9aca4185ed77c6fd96eb45ec298906109a4908390613e28565b61271081565b734e3fbd56cd56c3e72c1403e103b45db9da5b9d2b81565b6111fe611a38565b600f55565b60065481565b73d9e1ce17f2641f24ae83637ab66a2cca9c378b9f81565b6003546001600160a01b031681565b6004546001600160a01b031681565b600b5481565b6005546040516370a0823160e01b81526000916001600160a01b0316906370a08231906109e0903090600401613b2b565b73f403c135812408bfbe8713b5a23a04b3d48aae3181565b611296611a38565b600a80549115156101000261ff0019909216919091179055565b6112b8611a38565b6001600160a01b0381166112cb57600080fd5b600280546001600160a01b0319166001600160a01b0383161790556040517f352ececae6d7d1e6d26bcf2c549dfd55be1637e9b22dc0cf3b71ddb36097a6b4906109a4908390613b2b565b6001546001600160a01b0316331461132d57600080fd5b6001546040805163fbfa77cf60e01b815290516001600160a01b039283169284169163fbfa77cf916004808301926020929190829003018186803b15801561137457600080fd5b505afa158015611388573d6000803e3d6000fd5b505050506040513d601f19601f820116820180604052508101906113ac91906137be565b6001600160a01b0316146113bf57600080fd5b6113c881612c72565b6005546040516370a0823160e01b81526113fe916001600160a01b031690839082906370a08231906107cd903090600401613b2b565b50565b611409612ce8565b600380546001600160a01b038381166001600160a01b0319831617909255600154604051635b70bdbf60e11b81529183169273__StrategyLib___________________________9263b6e17b7e9261146b928692889290911690600401613b59565b60006040518083038186803b15801561148357600080fd5b505af4158015611497573d6000803e3d6000fd5b505050507fafbb66abf8f3b719799940473a4052a3717cdd8e40fb6c8a3faadab316b1a0698260405161110b9190613b2b565b60006114d4613741565b6001546040516339ebf82360e01b81526001600160a01b03909116906339ebf82390611504903090600401613b2b565b6101206040518083038186803b15801561151d57600080fd5b505afa158015611531573d6000803e3d6000fd5b505050506040513d601f19601f8201168201806040525081019061155591906139a0565b905080602001516000141561156e576000915050611024565b60065460a0820151611581904290612284565b1015611591576000915050611024565b60075460a08201516115a4904290612284565b106115b3576001915050611024565b6001546040805163bf3759b560e01b815290516000926001600160a01b03169163bf3759b5916004808301926020929190829003018186803b1580156115f857600080fd5b505afa15801561160c573d6000803e3d6000fd5b505050506040513d601f19601f820116820180604052508101906116309190613a36565b905060095481111561164757600192505050611024565b600061165161169e565b90508260c0015161166d60095483612d2190919063ffffffff16565b101561167f5760019350505050611024565b611687612d46565b6008546116949087612d50565b1095945050505050565b6000610a306116ab6109af565b6116b3611245565b90612d21565b6116c1611a38565b60078190556040517f5430e11864ad7aa9775b07d12657fe52df9aa2ba734355bd8ef8747be2c800c5906109a4908390613e28565b736b175474e89094c44da98b954eedeac495271d0f81565b6001546001600160a01b031681565b611725612d8a565b600a805460ff19166001908117909155546040805163507257cd60e11b815290516001600160a01b039092169163a0e4af9a9160048082019260009290919082900301818387803b15801561177957600080fd5b505af115801561178d573d6000803e3d6000fd5b50506040517f97e963041e952738788b9d4871d854d282065b8f90a464928d6528f2e9a4fd0b925060009150a1565b8015806118445750604051636eb1769f60e11b81526001600160a01b0384169063dd62ed3e906117f29030908690600401613b3f565b60206040518083038186803b15801561180a57600080fd5b505afa15801561181e573d6000803e3d6000fd5b505050506040513d601f19601f820116820180604052508101906118429190613a36565b155b6118605760405162461bcd60e51b81526004016106f890613dd2565b6118b68363095ea7b360e01b848460405160240161187f929190613b97565b60408051601f198184030181529190526020810180516001600160e01b03166001600160e01b031990931692909217909152612da6565b505050565b60606118ca8484600085612e35565b949350505050565b6118da61199c565b6001600160a01b0316336001600160a01b031614610d1257600080fd5b60408051600280825260608083018452928392919060208301908036833701905050905073d533a949740bb3306d119cc777fa900ba034cd528160008151811061193d57fe5b60200260200101906001600160a01b031690816001600160a01b031681525050734e3fbd56cd56c3e72c1403e103b45db9da5b9d2b8160018151811061197f57fe5b6001600160a01b0390921660209283029190910190910152905090565b60015460408051635aa6e67560e01b815290516000926001600160a01b031691635aa6e675916004808301926020929190829003018186803b1580156119e157600080fd5b505afa1580156119f5573d6000803e3d6000fd5b505050506040513d601f19601f82011682018060405250810190610a3091906137be565b6118b68363a9059cbb60e01b848460405160240161187f929190613b97565b6002546001600160a01b0316331480611a5457506118da61199c565b610d1257600080fd5b6000806000611a6a611245565b905083811015611aa557611a86611a818583612284565b612ef9565b9250611a928382612d21565b9250611a9e8484612284565b9150611aa9565b8392505b50915091565b60055460405163095ea7b360e01b81526001600160a01b039091169063095ea7b390611af69073f403c135812408bfbe8713b5a23a04b3d48aae3190600090600401613b97565b602060405180830381600087803b158015611b1057600080fd5b505af1158015611b24573d6000803e3d6000fd5b505050506040513d601f19601f82011682018060405250810190611b48919061388b565b5060055460405163095ea7b360e01b81526001600160a01b039091169063095ea7b390611b919073f403c135812408bfbe8713b5a23a04b3d48aae319060001990600401613b97565b602060405180830381600087803b158015611bab57600080fd5b505af1158015611bbf573d6000803e3d6000fd5b505050506040513d601f19601f82011682018060405250810190611be3919061388b565b50600d54611c1190736b175474e89094c44da98b954eedeac495271d0f906001600160a01b031660006117bc565b600d54611c3f90736b175474e89094c44da98b954eedeac495271d0f906001600160a01b03166000196117bc565b600d54611c6c9073a0b86991c6218b36c1d19d4a2e9eb0ce3606eb48906001600160a01b031660006117bc565b600d54611c9a9073a0b86991c6218b36c1d19d4a2e9eb0ce3606eb48906001600160a01b03166000196117bc565b600d54611cc79073dac17f958d2ee523a2206206994597c13d831ec7906001600160a01b031660006117bc565b600d54610d129073dac17f958d2ee523a2206206994597c13d831ec7906001600160a01b03166000196117bc565b73d533a949740bb3306d119cc777fa900ba034cd526001600160a01b031663095ea7b3600e600081548110611d2657fe5b60009182526020822001546040516001600160e01b031960e085901b168152611d5e926001600160a01b039092169190600401613b97565b602060405180830381600087803b158015611d7857600080fd5b505af1158015611d8c573d6000803e3d6000fd5b505050506040513d601f19601f82011682018060405250810190611db0919061388b565b5073d533a949740bb3306d119cc777fa900ba034cd526001600160a01b031663095ea7b3600e600081548110611de257fe5b6000918252602090912001546040516001600160e01b031960e084901b168152611e1c916001600160a01b03169060001990600401613b97565b602060405180830381600087803b158015611e3657600080fd5b505af1158015611e4a573d6000803e3d6000fd5b505050506040513d601f19601f82011682018060405250810190611e6e919061388b565b50734e3fbd56cd56c3e72c1403e103b45db9da5b9d2b6001600160a01b031663095ea7b3600e600181548110611ea057fe5b60009182526020822001546040516001600160e01b031960e085901b168152611ed8926001600160a01b039092169190600401613b97565b602060405180830381600087803b158015611ef257600080fd5b505af1158015611f06573d6000803e3d6000fd5b505050506040513d601f19601f82011682018060405250810190611f2a919061388b565b50734e3fbd56cd56c3e72c1403e103b45db9da5b9d2b6001600160a01b031663095ea7b3600e600181548110611f5c57fe5b6000918252602090912001546040516001600160e01b031960e084901b168152611f96916001600160a01b03169060001990600401613b97565b602060405180830381600087803b158015611fb057600080fd5b505af1158015611fc4573d6000803e3d6000fd5b505050506040513d601f19601f820116820180604052508101906113fe919061388b565b6004546001600160a01b031633148061200b57506002546001600160a01b031633145b8061202e575061201961199c565b6001600160a01b0316336001600160a01b0316145b806120cf5750600160009054906101000a90046001600160a01b03166001600160a01b031663452a93206040518163ffffffff1660e01b815260040160206040518083038186803b15801561208257600080fd5b505afa158015612096573d6000803e3d6000fd5b505050506040513d601f19601f820116820180604052508101906120ba91906137be565b6001600160a01b0316336001600160a01b0316145b80611a545750600160009054906101000a90046001600160a01b03166001600160a01b03166388a8d6026040518163ffffffff1660e01b815260040160206040518083038186803b15801561212357600080fd5b505afa158015612137573d6000803e3d6000fd5b505050506040513d601f19601f820116820180604052508101906118da91906137be565b600a5460ff161561216b576113fe565b6005546040516370a0823160e01b81526000916001600160a01b0316906370a082319061219c903090600401613b2b565b60206040518083038186803b1580156121b457600080fd5b505afa1580156121c8573d6000803e3d6000fd5b505050506040513d601f19601f820116820180604052508101906121ec9190613a36565b9050801561082257600b546040516321d0683360e11b815273f403c135812408bfbe8713b5a23a04b3d48aae31916343a0d0669161223291908590600190600401613e96565b602060405180830381600087803b15801561224c57600080fd5b505af1158015612260573d6000803e3d6000fd5b505050506040513d601f19601f820116820180604052508101906118b6919061388b565b60006122c683836040518060400160405280601e81526020017f536166654d6174683a207375627472616374696f6e206f766572666c6f770000815250612fad565b90505b92915050565b6000806000806122dd611245565b600c54600a54604051637050ccd960e01b81529293506001600160a01b0390911691637050ccd99161231d91309162010000900460ff1690600401613b7c565b602060405180830381600087803b15801561233757600080fd5b505af115801561234b573d6000803e3d6000fd5b505050506040513d601f19601f8201168201806040525081019061236f919061388b565b506040516370a0823160e01b815260009073d533a949740bb3306d119cc777fa900ba034cd52906370a08231906123aa903090600401613b2b565b60206040518083038186803b1580156123c257600080fd5b505afa1580156123d6573d6000803e3d6000fd5b505050506040513d601f19601f820116820180604052508101906123fa9190613a36565b905080156125b35761240b81612fd9565b604080516003808252608082019092529192506060919060208201838036833701905050905073d533a949740bb3306d119cc777fa900ba034cd528160008151811061245357fe5b60200260200101906001600160a01b031690816001600160a01b03168152505073c02aaa39b223fe8d0a0e5c4f27ead9083c756cc28160018151811061249557fe5b60200260200101906001600160a01b031690816001600160a01b03168152505060106000815481106124c357fe5b9060005260206000200160009054906101000a90046001600160a01b0316816002815181106124ee57fe5b60200260200101906001600160a01b031690816001600160a01b031681525050600e60008154811061251c57fe5b60009182526020822001546040516338ed173960e01b81526001600160a01b03909116916338ed17399161255a918691869030904290600401613e5a565b600060405180830381600087803b15801561257457600080fd5b505af1158015612588573d6000803e3d6000fd5b505050506040513d6000823e601f3d908101601f191682016040526125b091908101906137da565b50505b6040516370a0823160e01b8152600090734e3fbd56cd56c3e72c1403e103b45db9da5b9d2b906370a08231906125ed903090600401613b2b565b60206040518083038186803b15801561260557600080fd5b505afa158015612619573d6000803e3d6000fd5b505050506040513d601f19601f8201168201806040525081019061263d9190613a36565b905080156127e95760408051600380825260808201909252606091602082018380368337019050509050734e3fbd56cd56c3e72c1403e103b45db9da5b9d2b8160008151811061268957fe5b60200260200101906001600160a01b031690816001600160a01b03168152505073c02aaa39b223fe8d0a0e5c4f27ead9083c756cc2816001815181106126cb57fe5b60200260200101906001600160a01b031690816001600160a01b03168152505060106001815481106126f957fe5b9060005260206000200160009054906101000a90046001600160a01b03168160028151811061272457fe5b60200260200101906001600160a01b031690816001600160a01b031681525050600e60018154811061275257fe5b60009182526020822001546040516338ed173960e01b81526001600160a01b03909116916338ed173991612790918691869030904290600401613e5a565b600060405180830381600087803b1580156127aa57600080fd5b505af11580156127be573d6000803e3d6000fd5b505050506040513d6000823e601f3d908101601f191682016040526127e691908101906137da565b50505b6040516370a0823160e01b8152600090736b175474e89094c44da98b954eedeac495271d0f906370a0823190612823903090600401613b2b565b60206040518083038186803b15801561283b57600080fd5b505afa15801561284f573d6000803e3d6000fd5b505050506040513d601f19601f820116820180604052508101906128739190613a36565b6040516370a0823160e01b815290915060009073a0b86991c6218b36c1d19d4a2e9eb0ce3606eb48906370a08231906128b0903090600401613b2b565b60206040518083038186803b1580156128c857600080fd5b505afa1580156128dc573d6000803e3d6000fd5b505050506040513d601f19601f820116820180604052508101906129009190613a36565b6040516370a0823160e01b815290915060009073dac17f958d2ee523a2206206994597c13d831ec7906370a082319061293d903090600401613b2b565b60206040518083038186803b15801561295557600080fd5b505afa158015612969573d6000803e3d6000fd5b505050506040513d601f19601f8201168201806040525081019061298d9190613a36565b9050600083118061299e5750600082115b806129a95750600081115b15612a2b57600d5460408051606081018252858152602081018590528082018490529051634515cef360e01b81526001600160a01b0390921691634515cef3916129f891600090600401613bb0565b600060405180830381600087803b158015612a1257600080fd5b505af1158015612a26573d6000803e3d6000fd5b505050505b6005546040516370a0823160e01b8152612ab79188916001600160a01b03909116906370a0823190612a61903090600401613b2b565b60206040518083038186803b158015612a7957600080fd5b505afa158015612a8d573d6000803e3d6000fd5b505050506040513d601f19601f82011682018060405250810190612ab19190613a36565b90612284565b98506000612ac361169e565b6001546040516339ebf82360e01b81529192506000916001600160a01b03909116906339ebf82390612af9903090600401613b2b565b6101206040518083038186803b158015612b1257600080fd5b505afa158015612b26573d6000803e3d6000fd5b505050506040513d601f19601f82011682018060405250810190612b4a91906139a0565b60c00151905080821015612b6257818103995060009a505b8b15612b8a57612b718c612ef9565b50612b878c612b828d612ab1611245565b613042565b98505b50505050505050509193909250565b80612bf357736b175474e89094c44da98b954eedeac495271d0f60108381548110612bc057fe5b9060005260206000200160006101000a8154816001600160a01b0302191690836001600160a01b03160217905550610822565b8060011415612c1e5773a0b86991c6218b36c1d19d4a2e9eb0ce3606eb4860108381548110612bc057fe5b73dac17f958d2ee523a2206206994597c13d831ec760108381548110612c4057fe5b9060005260206000200160006101000a8154816001600160a01b0302191690836001600160a01b031602179055505050565b600c54600a546040516324f81cd160e11b81526001600160a01b03909216916349f039a291612cad9161010090910460ff1690600401613be8565b600060405180830381600087803b158015612cc757600080fd5b505af1158015612cdb573d6000803e3d6000fd5b505050506113fe81613058565b612cf061199c565b6001600160a01b0316336001600160a01b03161480611a5457506002546001600160a01b03163314610d1257600080fd5b6000828201838110156122c65760405162461bcd60e51b81526004016106f890613c74565b6000610a306131aa565b600082612d5f575060006122c9565b82820282848281612d6c57fe5b04146122c65760405162461bcd60e51b81526004016106f890613cab565b6002546001600160a01b031633148061202e575061201961199c565b6060612dfb826040518060400160405280602081526020017f5361666545524332303a206c6f772d6c6576656c2063616c6c206661696c6564815250856001600160a01b03166118bb9092919063ffffffff16565b8051909150156118b65780806020019051810190612e19919061388b565b6118b65760405162461bcd60e51b81526004016106f890613d64565b6060612e4085613616565b612e5c5760405162461bcd60e51b81526004016106f890613d2d565b60006060866001600160a01b03168587604051612e799190613ae1565b60006040518083038185875af1925050503d8060008114612eb6576040519150601f19603f3d011682016040523d82523d6000602084013e612ebb565b606091505b50915091508115612ecf5791506118ca9050565b805115612edf5780518082602001fd5b8360405162461bcd60e51b81526004016106f89190613c22565b6000612f0782612b826109af565b91506000612f13611245565b600c54604051636197390160e11b81529192506001600160a01b03169063c32e720290612f47908690600090600401613e4a565b602060405180830381600087803b158015612f6157600080fd5b505af1158015612f75573d6000803e3d6000fd5b505050506040513d601f19601f82011682018060405250810190612f99919061388b565b50612fa681612ab1611245565b9392505050565b60008184841115612fd15760405162461bcd60e51b81526004016106f89190613c22565b505050900390565b600080612ffd612710612ff7600f5486612d5090919063ffffffff16565b9061364f565b905080156130385761303873d533a949740bb3306d119cc777fa900ba034cd5273f147b8125d2ef93fb6965db97d6746952a13393483611a19565b612fa68382612284565b600081831061305157816122c6565b5090919050565b6040516370a0823160e01b815261310190829073d533a949740bb3306d119cc777fa900ba034cd52906370a0823190613095903090600401613b2b565b60206040518083038186803b1580156130ad57600080fd5b505afa1580156130c1573d6000803e3d6000fd5b505050506040513d601f19601f820116820180604052508101906130e59190613a36565b73d533a949740bb3306d119cc777fa900ba034cd529190611a19565b6040516370a0823160e01b81526113fe908290734e3fbd56cd56c3e72c1403e103b45db9da5b9d2b906370a082319061313e903090600401613b2b565b60206040518083038186803b15801561315657600080fd5b505afa15801561316a573d6000803e3d6000fd5b505050506040513d601f19601f8201168201806040525081019061318e9190613a36565b734e3fbd56cd56c3e72c1403e103b45db9da5b9d2b9190611a19565b600c546040516246613160e11b815260009182916001600160a01b0390911690628cc262906131dd903090600401613b2b565b60206040518083038186803b1580156131f557600080fd5b505afa158015613209573d6000803e3d6000fd5b505050506040513d601f19601f8201168201806040525081019061322d9190613a36565b905060006103e8905060006a52b7d2dcc80cd2e40000009050600069152d02c7e14af680000090506000734e3fbd56cd56c3e72c1403e103b45db9da5b9d2b6001600160a01b03166318160ddd6040518163ffffffff1660e01b815260040160206040518083038186803b1580156132a457600080fd5b505afa1580156132b8573d6000803e3d6000fd5b505050506040513d601f19601f820116820180604052508101906132dc9190613a36565b90506000806132eb838561364f565b9050858110156133305760006133018783612284565b905061331187612ff78a84612d50565b9250600061331f8786612284565b90508084111561332d578093505b50505b6000871561349757604080516002808252606080830184529260208301908036833701905050905073d533a949740bb3306d119cc777fa900ba034cd528160008151811061337a57fe5b60200260200101906001600160a01b031690816001600160a01b03168152505073c02aaa39b223fe8d0a0e5c4f27ead9083c756cc2816001815181106133bc57fe5b60200260200101906001600160a01b031690816001600160a01b0316815250506060600e6000815481106133ec57fe5b60009182526020909120015460405163d06ca61f60e01b81526001600160a01b039091169063d06ca61f90613427908d908690600401613e31565b60006040518083038186803b15801561343f57600080fd5b505afa158015613453573d6000803e3d6000fd5b505050506040513d6000823e601f3d908101601f1916820160405261347b91908101906137da565b90508060018151811061348a57fe5b6020026020010151925050505b600083156135fe576040805160028082526060808301845292602083019080368337019050509050734e3fbd56cd56c3e72c1403e103b45db9da5b9d2b816000815181106134e157fe5b60200260200101906001600160a01b031690816001600160a01b03168152505073c02aaa39b223fe8d0a0e5c4f27ead9083c756cc28160018151811061352357fe5b60200260200101906001600160a01b031690816001600160a01b0316815250506060600e60018154811061355357fe5b60009182526020909120015460405163d06ca61f60e01b81526001600160a01b039091169063d06ca61f9061358e9089908690600401613e31565b60006040518083038186803b1580156135a657600080fd5b505afa1580156135ba573d6000803e3d6000fd5b505050506040513d6000823e601f3d908101601f191682016040526135e291908101906137da565b9050806001815181106135f157fe5b6020026020010151925050505b6136088282612d21565b995050505050505050505090565b6000813f7fc5d2460186f7233c927e7db2dcc703c0e500b653ca82273b7bfad8045d85a4708181148015906118ca575050151592915050565b60006122c683836040518060400160405280601a81526020017f536166654d6174683a206469766973696f6e206279207a65726f000000000000815250600081836136ad5760405162461bcd60e51b81526004016106f89190613c22565b5060008385816136b957fe5b0495945050505050565b828054600181600116156101000203166002900490600052602060002090601f016020900481019282601f106137045782800160ff19823516178555613731565b82800160010185558215613731579182015b82811115613731578235825591602001919060010190613716565b5061373d92915061378d565b5090565b6040518061012001604052806000815260200160008152602001600081526020016000815260200160008152602001600081526020016000815260200160008152602001600081525090565b5b8082111561373d576000815560010161378e565b6000602082840312156137b3578081fd5b81356122c681613f56565b6000602082840312156137cf578081fd5b81516122c681613f56565b600060208083850312156137ec578182fd5b825167ffffffffffffffff811115613802578283fd5b8301601f81018513613812578283fd5b805161382561382082613f06565b613edf565b8181528381019083850185840285018601891015613841578687fd5b8694505b83851015613863578051835260019490940193918501918501613845565b50979650505050505050565b600060208284031215613880578081fd5b81356122c681613f6b565b60006020828403121561389c578081fd5b81516122c681613f6b565b600080602083850312156138b9578081fd5b823567ffffffffffffffff808211156138d0578283fd5b818501915085601f8301126138e3578283fd5b8135818111156138f1578384fd5b866020828501011115613902578384fd5b60209290920196919550909350505050565b600060208284031215613925578081fd5b815167ffffffffffffffff8082111561393c578283fd5b818401915084601f83011261394f578283fd5b81518181111561395d578384fd5b613970601f8201601f1916602001613edf565b9150808252856020828501011115613986578384fd5b613997816020840160208601613f26565b50949350505050565b60006101208083850312156139b3578182fd5b6139bc81613edf565b9050825181526020830151602082015260408301516040820152606083015160608201526080830151608082015260a083015160a082015260c083015160c082015260e083015160e08201526101008084015181830152508091505092915050565b600060208284031215613a2f578081fd5b5035919050565b600060208284031215613a47578081fd5b5051919050565b60008060408385031215613a60578182fd5b823591506020830135613a7281613f56565b809150509250929050565b60008060408385031215613a8f578182fd5b50508035926020909101359150565b6000815180845260208085019450808401835b83811015613ad65781516001600160a01b031687529582019590820190600101613ab1565b509495945050505050565b60008251613af3818460208701613f26565b9190910192915050565b600065086dedceccaf60d31b82528251613b1e816006850160208701613f26565b9190910160060192915050565b6001600160a01b0391909116815260200190565b6001600160a01b0392831681529116602082015260400190565b6001600160a01b0393841681529183166020830152909116604082015260600190565b6001600160a01b039290921682521515602082015260400190565b6001600160a01b03929092168252602082015260400190565b60808101818460005b6003811015613bd8578151835260209283019290910190600101613bb9565b5050508260608301529392505050565b901515815260200190565b60006020825282602083015282846040840137818301604090810191909152601f909201601f19160101919050565b6000602082528251806020840152613c41816040850160208701613f26565b601f01601f19169190910160400192915050565b602080825260059082015264085dd85b9d60da1b604082015260600190565b6020808252601b908201527f536166654d6174683a206164646974696f6e206f766572666c6f770000000000604082015260600190565b60208082526021908201527f536166654d6174683a206d756c7469706c69636174696f6e206f766572666c6f6040820152607760f81b606082015260800190565b602080825260069082015265085d985d5b1d60d21b604082015260600190565b6020808252600790820152662173686172657360c81b604082015260600190565b6020808252601d908201527f416464726573733a2063616c6c20746f206e6f6e2d636f6e7472616374000000604082015260600190565b6020808252602a908201527f5361666545524332303a204552433230206f7065726174696f6e20646964206e6040820152691bdd081cdd58d8d9595960b21b606082015260800190565b6020808252600a9082015269085c1c9bdd1958dd195960b21b604082015260600190565b60208082526036908201527f5361666545524332303a20617070726f76652066726f6d206e6f6e2d7a65726f60408201527520746f206e6f6e2d7a65726f20616c6c6f77616e636560501b606082015260800190565b90815260200190565b6000838252604060208301526118ca6040830184613a9e565b9182521515602082015260400190565b600086825285602083015260a06040830152613e7960a0830186613a9e565b6001600160a01b0394909416606083015250608001529392505050565b92835260208301919091521515604082015260600190565b9283526020830191909152604082015260600190565b93845260208401929092526040830152606082015260800190565b60405181810167ffffffffffffffff81118282101715613efe57600080fd5b604052919050565b600067ffffffffffffffff821115613f1c578081fd5b5060209081020190565b60005b83811015613f41578181015183820152602001613f29565b83811115613f50576000848401525b50505050565b6001600160a01b03811681146113fe57600080fd5b80151581146113fe57600080fdfea264697066735822122028bbfbd8e9dcff5ee537018b10733e2a792e6f62413ec74feb5ea991ac2346ab64736f6c634300060c0033",
  "bytecodeSha1": "63d604d9a37d9c11df9a0147abadc7af727baa3e",
  "compiler": {
    "evm_version": "istanbul",
    "optimizer": {
      "enabled": true,
      "runs": 200
    },
    "version": "0.6.12+commit.27d51765"
  },
  "contractName": "Strategy",
  "deployedBytecode": "608060405234801561001057600080fd5b50600436106103af5760003560e01c80636ea69d62116101f45780639be287851161011a578063ce5494bb116100ad578063f017c92f1161007c578063f017c92f14610697578063f4b9fa75146106aa578063fbfa77cf146106b2578063fcf2d0ad146106ba576103af565b8063ce5494bb14610656578063ec38a86214610669578063ed882c2b1461067c578063efbb5cb01461068f576103af565b8063c1a3d44c116100e9578063c1a3d44c14610620578063c6def07614610628578063c768780314610630578063c7b9d53014610643576103af565b80639be28785146106005780639ec5a89414610608578063aced166114610610578063af640d0f14610618576103af565b80638516c2c811610192578063918f867411610161578063918f8674146105d5578063923c1d61146105dd578063955383bd146105e557806395e80c50146105f8576103af565b80638516c2c81461059f5780638cdfe166146105b25780638e6350e2146105ba57806391397ab4146105c2576103af565b8063750521f5116101ce578063750521f51461055e578063780022a0146105715780637fef901a1461058457806381639eda1461058c576103af565b80636ea69d621461053b5780637165485d14610543578063748747e61461054b576103af565b80632e1a7d4d116102d9578063440368a311610277578063565399a011610246578063565399a0146104fa5780636095dd7b1461050d578063650d1880146105205780636a4874a114610533576103af565b8063440368a3146104da5780634641257d146104e257806346c96aac146104ea5780635641ec03146104f2576103af565b8063380d0c08116102b3578063380d0c08146104af57806339a172a8146104b75780633e413bee146104ca5780633fc8cef3146104d2576103af565b80632e1a7d4d1461048c5780632f48ab7d1461049f57806334659dc5146104a7576103af565b80631d12f28b1161035157806324d16c1a1161032057806324d16c1a1461046157806325829410146104745780632681f7e41461047c57806328b7ccf714610484576103af565b80631d12f28b146104345780631f1fcd511461043c5780631fe4a6861461045157806322f3e2d414610459576103af565b80630acd095b1161038d5780630acd095b146103ef5780630f969b871461040457806311588086146104175780631c459a7f1461042c576103af565b806301681a62146103b457806303ee438c146103c957806306fdde03146103e7575b600080fd5b6103c76103c23660046137a2565b6106c2565b005b6103d1610826565b6040516103de9190613c22565b60405180910390f35b6103d16108b4565b6103f7610959565b6040516103de9190613be8565b6103c7610412366004613a1e565b610967565b61041f6109af565b6040516103de9190613e28565b6103f7610a35565b61041f610a44565b610444610a4a565b6040516103de9190613b2b565b610444610a59565b6103f7610a68565b61044461046f366004613a1e565b610b09565b6103d1610b30565b610444610b4f565b61041f610b67565b61041f61049a366004613a1e565b610b6d565b610444610bc8565b6103c7610be0565b6103c7610cfa565b6103c76104c5366004613a1e565b610d14565b610444610d51565b610444610d69565b6103c7610d81565b6103c7610e0c565b610444610fe1565b6103f7610ff9565b610444610508366004613a1e565b611002565b6103c761051b366004613a7d565b61100f565b6103f761052e366004613a1e565b611021565b610444611029565b610444611041565b610444611050565b6103c76105593660046137a2565b61105f565b6103c761056c3660046138a7565b6110c5565b61041f61057f366004613a1e565b611117565b61041f61111a565b6103c761059a366004613a4e565b611120565b6103c76105ad36600461386f565b61116c565b61041f611190565b61041f611196565b6103c76105d0366004613a1e565b61119b565b61041f6111d8565b6104446111de565b6103c76105f3366004613a1e565b6111f6565b61041f611203565b610444611209565b610444611221565b610444611230565b61041f61123f565b61041f611245565b610444611276565b6103c761063e36600461386f565b61128e565b6103c76106513660046137a2565b6112b0565b6103c76106643660046137a2565b611316565b6103c76106773660046137a2565b611401565b6103f761068a366004613a1e565b6114ca565b61041f61169e565b6103c76106a5366004613a1e565b6116b9565b6104446116f6565b61044461170e565b6103c761171d565b6106ca6118d2565b6005546001600160a01b03828116911614156107015760405162461bcd60e51b81526004016106f890613c55565b60405180910390fd5b6001546001600160a01b038281169116141561072f5760405162461bcd60e51b81526004016106f890613d0c565b60606107396118f7565b905060005b81518110156107945781818151811061075357fe5b60200260200101516001600160a01b0316836001600160a01b0316141561078c5760405162461bcd60e51b81526004016106f890613dae565b60010161073e565b50610822826107a161199c565b6040516370a0823160e01b81526001600160a01b038616906370a08231906107cd903090600401613b2b565b60206040518083038186803b1580156107e557600080fd5b505afa1580156107f9573d6000803e3d6000fd5b505050506040513d601f19601f8201168201806040525081019061081d9190613a36565b611a19565b5050565b6000805460408051602060026001851615610100026000190190941693909304601f810184900484028201840190925281815292918301828280156108ac5780601f10610881576101008083540402835291602001916108ac565b820191906000526020600020905b81548152906001019060200180831161088f57829003601f168201915b505050505081565b600554604080516395d89b4160e01b815290516060926001600160a01b0316916395d89b41916004808301926000929190829003018186803b1580156108f957600080fd5b505afa15801561090d573d6000803e3d6000fd5b505050506040513d6000823e601f3d908101601f191682016040526109359190810190613914565b6040516020016109459190613afd565b604051602081830303815290604052905090565b600a54610100900460ff1681565b61096f611a38565b60098190556040517fa68ba126373d04c004c5748c300c9fca12bd444b3d4332e261f3bd2bac4a8600906109a4908390613e28565b60405180910390a150565b600c546040516370a0823160e01b81526000916001600160a01b0316906370a08231906109e0903090600401613b2b565b60206040518083038186803b1580156109f857600080fd5b505afa158015610a0c573d6000803e3d6000fd5b505050506040513d601f19601f82011682018060405250810190610a309190613a36565b905090565b600a5462010000900460ff1681565b60095481565b6005546001600160a01b031681565b6002546001600160a01b031681565b6001546040516339ebf82360e01b815260009182916001600160a01b03909116906339ebf82390610a9d903090600401613b2b565b6101206040518083038186803b158015610ab657600080fd5b505afa158015610aca573d6000803e3d6000fd5b505050506040513d601f19601f82011682018060405250810190610aee91906139a0565b604001511180610a3057506000610b0361169e565b11905090565b600e8181548110610b1657fe5b6000918252602090912001546001600160a01b0316905081565b604080518082019091526005815264302e342e3360d81b602082015290565b737a250d5630b4cf539739df2c5dacb4c659f2488d81565b60075481565b6001546000906001600160a01b03163314610b9a5760405162461bcd60e51b81526004016106f890613cec565b6000610ba583611a5d565b600554909350909150610bc2906001600160a01b03163383611a19565b50919050565b73dac17f958d2ee523a2206206994597c13d831ec781565b610be8611a38565b600c546040516370a0823160e01b81526000916001600160a01b0316906370a0823190610c19903090600401613b2b565b60206040518083038186803b158015610c3157600080fd5b505afa158015610c45573d6000803e3d6000fd5b505050506040513d601f19601f82011682018060405250810190610c699190613a36565b600c54600a54604051631c683a1b60e11b81529293506001600160a01b03909116916338d0743691610ca8918591610100900460ff1690600401613e4a565b602060405180830381600087803b158015610cc257600080fd5b505af1158015610cd6573d6000803e3d6000fd5b505050506040513d601f19601f82011682018060405250810190610822919061388b565b610d02611a38565b610d0a611aaf565b610d12611cf5565b565b610d1c611a38565b60068190556040517fbb2c369a0355a34b02ab5fce0643150c87e1c8dfe7c918d465591879f57948b1906109a4908390613e28565b73a0b86991c6218b36c1d19d4a2e9eb0ce3606eb4881565b73c02aaa39b223fe8d0a0e5c4f27ead9083c756cc281565b610d89611fe8565b6001546040805163bf3759b560e01b81529051610d12926001600160a01b03169163bf3759b5916004808301926020929190829003018186803b158015610dcf57600080fd5b505afa158015610de3573d6000803e3d6000fd5b505050506040513d601f19601f82011682018060405250810190610e079190613a36565b61215b565b610e14611fe8565b6000806000600160009054906101000a90046001600160a01b03166001600160a01b031663bf3759b56040518163ffffffff1660e01b815260040160206040518083038186803b158015610e6757600080fd5b505afa158015610e7b573d6000803e3d6000fd5b505050506040513d601f19601f82011682018060405250810190610e9f9190613a36565b600a5490915060009060ff1615610efc576000610eba611245565b905082811015610ed557610ece8382612284565b9350610eea565b82811115610eea57610ee78184612284565b94505b610ef48385612284565b915050610f0d565b610f05826122cf565b919550935090505b6001546040516328766ebf60e21b81526001600160a01b039091169063a1d9bafc90610f4190879087908690600401613eae565b602060405180830381600087803b158015610f5b57600080fd5b505af1158015610f6f573d6000803e3d6000fd5b505050506040513d601f19601f82011682018060405250810190610f939190613a36565b9150610f9e8261215b565b7f4c0f499ffe6befa0ca7c826b0916cf87bea98de658013e76938489368d60d50984848385604051610fd39493929190613ec4565b60405180910390a150505050565b73f147b8125d2ef93fb6965db97d6746952a13393481565b600a5460ff1681565b60108181548110610b1657fe5b611017611a38565b6108228282612b99565b60005b919050565b73d533a949740bb3306d119cc777fa900ba034cd5281565b600c546001600160a01b031681565b600d546001600160a01b031681565b611067611a38565b6001600160a01b03811661107a57600080fd5b600480546001600160a01b0319166001600160a01b0383161790556040517f2f202ddb4a2e345f6323ed90f8fc8559d770a7abbbeee84dde8aca3351fe7154906109a4908390613b2b565b6110cd611a38565b6110d9600083836136c3565b507f300e67d5a415b6d015a471d9c7b95dd58f3e8290af965e84e0f845de2996dda6828260405161110b929190613bf3565b60405180910390a15050565b90565b600f5481565b611128611a38565b80600e838154811061113657fe5b9060005260206000200160006101000a8154816001600160a01b0302191690836001600160a01b03160217905550610822611cf5565b611174611a38565b600a8054911515620100000262ff000019909216919091179055565b60085481565b600090565b6111a3611a38565b60088190556040517fd94596337df4c2f0f44d30a7fc5db1c7bb60d9aca4185ed77c6fd96eb45ec298906109a4908390613e28565b61271081565b734e3fbd56cd56c3e72c1403e103b45db9da5b9d2b81565b6111fe611a38565b600f55565b60065481565b73d9e1ce17f2641f24ae83637ab66a2cca9c378b9f81565b6003546001600160a01b031681565b6004546001600160a01b031681565b600b5481565b6005546040516370a0823160e01b81526000916001600160a01b0316906370a08231906109e0903090600401613b2b565b73f403c135812408bfbe8713b5a23a04b3d48aae3181565b611296611a38565b600a80549115156101000261ff0019909216919091179055565b6112b8611a38565b6001600160a01b0381166112cb57600080fd5b600280546001600160a01b0319166001600160a01b0383161790556040517f352ececae6d7d1e6d26bcf2c549dfd55be1637e9b22dc0cf3b71ddb36097a6b4906109a4908390613b2b565b6001546001600160a01b0316331461132d57600080fd5b6001546040805163fbfa77cf60e01b815290516001600160a01b039283169284169163fbfa77cf916004808301926020929190829003018186803b15801561137457600080fd5b505afa158015611388573d6000803e3d6000fd5b505050506040513d601f19601f820116820180604052508101906113ac91906137be565b6001600160a01b0316146113bf57600080fd5b6113c881612c72565b6005546040516370a0823160e01b81526113fe916001600160a01b031690839082906370a08231906107cd903090600401613b2b565b50565b611409612ce8565b600380546001600160a01b038381166001600160a01b0319831617909255600154604051635b70bdbf60e11b81529183169273__$eb9b5892ae0349d1b5d3fad03cb4ae8f40$__9263b6e17b7e9261146b928692889290911690600401613b59565b60006040518083038186803b15801561148357600080fd5b505af4158015611497573d6000803e3d6000fd5b505050507fafbb66abf8f3b719799940473a4052a3717cdd8e40fb6c8a3faadab316b1a0698260405161110b9190613b2b565b60006114d4613741565b6001546040516339ebf82360e01b81526001600160a01b03909116906339ebf82390611504903090600401613b2b565b6101206040518083038186803b15801561151d57600080fd5b505afa158015611531573d6000803e3d6000fd5b505050506040513d601f19601f8201168201806040525081019061155591906139a0565b905080602001516000141561156e576000915050611024565b60065460a0820151611581904290612284565b1015611591576000915050611024565b60075460a08201516115a4904290612284565b106115b3576001915050611024565b6001546040805163bf3759b560e01b815290516000926001600160a01b03169163bf3759b5916004808301926020929190829003018186803b1580156115f857600080fd5b505afa15801561160c573d6000803e3d6000fd5b505050506040513d601f19601f820116820180604052508101906116309190613a36565b905060095481111561164757600192505050611024565b600061165161169e565b90508260c0015161166d60095483612d2190919063ffffffff16565b101561167f5760019350505050611024565b611687612d46565b6008546116949087612d50565b1095945050505050565b6000610a306116ab6109af565b6116b3611245565b90612d21565b6116c1611a38565b60078190556040517f5430e11864ad7aa9775b07d12657fe52df9aa2ba734355bd8ef8747be2c800c5906109a4908390613e28565b736b175474e89094c44da98b954eedeac495271d0f81565b6001546001600160a01b031681565b611725612d8a565b600a805460ff19166001908117909155546040805163507257cd60e11b815290516001600160a01b039092169163a0e4af9a9160048082019260009290919082900301818387803b15801561177957600080fd5b505af115801561178d573d6000803e3d6000fd5b50506040517f97e963041e952738788b9d4871d854d282065b8f90a464928d6528f2e9a4fd0b925060009150a1565b8015806118445750604051636eb1769f60e11b81526001600160a01b0384169063dd62ed3e906117f29030908690600401613b3f565b60206040518083038186803b15801561180a57600080fd5b505afa15801561181e573d6000803e3d6000fd5b505050506040513d601f19601f820116820180604052508101906118429190613a36565b155b6118605760405162461bcd60e51b81526004016106f890613dd2565b6118b68363095ea7b360e01b848460405160240161187f929190613b97565b60408051601f198184030181529190526020810180516001600160e01b03166001600160e01b031990931692909217909152612da6565b505050565b60606118ca8484600085612e35565b949350505050565b6118da61199c565b6001600160a01b0316336001600160a01b031614610d1257600080fd5b60408051600280825260608083018452928392919060208301908036833701905050905073d533a949740bb3306d119cc777fa900ba034cd528160008151811061193d57fe5b60200260200101906001600160a01b031690816001600160a01b031681525050734e3fbd56cd56c3e72c1403e103b45db9da5b9d2b8160018151811061197f57fe5b6001600160a01b0390921660209283029190910190910152905090565b60015460408051635aa6e67560e01b815290516000926001600160a01b031691635aa6e675916004808301926020929190829003018186803b1580156119e157600080fd5b505afa1580156119f5573d6000803e3d6000fd5b505050506040513d601f19601f82011682018060405250810190610a3091906137be565b6118b68363a9059cbb60e01b848460405160240161187f929190613b97565b6002546001600160a01b0316331480611a5457506118da61199c565b610d1257600080fd5b6000806000611a6a611245565b905083811015611aa557611a86611a818583612284565b612ef9565b9250611a928382612d21565b9250611a9e8484612284565b9150611aa9565b8392505b50915091565b60055460405163095ea7b360e01b81526001600160a01b039091169063095ea7b390611af69073f403c135812408bfbe8713b5a23a04b3d48aae3190600090600401613b97565b602060405180830381600087803b158015611b1057600080fd5b505af1158015611b24573d6000803e3d6000fd5b505050506040513d601f19601f82011682018060405250810190611b48919061388b565b5060055460405163095ea7b360e01b81526001600160a01b039091169063095ea7b390611b919073f403c135812408bfbe8713b5a23a04b3d48aae319060001990600401613b97565b602060405180830381600087803b158015611bab57600080fd5b505af1158015611bbf573d6000803e3d6000fd5b505050506040513d601f19601f82011682018060405250810190611be3919061388b565b50600d54611c1190736b175474e89094c44da98b954eedeac495271d0f906001600160a01b031660006117bc565b600d54611c3f90736b175474e89094c44da98b954eedeac495271d0f906001600160a01b03166000196117bc565b600d54611c6c9073a0b86991c6218b36c1d19d4a2e9eb0ce3606eb48906001600160a01b031660006117bc565b600d54611c9a9073a0b86991c6218b36c1d19d4a2e9eb0ce3606eb48906001600160a01b03166000196117bc565b600d54611cc79073dac17f958d2ee523a2206206994597c13d831ec7906001600160a01b031660006117bc565b600d54610d129073dac17f958d2ee523a2206206994597c13d831ec7906001600160a01b03166000196117bc565b73d533a949740bb3306d119cc777fa900ba034cd526001600160a01b031663095ea7b3600e600081548110611d2657fe5b60009182526020822001546040516001600160e01b031960e085901b168152611d5e926001600160a01b039092169190600401613b97565b602060405180830381600087803b158015611d7857600080fd5b505af1158015611d8c573d6000803e3d6000fd5b505050506040513d601f19601f82011682018060405250810190611db0919061388b565b5073d533a949740bb3306d119cc777fa900ba034cd526001600160a01b031663095ea7b3600e600081548110611de257fe5b6000918252602090912001546040516001600160e01b031960e084901b168152611e1c916001600160a01b03169060001990600401613b97565b602060405180830381600087803b158015611e3657600080fd5b505af1158015611e4a573d6000803e3d6000fd5b505050506040513d601f19601f82011682018060405250810190611e6e919061388b565b50734e3fbd56cd56c3e72c1403e103b45db9da5b9d2b6001600160a01b031663095ea7b3600e600181548110611ea057fe5b60009182526020822001546040516001600160e01b031960e085901b168152611ed8926001600160a01b039092169190600401613b97565b602060405180830381600087803b158015611ef257600080fd5b505af1158015611f06573d6000803e3d6000fd5b505050506040513d601f19601f82011682018060405250810190611f2a919061388b565b50734e3fbd56cd56c3e72c1403e103b45db9da5b9d2b6001600160a01b031663095ea7b3600e600181548110611f5c57fe5b6000918252602090912001546040516001600160e01b031960e084901b168152611f96916001600160a01b03169060001990600401613b97565b602060405180830381600087803b158015611fb057600080fd5b505af1158015611fc4573d6000803e3d6000fd5b505050506040513d601f19601f820116820180604052508101906113fe919061388b565b6004546001600160a01b031633148061200b57506002546001600160a01b031633145b8061202e575061201961199c565b6001600160a01b0316336001600160a01b0316145b806120cf5750600160009054906101000a90046001600160a01b03166001600160a01b031663452a93206040518163ffffffff1660e01b815260040160206040518083038186803b15801561208257600080fd5b505afa158015612096573d6000803e3d6000fd5b505050506040513d601f19601f820116820180604052508101906120ba91906137be565b6001600160a01b0316336001600160a01b0316145b80611a545750600160009054906101000a90046001600160a01b03166001600160a01b03166388a8d6026040518163ffffffff1660e01b815260040160206040518083038186803b15801561212357600080fd5b505afa158015612137573d6000803e3d6000fd5b505050506040513d601f19601f820116820180604052508101906118da91906137be565b600a5460ff161561216b576113fe565b6005546040516370a0823160e01b81526000916001600160a01b0316906370a082319061219c903090600401613b2b565b60206040518083038186803b1580156121b457600080fd5b505afa1580156121c8573d6000803e3d6000fd5b505050506040513d601f19601f820116820180604052508101906121ec9190613a36565b9050801561082257600b546040516321d0683360e11b815273f403c135812408bfbe8713b5a23a04b3d48aae31916343a0d0669161223291908590600190600401613e96565b602060405180830381600087803b15801561224c57600080fd5b505af1158015612260573d6000803e3d6000fd5b505050506040513d601f19601f820116820180604052508101906118b6919061388b565b60006122c683836040518060400160405280601e81526020017f536166654d6174683a207375627472616374696f6e206f766572666c6f770000815250612fad565b90505b92915050565b6000806000806122dd611245565b600c54600a54604051637050ccd960e01b81529293506001600160a01b0390911691637050ccd99161231d91309162010000900460ff1690600401613b7c565b602060405180830381600087803b15801561233757600080fd5b505af115801561234b573d6000803e3d6000fd5b505050506040513d601f19601f8201168201806040525081019061236f919061388b565b506040516370a0823160e01b815260009073d533a949740bb3306d119cc777fa900ba034cd52906370a08231906123aa903090600401613b2b565b60206040518083038186803b1580156123c257600080fd5b505afa1580156123d6573d6000803e3d6000fd5b505050506040513d601f19601f820116820180604052508101906123fa9190613a36565b905080156125b35761240b81612fd9565b604080516003808252608082019092529192506060919060208201838036833701905050905073d533a949740bb3306d119cc777fa900ba034cd528160008151811061245357fe5b60200260200101906001600160a01b031690816001600160a01b03168152505073c02aaa39b223fe8d0a0e5c4f27ead9083c756cc28160018151811061249557fe5b60200260200101906001600160a01b031690816001600160a01b03168152505060106000815481106124c357fe5b9060005260206000200160009054906101000a90046001600160a01b0316816002815181106124ee57fe5b60200260200101906001600160a01b031690816001600160a01b031681525050600e60008154811061251c57fe5b60009182526020822001546040516338ed173960e01b81526001600160a01b03909116916338ed17399161255a918691869030904290600401613e5a565b600060405180830381600087803b15801561257457600080fd5b505af1158015612588573d6000803e3d6000fd5b505050506040513d6000823e601f3d908101601f191682016040526125b091908101906137da565b50505b6040516370a0823160e01b8152600090734e3fbd56cd56c3e72c1403e103b45db9da5b9d2b906370a08231906125ed903090600401613b2b565b60206040518083038186803b15801561260557600080fd5b505afa158015612619573d6000803e3d6000fd5b505050506040513d601f19601f8201168201806040525081019061263d9190613a36565b905080156127e95760408051600380825260808201909252606091602082018380368337019050509050734e3fbd56cd56c3e72c1403e103b45db9da5b9d2b8160008151811061268957fe5b60200260200101906001600160a01b031690816001600160a01b03168152505073c02aaa39b223fe8d0a0e5c4f27ead9083c756cc2816001815181106126cb57fe5b60200260200101906001600160a01b031690816001600160a01b03168152505060106001815481106126f957fe5b9060005260206000200160009054906101000a90046001600160a01b03168160028151811061272457fe5b60200260200101906001600160a01b031690816001600160a01b031681525050600e60018154811061275257fe5b60009182526020822001546040516338ed173960e01b81526001600160a01b03909116916338ed173991612790918691869030904290600401613e5a565b600060405180830381600087803b1580156127aa57600080fd5b505af11580156127be573d6000803e3d6000fd5b505050506040513d6000823e601f3d908101601f191682016040526127e691908101906137da565b50505b6040516370a0823160e01b8152600090736b175474e89094c44da98b954eedeac495271d0f906370a0823190612823903090600401613b2b565b60206040518083038186803b15801561283b57600080fd5b505afa15801561284f573d6000803e3d6000fd5b505050506040513d601f19601f820116820180604052508101906128739190613a36565b6040516370a0823160e01b815290915060009073a0b86991c6218b36c1d19d4a2e9eb0ce3606eb48906370a08231906128b0903090600401613b2b565b60206040518083038186803b1580156128c857600080fd5b505afa1580156128dc573d6000803e3d6000fd5b505050506040513d601f19601f820116820180604052508101906129009190613a36565b6040516370a0823160e01b815290915060009073dac17f958d2ee523a2206206994597c13d831ec7906370a082319061293d903090600401613b2b565b60206040518083038186803b15801561295557600080fd5b505afa158015612969573d6000803e3d6000fd5b505050506040513d601f19601f8201168201806040525081019061298d9190613a36565b9050600083118061299e5750600082115b806129a95750600081115b15612a2b57600d5460408051606081018252858152602081018590528082018490529051634515cef360e01b81526001600160a01b0390921691634515cef3916129f891600090600401613bb0565b600060405180830381600087803b158015612a1257600080fd5b505af1158015612a26573d6000803e3d6000fd5b505050505b6005546040516370a0823160e01b8152612ab79188916001600160a01b03909116906370a0823190612a61903090600401613b2b565b60206040518083038186803b158015612a7957600080fd5b505afa158015612a8d573d6000803e3d6000fd5b505050506040513d601f19601f82011682018060405250810190612ab19190613a36565b90612284565b98506000612ac361169e565b6001546040516339ebf82360e01b81529192506000916001600160a01b03909116906339ebf82390612af9903090600401613b2b565b6101206040518083038186803b158015612b1257600080fd5b505afa158015612b26573d6000803e3d6000fd5b505050506040513d601f19601f82011682018060405250810190612b4a91906139a0565b60c00151905080821015612b6257818103995060009a505b8b15612b8a57612b718c612ef9565b50612b878c612b828d612ab1611245565b613042565b98505b50505050505050509193909250565b80612bf357736b175474e89094c44da98b954eedeac495271d0f60108381548110612bc057fe5b9060005260206000200160006101000a8154816001600160a01b0302191690836001600160a01b03160217905550610822565b8060011415612c1e5773a0b86991c6218b36c1d19d4a2e9eb0ce3606eb4860108381548110612bc057fe5b73dac17f958d2ee523a2206206994597c13d831ec760108381548110612c4057fe5b9060005260206000200160006101000a8154816001600160a01b0302191690836001600160a01b031602179055505050565b600c54600a546040516324f81cd160e11b81526001600160a01b03909216916349f039a291612cad9161010090910460ff1690600401613be8565b600060405180830381600087803b158015612cc757600080fd5b505af1158015612cdb573d6000803e3d6000fd5b505050506113fe81613058565b612cf061199c565b6001600160a01b0316336001600160a01b03161480611a5457506002546001600160a01b03163314610d1257600080fd5b6000828201838110156122c65760405162461bcd60e51b81526004016106f890613c74565b6000610a306131aa565b600082612d5f575060006122c9565b82820282848281612d6c57fe5b04146122c65760405162461bcd60e51b81526004016106f890613cab565b6002546001600160a01b031633148061202e575061201961199c565b6060612dfb826040518060400160405280602081526020017f5361666545524332303a206c6f772d6c6576656c2063616c6c206661696c6564815250856001600160a01b03166118bb9092919063ffffffff16565b8051909150156118b65780806020019051810190612e19919061388b565b6118b65760405162461bcd60e51b81526004016106f890613d64565b6060612e4085613616565b612e5c5760405162461bcd60e51b81526004016106f890613d2d565b60006060866001600160a01b03168587604051612e799190613ae1565b60006040518083038185875af1925050503d8060008114612eb6576040519150601f19603f3d011682016040523d82523d6000602084013e612ebb565b606091505b50915091508115612ecf5791506118ca9050565b805115612edf5780518082602001fd5b8360405162461bcd60e51b81526004016106f89190613c22565b6000612f0782612b826109af565b91506000612f13611245565b600c54604051636197390160e11b81529192506001600160a01b03169063c32e720290612f47908690600090600401613e4a565b602060405180830381600087803b158015612f6157600080fd5b505af1158015612f75573d6000803e3d6000fd5b505050506040513d601f19601f82011682018060405250810190612f99919061388b565b50612fa681612ab1611245565b9392505050565b60008184841115612fd15760405162461bcd60e51b81526004016106f89190613c22565b505050900390565b600080612ffd612710612ff7600f5486612d5090919063ffffffff16565b9061364f565b905080156130385761303873d533a949740bb3306d119cc777fa900ba034cd5273f147b8125d2ef93fb6965db97d6746952a13393483611a19565b612fa68382612284565b600081831061305157816122c6565b5090919050565b6040516370a0823160e01b815261310190829073d533a949740bb3306d119cc777fa900ba034cd52906370a0823190613095903090600401613b2b565b60206040518083038186803b1580156130ad57600080fd5b505afa1580156130c1573d6000803e3d6000fd5b505050506040513d601f19601f820116820180604052508101906130e59190613a36565b73d533a949740bb3306d119cc777fa900ba034cd529190611a19565b6040516370a0823160e01b81526113fe908290734e3fbd56cd56c3e72c1403e103b45db9da5b9d2b906370a082319061313e903090600401613b2b565b60206040518083038186803b15801561315657600080fd5b505afa15801561316a573d6000803e3d6000fd5b505050506040513d601f19601f8201168201806040525081019061318e9190613a36565b734e3fbd56cd56c3e72c1403e103b45db9da5b9d2b9190611a19565b600c546040516246613160e11b815260009182916001600160a01b0390911690628cc262906131dd903090600401613b2b565b60206040518083038186803b1580156131f557600080fd5b505afa158015613209573d6000803e3d6000fd5b505050506040513d601f19601f8201168201806040525081019061322d9190613a36565b905060006103e8905060006a52b7d2dcc80cd2e40000009050600069152d02c7e14af680000090506000734e3fbd56cd56c3e72c1403e103b45db9da5b9d2b6001600160a01b03166318160ddd6040518163ffffffff1660e01b815260040160206040518083038186803b1580156132a457600080fd5b505afa1580156132b8573d6000803e3d6000fd5b505050506040513d601f19601f820116820180604052508101906132dc9190613a36565b90506000806132eb838561364f565b9050858110156133305760006133018783612284565b905061331187612ff78a84612d50565b9250600061331f8786612284565b90508084111561332d578093505b50505b6000871561349757604080516002808252606080830184529260208301908036833701905050905073d533a949740bb3306d119cc777fa900ba034cd528160008151811061337a57fe5b60200260200101906001600160a01b031690816001600160a01b03168152505073c02aaa39b223fe8d0a0e5c4f27ead9083c756cc2816001815181106133bc57fe5b60200260200101906001600160a01b031690816001600160a01b0316815250506060600e6000815481106133ec57fe5b60009182526020909120015460405163d06ca61f60e01b81526001600160a01b039091169063d06ca61f90613427908d908690600401613e31565b60006040518083038186803b15801561343f57600080fd5b505afa158015613453573d6000803e3d6000fd5b505050506040513d6000823e601f3d908101601f1916820160405261347b91908101906137da565b90508060018151811061348a57fe5b6020026020010151925050505b600083156135fe576040805160028082526060808301845292602083019080368337019050509050734e3fbd56cd56c3e72c1403e103b45db9da5b9d2b816000815181106134e157fe5b60200260200101906001600160a01b031690816001600160a01b03168152505073c02aaa39b223fe8d0a0e5c4f27ead9083c756cc28160018151811061352357fe5b60200260200101906001600160a01b031690816001600160a01b0316815250506060600e60018154811061355357fe5b60009182526020909120015460405163d06ca61f60e01b81526001600160a01b039091169063d06ca61f9061358e9089908690600401613e31565b60006040518083038186803b1580156135a657600080fd5b505afa1580156135ba573d6000803e3d6000fd5b505050506040513d6000823e601f3d908101601f191682016040526135e291908101906137da565b9050806001815181106135f157fe5b6020026020010151925050505b6136088282612d21565b995050505050505050505090565b6000813f7fc5d2460186f7233c927e7db2dcc703c0e500b653ca82273b7bfad8045d85a4708181148015906118ca575050151592915050565b60006122c683836040518060400160405280601a81526020017f536166654d6174683a206469766973696f6e206279207a65726f000000000000815250600081836136ad5760405162461bcd60e51b81526004016106f89190613c22565b5060008385816136b957fe5b0495945050505050565b828054600181600116156101000203166002900490600052602060002090601f016020900481019282601f106137045782800160ff19823516178555613731565b82800160010185558215613731579182015b82811115613731578235825591602001919060010190613716565b5061373d92915061378d565b5090565b6040518061012001604052806000815260200160008152602001600081526020016000815260200160008152602001600081526020016000815260200160008152602001600081525090565b5b8082111561373d576000815560010161378e565b6000602082840312156137b3578081fd5b81356122c681613f56565b6000602082840312156137cf578081fd5b81516122c681613f56565b600060208083850312156137ec578182fd5b825167ffffffffffffffff811115613802578283fd5b8301601f81018513613812578283fd5b805161382561382082613f06565b613edf565b8181528381019083850185840285018601891015613841578687fd5b8694505b83851015613863578051835260019490940193918501918501613845565b50979650505050505050565b600060208284031215613880578081fd5b81356122c681613f6b565b60006020828403121561389c578081fd5b81516122c681613f6b565b600080602083850312156138b9578081fd5b823567ffffffffffffffff808211156138d0578283fd5b818501915085601f8301126138e3578283fd5b8135818111156138f1578384fd5b866020828501011115613902578384fd5b60209290920196919550909350505050565b600060208284031215613925578081fd5b815167ffffffffffffffff8082111561393c578283fd5b818401915084601f83011261394f578283fd5b81518181111561395d578384fd5b613970601f8201601f1916602001613edf565b9150808252856020828501011115613986578384fd5b613997816020840160208601613f26565b50949350505050565b60006101208083850312156139b3578182fd5b6139bc81613edf565b9050825181526020830151602082015260408301516040820152606083015160608201526080830151608082015260a083015160a082015260c083015160c082015260e083015160e08201526101008084015181830152508091505092915050565b600060208284031215613a2f578081fd5b5035919050565b600060208284031215613a47578081fd5b5051919050565b60008060408385031215613a60578182fd5b823591506020830135613a7281613f56565b809150509250929050565b60008060408385031215613a8f578182fd5b50508035926020909101359150565b6000815180845260208085019450808401835b83811015613ad65781516001600160a01b031687529582019590820190600101613ab1565b509495945050505050565b60008251613af3818460208701613f26565b9190910192915050565b600065086dedceccaf60d31b82528251613b1e816006850160208701613f26565b9190910160060192915050565b6001600160a01b0391909116815260200190565b6001600160a01b0392831681529116602082015260400190565b6001600160a01b0393841681529183166020830152909116604082015260600190565b6001600160a01b039290921682521515602082015260400190565b6001600160a01b03929092168252602082015260400190565b60808101818460005b6003811015613bd8578151835260209283019290910190600101613bb9565b5050508260608301529392505050565b901515815260200190565b60006020825282602083015282846040840137818301604090810191909152601f909201601f19160101919050565b6000602082528251806020840152613c41816040850160208701613f26565b601f01601f19169190910160400192915050565b602080825260059082015264085dd85b9d60da1b604082015260600190565b6020808252601b908201527f536166654d6174683a206164646974696f6e206f766572666c6f770000000000604082015260600190565b60208082526021908201527f536166654d6174683a206d756c7469706c69636174696f6e206f766572666c6f6040820152607760f81b606082015260800190565b602080825260069082015265085d985d5b1d60d21b604082015260600190565b6020808252600790820152662173686172657360c81b604082015260600190565b6020808252601d908201527f416464726573733a2063616c6c20746f206e6f6e2d636f6e7472616374000000604082015260600190565b6020808252602a908201527f5361666545524332303a204552433230206f7065726174696f6e20646964206e6040820152691bdd081cdd58d8d9595960b21b606082015260800190565b6020808252600a9082015269085c1c9bdd1958dd195960b21b604082015260600190565b60208082526036908201527f5361666545524332303a20617070726f76652066726f6d206e6f6e2d7a65726f60408201527520746f206e6f6e2d7a65726f20616c6c6f77616e636560501b606082015260800190565b90815260200190565b6000838252604060208301526118ca6040830184613a9e565b9182521515602082015260400190565b600086825285602083015260a06040830152613e7960a0830186613a9e565b6001600160a01b0394909416606083015250608001529392505050565b92835260208301919091521515604082015260600190565b9283526020830191909152604082015260600190565b93845260208401929092526040830152606082015260800190565b60405181810167ffffffffffffffff81118282101715613efe57600080fd5b604052919050565b600067ffffffffffffffff821115613f1c578081fd5b5060209081020190565b60005b83811015613f41578181015183820152602001613f29565b83811115613f50576000848401525b50505050565b6001600160a01b03811681146113fe57600080fd5b80151581146113fe57600080fdfea264697066735822122028bbfbd8e9dcff5ee537018b10733e2a792e6f62413ec74feb5ea991ac2346ab64736f6c634300060c0033",
  "language": "Solidity",
  "natspec": {
    "kind": "dev",
    "methods": {
      "apiVersion()": {
        "details": "The Strategy's version must match the Vault's `API_VERSION`.",
        "notice": "Used to track which version of `StrategyAPI` this Strategy  implements.",
        "returns": {
          "_0": "A string which holds the current API version of this contract."
        }
      },
      "delegatedAssets()": {
        "details": "You can override this field to set it to a non-zero value if some of the assets of this  Strategy is somehow delegated inside another part of of Yearn's ecosystem e.g. another Vault.  Note that this value must be strictly less than or equal to the amount provided by  `estimatedTotalAssets()` below, as the TVL calc will be total assets minus delegated assets.  Also note that this value is used to determine the total assets under management by this  strategy, for the purposes of computing the management fee in `Vault`",
        "notice": "The amount (priced in want) of the total assets managed by this strategy should not count  towards Yearn's TVL calculations.",
        "returns": {
          "_0": "The amount of assets this strategy manages that should not be included in Yearn's Total Value  Locked (TVL) calculation across it's ecosystem."
        }
      },
      "estimatedTotalAssets()": {
        "details": "Care must be taken in using this function, since it relies on external  systems, which could be manipulated by the attacker to give an inflated  (or reduced) value produced by this function, based on current on-chain  conditions (e.g. this function is possible to influence through  flashloan attacks, oracle manipulations, or other DeFi attack  mechanisms).  It is up to governance to use this function to correctly order this  Strategy relative to its peers in the withdrawal queue to minimize  losses for the Vault based on sudden withdrawals. This value should be  higher than the total debt of the Strategy and higher than its expected  value to be \"safe\".",
        "notice": "Provide an accurate estimate for the total amount of assets  (principle + return) that this Strategy is currently managing,  denominated in terms of `want` tokens.  This total should be \"realizable\" e.g. the total value that could  *actually* be obtained from this Strategy if it were to divest its  entire position based on current on-chain conditions.",
        "returns": {
          "_0": "The estimated total assets in this Strategy."
        }
      },
      "ethToWant(uint256)": {
        "details": "Care must be taken when working with decimals to assure that the conversion  is compatible. As an example:      given 1e17 wei (0.1 ETH) as input, and want is USDC (6 decimals),      with USDC/ETH = 1800, this should give back 1800000000 (180 USDC)",
        "notice": "Provide an accurate conversion from `_amtInWei` (denominated in wei)  to `want` (using the native decimal characteristics of `want`).",
        "params": {
          "_amtInWei": "The amount (in wei/1e-18 ETH) to convert to `want`"
        },
        "returns": {
          "_0": "The amount in `want` of `_amtInEth` converted to `want`*"
        }
      },
      "harvest()": {
        "details": "When `harvest()` is called, the Strategy reports to the Vault (via  `vault.report()`), so in some cases `harvest()` must be called in order  to take in profits, to borrow newly available funds from the Vault, or  otherwise adjust its position. In other cases `harvest()` must be  called to report to the Vault on the Strategy's position, especially if  any losses have occurred.",
        "notice": "Harvests the Strategy, recognizing any profits or losses and adjusting  the Strategy's position.  In the rare case the Strategy is in emergency shutdown, this will exit  the Strategy's position.  This may only be called by governance, the strategist, or the keeper."
      },
      "migrate(address)": {
        "details": "The new Strategy's Vault must be the same as this Strategy's Vault.  The migration process should be carefully performed to make sure all the assets are migrated to the new address, which should have never interacted with the vault before.",
        "notice": "Transfers all `want` from this Strategy to `_newStrategy`.  This may only be called by the Vault.",
        "params": {
          "_newStrategy": "The Strategy to migrate to."
        }
      },
      "name()": {
        "details": "You can use this field to manage the \"version\" of this Strategy, e.g.  `StrategySomethingOrOtherV1`. However, \"API Version\" is managed by  `apiVersion()` function above.",
        "notice": "This Strategy's name.",
        "returns": {
          "_0": "This Strategy's name."
        }
      },
      "setDebtThreshold(uint256)": {
        "notice": "Sets how far the Strategy can go into loss without a harvest and report  being required.  By default this is 0, meaning any losses would cause a harvest which  will subsequently report the loss to the Vault for tracking. (See  `harvestTrigger()` for more details.)  This may only be called by governance or the strategist.",
        "params": {
          "_debtThreshold": "How big of a loss this Strategy may carry without being required to report to the Vault."
        }
      },
      "setEmergencyExit()": {
        "details": "See `vault.setEmergencyShutdown()` and `harvest()` for further details.",
        "notice": "Activates emergency exit. Once activated, the Strategy will exit its  position upon the next harvest, depositing all funds into the Vault as  quickly as is reasonable given on-chain conditions.  This may only be called by governance or the strategist."
      },
      "setKeeper(address)": {
        "notice": "Used to change `keeper`.  `keeper` is the only address that may call `tend()` or `harvest()`,  other than `governance()` or `strategist`. However, unlike  `governance()` or `strategist`, `keeper` may *only* call `tend()`  and `harvest()`, and no other authorized functions, following the  principle of least privilege.  This may only be called by governance or the strategist.",
        "params": {
          "_keeper": "The new address to assign as `keeper`."
        }
      },
      "setMaxReportDelay(uint256)": {
        "notice": "Used to change `maxReportDelay`. `maxReportDelay` is the maximum number  of blocks that should pass for `harvest()` to be called.  For external keepers (such as the Keep3r network), this is the maximum  time between jobs to wait. (see `harvestTrigger()`  for more details.)  This may only be called by governance or the strategist.",
        "params": {
          "_delay": "The maximum number of seconds to wait between harvests."
        }
      },
      "setMetadataURI(string)": {
        "notice": "Used to change `metadataURI`. `metadataURI` is used to store the URI of the file describing the strategy.  This may only be called by governance or the strategist.",
        "params": {
          "_metadataURI": "The URI that describe the strategy."
        }
      },
      "setMinReportDelay(uint256)": {
        "notice": "Used to change `minReportDelay`. `minReportDelay` is the minimum number  of blocks that should pass for `harvest()` to be called.  For external keepers (such as the Keep3r network), this is the minimum  time between jobs to wait. (see `harvestTrigger()`  for more details.)  This may only be called by governance or the strategist.",
        "params": {
          "_delay": "The minimum number of seconds to wait between harvests."
        }
      },
      "setProfitFactor(uint256)": {
        "notice": "Used to change `profitFactor`. `profitFactor` is used to determine  if it's worthwhile to harvest, given gas costs. (See `harvestTrigger()`  for more details.)  This may only be called by governance or the strategist.",
        "params": {
          "_profitFactor": "A ratio to multiply anticipated `harvest()` gas cost against."
        }
      },
      "setRewards(address)": {
        "notice": "Used to change `rewards`. EOA or smart contract which has the permission  to pull rewards from the vault.  This may only be called by the strategist.",
        "params": {
          "_rewards": "The address to use for pulling rewards."
        }
      },
      "setStrategist(address)": {
        "notice": "Used to change `strategist`.  This may only be called by governance or the existing strategist.",
        "params": {
          "_strategist": "The new address to assign as `strategist`."
        }
      },
      "sweep(address)": {
        "details": "Implement `protectedTokens()` to specify any additional tokens that  should be protected from sweeping in addition to `want`.",
        "notice": "Removes tokens from this Strategy that are not the type of tokens  managed by this Strategy. This may be used in case of accidentally  sending the wrong kind of token to this Strategy.  Tokens will be sent to `governance()`.  This will fail if an attempt is made to sweep `want`, or any tokens  that are protected by this Strategy.  This may only be called by governance.",
        "params": {
          "_token": "The token to transfer out of this vault."
        }
      },
      "tend()": {
        "notice": "Adjust the Strategy's position. The purpose of tending isn't to  realize gains, but to maximize yield by reinvesting any returns.  See comments on `adjustPosition()`.  This may only be called by governance, the strategist, or the keeper."
      },
      "tendTrigger(uint256)": {
        "details": "`callCostInWei` must be priced in terms of `wei` (1e-18 ETH).  This call and `harvestTrigger()` should never return `true` at the same  time.",
        "notice": "Provide a signal to the keeper that `tend()` should be called. The  keeper will provide the estimated gas cost that they would pay to call  `tend()`, and this function should use that estimate to make a  determination if calling it is \"worth it\" for the keeper. This is not  the only consideration into issuing this trigger, for example if the  position would be negatively affected if `tend()` is not called  shortly, then this can return `true` even if the keeper might be  \"at a loss\" (keepers are always reimbursed by Yearn).",
        "params": {
          "callCostInWei": "The keeper's estimated gas cost to call `tend()` (in wei)."
        },
        "returns": {
          "_0": "`true` if `tend()` should be called, `false` otherwise."
        }
      },
      "withdraw(uint256)": {
        "notice": "Withdraws `_amountNeeded` to `vault`.  This may only be called by the Vault.",
        "params": {
          "_amountNeeded": "How much `want` to withdraw."
        },
        "returns": {
          "_loss": "Any realized losses"
        }
      }
    },
    "version": 1
  },
  "opcodes": "PUSH1 0x80 PUSH1 0x40 MSTORE CALLVALUE DUP1 ISZERO PUSH2 0x10 JUMPI PUSH1 0x0 DUP1 REVERT JUMPDEST POP PUSH1 0x4 CALLDATASIZE LT PUSH2 0x3AF JUMPI PUSH1 0x0 CALLDATALOAD PUSH1 0xE0 SHR DUP1 PUSH4 0x6EA69D62 GT PUSH2 0x1F4 JUMPI DUP1 PUSH4 0x9BE28785 GT PUSH2 0x11A JUMPI DUP1 PUSH4 0xCE5494BB GT PUSH2 0xAD JUMPI DUP1 PUSH4 0xF017C92F GT PUSH2 0x7C JUMPI DUP1 PUSH4 0xF017C92F EQ PUSH2 0x697 JUMPI DUP1 PUSH4 0xF4B9FA75 EQ PUSH2 0x6AA JUMPI DUP1 PUSH4 0xFBFA77CF EQ PUSH2 0x6B2 JUMPI DUP1 PUSH4 0xFCF2D0AD EQ PUSH2 0x6BA JUMPI PUSH2 0x3AF JUMP JUMPDEST DUP1 PUSH4 0xCE5494BB EQ PUSH2 0x656 JUMPI DUP1 PUSH4 0xEC38A862 EQ PUSH2 0x669 JUMPI DUP1 PUSH4 0xED882C2B EQ PUSH2 0x67C JUMPI DUP1 PUSH4 0xEFBB5CB0 EQ PUSH2 0x68F JUMPI PUSH2 0x3AF JUMP JUMPDEST DUP1 PUSH4 0xC1A3D44C GT PUSH2 0xE9 JUMPI DUP1 PUSH4 0xC1A3D44C EQ PUSH2 0x620 JUMPI DUP1 PUSH4 0xC6DEF076 EQ PUSH2 0x628 JUMPI DUP1 PUSH4 0xC7687803 EQ PUSH2 0x630 JUMPI DUP1 PUSH4 0xC7B9D530 EQ PUSH2 0x643 JUMPI PUSH2 0x3AF JUMP JUMPDEST DUP1 PUSH4 0x9BE28785 EQ PUSH2 0x600 JUMPI DUP1 PUSH4 0x9EC5A894 EQ PUSH2 0x608 JUMPI DUP1 PUSH4 0xACED1661 EQ PUSH2 0x610 JUMPI DUP1 PUSH4 0xAF640D0F EQ PUSH2 0x618 JUMPI PUSH2 0x3AF JUMP JUMPDEST DUP1 PUSH4 0x8516C2C8 GT PUSH2 0x192 JUMPI DUP1 PUSH4 0x918F8674 GT PUSH2 0x161 JUMPI DUP1 PUSH4 0x918F8674 EQ PUSH2 0x5D5 JUMPI DUP1 PUSH4 0x923C1D61 EQ PUSH2 0x5DD JUMPI DUP1 PUSH4 0x955383BD EQ PUSH2 0x5E5 JUMPI DUP1 PUSH4 0x95E80C50 EQ PUSH2 0x5F8 JUMPI PUSH2 0x3AF JUMP JUMPDEST DUP1 PUSH4 0x8516C2C8 EQ PUSH2 0x59F JUMPI DUP1 PUSH4 0x8CDFE166 EQ PUSH2 0x5B2 JUMPI DUP1 PUSH4 0x8E6350E2 EQ PUSH2 0x5BA JUMPI DUP1 PUSH4 0x91397AB4 EQ PUSH2 0x5C2 JUMPI PUSH2 0x3AF JUMP JUMPDEST DUP1 PUSH4 0x750521F5 GT PUSH2 0x1CE JUMPI DUP1 PUSH4 0x750521F5 EQ PUSH2 0x55E JUMPI DUP1 PUSH4 0x780022A0 EQ PUSH2 0x571 JUMPI DUP1 PUSH4 0x7FEF901A EQ PUSH2 0x584 JUMPI DUP1 PUSH4 0x81639EDA EQ PUSH2 0x58C JUMPI PUSH2 0x3AF JUMP JUMPDEST DUP1 PUSH4 0x6EA69D62 EQ PUSH2 0x53B JUMPI DUP1 PUSH4 0x7165485D EQ PUSH2 0x543 JUMPI DUP1 PUSH4 0x748747E6 EQ PUSH2 0x54B JUMPI PUSH2 0x3AF JUMP JUMPDEST DUP1 PUSH4 0x2E1A7D4D GT PUSH2 0x2D9 JUMPI DUP1 PUSH4 0x440368A3 GT PUSH2 0x277 JUMPI DUP1 PUSH4 0x565399A0 GT PUSH2 0x246 JUMPI DUP1 PUSH4 0x565399A0 EQ PUSH2 0x4FA JUMPI DUP1 PUSH4 0x6095DD7B EQ PUSH2 0x50D JUMPI DUP1 PUSH4 0x650D1880 EQ PUSH2 0x520 JUMPI DUP1 PUSH4 0x6A4874A1 EQ PUSH2 0x533 JUMPI PUSH2 0x3AF JUMP JUMPDEST DUP1 PUSH4 0x440368A3 EQ PUSH2 0x4DA JUMPI DUP1 PUSH4 0x4641257D EQ PUSH2 0x4E2 JUMPI DUP1 PUSH4 0x46C96AAC EQ PUSH2 0x4EA JUMPI DUP1 PUSH4 0x5641EC03 EQ PUSH2 0x4F2 JUMPI PUSH2 0x3AF JUMP JUMPDEST DUP1 PUSH4 0x380D0C08 GT PUSH2 0x2B3 JUMPI DUP1 PUSH4 0x380D0C08 EQ PUSH2 0x4AF JUMPI DUP1 PUSH4 0x39A172A8 EQ PUSH2 0x4B7 JUMPI DUP1 PUSH4 0x3E413BEE EQ PUSH2 0x4CA JUMPI DUP1 PUSH4 0x3FC8CEF3 EQ PUSH2 0x4D2 JUMPI PUSH2 0x3AF JUMP JUMPDEST DUP1 PUSH4 0x2E1A7D4D EQ PUSH2 0x48C JUMPI DUP1 PUSH4 0x2F48AB7D EQ PUSH2 0x49F JUMPI DUP1 PUSH4 0x34659DC5 EQ PUSH2 0x4A7 JUMPI PUSH2 0x3AF JUMP JUMPDEST DUP1 PUSH4 0x1D12F28B GT PUSH2 0x351 JUMPI DUP1 PUSH4 0x24D16C1A GT PUSH2 0x320 JUMPI DUP1 PUSH4 0x24D16C1A EQ PUSH2 0x461 JUMPI DUP1 PUSH4 0x25829410 EQ PUSH2 0x474 JUMPI DUP1 PUSH4 0x2681F7E4 EQ PUSH2 0x47C JUMPI DUP1 PUSH4 0x28B7CCF7 EQ PUSH2 0x484 JUMPI PUSH2 0x3AF JUMP JUMPDEST DUP1 PUSH4 0x1D12F28B EQ PUSH2 0x434 JUMPI DUP1 PUSH4 0x1F1FCD51 EQ PUSH2 0x43C JUMPI DUP1 PUSH4 0x1FE4A686 EQ PUSH2 0x451 JUMPI DUP1 PUSH4 0x22F3E2D4 EQ PUSH2 0x459 JUMPI PUSH2 0x3AF JUMP JUMPDEST DUP1 PUSH4 0xACD095B GT PUSH2 0x38D JUMPI DUP1 PUSH4 0xACD095B EQ PUSH2 0x3EF JUMPI DUP1 PUSH4 0xF969B87 EQ PUSH2 0x404 JUMPI DUP1 PUSH4 0x11588086 EQ PUSH2 0x417 JUMPI DUP1 PUSH4 0x1C459A7F EQ PUSH2 0x42C JUMPI PUSH2 0x3AF JUMP JUMPDEST DUP1 PUSH4 0x1681A62 EQ PUSH2 0x3B4 JUMPI DUP1 PUSH4 0x3EE438C EQ PUSH2 0x3C9 JUMPI DUP1 PUSH4 0x6FDDE03 EQ PUSH2 0x3E7 JUMPI JUMPDEST PUSH1 0x0 DUP1 REVERT JUMPDEST PUSH2 0x3C7 PUSH2 0x3C2 CALLDATASIZE PUSH1 0x4 PUSH2 0x37A2 JUMP JUMPDEST PUSH2 0x6C2 JUMP JUMPDEST STOP JUMPDEST PUSH2 0x3D1 PUSH2 0x826 JUMP JUMPDEST PUSH1 0x40 MLOAD PUSH2 0x3DE SWAP2 SWAP1 PUSH2 0x3C22 JUMP JUMPDEST PUSH1 0x40 MLOAD DUP1 SWAP2 SUB SWAP1 RETURN JUMPDEST PUSH2 0x3D1 PUSH2 0x8B4 JUMP JUMPDEST PUSH2 0x3F7 PUSH2 0x959 JUMP JUMPDEST PUSH1 0x40 MLOAD PUSH2 0x3DE SWAP2 SWAP1 PUSH2 0x3BE8 JUMP JUMPDEST PUSH2 0x3C7 PUSH2 0x412 CALLDATASIZE PUSH1 0x4 PUSH2 0x3A1E JUMP JUMPDEST PUSH2 0x967 JUMP JUMPDEST PUSH2 0x41F PUSH2 0x9AF JUMP JUMPDEST PUSH1 0x40 MLOAD PUSH2 0x3DE SWAP2 SWAP1 PUSH2 0x3E28 JUMP JUMPDEST PUSH2 0x3F7 PUSH2 0xA35 JUMP JUMPDEST PUSH2 0x41F PUSH2 0xA44 JUMP JUMPDEST PUSH2 0x444 PUSH2 0xA4A JUMP JUMPDEST PUSH1 0x40 MLOAD PUSH2 0x3DE SWAP2 SWAP1 PUSH2 0x3B2B JUMP JUMPDEST PUSH2 0x444 PUSH2 0xA59 JUMP JUMPDEST PUSH2 0x3F7 PUSH2 0xA68 JUMP JUMPDEST PUSH2 0x444 PUSH2 0x46F CALLDATASIZE PUSH1 0x4 PUSH2 0x3A1E JUMP JUMPDEST PUSH2 0xB09 JUMP JUMPDEST PUSH2 0x3D1 PUSH2 0xB30 JUMP JUMPDEST PUSH2 0x444 PUSH2 0xB4F JUMP JUMPDEST PUSH2 0x41F PUSH2 0xB67 JUMP JUMPDEST PUSH2 0x41F PUSH2 0x49A CALLDATASIZE PUSH1 0x4 PUSH2 0x3A1E JUMP JUMPDEST PUSH2 0xB6D JUMP JUMPDEST PUSH2 0x444 PUSH2 0xBC8 JUMP JUMPDEST PUSH2 0x3C7 PUSH2 0xBE0 JUMP JUMPDEST PUSH2 0x3C7 PUSH2 0xCFA JUMP JUMPDEST PUSH2 0x3C7 PUSH2 0x4C5 CALLDATASIZE PUSH1 0x4 PUSH2 0x3A1E JUMP JUMPDEST PUSH2 0xD14 JUMP JUMPDEST PUSH2 0x444 PUSH2 0xD51 JUMP JUMPDEST PUSH2 0x444 PUSH2 0xD69 JUMP JUMPDEST PUSH2 0x3C7 PUSH2 0xD81 JUMP JUMPDEST PUSH2 0x3C7 PUSH2 0xE0C JUMP JUMPDEST PUSH2 0x444 PUSH2 0xFE1 JUMP JUMPDEST PUSH2 0x3F7 PUSH2 0xFF9 JUMP JUMPDEST PUSH2 0x444 PUSH2 0x508 CALLDATASIZE PUSH1 0x4 PUSH2 0x3A1E JUMP JUMPDEST PUSH2 0x1002 JUMP JUMPDEST PUSH2 0x3C7 PUSH2 0x51B CALLDATASIZE PUSH1 0x4 PUSH2 0x3A7D JUMP JUMPDEST PUSH2 0x100F JUMP JUMPDEST PUSH2 0x3F7 PUSH2 0x52E CALLDATASIZE PUSH1 0x4 PUSH2 0x3A1E JUMP JUMPDEST PUSH2 0x1021 JUMP JUMPDEST PUSH2 0x444 PUSH2 0x1029 JUMP JUMPDEST PUSH2 0x444 PUSH2 0x1041 JUMP JUMPDEST PUSH2 0x444 PUSH2 0x1050 JUMP JUMPDEST PUSH2 0x3C7 PUSH2 0x559 CALLDATASIZE PUSH1 0x4 PUSH2 0x37A2 JUMP JUMPDEST PUSH2 0x105F JUMP JUMPDEST PUSH2 0x3C7 PUSH2 0x56C CALLDATASIZE PUSH1 0x4 PUSH2 0x38A7 JUMP JUMPDEST PUSH2 0x10C5 JUMP JUMPDEST PUSH2 0x41F PUSH2 0x57F CALLDATASIZE PUSH1 0x4 PUSH2 0x3A1E JUMP JUMPDEST PUSH2 0x1117 JUMP JUMPDEST PUSH2 0x41F PUSH2 0x111A JUMP JUMPDEST PUSH2 0x3C7 PUSH2 0x59A CALLDATASIZE PUSH1 0x4 PUSH2 0x3A4E JUMP JUMPDEST PUSH2 0x1120 JUMP JUMPDEST PUSH2 0x3C7 PUSH2 0x5AD CALLDATASIZE PUSH1 0x4 PUSH2 0x386F JUMP JUMPDEST PUSH2 0x116C JUMP JUMPDEST PUSH2 0x41F PUSH2 0x1190 JUMP JUMPDEST PUSH2 0x41F PUSH2 0x1196 JUMP JUMPDEST PUSH2 0x3C7 PUSH2 0x5D0 CALLDATASIZE PUSH1 0x4 PUSH2 0x3A1E JUMP JUMPDEST PUSH2 0x119B JUMP JUMPDEST PUSH2 0x41F PUSH2 0x11D8 JUMP JUMPDEST PUSH2 0x444 PUSH2 0x11DE JUMP JUMPDEST PUSH2 0x3C7 PUSH2 0x5F3 CALLDATASIZE PUSH1 0x4 PUSH2 0x3A1E JUMP JUMPDEST PUSH2 0x11F6 JUMP JUMPDEST PUSH2 0x41F PUSH2 0x1203 JUMP JUMPDEST PUSH2 0x444 PUSH2 0x1209 JUMP JUMPDEST PUSH2 0x444 PUSH2 0x1221 JUMP JUMPDEST PUSH2 0x444 PUSH2 0x1230 JUMP JUMPDEST PUSH2 0x41F PUSH2 0x123F JUMP JUMPDEST PUSH2 0x41F PUSH2 0x1245 JUMP JUMPDEST PUSH2 0x444 PUSH2 0x1276 JUMP JUMPDEST PUSH2 0x3C7 PUSH2 0x63E CALLDATASIZE PUSH1 0x4 PUSH2 0x386F JUMP JUMPDEST PUSH2 0x128E JUMP JUMPDEST PUSH2 0x3C7 PUSH2 0x651 CALLDATASIZE PUSH1 0x4 PUSH2 0x37A2 JUMP JUMPDEST PUSH2 0x12B0 JUMP JUMPDEST PUSH2 0x3C7 PUSH2 0x664 CALLDATASIZE PUSH1 0x4 PUSH2 0x37A2 JUMP JUMPDEST PUSH2 0x1316 JUMP JUMPDEST PUSH2 0x3C7 PUSH2 0x677 CALLDATASIZE PUSH1 0x4 PUSH2 0x37A2 JUMP JUMPDEST PUSH2 0x1401 JUMP JUMPDEST PUSH2 0x3F7 PUSH2 0x68A CALLDATASIZE PUSH1 0x4 PUSH2 0x3A1E JUMP JUMPDEST PUSH2 0x14CA JUMP JUMPDEST PUSH2 0x41F PUSH2 0x169E JUMP JUMPDEST PUSH2 0x3C7 PUSH2 0x6A5 CALLDATASIZE PUSH1 0x4 PUSH2 0x3A1E JUMP JUMPDEST PUSH2 0x16B9 JUMP JUMPDEST PUSH2 0x444 PUSH2 0x16F6 JUMP JUMPDEST PUSH2 0x444 PUSH2 0x170E JUMP JUMPDEST PUSH2 0x3C7 PUSH2 0x171D JUMP JUMPDEST PUSH2 0x6CA PUSH2 0x18D2 JUMP JUMPDEST PUSH1 0x5 SLOAD PUSH1 0x1 PUSH1 0x1 PUSH1 0xA0 SHL SUB DUP3 DUP2 AND SWAP2 AND EQ ISZERO PUSH2 0x701 JUMPI PUSH1 0x40 MLOAD PUSH3 0x461BCD PUSH1 0xE5 SHL DUP2 MSTORE PUSH1 0x4 ADD PUSH2 0x6F8 SWAP1 PUSH2 0x3C55 JUMP JUMPDEST PUSH1 0x40 MLOAD DUP1 SWAP2 SUB SWAP1 REVERT JUMPDEST PUSH1 0x1 SLOAD PUSH1 0x1 PUSH1 0x1 PUSH1 0xA0 SHL SUB DUP3 DUP2 AND SWAP2 AND EQ ISZERO PUSH2 0x72F JUMPI PUSH1 0x40 MLOAD PUSH3 0x461BCD PUSH1 0xE5 SHL DUP2 MSTORE PUSH1 0x4 ADD PUSH2 0x6F8 SWAP1 PUSH2 0x3D0C JUMP JUMPDEST PUSH1 0x60 PUSH2 0x739 PUSH2 0x18F7 JUMP JUMPDEST SWAP1 POP PUSH1 0x0 JUMPDEST DUP2 MLOAD DUP2 LT ISZERO PUSH2 0x794 JUMPI DUP2 DUP2 DUP2 MLOAD DUP2 LT PUSH2 0x753 JUMPI INVALID JUMPDEST PUSH1 0x20 MUL PUSH1 0x20 ADD ADD MLOAD PUSH1 0x1 PUSH1 0x1 PUSH1 0xA0 SHL SUB AND DUP4 PUSH1 0x1 PUSH1 0x1 PUSH1 0xA0 SHL SUB AND EQ ISZERO PUSH2 0x78C JUMPI PUSH1 0x40 MLOAD PUSH3 0x461BCD PUSH1 0xE5 SHL DUP2 MSTORE PUSH1 0x4 ADD PUSH2 0x6F8 SWAP1 PUSH2 0x3DAE JUMP JUMPDEST PUSH1 0x1 ADD PUSH2 0x73E JUMP JUMPDEST POP PUSH2 0x822 DUP3 PUSH2 0x7A1 PUSH2 0x199C JUMP JUMPDEST PUSH1 0x40 MLOAD PUSH4 0x70A08231 PUSH1 0xE0 SHL DUP2 MSTORE PUSH1 0x1 PUSH1 0x1 PUSH1 0xA0 SHL SUB DUP7 AND SWAP1 PUSH4 0x70A08231 SWAP1 PUSH2 0x7CD SWAP1 ADDRESS SWAP1 PUSH1 0x4 ADD PUSH2 0x3B2B JUMP JUMPDEST PUSH1 0x20 PUSH1 0x40 MLOAD DUP1 DUP4 SUB DUP2 DUP7 DUP1 EXTCODESIZE ISZERO DUP1 ISZERO PUSH2 0x7E5 JUMPI PUSH1 0x0 DUP1 REVERT JUMPDEST POP GAS STATICCALL ISZERO DUP1 ISZERO PUSH2 0x7F9 JUMPI RETURNDATASIZE PUSH1 0x0 DUP1 RETURNDATACOPY RETURNDATASIZE PUSH1 0x0 REVERT JUMPDEST POP POP POP POP PUSH1 0x40 MLOAD RETURNDATASIZE PUSH1 0x1F NOT PUSH1 0x1F DUP3 ADD AND DUP3 ADD DUP1 PUSH1 0x40 MSTORE POP DUP2 ADD SWAP1 PUSH2 0x81D SWAP2 SWAP1 PUSH2 0x3A36 JUMP JUMPDEST PUSH2 0x1A19 JUMP JUMPDEST POP POP JUMP JUMPDEST PUSH1 0x0 DUP1 SLOAD PUSH1 0x40 DUP1 MLOAD PUSH1 0x20 PUSH1 0x2 PUSH1 0x1 DUP6 AND ISZERO PUSH2 0x100 MUL PUSH1 0x0 NOT ADD SWAP1 SWAP5 AND SWAP4 SWAP1 SWAP4 DIV PUSH1 0x1F DUP2 ADD DUP5 SWAP1 DIV DUP5 MUL DUP3 ADD DUP5 ADD SWAP1 SWAP3 MSTORE DUP2 DUP2 MSTORE SWAP3 SWAP2 DUP4 ADD DUP3 DUP3 DUP1 ISZERO PUSH2 0x8AC JUMPI DUP1 PUSH1 0x1F LT PUSH2 0x881 JUMPI PUSH2 0x100 DUP1 DUP4 SLOAD DIV MUL DUP4 MSTORE SWAP2 PUSH1 0x20 ADD SWAP2 PUSH2 0x8AC JUMP JUMPDEST DUP3 ADD SWAP2 SWAP1 PUSH1 0x0 MSTORE PUSH1 0x20 PUSH1 0x0 KECCAK256 SWAP1 JUMPDEST DUP2 SLOAD DUP2 MSTORE SWAP1 PUSH1 0x1 ADD SWAP1 PUSH1 0x20 ADD DUP1 DUP4 GT PUSH2 0x88F JUMPI DUP3 SWAP1 SUB PUSH1 0x1F AND DUP3 ADD SWAP2 JUMPDEST POP POP POP POP POP DUP2 JUMP JUMPDEST PUSH1 0x5 SLOAD PUSH1 0x40 DUP1 MLOAD PUSH4 0x95D89B41 PUSH1 0xE0 SHL DUP2 MSTORE SWAP1 MLOAD PUSH1 0x60 SWAP3 PUSH1 0x1 PUSH1 0x1 PUSH1 0xA0 SHL SUB AND SWAP2 PUSH4 0x95D89B41 SWAP2 PUSH1 0x4 DUP1 DUP4 ADD SWAP3 PUSH1 0x0 SWAP3 SWAP2 SWAP1 DUP3 SWAP1 SUB ADD DUP2 DUP7 DUP1 EXTCODESIZE ISZERO DUP1 ISZERO PUSH2 0x8F9 JUMPI PUSH1 0x0 DUP1 REVERT JUMPDEST POP GAS STATICCALL ISZERO DUP1 ISZERO PUSH2 0x90D JUMPI RETURNDATASIZE PUSH1 0x0 DUP1 RETURNDATACOPY RETURNDATASIZE PUSH1 0x0 REVERT JUMPDEST POP POP POP POP PUSH1 0x40 MLOAD RETURNDATASIZE PUSH1 0x0 DUP3 RETURNDATACOPY PUSH1 0x1F RETURNDATASIZE SWAP1 DUP2 ADD PUSH1 0x1F NOT AND DUP3 ADD PUSH1 0x40 MSTORE PUSH2 0x935 SWAP2 SWAP1 DUP2 ADD SWAP1 PUSH2 0x3914 JUMP JUMPDEST PUSH1 0x40 MLOAD PUSH1 0x20 ADD PUSH2 0x945 SWAP2 SWAP1 PUSH2 0x3AFD JUMP JUMPDEST PUSH1 0x40 MLOAD PUSH1 0x20 DUP2 DUP4 SUB SUB DUP2 MSTORE SWAP1 PUSH1 0x40 MSTORE SWAP1 POP SWAP1 JUMP JUMPDEST PUSH1 0xA SLOAD PUSH2 0x100 SWAP1 DIV PUSH1 0xFF AND DUP2 JUMP JUMPDEST PUSH2 0x96F PUSH2 0x1A38 JUMP JUMPDEST PUSH1 0x9 DUP2 SWAP1 SSTORE PUSH1 0x40 MLOAD PUSH32 0xA68BA126373D04C004C5748C300C9FCA12BD444B3D4332E261F3BD2BAC4A8600 SWAP1 PUSH2 0x9A4 SWAP1 DUP4 SWAP1 PUSH2 0x3E28 JUMP JUMPDEST PUSH1 0x40 MLOAD DUP1 SWAP2 SUB SWAP1 LOG1 POP JUMP JUMPDEST PUSH1 0xC SLOAD PUSH1 0x40 MLOAD PUSH4 0x70A08231 PUSH1 0xE0 SHL DUP2 MSTORE PUSH1 0x0 SWAP2 PUSH1 0x1 PUSH1 0x1 PUSH1 0xA0 SHL SUB AND SWAP1 PUSH4 0x70A08231 SWAP1 PUSH2 0x9E0 SWAP1 ADDRESS SWAP1 PUSH1 0x4 ADD PUSH2 0x3B2B JUMP JUMPDEST PUSH1 0x20 PUSH1 0x40 MLOAD DUP1 DUP4 SUB DUP2 DUP7 DUP1 EXTCODESIZE ISZERO DUP1 ISZERO PUSH2 0x9F8 JUMPI PUSH1 0x0 DUP1 REVERT JUMPDEST POP GAS STATICCALL ISZERO DUP1 ISZERO PUSH2 0xA0C JUMPI RETURNDATASIZE PUSH1 0x0 DUP1 RETURNDATACOPY RETURNDATASIZE PUSH1 0x0 REVERT JUMPDEST POP POP POP POP PUSH1 0x40 MLOAD RETURNDATASIZE PUSH1 0x1F NOT PUSH1 0x1F DUP3 ADD AND DUP3 ADD DUP1 PUSH1 0x40 MSTORE POP DUP2 ADD SWAP1 PUSH2 0xA30 SWAP2 SWAP1 PUSH2 0x3A36 JUMP JUMPDEST SWAP1 POP SWAP1 JUMP JUMPDEST PUSH1 0xA SLOAD PUSH3 0x10000 SWAP1 DIV PUSH1 0xFF AND DUP2 JUMP JUMPDEST PUSH1 0x9 SLOAD DUP2 JUMP JUMPDEST PUSH1 0x5 SLOAD PUSH1 0x1 PUSH1 0x1 PUSH1 0xA0 SHL SUB AND DUP2 JUMP JUMPDEST PUSH1 0x2 SLOAD PUSH1 0x1 PUSH1 0x1 PUSH1 0xA0 SHL SUB AND DUP2 JUMP JUMPDEST PUSH1 0x1 SLOAD PUSH1 0x40 MLOAD PUSH4 0x39EBF823 PUSH1 0xE0 SHL DUP2 MSTORE PUSH1 0x0 SWAP2 DUP3 SWAP2 PUSH1 0x1 PUSH1 0x1 PUSH1 0xA0 SHL SUB SWAP1 SWAP2 AND SWAP1 PUSH4 0x39EBF823 SWAP1 PUSH2 0xA9D SWAP1 ADDRESS SWAP1 PUSH1 0x4 ADD PUSH2 0x3B2B JUMP JUMPDEST PUSH2 0x120 PUSH1 0x40 MLOAD DUP1 DUP4 SUB DUP2 DUP7 DUP1 EXTCODESIZE ISZERO DUP1 ISZERO PUSH2 0xAB6 JUMPI PUSH1 0x0 DUP1 REVERT JUMPDEST POP GAS STATICCALL ISZERO DUP1 ISZERO PUSH2 0xACA JUMPI RETURNDATASIZE PUSH1 0x0 DUP1 RETURNDATACOPY RETURNDATASIZE PUSH1 0x0 REVERT JUMPDEST POP POP POP POP PUSH1 0x40 MLOAD RETURNDATASIZE PUSH1 0x1F NOT PUSH1 0x1F DUP3 ADD AND DUP3 ADD DUP1 PUSH1 0x40 MSTORE POP DUP2 ADD SWAP1 PUSH2 0xAEE SWAP2 SWAP1 PUSH2 0x39A0 JUMP JUMPDEST PUSH1 0x40 ADD MLOAD GT DUP1 PUSH2 0xA30 JUMPI POP PUSH1 0x0 PUSH2 0xB03 PUSH2 0x169E JUMP JUMPDEST GT SWAP1 POP SWAP1 JUMP JUMPDEST PUSH1 0xE DUP2 DUP2 SLOAD DUP2 LT PUSH2 0xB16 JUMPI INVALID JUMPDEST PUSH1 0x0 SWAP2 DUP3 MSTORE PUSH1 0x20 SWAP1 SWAP2 KECCAK256 ADD SLOAD PUSH1 0x1 PUSH1 0x1 PUSH1 0xA0 SHL SUB AND SWAP1 POP DUP2 JUMP JUMPDEST PUSH1 0x40 DUP1 MLOAD DUP1 DUP3 ADD SWAP1 SWAP2 MSTORE PUSH1 0x5 DUP2 MSTORE PUSH5 0x302E342E33 PUSH1 0xD8 SHL PUSH1 0x20 DUP3 ADD MSTORE SWAP1 JUMP JUMPDEST PUSH20 0x7A250D5630B4CF539739DF2C5DACB4C659F2488D DUP2 JUMP JUMPDEST PUSH1 0x7 SLOAD DUP2 JUMP JUMPDEST PUSH1 0x1 SLOAD PUSH1 0x0 SWAP1 PUSH1 0x1 PUSH1 0x1 PUSH1 0xA0 SHL SUB AND CALLER EQ PUSH2 0xB9A JUMPI PUSH1 0x40 MLOAD PUSH3 0x461BCD PUSH1 0xE5 SHL DUP2 MSTORE PUSH1 0x4 ADD PUSH2 0x6F8 SWAP1 PUSH2 0x3CEC JUMP JUMPDEST PUSH1 0x0 PUSH2 0xBA5 DUP4 PUSH2 0x1A5D JUMP JUMPDEST PUSH1 0x5 SLOAD SWAP1 SWAP4 POP SWAP1 SWAP2 POP PUSH2 0xBC2 SWAP1 PUSH1 0x1 PUSH1 0x1 PUSH1 0xA0 SHL SUB AND CALLER DUP4 PUSH2 0x1A19 JUMP JUMPDEST POP SWAP2 SWAP1 POP JUMP JUMPDEST PUSH20 0xDAC17F958D2EE523A2206206994597C13D831EC7 DUP2 JUMP JUMPDEST PUSH2 0xBE8 PUSH2 0x1A38 JUMP JUMPDEST PUSH1 0xC SLOAD PUSH1 0x40 MLOAD PUSH4 0x70A08231 PUSH1 0xE0 SHL DUP2 MSTORE PUSH1 0x0 SWAP2 PUSH1 0x1 PUSH1 0x1 PUSH1 0xA0 SHL SUB AND SWAP1 PUSH4 0x70A08231 SWAP1 PUSH2 0xC19 SWAP1 ADDRESS SWAP1 PUSH1 0x4 ADD PUSH2 0x3B2B JUMP JUMPDEST PUSH1 0x20 PUSH1 0x40 MLOAD DUP1 DUP4 SUB DUP2 DUP7 DUP1 EXTCODESIZE ISZERO DUP1 ISZERO PUSH2 0xC31 JUMPI PUSH1 0x0 DUP1 REVERT JUMPDEST POP GAS STATICCALL ISZERO DUP1 ISZERO PUSH2 0xC45 JUMPI RETURNDATASIZE PUSH1 0x0 DUP1 RETURNDATACOPY RETURNDATASIZE PUSH1 0x0 REVERT JUMPDEST POP POP POP POP PUSH1 0x40 MLOAD RETURNDATASIZE PUSH1 0x1F NOT PUSH1 0x1F DUP3 ADD AND DUP3 ADD DUP1 PUSH1 0x40 MSTORE POP DUP2 ADD SWAP1 PUSH2 0xC69 SWAP2 SWAP1 PUSH2 0x3A36 JUMP JUMPDEST PUSH1 0xC SLOAD PUSH1 0xA SLOAD PUSH1 0x40 MLOAD PUSH4 0x1C683A1B PUSH1 0xE1 SHL DUP2 MSTORE SWAP3 SWAP4 POP PUSH1 0x1 PUSH1 0x1 PUSH1 0xA0 SHL SUB SWAP1 SWAP2 AND SWAP2 PUSH4 0x38D07436 SWAP2 PUSH2 0xCA8 SWAP2 DUP6 SWAP2 PUSH2 0x100 SWAP1 DIV PUSH1 0xFF AND SWAP1 PUSH1 0x4 ADD PUSH2 0x3E4A JUMP JUMPDEST PUSH1 0x20 PUSH1 0x40 MLOAD DUP1 DUP4 SUB DUP2 PUSH1 0x0 DUP8 DUP1 EXTCODESIZE ISZERO DUP1 ISZERO PUSH2 0xCC2 JUMPI PUSH1 0x0 DUP1 REVERT JUMPDEST POP GAS CALL ISZERO DUP1 ISZERO PUSH2 0xCD6 JUMPI RETURNDATASIZE PUSH1 0x0 DUP1 RETURNDATACOPY RETURNDATASIZE PUSH1 0x0 REVERT JUMPDEST POP POP POP POP PUSH1 0x40 MLOAD RETURNDATASIZE PUSH1 0x1F NOT PUSH1 0x1F DUP3 ADD AND DUP3 ADD DUP1 PUSH1 0x40 MSTORE POP DUP2 ADD SWAP1 PUSH2 0x822 SWAP2 SWAP1 PUSH2 0x388B JUMP JUMPDEST PUSH2 0xD02 PUSH2 0x1A38 JUMP JUMPDEST PUSH2 0xD0A PUSH2 0x1AAF JUMP JUMPDEST PUSH2 0xD12 PUSH2 0x1CF5 JUMP JUMPDEST JUMP JUMPDEST PUSH2 0xD1C PUSH2 0x1A38 JUMP JUMPDEST PUSH1 0x6 DUP2 SWAP1 SSTORE PUSH1 0x40 MLOAD PUSH32 0xBB2C369A0355A34B02AB5FCE0643150C87E1C8DFE7C918D465591879F57948B1 SWAP1 PUSH2 0x9A4 SWAP1 DUP4 SWAP1 PUSH2 0x3E28 JUMP JUMPDEST PUSH20 0xA0B86991C6218B36C1D19D4A2E9EB0CE3606EB48 DUP2 JUMP JUMPDEST PUSH20 0xC02AAA39B223FE8D0A0E5C4F27EAD9083C756CC2 DUP2 JUMP JUMPDEST PUSH2 0xD89 PUSH2 0x1FE8 JUMP JUMPDEST PUSH1 0x1 SLOAD PUSH1 0x40 DUP1 MLOAD PUSH4 0xBF3759B5 PUSH1 0xE0 SHL DUP2 MSTORE SWAP1 MLOAD PUSH2 0xD12 SWAP3 PUSH1 0x1 PUSH1 0x1 PUSH1 0xA0 SHL SUB AND SWAP2 PUSH4 0xBF3759B5 SWAP2 PUSH1 0x4 DUP1 DUP4 ADD SWAP3 PUSH1 0x20 SWAP3 SWAP2 SWAP1 DUP3 SWAP1 SUB ADD DUP2 DUP7 DUP1 EXTCODESIZE ISZERO DUP1 ISZERO PUSH2 0xDCF JUMPI PUSH1 0x0 DUP1 REVERT JUMPDEST POP GAS STATICCALL ISZERO DUP1 ISZERO PUSH2 0xDE3 JUMPI RETURNDATASIZE PUSH1 0x0 DUP1 RETURNDATACOPY RETURNDATASIZE PUSH1 0x0 REVERT JUMPDEST POP POP POP POP PUSH1 0x40 MLOAD RETURNDATASIZE PUSH1 0x1F NOT PUSH1 0x1F DUP3 ADD AND DUP3 ADD DUP1 PUSH1 0x40 MSTORE POP DUP2 ADD SWAP1 PUSH2 0xE07 SWAP2 SWAP1 PUSH2 0x3A36 JUMP JUMPDEST PUSH2 0x215B JUMP JUMPDEST PUSH2 0xE14 PUSH2 0x1FE8 JUMP JUMPDEST PUSH1 0x0 DUP1 PUSH1 0x0 PUSH1 0x1 PUSH1 0x0 SWAP1 SLOAD SWAP1 PUSH2 0x100 EXP SWAP1 DIV PUSH1 0x1 PUSH1 0x1 PUSH1 0xA0 SHL SUB AND PUSH1 0x1 PUSH1 0x1 PUSH1 0xA0 SHL SUB AND PUSH4 0xBF3759B5 PUSH1 0x40 MLOAD DUP2 PUSH4 0xFFFFFFFF AND PUSH1 0xE0 SHL DUP2 MSTORE PUSH1 0x4 ADD PUSH1 0x20 PUSH1 0x40 MLOAD DUP1 DUP4 SUB DUP2 DUP7 DUP1 EXTCODESIZE ISZERO DUP1 ISZERO PUSH2 0xE67 JUMPI PUSH1 0x0 DUP1 REVERT JUMPDEST POP GAS STATICCALL ISZERO DUP1 ISZERO PUSH2 0xE7B JUMPI RETURNDATASIZE PUSH1 0x0 DUP1 RETURNDATACOPY RETURNDATASIZE PUSH1 0x0 REVERT JUMPDEST POP POP POP POP PUSH1 0x40 MLOAD RETURNDATASIZE PUSH1 0x1F NOT PUSH1 0x1F DUP3 ADD AND DUP3 ADD DUP1 PUSH1 0x40 MSTORE POP DUP2 ADD SWAP1 PUSH2 0xE9F SWAP2 SWAP1 PUSH2 0x3A36 JUMP JUMPDEST PUSH1 0xA SLOAD SWAP1 SWAP2 POP PUSH1 0x0 SWAP1 PUSH1 0xFF AND ISZERO PUSH2 0xEFC JUMPI PUSH1 0x0 PUSH2 0xEBA PUSH2 0x1245 JUMP JUMPDEST SWAP1 POP DUP3 DUP2 LT ISZERO PUSH2 0xED5 JUMPI PUSH2 0xECE DUP4 DUP3 PUSH2 0x2284 JUMP JUMPDEST SWAP4 POP PUSH2 0xEEA JUMP JUMPDEST DUP3 DUP2 GT ISZERO PUSH2 0xEEA JUMPI PUSH2 0xEE7 DUP2 DUP5 PUSH2 0x2284 JUMP JUMPDEST SWAP5 POP JUMPDEST PUSH2 0xEF4 DUP4 DUP6 PUSH2 0x2284 JUMP JUMPDEST SWAP2 POP POP PUSH2 0xF0D JUMP JUMPDEST PUSH2 0xF05 DUP3 PUSH2 0x22CF JUMP JUMPDEST SWAP2 SWAP6 POP SWAP4 POP SWAP1 POP JUMPDEST PUSH1 0x1 SLOAD PUSH1 0x40 MLOAD PUSH4 0x28766EBF PUSH1 0xE2 SHL DUP2 MSTORE PUSH1 0x1 PUSH1 0x1 PUSH1 0xA0 SHL SUB SWAP1 SWAP2 AND SWAP1 PUSH4 0xA1D9BAFC SWAP1 PUSH2 0xF41 SWAP1 DUP8 SWAP1 DUP8 SWAP1 DUP7 SWAP1 PUSH1 0x4 ADD PUSH2 0x3EAE JUMP JUMPDEST PUSH1 0x20 PUSH1 0x40 MLOAD DUP1 DUP4 SUB DUP2 PUSH1 0x0 DUP8 DUP1 EXTCODESIZE ISZERO DUP1 ISZERO PUSH2 0xF5B JUMPI PUSH1 0x0 DUP1 REVERT JUMPDEST POP GAS CALL ISZERO DUP1 ISZERO PUSH2 0xF6F JUMPI RETURNDATASIZE PUSH1 0x0 DUP1 RETURNDATACOPY RETURNDATASIZE PUSH1 0x0 REVERT JUMPDEST POP POP POP POP PUSH1 0x40 MLOAD RETURNDATASIZE PUSH1 0x1F NOT PUSH1 0x1F DUP3 ADD AND DUP3 ADD DUP1 PUSH1 0x40 MSTORE POP DUP2 ADD SWAP1 PUSH2 0xF93 SWAP2 SWAP1 PUSH2 0x3A36 JUMP JUMPDEST SWAP2 POP PUSH2 0xF9E DUP3 PUSH2 0x215B JUMP JUMPDEST PUSH32 0x4C0F499FFE6BEFA0CA7C826B0916CF87BEA98DE658013E76938489368D60D509 DUP5 DUP5 DUP4 DUP6 PUSH1 0x40 MLOAD PUSH2 0xFD3 SWAP5 SWAP4 SWAP3 SWAP2 SWAP1 PUSH2 0x3EC4 JUMP JUMPDEST PUSH1 0x40 MLOAD DUP1 SWAP2 SUB SWAP1 LOG1 POP POP POP POP JUMP JUMPDEST PUSH20 0xF147B8125D2EF93FB6965DB97D6746952A133934 DUP2 JUMP JUMPDEST PUSH1 0xA SLOAD PUSH1 0xFF AND DUP2 JUMP JUMPDEST PUSH1 0x10 DUP2 DUP2 SLOAD DUP2 LT PUSH2 0xB16 JUMPI INVALID JUMPDEST PUSH2 0x1017 PUSH2 0x1A38 JUMP JUMPDEST PUSH2 0x822 DUP3 DUP3 PUSH2 0x2B99 JUMP JUMPDEST PUSH1 0x0 JUMPDEST SWAP2 SWAP1 POP JUMP JUMPDEST PUSH20 0xD533A949740BB3306D119CC777FA900BA034CD52 DUP2 JUMP JUMPDEST PUSH1 0xC SLOAD PUSH1 0x1 PUSH1 0x1 PUSH1 0xA0 SHL SUB AND DUP2 JUMP JUMPDEST PUSH1 0xD SLOAD PUSH1 0x1 PUSH1 0x1 PUSH1 0xA0 SHL SUB AND DUP2 JUMP JUMPDEST PUSH2 0x1067 PUSH2 0x1A38 JUMP JUMPDEST PUSH1 0x1 PUSH1 0x1 PUSH1 0xA0 SHL SUB DUP2 AND PUSH2 0x107A JUMPI PUSH1 0x0 DUP1 REVERT JUMPDEST PUSH1 0x4 DUP1 SLOAD PUSH1 0x1 PUSH1 0x1 PUSH1 0xA0 SHL SUB NOT AND PUSH1 0x1 PUSH1 0x1 PUSH1 0xA0 SHL SUB DUP4 AND OR SWAP1 SSTORE PUSH1 0x40 MLOAD PUSH32 0x2F202DDB4A2E345F6323ED90F8FC8559D770A7ABBBEEE84DDE8ACA3351FE7154 SWAP1 PUSH2 0x9A4 SWAP1 DUP4 SWAP1 PUSH2 0x3B2B JUMP JUMPDEST PUSH2 0x10CD PUSH2 0x1A38 JUMP JUMPDEST PUSH2 0x10D9 PUSH1 0x0 DUP4 DUP4 PUSH2 0x36C3 JUMP JUMPDEST POP PUSH32 0x300E67D5A415B6D015A471D9C7B95DD58F3E8290AF965E84E0F845DE2996DDA6 DUP3 DUP3 PUSH1 0x40 MLOAD PUSH2 0x110B SWAP3 SWAP2 SWAP1 PUSH2 0x3BF3 JUMP JUMPDEST PUSH1 0x40 MLOAD DUP1 SWAP2 SUB SWAP1 LOG1 POP POP JUMP JUMPDEST SWAP1 JUMP JUMPDEST PUSH1 0xF SLOAD DUP2 JUMP JUMPDEST PUSH2 0x1128 PUSH2 0x1A38 JUMP JUMPDEST DUP1 PUSH1 0xE DUP4 DUP2 SLOAD DUP2 LT PUSH2 0x1136 JUMPI INVALID JUMPDEST SWAP1 PUSH1 0x0 MSTORE PUSH1 0x20 PUSH1 0x0 KECCAK256 ADD PUSH1 0x0 PUSH2 0x100 EXP DUP2 SLOAD DUP2 PUSH1 0x1 PUSH1 0x1 PUSH1 0xA0 SHL SUB MUL NOT AND SWAP1 DUP4 PUSH1 0x1 PUSH1 0x1 PUSH1 0xA0 SHL SUB AND MUL OR SWAP1 SSTORE POP PUSH2 0x822 PUSH2 0x1CF5 JUMP JUMPDEST PUSH2 0x1174 PUSH2 0x1A38 JUMP JUMPDEST PUSH1 0xA DUP1 SLOAD SWAP2 ISZERO ISZERO PUSH3 0x10000 MUL PUSH3 0xFF0000 NOT SWAP1 SWAP3 AND SWAP2 SWAP1 SWAP2 OR SWAP1 SSTORE JUMP JUMPDEST PUSH1 0x8 SLOAD DUP2 JUMP JUMPDEST PUSH1 0x0 SWAP1 JUMP JUMPDEST PUSH2 0x11A3 PUSH2 0x1A38 JUMP JUMPDEST PUSH1 0x8 DUP2 SWAP1 SSTORE PUSH1 0x40 MLOAD PUSH32 0xD94596337DF4C2F0F44D30A7FC5DB1C7BB60D9ACA4185ED77C6FD96EB45EC298 SWAP1 PUSH2 0x9A4 SWAP1 DUP4 SWAP1 PUSH2 0x3E28 JUMP JUMPDEST PUSH2 0x2710 DUP2 JUMP JUMPDEST PUSH20 0x4E3FBD56CD56C3E72C1403E103B45DB9DA5B9D2B DUP2 JUMP JUMPDEST PUSH2 0x11FE PUSH2 0x1A38 JUMP JUMPDEST PUSH1 0xF SSTORE JUMP JUMPDEST PUSH1 0x6 SLOAD DUP2 JUMP JUMPDEST PUSH20 0xD9E1CE17F2641F24AE83637AB66A2CCA9C378B9F DUP2 JUMP JUMPDEST PUSH1 0x3 SLOAD PUSH1 0x1 PUSH1 0x1 PUSH1 0xA0 SHL SUB AND DUP2 JUMP JUMPDEST PUSH1 0x4 SLOAD PUSH1 0x1 PUSH1 0x1 PUSH1 0xA0 SHL SUB AND DUP2 JUMP JUMPDEST PUSH1 0xB SLOAD DUP2 JUMP JUMPDEST PUSH1 0x5 SLOAD PUSH1 0x40 MLOAD PUSH4 0x70A08231 PUSH1 0xE0 SHL DUP2 MSTORE PUSH1 0x0 SWAP2 PUSH1 0x1 PUSH1 0x1 PUSH1 0xA0 SHL SUB AND SWAP1 PUSH4 0x70A08231 SWAP1 PUSH2 0x9E0 SWAP1 ADDRESS SWAP1 PUSH1 0x4 ADD PUSH2 0x3B2B JUMP JUMPDEST PUSH20 0xF403C135812408BFBE8713B5A23A04B3D48AAE31 DUP2 JUMP JUMPDEST PUSH2 0x1296 PUSH2 0x1A38 JUMP JUMPDEST PUSH1 0xA DUP1 SLOAD SWAP2 ISZERO ISZERO PUSH2 0x100 MUL PUSH2 0xFF00 NOT SWAP1 SWAP3 AND SWAP2 SWAP1 SWAP2 OR SWAP1 SSTORE JUMP JUMPDEST PUSH2 0x12B8 PUSH2 0x1A38 JUMP JUMPDEST PUSH1 0x1 PUSH1 0x1 PUSH1 0xA0 SHL SUB DUP2 AND PUSH2 0x12CB JUMPI PUSH1 0x0 DUP1 REVERT JUMPDEST PUSH1 0x2 DUP1 SLOAD PUSH1 0x1 PUSH1 0x1 PUSH1 0xA0 SHL SUB NOT AND PUSH1 0x1 PUSH1 0x1 PUSH1 0xA0 SHL SUB DUP4 AND OR SWAP1 SSTORE PUSH1 0x40 MLOAD PUSH32 0x352ECECAE6D7D1E6D26BCF2C549DFD55BE1637E9B22DC0CF3B71DDB36097A6B4 SWAP1 PUSH2 0x9A4 SWAP1 DUP4 SWAP1 PUSH2 0x3B2B JUMP JUMPDEST PUSH1 0x1 SLOAD PUSH1 0x1 PUSH1 0x1 PUSH1 0xA0 SHL SUB AND CALLER EQ PUSH2 0x132D JUMPI PUSH1 0x0 DUP1 REVERT JUMPDEST PUSH1 0x1 SLOAD PUSH1 0x40 DUP1 MLOAD PUSH4 0xFBFA77CF PUSH1 0xE0 SHL DUP2 MSTORE SWAP1 MLOAD PUSH1 0x1 PUSH1 0x1 PUSH1 0xA0 SHL SUB SWAP3 DUP4 AND SWAP3 DUP5 AND SWAP2 PUSH4 0xFBFA77CF SWAP2 PUSH1 0x4 DUP1 DUP4 ADD SWAP3 PUSH1 0x20 SWAP3 SWAP2 SWAP1 DUP3 SWAP1 SUB ADD DUP2 DUP7 DUP1 EXTCODESIZE ISZERO DUP1 ISZERO PUSH2 0x1374 JUMPI PUSH1 0x0 DUP1 REVERT JUMPDEST POP GAS STATICCALL ISZERO DUP1 ISZERO PUSH2 0x1388 JUMPI RETURNDATASIZE PUSH1 0x0 DUP1 RETURNDATACOPY RETURNDATASIZE PUSH1 0x0 REVERT JUMPDEST POP POP POP POP PUSH1 0x40 MLOAD RETURNDATASIZE PUSH1 0x1F NOT PUSH1 0x1F DUP3 ADD AND DUP3 ADD DUP1 PUSH1 0x40 MSTORE POP DUP2 ADD SWAP1 PUSH2 0x13AC SWAP2 SWAP1 PUSH2 0x37BE JUMP JUMPDEST PUSH1 0x1 PUSH1 0x1 PUSH1 0xA0 SHL SUB AND EQ PUSH2 0x13BF JUMPI PUSH1 0x0 DUP1 REVERT JUMPDEST PUSH2 0x13C8 DUP2 PUSH2 0x2C72 JUMP JUMPDEST PUSH1 0x5 SLOAD PUSH1 0x40 MLOAD PUSH4 0x70A08231 PUSH1 0xE0 SHL DUP2 MSTORE PUSH2 0x13FE SWAP2 PUSH1 0x1 PUSH1 0x1 PUSH1 0xA0 SHL SUB AND SWAP1 DUP4 SWAP1 DUP3 SWAP1 PUSH4 0x70A08231 SWAP1 PUSH2 0x7CD SWAP1 ADDRESS SWAP1 PUSH1 0x4 ADD PUSH2 0x3B2B JUMP JUMPDEST POP JUMP JUMPDEST PUSH2 0x1409 PUSH2 0x2CE8 JUMP JUMPDEST PUSH1 0x3 DUP1 SLOAD PUSH1 0x1 PUSH1 0x1 PUSH1 0xA0 SHL SUB DUP4 DUP2 AND PUSH1 0x1 PUSH1 0x1 PUSH1 0xA0 SHL SUB NOT DUP4 AND OR SWAP1 SWAP3 SSTORE PUSH1 0x1 SLOAD PUSH1 0x40 MLOAD PUSH4 0x5B70BDBF PUSH1 0xE1 SHL DUP2 MSTORE SWAP2 DUP4 AND SWAP3 PUSH20 0x0 SWAP3 PUSH4 0xB6E17B7E SWAP3 PUSH2 0x146B SWAP3 DUP7 SWAP3 DUP9 SWAP3 SWAP1 SWAP2 AND SWAP1 PUSH1 0x4 ADD PUSH2 0x3B59 JUMP JUMPDEST PUSH1 0x0 PUSH1 0x40 MLOAD DUP1 DUP4 SUB DUP2 DUP7 DUP1 EXTCODESIZE ISZERO DUP1 ISZERO PUSH2 0x1483 JUMPI PUSH1 0x0 DUP1 REVERT JUMPDEST POP GAS DELEGATECALL ISZERO DUP1 ISZERO PUSH2 0x1497 JUMPI RETURNDATASIZE PUSH1 0x0 DUP1 RETURNDATACOPY RETURNDATASIZE PUSH1 0x0 REVERT JUMPDEST POP POP POP POP PUSH32 0xAFBB66ABF8F3B719799940473A4052A3717CDD8E40FB6C8A3FAADAB316B1A069 DUP3 PUSH1 0x40 MLOAD PUSH2 0x110B SWAP2 SWAP1 PUSH2 0x3B2B JUMP JUMPDEST PUSH1 0x0 PUSH2 0x14D4 PUSH2 0x3741 JUMP JUMPDEST PUSH1 0x1 SLOAD PUSH1 0x40 MLOAD PUSH4 0x39EBF823 PUSH1 0xE0 SHL DUP2 MSTORE PUSH1 0x1 PUSH1 0x1 PUSH1 0xA0 SHL SUB SWAP1 SWAP2 AND SWAP1 PUSH4 0x39EBF823 SWAP1 PUSH2 0x1504 SWAP1 ADDRESS SWAP1 PUSH1 0x4 ADD PUSH2 0x3B2B JUMP JUMPDEST PUSH2 0x120 PUSH1 0x40 MLOAD DUP1 DUP4 SUB DUP2 DUP7 DUP1 EXTCODESIZE ISZERO DUP1 ISZERO PUSH2 0x151D JUMPI PUSH1 0x0 DUP1 REVERT JUMPDEST POP GAS STATICCALL ISZERO DUP1 ISZERO PUSH2 0x1531 JUMPI RETURNDATASIZE PUSH1 0x0 DUP1 RETURNDATACOPY RETURNDATASIZE PUSH1 0x0 REVERT JUMPDEST POP POP POP POP PUSH1 0x40 MLOAD RETURNDATASIZE PUSH1 0x1F NOT PUSH1 0x1F DUP3 ADD AND DUP3 ADD DUP1 PUSH1 0x40 MSTORE POP DUP2 ADD SWAP1 PUSH2 0x1555 SWAP2 SWAP1 PUSH2 0x39A0 JUMP JUMPDEST SWAP1 POP DUP1 PUSH1 0x20 ADD MLOAD PUSH1 0x0 EQ ISZERO PUSH2 0x156E JUMPI PUSH1 0x0 SWAP2 POP POP PUSH2 0x1024 JUMP JUMPDEST PUSH1 0x6 SLOAD PUSH1 0xA0 DUP3 ADD MLOAD PUSH2 0x1581 SWAP1 TIMESTAMP SWAP1 PUSH2 0x2284 JUMP JUMPDEST LT ISZERO PUSH2 0x1591 JUMPI PUSH1 0x0 SWAP2 POP POP PUSH2 0x1024 JUMP JUMPDEST PUSH1 0x7 SLOAD PUSH1 0xA0 DUP3 ADD MLOAD PUSH2 0x15A4 SWAP1 TIMESTAMP SWAP1 PUSH2 0x2284 JUMP JUMPDEST LT PUSH2 0x15B3 JUMPI PUSH1 0x1 SWAP2 POP POP PUSH2 0x1024 JUMP JUMPDEST PUSH1 0x1 SLOAD PUSH1 0x40 DUP1 MLOAD PUSH4 0xBF3759B5 PUSH1 0xE0 SHL DUP2 MSTORE SWAP1 MLOAD PUSH1 0x0 SWAP3 PUSH1 0x1 PUSH1 0x1 PUSH1 0xA0 SHL SUB AND SWAP2 PUSH4 0xBF3759B5 SWAP2 PUSH1 0x4 DUP1 DUP4 ADD SWAP3 PUSH1 0x20 SWAP3 SWAP2 SWAP1 DUP3 SWAP1 SUB ADD DUP2 DUP7 DUP1 EXTCODESIZE ISZERO DUP1 ISZERO PUSH2 0x15F8 JUMPI PUSH1 0x0 DUP1 REVERT JUMPDEST POP GAS STATICCALL ISZERO DUP1 ISZERO PUSH2 0x160C JUMPI RETURNDATASIZE PUSH1 0x0 DUP1 RETURNDATACOPY RETURNDATASIZE PUSH1 0x0 REVERT JUMPDEST POP POP POP POP PUSH1 0x40 MLOAD RETURNDATASIZE PUSH1 0x1F NOT PUSH1 0x1F DUP3 ADD AND DUP3 ADD DUP1 PUSH1 0x40 MSTORE POP DUP2 ADD SWAP1 PUSH2 0x1630 SWAP2 SWAP1 PUSH2 0x3A36 JUMP JUMPDEST SWAP1 POP PUSH1 0x9 SLOAD DUP2 GT ISZERO PUSH2 0x1647 JUMPI PUSH1 0x1 SWAP3 POP POP POP PUSH2 0x1024 JUMP JUMPDEST PUSH1 0x0 PUSH2 0x1651 PUSH2 0x169E JUMP JUMPDEST SWAP1 POP DUP3 PUSH1 0xC0 ADD MLOAD PUSH2 0x166D PUSH1 0x9 SLOAD DUP4 PUSH2 0x2D21 SWAP1 SWAP2 SWAP1 PUSH4 0xFFFFFFFF AND JUMP JUMPDEST LT ISZERO PUSH2 0x167F JUMPI PUSH1 0x1 SWAP4 POP POP POP POP PUSH2 0x1024 JUMP JUMPDEST PUSH2 0x1687 PUSH2 0x2D46 JUMP JUMPDEST PUSH1 0x8 SLOAD PUSH2 0x1694 SWAP1 DUP8 PUSH2 0x2D50 JUMP JUMPDEST LT SWAP6 SWAP5 POP POP POP POP POP JUMP JUMPDEST PUSH1 0x0 PUSH2 0xA30 PUSH2 0x16AB PUSH2 0x9AF JUMP JUMPDEST PUSH2 0x16B3 PUSH2 0x1245 JUMP JUMPDEST SWAP1 PUSH2 0x2D21 JUMP JUMPDEST PUSH2 0x16C1 PUSH2 0x1A38 JUMP JUMPDEST PUSH1 0x7 DUP2 SWAP1 SSTORE PUSH1 0x40 MLOAD PUSH32 0x5430E11864AD7AA9775B07D12657FE52DF9AA2BA734355BD8EF8747BE2C800C5 SWAP1 PUSH2 0x9A4 SWAP1 DUP4 SWAP1 PUSH2 0x3E28 JUMP JUMPDEST PUSH20 0x6B175474E89094C44DA98B954EEDEAC495271D0F DUP2 JUMP JUMPDEST PUSH1 0x1 SLOAD PUSH1 0x1 PUSH1 0x1 PUSH1 0xA0 SHL SUB AND DUP2 JUMP JUMPDEST PUSH2 0x1725 PUSH2 0x2D8A JUMP JUMPDEST PUSH1 0xA DUP1 SLOAD PUSH1 0xFF NOT AND PUSH1 0x1 SWAP1 DUP2 OR SWAP1 SWAP2 SSTORE SLOAD PUSH1 0x40 DUP1 MLOAD PUSH4 0x507257CD PUSH1 0xE1 SHL DUP2 MSTORE SWAP1 MLOAD PUSH1 0x1 PUSH1 0x1 PUSH1 0xA0 SHL SUB SWAP1 SWAP3 AND SWAP2 PUSH4 0xA0E4AF9A SWAP2 PUSH1 0x4 DUP1 DUP3 ADD SWAP3 PUSH1 0x0 SWAP3 SWAP1 SWAP2 SWAP1 DUP3 SWAP1 SUB ADD DUP2 DUP4 DUP8 DUP1 EXTCODESIZE ISZERO DUP1 ISZERO PUSH2 0x1779 JUMPI PUSH1 0x0 DUP1 REVERT JUMPDEST POP GAS CALL ISZERO DUP1 ISZERO PUSH2 0x178D JUMPI RETURNDATASIZE PUSH1 0x0 DUP1 RETURNDATACOPY RETURNDATASIZE PUSH1 0x0 REVERT JUMPDEST POP POP PUSH1 0x40 MLOAD PUSH32 0x97E963041E952738788B9D4871D854D282065B8F90A464928D6528F2E9A4FD0B SWAP3 POP PUSH1 0x0 SWAP2 POP LOG1 JUMP JUMPDEST DUP1 ISZERO DUP1 PUSH2 0x1844 JUMPI POP PUSH1 0x40 MLOAD PUSH4 0x6EB1769F PUSH1 0xE1 SHL DUP2 MSTORE PUSH1 0x1 PUSH1 0x1 PUSH1 0xA0 SHL SUB DUP5 AND SWAP1 PUSH4 0xDD62ED3E SWAP1 PUSH2 0x17F2 SWAP1 ADDRESS SWAP1 DUP7 SWAP1 PUSH1 0x4 ADD PUSH2 0x3B3F JUMP JUMPDEST PUSH1 0x20 PUSH1 0x40 MLOAD DUP1 DUP4 SUB DUP2 DUP7 DUP1 EXTCODESIZE ISZERO DUP1 ISZERO PUSH2 0x180A JUMPI PUSH1 0x0 DUP1 REVERT JUMPDEST POP GAS STATICCALL ISZERO DUP1 ISZERO PUSH2 0x181E JUMPI RETURNDATASIZE PUSH1 0x0 DUP1 RETURNDATACOPY RETURNDATASIZE PUSH1 0x0 REVERT JUMPDEST POP POP POP POP PUSH1 0x40 MLOAD RETURNDATASIZE PUSH1 0x1F NOT PUSH1 0x1F DUP3 ADD AND DUP3 ADD DUP1 PUSH1 0x40 MSTORE POP DUP2 ADD SWAP1 PUSH2 0x1842 SWAP2 SWAP1 PUSH2 0x3A36 JUMP JUMPDEST ISZERO JUMPDEST PUSH2 0x1860 JUMPI PUSH1 0x40 MLOAD PUSH3 0x461BCD PUSH1 0xE5 SHL DUP2 MSTORE PUSH1 0x4 ADD PUSH2 0x6F8 SWAP1 PUSH2 0x3DD2 JUMP JUMPDEST PUSH2 0x18B6 DUP4 PUSH4 0x95EA7B3 PUSH1 0xE0 SHL DUP5 DUP5 PUSH1 0x40 MLOAD PUSH1 0x24 ADD PUSH2 0x187F SWAP3 SWAP2 SWAP1 PUSH2 0x3B97 JUMP JUMPDEST PUSH1 0x40 DUP1 MLOAD PUSH1 0x1F NOT DUP2 DUP5 SUB ADD DUP2 MSTORE SWAP2 SWAP1 MSTORE PUSH1 0x20 DUP2 ADD DUP1 MLOAD PUSH1 0x1 PUSH1 0x1 PUSH1 0xE0 SHL SUB AND PUSH1 0x1 PUSH1 0x1 PUSH1 0xE0 SHL SUB NOT SWAP1 SWAP4 AND SWAP3 SWAP1 SWAP3 OR SWAP1 SWAP2 MSTORE PUSH2 0x2DA6 JUMP JUMPDEST POP POP POP JUMP JUMPDEST PUSH1 0x60 PUSH2 0x18CA DUP5 DUP5 PUSH1 0x0 DUP6 PUSH2 0x2E35 JUMP JUMPDEST SWAP5 SWAP4 POP POP POP POP JUMP JUMPDEST PUSH2 0x18DA PUSH2 0x199C JUMP JUMPDEST PUSH1 0x1 PUSH1 0x1 PUSH1 0xA0 SHL SUB AND CALLER PUSH1 0x1 PUSH1 0x1 PUSH1 0xA0 SHL SUB AND EQ PUSH2 0xD12 JUMPI PUSH1 0x0 DUP1 REVERT JUMPDEST PUSH1 0x40 DUP1 MLOAD PUSH1 0x2 DUP1 DUP3 MSTORE PUSH1 0x60 DUP1 DUP4 ADD DUP5 MSTORE SWAP3 DUP4 SWAP3 SWAP2 SWAP1 PUSH1 0x20 DUP4 ADD SWAP1 DUP1 CALLDATASIZE DUP4 CALLDATACOPY ADD SWAP1 POP POP SWAP1 POP PUSH20 0xD533A949740BB3306D119CC777FA900BA034CD52 DUP2 PUSH1 0x0 DUP2 MLOAD DUP2 LT PUSH2 0x193D JUMPI INVALID JUMPDEST PUSH1 0x20 MUL PUSH1 0x20 ADD ADD SWAP1 PUSH1 0x1 PUSH1 0x1 PUSH1 0xA0 SHL SUB AND SWAP1 DUP2 PUSH1 0x1 PUSH1 0x1 PUSH1 0xA0 SHL SUB AND DUP2 MSTORE POP POP PUSH20 0x4E3FBD56CD56C3E72C1403E103B45DB9DA5B9D2B DUP2 PUSH1 0x1 DUP2 MLOAD DUP2 LT PUSH2 0x197F JUMPI INVALID JUMPDEST PUSH1 0x1 PUSH1 0x1 PUSH1 0xA0 SHL SUB SWAP1 SWAP3 AND PUSH1 0x20 SWAP3 DUP4 MUL SWAP2 SWAP1 SWAP2 ADD SWAP1 SWAP2 ADD MSTORE SWAP1 POP SWAP1 JUMP JUMPDEST PUSH1 0x1 SLOAD PUSH1 0x40 DUP1 MLOAD PUSH4 0x5AA6E675 PUSH1 0xE0 SHL DUP2 MSTORE SWAP1 MLOAD PUSH1 0x0 SWAP3 PUSH1 0x1 PUSH1 0x1 PUSH1 0xA0 SHL SUB AND SWAP2 PUSH4 0x5AA6E675 SWAP2 PUSH1 0x4 DUP1 DUP4 ADD SWAP3 PUSH1 0x20 SWAP3 SWAP2 SWAP1 DUP3 SWAP1 SUB ADD DUP2 DUP7 DUP1 EXTCODESIZE ISZERO DUP1 ISZERO PUSH2 0x19E1 JUMPI PUSH1 0x0 DUP1 REVERT JUMPDEST POP GAS STATICCALL ISZERO DUP1 ISZERO PUSH2 0x19F5 JUMPI RETURNDATASIZE PUSH1 0x0 DUP1 RETURNDATACOPY RETURNDATASIZE PUSH1 0x0 REVERT JUMPDEST POP POP POP POP PUSH1 0x40 MLOAD RETURNDATASIZE PUSH1 0x1F NOT PUSH1 0x1F DUP3 ADD AND DUP3 ADD DUP1 PUSH1 0x40 MSTORE POP DUP2 ADD SWAP1 PUSH2 0xA30 SWAP2 SWAP1 PUSH2 0x37BE JUMP JUMPDEST PUSH2 0x18B6 DUP4 PUSH4 0xA9059CBB PUSH1 0xE0 SHL DUP5 DUP5 PUSH1 0x40 MLOAD PUSH1 0x24 ADD PUSH2 0x187F SWAP3 SWAP2 SWAP1 PUSH2 0x3B97 JUMP JUMPDEST PUSH1 0x2 SLOAD PUSH1 0x1 PUSH1 0x1 PUSH1 0xA0 SHL SUB AND CALLER EQ DUP1 PUSH2 0x1A54 JUMPI POP PUSH2 0x18DA PUSH2 0x199C JUMP JUMPDEST PUSH2 0xD12 JUMPI PUSH1 0x0 DUP1 REVERT JUMPDEST PUSH1 0x0 DUP1 PUSH1 0x0 PUSH2 0x1A6A PUSH2 0x1245 JUMP JUMPDEST SWAP1 POP DUP4 DUP2 LT ISZERO PUSH2 0x1AA5 JUMPI PUSH2 0x1A86 PUSH2 0x1A81 DUP6 DUP4 PUSH2 0x2284 JUMP JUMPDEST PUSH2 0x2EF9 JUMP JUMPDEST SWAP3 POP PUSH2 0x1A92 DUP4 DUP3 PUSH2 0x2D21 JUMP JUMPDEST SWAP3 POP PUSH2 0x1A9E DUP5 DUP5 PUSH2 0x2284 JUMP JUMPDEST SWAP2 POP PUSH2 0x1AA9 JUMP JUMPDEST DUP4 SWAP3 POP JUMPDEST POP SWAP2 POP SWAP2 JUMP JUMPDEST PUSH1 0x5 SLOAD PUSH1 0x40 MLOAD PUSH4 0x95EA7B3 PUSH1 0xE0 SHL DUP2 MSTORE PUSH1 0x1 PUSH1 0x1 PUSH1 0xA0 SHL SUB SWAP1 SWAP2 AND SWAP1 PUSH4 0x95EA7B3 SWAP1 PUSH2 0x1AF6 SWAP1 PUSH20 0xF403C135812408BFBE8713B5A23A04B3D48AAE31 SWAP1 PUSH1 0x0 SWAP1 PUSH1 0x4 ADD PUSH2 0x3B97 JUMP JUMPDEST PUSH1 0x20 PUSH1 0x40 MLOAD DUP1 DUP4 SUB DUP2 PUSH1 0x0 DUP8 DUP1 EXTCODESIZE ISZERO DUP1 ISZERO PUSH2 0x1B10 JUMPI PUSH1 0x0 DUP1 REVERT JUMPDEST POP GAS CALL ISZERO DUP1 ISZERO PUSH2 0x1B24 JUMPI RETURNDATASIZE PUSH1 0x0 DUP1 RETURNDATACOPY RETURNDATASIZE PUSH1 0x0 REVERT JUMPDEST POP POP POP POP PUSH1 0x40 MLOAD RETURNDATASIZE PUSH1 0x1F NOT PUSH1 0x1F DUP3 ADD AND DUP3 ADD DUP1 PUSH1 0x40 MSTORE POP DUP2 ADD SWAP1 PUSH2 0x1B48 SWAP2 SWAP1 PUSH2 0x388B JUMP JUMPDEST POP PUSH1 0x5 SLOAD PUSH1 0x40 MLOAD PUSH4 0x95EA7B3 PUSH1 0xE0 SHL DUP2 MSTORE PUSH1 0x1 PUSH1 0x1 PUSH1 0xA0 SHL SUB SWAP1 SWAP2 AND SWAP1 PUSH4 0x95EA7B3 SWAP1 PUSH2 0x1B91 SWAP1 PUSH20 0xF403C135812408BFBE8713B5A23A04B3D48AAE31 SWAP1 PUSH1 0x0 NOT SWAP1 PUSH1 0x4 ADD PUSH2 0x3B97 JUMP JUMPDEST PUSH1 0x20 PUSH1 0x40 MLOAD DUP1 DUP4 SUB DUP2 PUSH1 0x0 DUP8 DUP1 EXTCODESIZE ISZERO DUP1 ISZERO PUSH2 0x1BAB JUMPI PUSH1 0x0 DUP1 REVERT JUMPDEST POP GAS CALL ISZERO DUP1 ISZERO PUSH2 0x1BBF JUMPI RETURNDATASIZE PUSH1 0x0 DUP1 RETURNDATACOPY RETURNDATASIZE PUSH1 0x0 REVERT JUMPDEST POP POP POP POP PUSH1 0x40 MLOAD RETURNDATASIZE PUSH1 0x1F NOT PUSH1 0x1F DUP3 ADD AND DUP3 ADD DUP1 PUSH1 0x40 MSTORE POP DUP2 ADD SWAP1 PUSH2 0x1BE3 SWAP2 SWAP1 PUSH2 0x388B JUMP JUMPDEST POP PUSH1 0xD SLOAD PUSH2 0x1C11 SWAP1 PUSH20 0x6B175474E89094C44DA98B954EEDEAC495271D0F SWAP1 PUSH1 0x1 PUSH1 0x1 PUSH1 0xA0 SHL SUB AND PUSH1 0x0 PUSH2 0x17BC JUMP JUMPDEST PUSH1 0xD SLOAD PUSH2 0x1C3F SWAP1 PUSH20 0x6B175474E89094C44DA98B954EEDEAC495271D0F SWAP1 PUSH1 0x1 PUSH1 0x1 PUSH1 0xA0 SHL SUB AND PUSH1 0x0 NOT PUSH2 0x17BC JUMP JUMPDEST PUSH1 0xD SLOAD PUSH2 0x1C6C SWAP1 PUSH20 0xA0B86991C6218B36C1D19D4A2E9EB0CE3606EB48 SWAP1 PUSH1 0x1 PUSH1 0x1 PUSH1 0xA0 SHL SUB AND PUSH1 0x0 PUSH2 0x17BC JUMP JUMPDEST PUSH1 0xD SLOAD PUSH2 0x1C9A SWAP1 PUSH20 0xA0B86991C6218B36C1D19D4A2E9EB0CE3606EB48 SWAP1 PUSH1 0x1 PUSH1 0x1 PUSH1 0xA0 SHL SUB AND PUSH1 0x0 NOT PUSH2 0x17BC JUMP JUMPDEST PUSH1 0xD SLOAD PUSH2 0x1CC7 SWAP1 PUSH20 0xDAC17F958D2EE523A2206206994597C13D831EC7 SWAP1 PUSH1 0x1 PUSH1 0x1 PUSH1 0xA0 SHL SUB AND PUSH1 0x0 PUSH2 0x17BC JUMP JUMPDEST PUSH1 0xD SLOAD PUSH2 0xD12 SWAP1 PUSH20 0xDAC17F958D2EE523A2206206994597C13D831EC7 SWAP1 PUSH1 0x1 PUSH1 0x1 PUSH1 0xA0 SHL SUB AND PUSH1 0x0 NOT PUSH2 0x17BC JUMP JUMPDEST PUSH20 0xD533A949740BB3306D119CC777FA900BA034CD52 PUSH1 0x1 PUSH1 0x1 PUSH1 0xA0 SHL SUB AND PUSH4 0x95EA7B3 PUSH1 0xE PUSH1 0x0 DUP2 SLOAD DUP2 LT PUSH2 0x1D26 JUMPI INVALID JUMPDEST PUSH1 0x0 SWAP2 DUP3 MSTORE PUSH1 0x20 DUP3 KECCAK256 ADD SLOAD PUSH1 0x40 MLOAD PUSH1 0x1 PUSH1 0x1 PUSH1 0xE0 SHL SUB NOT PUSH1 0xE0 DUP6 SWAP1 SHL AND DUP2 MSTORE PUSH2 0x1D5E SWAP3 PUSH1 0x1 PUSH1 0x1 PUSH1 0xA0 SHL SUB SWAP1 SWAP3 AND SWAP2 SWAP1 PUSH1 0x4 ADD PUSH2 0x3B97 JUMP JUMPDEST PUSH1 0x20 PUSH1 0x40 MLOAD DUP1 DUP4 SUB DUP2 PUSH1 0x0 DUP8 DUP1 EXTCODESIZE ISZERO DUP1 ISZERO PUSH2 0x1D78 JUMPI PUSH1 0x0 DUP1 REVERT JUMPDEST POP GAS CALL ISZERO DUP1 ISZERO PUSH2 0x1D8C JUMPI RETURNDATASIZE PUSH1 0x0 DUP1 RETURNDATACOPY RETURNDATASIZE PUSH1 0x0 REVERT JUMPDEST POP POP POP POP PUSH1 0x40 MLOAD RETURNDATASIZE PUSH1 0x1F NOT PUSH1 0x1F DUP3 ADD AND DUP3 ADD DUP1 PUSH1 0x40 MSTORE POP DUP2 ADD SWAP1 PUSH2 0x1DB0 SWAP2 SWAP1 PUSH2 0x388B JUMP JUMPDEST POP PUSH20 0xD533A949740BB3306D119CC777FA900BA034CD52 PUSH1 0x1 PUSH1 0x1 PUSH1 0xA0 SHL SUB AND PUSH4 0x95EA7B3 PUSH1 0xE PUSH1 0x0 DUP2 SLOAD DUP2 LT PUSH2 0x1DE2 JUMPI INVALID JUMPDEST PUSH1 0x0 SWAP2 DUP3 MSTORE PUSH1 0x20 SWAP1 SWAP2 KECCAK256 ADD SLOAD PUSH1 0x40 MLOAD PUSH1 0x1 PUSH1 0x1 PUSH1 0xE0 SHL SUB NOT PUSH1 0xE0 DUP5 SWAP1 SHL AND DUP2 MSTORE PUSH2 0x1E1C SWAP2 PUSH1 0x1 PUSH1 0x1 PUSH1 0xA0 SHL SUB AND SWAP1 PUSH1 0x0 NOT SWAP1 PUSH1 0x4 ADD PUSH2 0x3B97 JUMP JUMPDEST PUSH1 0x20 PUSH1 0x40 MLOAD DUP1 DUP4 SUB DUP2 PUSH1 0x0 DUP8 DUP1 EXTCODESIZE ISZERO DUP1 ISZERO PUSH2 0x1E36 JUMPI PUSH1 0x0 DUP1 REVERT JUMPDEST POP GAS CALL ISZERO DUP1 ISZERO PUSH2 0x1E4A JUMPI RETURNDATASIZE PUSH1 0x0 DUP1 RETURNDATACOPY RETURNDATASIZE PUSH1 0x0 REVERT JUMPDEST POP POP POP POP PUSH1 0x40 MLOAD RETURNDATASIZE PUSH1 0x1F NOT PUSH1 0x1F DUP3 ADD AND DUP3 ADD DUP1 PUSH1 0x40 MSTORE POP DUP2 ADD SWAP1 PUSH2 0x1E6E SWAP2 SWAP1 PUSH2 0x388B JUMP JUMPDEST POP PUSH20 0x4E3FBD56CD56C3E72C1403E103B45DB9DA5B9D2B PUSH1 0x1 PUSH1 0x1 PUSH1 0xA0 SHL SUB AND PUSH4 0x95EA7B3 PUSH1 0xE PUSH1 0x1 DUP2 SLOAD DUP2 LT PUSH2 0x1EA0 JUMPI INVALID JUMPDEST PUSH1 0x0 SWAP2 DUP3 MSTORE PUSH1 0x20 DUP3 KECCAK256 ADD SLOAD PUSH1 0x40 MLOAD PUSH1 0x1 PUSH1 0x1 PUSH1 0xE0 SHL SUB NOT PUSH1 0xE0 DUP6 SWAP1 SHL AND DUP2 MSTORE PUSH2 0x1ED8 SWAP3 PUSH1 0x1 PUSH1 0x1 PUSH1 0xA0 SHL SUB SWAP1 SWAP3 AND SWAP2 SWAP1 PUSH1 0x4 ADD PUSH2 0x3B97 JUMP JUMPDEST PUSH1 0x20 PUSH1 0x40 MLOAD DUP1 DUP4 SUB DUP2 PUSH1 0x0 DUP8 DUP1 EXTCODESIZE ISZERO DUP1 ISZERO PUSH2 0x1EF2 JUMPI PUSH1 0x0 DUP1 REVERT JUMPDEST POP GAS CALL ISZERO DUP1 ISZERO PUSH2 0x1F06 JUMPI RETURNDATASIZE PUSH1 0x0 DUP1 RETURNDATACOPY RETURNDATASIZE PUSH1 0x0 REVERT JUMPDEST POP POP POP POP PUSH1 0x40 MLOAD RETURNDATASIZE PUSH1 0x1F NOT PUSH1 0x1F DUP3 ADD AND DUP3 ADD DUP1 PUSH1 0x40 MSTORE POP DUP2 ADD SWAP1 PUSH2 0x1F2A SWAP2 SWAP1 PUSH2 0x388B JUMP JUMPDEST POP PUSH20 0x4E3FBD56CD56C3E72C1403E103B45DB9DA5B9D2B PUSH1 0x1 PUSH1 0x1 PUSH1 0xA0 SHL SUB AND PUSH4 0x95EA7B3 PUSH1 0xE PUSH1 0x1 DUP2 SLOAD DUP2 LT PUSH2 0x1F5C JUMPI INVALID JUMPDEST PUSH1 0x0 SWAP2 DUP3 MSTORE PUSH1 0x20 SWAP1 SWAP2 KECCAK256 ADD SLOAD PUSH1 0x40 MLOAD PUSH1 0x1 PUSH1 0x1 PUSH1 0xE0 SHL SUB NOT PUSH1 0xE0 DUP5 SWAP1 SHL AND DUP2 MSTORE PUSH2 0x1F96 SWAP2 PUSH1 0x1 PUSH1 0x1 PUSH1 0xA0 SHL SUB AND SWAP1 PUSH1 0x0 NOT SWAP1 PUSH1 0x4 ADD PUSH2 0x3B97 JUMP JUMPDEST PUSH1 0x20 PUSH1 0x40 MLOAD DUP1 DUP4 SUB DUP2 PUSH1 0x0 DUP8 DUP1 EXTCODESIZE ISZERO DUP1 ISZERO PUSH2 0x1FB0 JUMPI PUSH1 0x0 DUP1 REVERT JUMPDEST POP GAS CALL ISZERO DUP1 ISZERO PUSH2 0x1FC4 JUMPI RETURNDATASIZE PUSH1 0x0 DUP1 RETURNDATACOPY RETURNDATASIZE PUSH1 0x0 REVERT JUMPDEST POP POP POP POP PUSH1 0x40 MLOAD RETURNDATASIZE PUSH1 0x1F NOT PUSH1 0x1F DUP3 ADD AND DUP3 ADD DUP1 PUSH1 0x40 MSTORE POP DUP2 ADD SWAP1 PUSH2 0x13FE SWAP2 SWAP1 PUSH2 0x388B JUMP JUMPDEST PUSH1 0x4 SLOAD PUSH1 0x1 PUSH1 0x1 PUSH1 0xA0 SHL SUB AND CALLER EQ DUP1 PUSH2 0x200B JUMPI POP PUSH1 0x2 SLOAD PUSH1 0x1 PUSH1 0x1 PUSH1 0xA0 SHL SUB AND CALLER EQ JUMPDEST DUP1 PUSH2 0x202E JUMPI POP PUSH2 0x2019 PUSH2 0x199C JUMP JUMPDEST PUSH1 0x1 PUSH1 0x1 PUSH1 0xA0 SHL SUB AND CALLER PUSH1 0x1 PUSH1 0x1 PUSH1 0xA0 SHL SUB AND EQ JUMPDEST DUP1 PUSH2 0x20CF JUMPI POP PUSH1 0x1 PUSH1 0x0 SWAP1 SLOAD SWAP1 PUSH2 0x100 EXP SWAP1 DIV PUSH1 0x1 PUSH1 0x1 PUSH1 0xA0 SHL SUB AND PUSH1 0x1 PUSH1 0x1 PUSH1 0xA0 SHL SUB AND PUSH4 0x452A9320 PUSH1 0x40 MLOAD DUP2 PUSH4 0xFFFFFFFF AND PUSH1 0xE0 SHL DUP2 MSTORE PUSH1 0x4 ADD PUSH1 0x20 PUSH1 0x40 MLOAD DUP1 DUP4 SUB DUP2 DUP7 DUP1 EXTCODESIZE ISZERO DUP1 ISZERO PUSH2 0x2082 JUMPI PUSH1 0x0 DUP1 REVERT JUMPDEST POP GAS STATICCALL ISZERO DUP1 ISZERO PUSH2 0x2096 JUMPI RETURNDATASIZE PUSH1 0x0 DUP1 RETURNDATACOPY RETURNDATASIZE PUSH1 0x0 REVERT JUMPDEST POP POP POP POP PUSH1 0x40 MLOAD RETURNDATASIZE PUSH1 0x1F NOT PUSH1 0x1F DUP3 ADD AND DUP3 ADD DUP1 PUSH1 0x40 MSTORE POP DUP2 ADD SWAP1 PUSH2 0x20BA SWAP2 SWAP1 PUSH2 0x37BE JUMP JUMPDEST PUSH1 0x1 PUSH1 0x1 PUSH1 0xA0 SHL SUB AND CALLER PUSH1 0x1 PUSH1 0x1 PUSH1 0xA0 SHL SUB AND EQ JUMPDEST DUP1 PUSH2 0x1A54 JUMPI POP PUSH1 0x1 PUSH1 0x0 SWAP1 SLOAD SWAP1 PUSH2 0x100 EXP SWAP1 DIV PUSH1 0x1 PUSH1 0x1 PUSH1 0xA0 SHL SUB AND PUSH1 0x1 PUSH1 0x1 PUSH1 0xA0 SHL SUB AND PUSH4 0x88A8D602 PUSH1 0x40 MLOAD DUP2 PUSH4 0xFFFFFFFF AND PUSH1 0xE0 SHL DUP2 MSTORE PUSH1 0x4 ADD PUSH1 0x20 PUSH1 0x40 MLOAD DUP1 DUP4 SUB DUP2 DUP7 DUP1 EXTCODESIZE ISZERO DUP1 ISZERO PUSH2 0x2123 JUMPI PUSH1 0x0 DUP1 REVERT JUMPDEST POP GAS STATICCALL ISZERO DUP1 ISZERO PUSH2 0x2137 JUMPI RETURNDATASIZE PUSH1 0x0 DUP1 RETURNDATACOPY RETURNDATASIZE PUSH1 0x0 REVERT JUMPDEST POP POP POP POP PUSH1 0x40 MLOAD RETURNDATASIZE PUSH1 0x1F NOT PUSH1 0x1F DUP3 ADD AND DUP3 ADD DUP1 PUSH1 0x40 MSTORE POP DUP2 ADD SWAP1 PUSH2 0x18DA SWAP2 SWAP1 PUSH2 0x37BE JUMP JUMPDEST PUSH1 0xA SLOAD PUSH1 0xFF AND ISZERO PUSH2 0x216B JUMPI PUSH2 0x13FE JUMP JUMPDEST PUSH1 0x5 SLOAD PUSH1 0x40 MLOAD PUSH4 0x70A08231 PUSH1 0xE0 SHL DUP2 MSTORE PUSH1 0x0 SWAP2 PUSH1 0x1 PUSH1 0x1 PUSH1 0xA0 SHL SUB AND SWAP1 PUSH4 0x70A08231 SWAP1 PUSH2 0x219C SWAP1 ADDRESS SWAP1 PUSH1 0x4 ADD PUSH2 0x3B2B JUMP JUMPDEST PUSH1 0x20 PUSH1 0x40 MLOAD DUP1 DUP4 SUB DUP2 DUP7 DUP1 EXTCODESIZE ISZERO DUP1 ISZERO PUSH2 0x21B4 JUMPI PUSH1 0x0 DUP1 REVERT JUMPDEST POP GAS STATICCALL ISZERO DUP1 ISZERO PUSH2 0x21C8 JUMPI RETURNDATASIZE PUSH1 0x0 DUP1 RETURNDATACOPY RETURNDATASIZE PUSH1 0x0 REVERT JUMPDEST POP POP POP POP PUSH1 0x40 MLOAD RETURNDATASIZE PUSH1 0x1F NOT PUSH1 0x1F DUP3 ADD AND DUP3 ADD DUP1 PUSH1 0x40 MSTORE POP DUP2 ADD SWAP1 PUSH2 0x21EC SWAP2 SWAP1 PUSH2 0x3A36 JUMP JUMPDEST SWAP1 POP DUP1 ISZERO PUSH2 0x822 JUMPI PUSH1 0xB SLOAD PUSH1 0x40 MLOAD PUSH4 0x21D06833 PUSH1 0xE1 SHL DUP2 MSTORE PUSH20 0xF403C135812408BFBE8713B5A23A04B3D48AAE31 SWAP2 PUSH4 0x43A0D066 SWAP2 PUSH2 0x2232 SWAP2 SWAP1 DUP6 SWAP1 PUSH1 0x1 SWAP1 PUSH1 0x4 ADD PUSH2 0x3E96 JUMP JUMPDEST PUSH1 0x20 PUSH1 0x40 MLOAD DUP1 DUP4 SUB DUP2 PUSH1 0x0 DUP8 DUP1 EXTCODESIZE ISZERO DUP1 ISZERO PUSH2 0x224C JUMPI PUSH1 0x0 DUP1 REVERT JUMPDEST POP GAS CALL ISZERO DUP1 ISZERO PUSH2 0x2260 JUMPI RETURNDATASIZE PUSH1 0x0 DUP1 RETURNDATACOPY RETURNDATASIZE PUSH1 0x0 REVERT JUMPDEST POP POP POP POP PUSH1 0x40 MLOAD RETURNDATASIZE PUSH1 0x1F NOT PUSH1 0x1F DUP3 ADD AND DUP3 ADD DUP1 PUSH1 0x40 MSTORE POP DUP2 ADD SWAP1 PUSH2 0x18B6 SWAP2 SWAP1 PUSH2 0x388B JUMP JUMPDEST PUSH1 0x0 PUSH2 0x22C6 DUP4 DUP4 PUSH1 0x40 MLOAD DUP1 PUSH1 0x40 ADD PUSH1 0x40 MSTORE DUP1 PUSH1 0x1E DUP2 MSTORE PUSH1 0x20 ADD PUSH32 0x536166654D6174683A207375627472616374696F6E206F766572666C6F770000 DUP2 MSTORE POP PUSH2 0x2FAD JUMP JUMPDEST SWAP1 POP JUMPDEST SWAP3 SWAP2 POP POP JUMP JUMPDEST PUSH1 0x0 DUP1 PUSH1 0x0 DUP1 PUSH2 0x22DD PUSH2 0x1245 JUMP JUMPDEST PUSH1 0xC SLOAD PUSH1 0xA SLOAD PUSH1 0x40 MLOAD PUSH4 0x7050CCD9 PUSH1 0xE0 SHL DUP2 MSTORE SWAP3 SWAP4 POP PUSH1 0x1 PUSH1 0x1 PUSH1 0xA0 SHL SUB SWAP1 SWAP2 AND SWAP2 PUSH4 0x7050CCD9 SWAP2 PUSH2 0x231D SWAP2 ADDRESS SWAP2 PUSH3 0x10000 SWAP1 DIV PUSH1 0xFF AND SWAP1 PUSH1 0x4 ADD PUSH2 0x3B7C JUMP JUMPDEST PUSH1 0x20 PUSH1 0x40 MLOAD DUP1 DUP4 SUB DUP2 PUSH1 0x0 DUP8 DUP1 EXTCODESIZE ISZERO DUP1 ISZERO PUSH2 0x2337 JUMPI PUSH1 0x0 DUP1 REVERT JUMPDEST POP GAS CALL ISZERO DUP1 ISZERO PUSH2 0x234B JUMPI RETURNDATASIZE PUSH1 0x0 DUP1 RETURNDATACOPY RETURNDATASIZE PUSH1 0x0 REVERT JUMPDEST POP POP POP POP PUSH1 0x40 MLOAD RETURNDATASIZE PUSH1 0x1F NOT PUSH1 0x1F DUP3 ADD AND DUP3 ADD DUP1 PUSH1 0x40 MSTORE POP DUP2 ADD SWAP1 PUSH2 0x236F SWAP2 SWAP1 PUSH2 0x388B JUMP JUMPDEST POP PUSH1 0x40 MLOAD PUSH4 0x70A08231 PUSH1 0xE0 SHL DUP2 MSTORE PUSH1 0x0 SWAP1 PUSH20 0xD533A949740BB3306D119CC777FA900BA034CD52 SWAP1 PUSH4 0x70A08231 SWAP1 PUSH2 0x23AA SWAP1 ADDRESS SWAP1 PUSH1 0x4 ADD PUSH2 0x3B2B JUMP JUMPDEST PUSH1 0x20 PUSH1 0x40 MLOAD DUP1 DUP4 SUB DUP2 DUP7 DUP1 EXTCODESIZE ISZERO DUP1 ISZERO PUSH2 0x23C2 JUMPI PUSH1 0x0 DUP1 REVERT JUMPDEST POP GAS STATICCALL ISZERO DUP1 ISZERO PUSH2 0x23D6 JUMPI RETURNDATASIZE PUSH1 0x0 DUP1 RETURNDATACOPY RETURNDATASIZE PUSH1 0x0 REVERT JUMPDEST POP POP POP POP PUSH1 0x40 MLOAD RETURNDATASIZE PUSH1 0x1F NOT PUSH1 0x1F DUP3 ADD AND DUP3 ADD DUP1 PUSH1 0x40 MSTORE POP DUP2 ADD SWAP1 PUSH2 0x23FA SWAP2 SWAP1 PUSH2 0x3A36 JUMP JUMPDEST SWAP1 POP DUP1 ISZERO PUSH2 0x25B3 JUMPI PUSH2 0x240B DUP2 PUSH2 0x2FD9 JUMP JUMPDEST PUSH1 0x40 DUP1 MLOAD PUSH1 0x3 DUP1 DUP3 MSTORE PUSH1 0x80 DUP3 ADD SWAP1 SWAP3 MSTORE SWAP2 SWAP3 POP PUSH1 0x60 SWAP2 SWAP1 PUSH1 0x20 DUP3 ADD DUP4 DUP1 CALLDATASIZE DUP4 CALLDATACOPY ADD SWAP1 POP POP SWAP1 POP PUSH20 0xD533A949740BB3306D119CC777FA900BA034CD52 DUP2 PUSH1 0x0 DUP2 MLOAD DUP2 LT PUSH2 0x2453 JUMPI INVALID JUMPDEST PUSH1 0x20 MUL PUSH1 0x20 ADD ADD SWAP1 PUSH1 0x1 PUSH1 0x1 PUSH1 0xA0 SHL SUB AND SWAP1 DUP2 PUSH1 0x1 PUSH1 0x1 PUSH1 0xA0 SHL SUB AND DUP2 MSTORE POP POP PUSH20 0xC02AAA39B223FE8D0A0E5C4F27EAD9083C756CC2 DUP2 PUSH1 0x1 DUP2 MLOAD DUP2 LT PUSH2 0x2495 JUMPI INVALID JUMPDEST PUSH1 0x20 MUL PUSH1 0x20 ADD ADD SWAP1 PUSH1 0x1 PUSH1 0x1 PUSH1 0xA0 SHL SUB AND SWAP1 DUP2 PUSH1 0x1 PUSH1 0x1 PUSH1 0xA0 SHL SUB AND DUP2 MSTORE POP POP PUSH1 0x10 PUSH1 0x0 DUP2 SLOAD DUP2 LT PUSH2 0x24C3 JUMPI INVALID JUMPDEST SWAP1 PUSH1 0x0 MSTORE PUSH1 0x20 PUSH1 0x0 KECCAK256 ADD PUSH1 0x0 SWAP1 SLOAD SWAP1 PUSH2 0x100 EXP SWAP1 DIV PUSH1 0x1 PUSH1 0x1 PUSH1 0xA0 SHL SUB AND DUP2 PUSH1 0x2 DUP2 MLOAD DUP2 LT PUSH2 0x24EE JUMPI INVALID JUMPDEST PUSH1 0x20 MUL PUSH1 0x20 ADD ADD SWAP1 PUSH1 0x1 PUSH1 0x1 PUSH1 0xA0 SHL SUB AND SWAP1 DUP2 PUSH1 0x1 PUSH1 0x1 PUSH1 0xA0 SHL SUB AND DUP2 MSTORE POP POP PUSH1 0xE PUSH1 0x0 DUP2 SLOAD DUP2 LT PUSH2 0x251C JUMPI INVALID JUMPDEST PUSH1 0x0 SWAP2 DUP3 MSTORE PUSH1 0x20 DUP3 KECCAK256 ADD SLOAD PUSH1 0x40 MLOAD PUSH4 0x38ED1739 PUSH1 0xE0 SHL DUP2 MSTORE PUSH1 0x1 PUSH1 0x1 PUSH1 0xA0 SHL SUB SWAP1 SWAP2 AND SWAP2 PUSH4 0x38ED1739 SWAP2 PUSH2 0x255A SWAP2 DUP7 SWAP2 DUP7 SWAP1 ADDRESS SWAP1 TIMESTAMP SWAP1 PUSH1 0x4 ADD PUSH2 0x3E5A JUMP JUMPDEST PUSH1 0x0 PUSH1 0x40 MLOAD DUP1 DUP4 SUB DUP2 PUSH1 0x0 DUP8 DUP1 EXTCODESIZE ISZERO DUP1 ISZERO PUSH2 0x2574 JUMPI PUSH1 0x0 DUP1 REVERT JUMPDEST POP GAS CALL ISZERO DUP1 ISZERO PUSH2 0x2588 JUMPI RETURNDATASIZE PUSH1 0x0 DUP1 RETURNDATACOPY RETURNDATASIZE PUSH1 0x0 REVERT JUMPDEST POP POP POP POP PUSH1 0x40 MLOAD RETURNDATASIZE PUSH1 0x0 DUP3 RETURNDATACOPY PUSH1 0x1F RETURNDATASIZE SWAP1 DUP2 ADD PUSH1 0x1F NOT AND DUP3 ADD PUSH1 0x40 MSTORE PUSH2 0x25B0 SWAP2 SWAP1 DUP2 ADD SWAP1 PUSH2 0x37DA JUMP JUMPDEST POP POP JUMPDEST PUSH1 0x40 MLOAD PUSH4 0x70A08231 PUSH1 0xE0 SHL DUP2 MSTORE PUSH1 0x0 SWAP1 PUSH20 0x4E3FBD56CD56C3E72C1403E103B45DB9DA5B9D2B SWAP1 PUSH4 0x70A08231 SWAP1 PUSH2 0x25ED SWAP1 ADDRESS SWAP1 PUSH1 0x4 ADD PUSH2 0x3B2B JUMP JUMPDEST PUSH1 0x20 PUSH1 0x40 MLOAD DUP1 DUP4 SUB DUP2 DUP7 DUP1 EXTCODESIZE ISZERO DUP1 ISZERO PUSH2 0x2605 JUMPI PUSH1 0x0 DUP1 REVERT JUMPDEST POP GAS STATICCALL ISZERO DUP1 ISZERO PUSH2 0x2619 JUMPI RETURNDATASIZE PUSH1 0x0 DUP1 RETURNDATACOPY RETURNDATASIZE PUSH1 0x0 REVERT JUMPDEST POP POP POP POP PUSH1 0x40 MLOAD RETURNDATASIZE PUSH1 0x1F NOT PUSH1 0x1F DUP3 ADD AND DUP3 ADD DUP1 PUSH1 0x40 MSTORE POP DUP2 ADD SWAP1 PUSH2 0x263D SWAP2 SWAP1 PUSH2 0x3A36 JUMP JUMPDEST SWAP1 POP DUP1 ISZERO PUSH2 0x27E9 JUMPI PUSH1 0x40 DUP1 MLOAD PUSH1 0x3 DUP1 DUP3 MSTORE PUSH1 0x80 DUP3 ADD SWAP1 SWAP3 MSTORE PUSH1 0x60 SWAP2 PUSH1 0x20 DUP3 ADD DUP4 DUP1 CALLDATASIZE DUP4 CALLDATACOPY ADD SWAP1 POP POP SWAP1 POP PUSH20 0x4E3FBD56CD56C3E72C1403E103B45DB9DA5B9D2B DUP2 PUSH1 0x0 DUP2 MLOAD DUP2 LT PUSH2 0x2689 JUMPI INVALID JUMPDEST PUSH1 0x20 MUL PUSH1 0x20 ADD ADD SWAP1 PUSH1 0x1 PUSH1 0x1 PUSH1 0xA0 SHL SUB AND SWAP1 DUP2 PUSH1 0x1 PUSH1 0x1 PUSH1 0xA0 SHL SUB AND DUP2 MSTORE POP POP PUSH20 0xC02AAA39B223FE8D0A0E5C4F27EAD9083C756CC2 DUP2 PUSH1 0x1 DUP2 MLOAD DUP2 LT PUSH2 0x26CB JUMPI INVALID JUMPDEST PUSH1 0x20 MUL PUSH1 0x20 ADD ADD SWAP1 PUSH1 0x1 PUSH1 0x1 PUSH1 0xA0 SHL SUB AND SWAP1 DUP2 PUSH1 0x1 PUSH1 0x1 PUSH1 0xA0 SHL SUB AND DUP2 MSTORE POP POP PUSH1 0x10 PUSH1 0x1 DUP2 SLOAD DUP2 LT PUSH2 0x26F9 JUMPI INVALID JUMPDEST SWAP1 PUSH1 0x0 MSTORE PUSH1 0x20 PUSH1 0x0 KECCAK256 ADD PUSH1 0x0 SWAP1 SLOAD SWAP1 PUSH2 0x100 EXP SWAP1 DIV PUSH1 0x1 PUSH1 0x1 PUSH1 0xA0 SHL SUB AND DUP2 PUSH1 0x2 DUP2 MLOAD DUP2 LT PUSH2 0x2724 JUMPI INVALID JUMPDEST PUSH1 0x20 MUL PUSH1 0x20 ADD ADD SWAP1 PUSH1 0x1 PUSH1 0x1 PUSH1 0xA0 SHL SUB AND SWAP1 DUP2 PUSH1 0x1 PUSH1 0x1 PUSH1 0xA0 SHL SUB AND DUP2 MSTORE POP POP PUSH1 0xE PUSH1 0x1 DUP2 SLOAD DUP2 LT PUSH2 0x2752 JUMPI INVALID JUMPDEST PUSH1 0x0 SWAP2 DUP3 MSTORE PUSH1 0x20 DUP3 KECCAK256 ADD SLOAD PUSH1 0x40 MLOAD PUSH4 0x38ED1739 PUSH1 0xE0 SHL DUP2 MSTORE PUSH1 0x1 PUSH1 0x1 PUSH1 0xA0 SHL SUB SWAP1 SWAP2 AND SWAP2 PUSH4 0x38ED1739 SWAP2 PUSH2 0x2790 SWAP2 DUP7 SWAP2 DUP7 SWAP1 ADDRESS SWAP1 TIMESTAMP SWAP1 PUSH1 0x4 ADD PUSH2 0x3E5A JUMP JUMPDEST PUSH1 0x0 PUSH1 0x40 MLOAD DUP1 DUP4 SUB DUP2 PUSH1 0x0 DUP8 DUP1 EXTCODESIZE ISZERO DUP1 ISZERO PUSH2 0x27AA JUMPI PUSH1 0x0 DUP1 REVERT JUMPDEST POP GAS CALL ISZERO DUP1 ISZERO PUSH2 0x27BE JUMPI RETURNDATASIZE PUSH1 0x0 DUP1 RETURNDATACOPY RETURNDATASIZE PUSH1 0x0 REVERT JUMPDEST POP POP POP POP PUSH1 0x40 MLOAD RETURNDATASIZE PUSH1 0x0 DUP3 RETURNDATACOPY PUSH1 0x1F RETURNDATASIZE SWAP1 DUP2 ADD PUSH1 0x1F NOT AND DUP3 ADD PUSH1 0x40 MSTORE PUSH2 0x27E6 SWAP2 SWAP1 DUP2 ADD SWAP1 PUSH2 0x37DA JUMP JUMPDEST POP POP JUMPDEST PUSH1 0x40 MLOAD PUSH4 0x70A08231 PUSH1 0xE0 SHL DUP2 MSTORE PUSH1 0x0 SWAP1 PUSH20 0x6B175474E89094C44DA98B954EEDEAC495271D0F SWAP1 PUSH4 0x70A08231 SWAP1 PUSH2 0x2823 SWAP1 ADDRESS SWAP1 PUSH1 0x4 ADD PUSH2 0x3B2B JUMP JUMPDEST PUSH1 0x20 PUSH1 0x40 MLOAD DUP1 DUP4 SUB DUP2 DUP7 DUP1 EXTCODESIZE ISZERO DUP1 ISZERO PUSH2 0x283B JUMPI PUSH1 0x0 DUP1 REVERT JUMPDEST POP GAS STATICCALL ISZERO DUP1 ISZERO PUSH2 0x284F JUMPI RETURNDATASIZE PUSH1 0x0 DUP1 RETURNDATACOPY RETURNDATASIZE PUSH1 0x0 REVERT JUMPDEST POP POP POP POP PUSH1 0x40 MLOAD RETURNDATASIZE PUSH1 0x1F NOT PUSH1 0x1F DUP3 ADD AND DUP3 ADD DUP1 PUSH1 0x40 MSTORE POP DUP2 ADD SWAP1 PUSH2 0x2873 SWAP2 SWAP1 PUSH2 0x3A36 JUMP JUMPDEST PUSH1 0x40 MLOAD PUSH4 0x70A08231 PUSH1 0xE0 SHL DUP2 MSTORE SWAP1 SWAP2 POP PUSH1 0x0 SWAP1 PUSH20 0xA0B86991C6218B36C1D19D4A2E9EB0CE3606EB48 SWAP1 PUSH4 0x70A08231 SWAP1 PUSH2 0x28B0 SWAP1 ADDRESS SWAP1 PUSH1 0x4 ADD PUSH2 0x3B2B JUMP JUMPDEST PUSH1 0x20 PUSH1 0x40 MLOAD DUP1 DUP4 SUB DUP2 DUP7 DUP1 EXTCODESIZE ISZERO DUP1 ISZERO PUSH2 0x28C8 JUMPI PUSH1 0x0 DUP1 REVERT JUMPDEST POP GAS STATICCALL ISZERO DUP1 ISZERO PUSH2 0x28DC JUMPI RETURNDATASIZE PUSH1 0x0 DUP1 RETURNDATACOPY RETURNDATASIZE PUSH1 0x0 REVERT JUMPDEST POP POP POP POP PUSH1 0x40 MLOAD RETURNDATASIZE PUSH1 0x1F NOT PUSH1 0x1F DUP3 ADD AND DUP3 ADD DUP1 PUSH1 0x40 MSTORE POP DUP2 ADD SWAP1 PUSH2 0x2900 SWAP2 SWAP1 PUSH2 0x3A36 JUMP JUMPDEST PUSH1 0x40 MLOAD PUSH4 0x70A08231 PUSH1 0xE0 SHL DUP2 MSTORE SWAP1 SWAP2 POP PUSH1 0x0 SWAP1 PUSH20 0xDAC17F958D2EE523A2206206994597C13D831EC7 SWAP1 PUSH4 0x70A08231 SWAP1 PUSH2 0x293D SWAP1 ADDRESS SWAP1 PUSH1 0x4 ADD PUSH2 0x3B2B JUMP JUMPDEST PUSH1 0x20 PUSH1 0x40 MLOAD DUP1 DUP4 SUB DUP2 DUP7 DUP1 EXTCODESIZE ISZERO DUP1 ISZERO PUSH2 0x2955 JUMPI PUSH1 0x0 DUP1 REVERT JUMPDEST POP GAS STATICCALL ISZERO DUP1 ISZERO PUSH2 0x2969 JUMPI RETURNDATASIZE PUSH1 0x0 DUP1 RETURNDATACOPY RETURNDATASIZE PUSH1 0x0 REVERT JUMPDEST POP POP POP POP PUSH1 0x40 MLOAD RETURNDATASIZE PUSH1 0x1F NOT PUSH1 0x1F DUP3 ADD AND DUP3 ADD DUP1 PUSH1 0x40 MSTORE POP DUP2 ADD SWAP1 PUSH2 0x298D SWAP2 SWAP1 PUSH2 0x3A36 JUMP JUMPDEST SWAP1 POP PUSH1 0x0 DUP4 GT DUP1 PUSH2 0x299E JUMPI POP PUSH1 0x0 DUP3 GT JUMPDEST DUP1 PUSH2 0x29A9 JUMPI POP PUSH1 0x0 DUP2 GT JUMPDEST ISZERO PUSH2 0x2A2B JUMPI PUSH1 0xD SLOAD PUSH1 0x40 DUP1 MLOAD PUSH1 0x60 DUP2 ADD DUP3 MSTORE DUP6 DUP2 MSTORE PUSH1 0x20 DUP2 ADD DUP6 SWAP1 MSTORE DUP1 DUP3 ADD DUP5 SWAP1 MSTORE SWAP1 MLOAD PUSH4 0x4515CEF3 PUSH1 0xE0 SHL DUP2 MSTORE PUSH1 0x1 PUSH1 0x1 PUSH1 0xA0 SHL SUB SWAP1 SWAP3 AND SWAP2 PUSH4 0x4515CEF3 SWAP2 PUSH2 0x29F8 SWAP2 PUSH1 0x0 SWAP1 PUSH1 0x4 ADD PUSH2 0x3BB0 JUMP JUMPDEST PUSH1 0x0 PUSH1 0x40 MLOAD DUP1 DUP4 SUB DUP2 PUSH1 0x0 DUP8 DUP1 EXTCODESIZE ISZERO DUP1 ISZERO PUSH2 0x2A12 JUMPI PUSH1 0x0 DUP1 REVERT JUMPDEST POP GAS CALL ISZERO DUP1 ISZERO PUSH2 0x2A26 JUMPI RETURNDATASIZE PUSH1 0x0 DUP1 RETURNDATACOPY RETURNDATASIZE PUSH1 0x0 REVERT JUMPDEST POP POP POP POP JUMPDEST PUSH1 0x5 SLOAD PUSH1 0x40 MLOAD PUSH4 0x70A08231 PUSH1 0xE0 SHL DUP2 MSTORE PUSH2 0x2AB7 SWAP2 DUP9 SWAP2 PUSH1 0x1 PUSH1 0x1 PUSH1 0xA0 SHL SUB SWAP1 SWAP2 AND SWAP1 PUSH4 0x70A08231 SWAP1 PUSH2 0x2A61 SWAP1 ADDRESS SWAP1 PUSH1 0x4 ADD PUSH2 0x3B2B JUMP JUMPDEST PUSH1 0x20 PUSH1 0x40 MLOAD DUP1 DUP4 SUB DUP2 DUP7 DUP1 EXTCODESIZE ISZERO DUP1 ISZERO PUSH2 0x2A79 JUMPI PUSH1 0x0 DUP1 REVERT JUMPDEST POP GAS STATICCALL ISZERO DUP1 ISZERO PUSH2 0x2A8D JUMPI RETURNDATASIZE PUSH1 0x0 DUP1 RETURNDATACOPY RETURNDATASIZE PUSH1 0x0 REVERT JUMPDEST POP POP POP POP PUSH1 0x40 MLOAD RETURNDATASIZE PUSH1 0x1F NOT PUSH1 0x1F DUP3 ADD AND DUP3 ADD DUP1 PUSH1 0x40 MSTORE POP DUP2 ADD SWAP1 PUSH2 0x2AB1 SWAP2 SWAP1 PUSH2 0x3A36 JUMP JUMPDEST SWAP1 PUSH2 0x2284 JUMP JUMPDEST SWAP9 POP PUSH1 0x0 PUSH2 0x2AC3 PUSH2 0x169E JUMP JUMPDEST PUSH1 0x1 SLOAD PUSH1 0x40 MLOAD PUSH4 0x39EBF823 PUSH1 0xE0 SHL DUP2 MSTORE SWAP2 SWAP3 POP PUSH1 0x0 SWAP2 PUSH1 0x1 PUSH1 0x1 PUSH1 0xA0 SHL SUB SWAP1 SWAP2 AND SWAP1 PUSH4 0x39EBF823 SWAP1 PUSH2 0x2AF9 SWAP1 ADDRESS SWAP1 PUSH1 0x4 ADD PUSH2 0x3B2B JUMP JUMPDEST PUSH2 0x120 PUSH1 0x40 MLOAD DUP1 DUP4 SUB DUP2 DUP7 DUP1 EXTCODESIZE ISZERO DUP1 ISZERO PUSH2 0x2B12 JUMPI PUSH1 0x0 DUP1 REVERT JUMPDEST POP GAS STATICCALL ISZERO DUP1 ISZERO PUSH2 0x2B26 JUMPI RETURNDATASIZE PUSH1 0x0 DUP1 RETURNDATACOPY RETURNDATASIZE PUSH1 0x0 REVERT JUMPDEST POP POP POP POP PUSH1 0x40 MLOAD RETURNDATASIZE PUSH1 0x1F NOT PUSH1 0x1F DUP3 ADD AND DUP3 ADD DUP1 PUSH1 0x40 MSTORE POP DUP2 ADD SWAP1 PUSH2 0x2B4A SWAP2 SWAP1 PUSH2 0x39A0 JUMP JUMPDEST PUSH1 0xC0 ADD MLOAD SWAP1 POP DUP1 DUP3 LT ISZERO PUSH2 0x2B62 JUMPI DUP2 DUP2 SUB SWAP10 POP PUSH1 0x0 SWAP11 POP JUMPDEST DUP12 ISZERO PUSH2 0x2B8A JUMPI PUSH2 0x2B71 DUP13 PUSH2 0x2EF9 JUMP JUMPDEST POP PUSH2 0x2B87 DUP13 PUSH2 0x2B82 DUP14 PUSH2 0x2AB1 PUSH2 0x1245 JUMP JUMPDEST PUSH2 0x3042 JUMP JUMPDEST SWAP9 POP JUMPDEST POP POP POP POP POP POP POP POP SWAP2 SWAP4 SWAP1 SWAP3 POP JUMP JUMPDEST DUP1 PUSH2 0x2BF3 JUMPI PUSH20 0x6B175474E89094C44DA98B954EEDEAC495271D0F PUSH1 0x10 DUP4 DUP2 SLOAD DUP2 LT PUSH2 0x2BC0 JUMPI INVALID JUMPDEST SWAP1 PUSH1 0x0 MSTORE PUSH1 0x20 PUSH1 0x0 KECCAK256 ADD PUSH1 0x0 PUSH2 0x100 EXP DUP2 SLOAD DUP2 PUSH1 0x1 PUSH1 0x1 PUSH1 0xA0 SHL SUB MUL NOT AND SWAP1 DUP4 PUSH1 0x1 PUSH1 0x1 PUSH1 0xA0 SHL SUB AND MUL OR SWAP1 SSTORE POP PUSH2 0x822 JUMP JUMPDEST DUP1 PUSH1 0x1 EQ ISZERO PUSH2 0x2C1E JUMPI PUSH20 0xA0B86991C6218B36C1D19D4A2E9EB0CE3606EB48 PUSH1 0x10 DUP4 DUP2 SLOAD DUP2 LT PUSH2 0x2BC0 JUMPI INVALID JUMPDEST PUSH20 0xDAC17F958D2EE523A2206206994597C13D831EC7 PUSH1 0x10 DUP4 DUP2 SLOAD DUP2 LT PUSH2 0x2C40 JUMPI INVALID JUMPDEST SWAP1 PUSH1 0x0 MSTORE PUSH1 0x20 PUSH1 0x0 KECCAK256 ADD PUSH1 0x0 PUSH2 0x100 EXP DUP2 SLOAD DUP2 PUSH1 0x1 PUSH1 0x1 PUSH1 0xA0 SHL SUB MUL NOT AND SWAP1 DUP4 PUSH1 0x1 PUSH1 0x1 PUSH1 0xA0 SHL SUB AND MUL OR SWAP1 SSTORE POP POP POP JUMP JUMPDEST PUSH1 0xC SLOAD PUSH1 0xA SLOAD PUSH1 0x40 MLOAD PUSH4 0x24F81CD1 PUSH1 0xE1 SHL DUP2 MSTORE PUSH1 0x1 PUSH1 0x1 PUSH1 0xA0 SHL SUB SWAP1 SWAP3 AND SWAP2 PUSH4 0x49F039A2 SWAP2 PUSH2 0x2CAD SWAP2 PUSH2 0x100 SWAP1 SWAP2 DIV PUSH1 0xFF AND SWAP1 PUSH1 0x4 ADD PUSH2 0x3BE8 JUMP JUMPDEST PUSH1 0x0 PUSH1 0x40 MLOAD DUP1 DUP4 SUB DUP2 PUSH1 0x0 DUP8 DUP1 EXTCODESIZE ISZERO DUP1 ISZERO PUSH2 0x2CC7 JUMPI PUSH1 0x0 DUP1 REVERT JUMPDEST POP GAS CALL ISZERO DUP1 ISZERO PUSH2 0x2CDB JUMPI RETURNDATASIZE PUSH1 0x0 DUP1 RETURNDATACOPY RETURNDATASIZE PUSH1 0x0 REVERT JUMPDEST POP POP POP POP PUSH2 0x13FE DUP2 PUSH2 0x3058 JUMP JUMPDEST PUSH2 0x2CF0 PUSH2 0x199C JUMP JUMPDEST PUSH1 0x1 PUSH1 0x1 PUSH1 0xA0 SHL SUB AND CALLER PUSH1 0x1 PUSH1 0x1 PUSH1 0xA0 SHL SUB AND EQ DUP1 PUSH2 0x1A54 JUMPI POP PUSH1 0x2 SLOAD PUSH1 0x1 PUSH1 0x1 PUSH1 0xA0 SHL SUB AND CALLER EQ PUSH2 0xD12 JUMPI PUSH1 0x0 DUP1 REVERT JUMPDEST PUSH1 0x0 DUP3 DUP3 ADD DUP4 DUP2 LT ISZERO PUSH2 0x22C6 JUMPI PUSH1 0x40 MLOAD PUSH3 0x461BCD PUSH1 0xE5 SHL DUP2 MSTORE PUSH1 0x4 ADD PUSH2 0x6F8 SWAP1 PUSH2 0x3C74 JUMP JUMPDEST PUSH1 0x0 PUSH2 0xA30 PUSH2 0x31AA JUMP JUMPDEST PUSH1 0x0 DUP3 PUSH2 0x2D5F JUMPI POP PUSH1 0x0 PUSH2 0x22C9 JUMP JUMPDEST DUP3 DUP3 MUL DUP3 DUP5 DUP3 DUP2 PUSH2 0x2D6C JUMPI INVALID JUMPDEST DIV EQ PUSH2 0x22C6 JUMPI PUSH1 0x40 MLOAD PUSH3 0x461BCD PUSH1 0xE5 SHL DUP2 MSTORE PUSH1 0x4 ADD PUSH2 0x6F8 SWAP1 PUSH2 0x3CAB JUMP JUMPDEST PUSH1 0x2 SLOAD PUSH1 0x1 PUSH1 0x1 PUSH1 0xA0 SHL SUB AND CALLER EQ DUP1 PUSH2 0x202E JUMPI POP PUSH2 0x2019 PUSH2 0x199C JUMP JUMPDEST PUSH1 0x60 PUSH2 0x2DFB DUP3 PUSH1 0x40 MLOAD DUP1 PUSH1 0x40 ADD PUSH1 0x40 MSTORE DUP1 PUSH1 0x20 DUP2 MSTORE PUSH1 0x20 ADD PUSH32 0x5361666545524332303A206C6F772D6C6576656C2063616C6C206661696C6564 DUP2 MSTORE POP DUP6 PUSH1 0x1 PUSH1 0x1 PUSH1 0xA0 SHL SUB AND PUSH2 0x18BB SWAP1 SWAP3 SWAP2 SWAP1 PUSH4 0xFFFFFFFF AND JUMP JUMPDEST DUP1 MLOAD SWAP1 SWAP2 POP ISZERO PUSH2 0x18B6 JUMPI DUP1 DUP1 PUSH1 0x20 ADD SWAP1 MLOAD DUP2 ADD SWAP1 PUSH2 0x2E19 SWAP2 SWAP1 PUSH2 0x388B JUMP JUMPDEST PUSH2 0x18B6 JUMPI PUSH1 0x40 MLOAD PUSH3 0x461BCD PUSH1 0xE5 SHL DUP2 MSTORE PUSH1 0x4 ADD PUSH2 0x6F8 SWAP1 PUSH2 0x3D64 JUMP JUMPDEST PUSH1 0x60 PUSH2 0x2E40 DUP6 PUSH2 0x3616 JUMP JUMPDEST PUSH2 0x2E5C JUMPI PUSH1 0x40 MLOAD PUSH3 0x461BCD PUSH1 0xE5 SHL DUP2 MSTORE PUSH1 0x4 ADD PUSH2 0x6F8 SWAP1 PUSH2 0x3D2D JUMP JUMPDEST PUSH1 0x0 PUSH1 0x60 DUP7 PUSH1 0x1 PUSH1 0x1 PUSH1 0xA0 SHL SUB AND DUP6 DUP8 PUSH1 0x40 MLOAD PUSH2 0x2E79 SWAP2 SWAP1 PUSH2 0x3AE1 JUMP JUMPDEST PUSH1 0x0 PUSH1 0x40 MLOAD DUP1 DUP4 SUB DUP2 DUP6 DUP8 GAS CALL SWAP3 POP POP POP RETURNDATASIZE DUP1 PUSH1 0x0 DUP2 EQ PUSH2 0x2EB6 JUMPI PUSH1 0x40 MLOAD SWAP2 POP PUSH1 0x1F NOT PUSH1 0x3F RETURNDATASIZE ADD AND DUP3 ADD PUSH1 0x40 MSTORE RETURNDATASIZE DUP3 MSTORE RETURNDATASIZE PUSH1 0x0 PUSH1 0x20 DUP5 ADD RETURNDATACOPY PUSH2 0x2EBB JUMP JUMPDEST PUSH1 0x60 SWAP2 POP JUMPDEST POP SWAP2 POP SWAP2 POP DUP2 ISZERO PUSH2 0x2ECF JUMPI SWAP2 POP PUSH2 0x18CA SWAP1 POP JUMP JUMPDEST DUP1 MLOAD ISZERO PUSH2 0x2EDF JUMPI DUP1 MLOAD DUP1 DUP3 PUSH1 0x20 ADD REVERT JUMPDEST DUP4 PUSH1 0x40 MLOAD PUSH3 0x461BCD PUSH1 0xE5 SHL DUP2 MSTORE PUSH1 0x4 ADD PUSH2 0x6F8 SWAP2 SWAP1 PUSH2 0x3C22 JUMP JUMPDEST PUSH1 0x0 PUSH2 0x2F07 DUP3 PUSH2 0x2B82 PUSH2 0x9AF JUMP JUMPDEST SWAP2 POP PUSH1 0x0 PUSH2 0x2F13 PUSH2 0x1245 JUMP JUMPDEST PUSH1 0xC SLOAD PUSH1 0x40 MLOAD PUSH4 0x61973901 PUSH1 0xE1 SHL DUP2 MSTORE SWAP2 SWAP3 POP PUSH1 0x1 PUSH1 0x1 PUSH1 0xA0 SHL SUB AND SWAP1 PUSH4 0xC32E7202 SWAP1 PUSH2 0x2F47 SWAP1 DUP7 SWAP1 PUSH1 0x0 SWAP1 PUSH1 0x4 ADD PUSH2 0x3E4A JUMP JUMPDEST PUSH1 0x20 PUSH1 0x40 MLOAD DUP1 DUP4 SUB DUP2 PUSH1 0x0 DUP8 DUP1 EXTCODESIZE ISZERO DUP1 ISZERO PUSH2 0x2F61 JUMPI PUSH1 0x0 DUP1 REVERT JUMPDEST POP GAS CALL ISZERO DUP1 ISZERO PUSH2 0x2F75 JUMPI RETURNDATASIZE PUSH1 0x0 DUP1 RETURNDATACOPY RETURNDATASIZE PUSH1 0x0 REVERT JUMPDEST POP POP POP POP PUSH1 0x40 MLOAD RETURNDATASIZE PUSH1 0x1F NOT PUSH1 0x1F DUP3 ADD AND DUP3 ADD DUP1 PUSH1 0x40 MSTORE POP DUP2 ADD SWAP1 PUSH2 0x2F99 SWAP2 SWAP1 PUSH2 0x388B JUMP JUMPDEST POP PUSH2 0x2FA6 DUP2 PUSH2 0x2AB1 PUSH2 0x1245 JUMP JUMPDEST SWAP4 SWAP3 POP POP POP JUMP JUMPDEST PUSH1 0x0 DUP2 DUP5 DUP5 GT ISZERO PUSH2 0x2FD1 JUMPI PUSH1 0x40 MLOAD PUSH3 0x461BCD PUSH1 0xE5 SHL DUP2 MSTORE PUSH1 0x4 ADD PUSH2 0x6F8 SWAP2 SWAP1 PUSH2 0x3C22 JUMP JUMPDEST POP POP POP SWAP1 SUB SWAP1 JUMP JUMPDEST PUSH1 0x0 DUP1 PUSH2 0x2FFD PUSH2 0x2710 PUSH2 0x2FF7 PUSH1 0xF SLOAD DUP7 PUSH2 0x2D50 SWAP1 SWAP2 SWAP1 PUSH4 0xFFFFFFFF AND JUMP JUMPDEST SWAP1 PUSH2 0x364F JUMP JUMPDEST SWAP1 POP DUP1 ISZERO PUSH2 0x3038 JUMPI PUSH2 0x3038 PUSH20 0xD533A949740BB3306D119CC777FA900BA034CD52 PUSH20 0xF147B8125D2EF93FB6965DB97D6746952A133934 DUP4 PUSH2 0x1A19 JUMP JUMPDEST PUSH2 0x2FA6 DUP4 DUP3 PUSH2 0x2284 JUMP JUMPDEST PUSH1 0x0 DUP2 DUP4 LT PUSH2 0x3051 JUMPI DUP2 PUSH2 0x22C6 JUMP JUMPDEST POP SWAP1 SWAP2 SWAP1 POP JUMP JUMPDEST PUSH1 0x40 MLOAD PUSH4 0x70A08231 PUSH1 0xE0 SHL DUP2 MSTORE PUSH2 0x3101 SWAP1 DUP3 SWAP1 PUSH20 0xD533A949740BB3306D119CC777FA900BA034CD52 SWAP1 PUSH4 0x70A08231 SWAP1 PUSH2 0x3095 SWAP1 ADDRESS SWAP1 PUSH1 0x4 ADD PUSH2 0x3B2B JUMP JUMPDEST PUSH1 0x20 PUSH1 0x40 MLOAD DUP1 DUP4 SUB DUP2 DUP7 DUP1 EXTCODESIZE ISZERO DUP1 ISZERO PUSH2 0x30AD JUMPI PUSH1 0x0 DUP1 REVERT JUMPDEST POP GAS STATICCALL ISZERO DUP1 ISZERO PUSH2 0x30C1 JUMPI RETURNDATASIZE PUSH1 0x0 DUP1 RETURNDATACOPY RETURNDATASIZE PUSH1 0x0 REVERT JUMPDEST POP POP POP POP PUSH1 0x40 MLOAD RETURNDATASIZE PUSH1 0x1F NOT PUSH1 0x1F DUP3 ADD AND DUP3 ADD DUP1 PUSH1 0x40 MSTORE POP DUP2 ADD SWAP1 PUSH2 0x30E5 SWAP2 SWAP1 PUSH2 0x3A36 JUMP JUMPDEST PUSH20 0xD533A949740BB3306D119CC777FA900BA034CD52 SWAP2 SWAP1 PUSH2 0x1A19 JUMP JUMPDEST PUSH1 0x40 MLOAD PUSH4 0x70A08231 PUSH1 0xE0 SHL DUP2 MSTORE PUSH2 0x13FE SWAP1 DUP3 SWAP1 PUSH20 0x4E3FBD56CD56C3E72C1403E103B45DB9DA5B9D2B SWAP1 PUSH4 0x70A08231 SWAP1 PUSH2 0x313E SWAP1 ADDRESS SWAP1 PUSH1 0x4 ADD PUSH2 0x3B2B JUMP JUMPDEST PUSH1 0x20 PUSH1 0x40 MLOAD DUP1 DUP4 SUB DUP2 DUP7 DUP1 EXTCODESIZE ISZERO DUP1 ISZERO PUSH2 0x3156 JUMPI PUSH1 0x0 DUP1 REVERT JUMPDEST POP GAS STATICCALL ISZERO DUP1 ISZERO PUSH2 0x316A JUMPI RETURNDATASIZE PUSH1 0x0 DUP1 RETURNDATACOPY RETURNDATASIZE PUSH1 0x0 REVERT JUMPDEST POP POP POP POP PUSH1 0x40 MLOAD RETURNDATASIZE PUSH1 0x1F NOT PUSH1 0x1F DUP3 ADD AND DUP3 ADD DUP1 PUSH1 0x40 MSTORE POP DUP2 ADD SWAP1 PUSH2 0x318E SWAP2 SWAP1 PUSH2 0x3A36 JUMP JUMPDEST PUSH20 0x4E3FBD56CD56C3E72C1403E103B45DB9DA5B9D2B SWAP2 SWAP1 PUSH2 0x1A19 JUMP JUMPDEST PUSH1 0xC SLOAD PUSH1 0x40 MLOAD PUSH3 0x466131 PUSH1 0xE1 SHL DUP2 MSTORE PUSH1 0x0 SWAP2 DUP3 SWAP2 PUSH1 0x1 PUSH1 0x1 PUSH1 0xA0 SHL SUB SWAP1 SWAP2 AND SWAP1 PUSH3 0x8CC262 SWAP1 PUSH2 0x31DD SWAP1 ADDRESS SWAP1 PUSH1 0x4 ADD PUSH2 0x3B2B JUMP JUMPDEST PUSH1 0x20 PUSH1 0x40 MLOAD DUP1 DUP4 SUB DUP2 DUP7 DUP1 EXTCODESIZE ISZERO DUP1 ISZERO PUSH2 0x31F5 JUMPI PUSH1 0x0 DUP1 REVERT JUMPDEST POP GAS STATICCALL ISZERO DUP1 ISZERO PUSH2 0x3209 JUMPI RETURNDATASIZE PUSH1 0x0 DUP1 RETURNDATACOPY RETURNDATASIZE PUSH1 0x0 REVERT JUMPDEST POP POP POP POP PUSH1 0x40 MLOAD RETURNDATASIZE PUSH1 0x1F NOT PUSH1 0x1F DUP3 ADD AND DUP3 ADD DUP1 PUSH1 0x40 MSTORE POP DUP2 ADD SWAP1 PUSH2 0x322D SWAP2 SWAP1 PUSH2 0x3A36 JUMP JUMPDEST SWAP1 POP PUSH1 0x0 PUSH2 0x3E8 SWAP1 POP PUSH1 0x0 PUSH11 0x52B7D2DCC80CD2E4000000 SWAP1 POP PUSH1 0x0 PUSH10 0x152D02C7E14AF6800000 SWAP1 POP PUSH1 0x0 PUSH20 0x4E3FBD56CD56C3E72C1403E103B45DB9DA5B9D2B PUSH1 0x1 PUSH1 0x1 PUSH1 0xA0 SHL SUB AND PUSH4 0x18160DDD PUSH1 0x40 MLOAD DUP2 PUSH4 0xFFFFFFFF AND PUSH1 0xE0 SHL DUP2 MSTORE PUSH1 0x4 ADD PUSH1 0x20 PUSH1 0x40 MLOAD DUP1 DUP4 SUB DUP2 DUP7 DUP1 EXTCODESIZE ISZERO DUP1 ISZERO PUSH2 0x32A4 JUMPI PUSH1 0x0 DUP1 REVERT JUMPDEST POP GAS STATICCALL ISZERO DUP1 ISZERO PUSH2 0x32B8 JUMPI RETURNDATASIZE PUSH1 0x0 DUP1 RETURNDATACOPY RETURNDATASIZE PUSH1 0x0 REVERT JUMPDEST POP POP POP POP PUSH1 0x40 MLOAD RETURNDATASIZE PUSH1 0x1F NOT PUSH1 0x1F DUP3 ADD AND DUP3 ADD DUP1 PUSH1 0x40 MSTORE POP DUP2 ADD SWAP1 PUSH2 0x32DC SWAP2 SWAP1 PUSH2 0x3A36 JUMP JUMPDEST SWAP1 POP PUSH1 0x0 DUP1 PUSH2 0x32EB DUP4 DUP6 PUSH2 0x364F JUMP JUMPDEST SWAP1 POP DUP6 DUP2 LT ISZERO PUSH2 0x3330 JUMPI PUSH1 0x0 PUSH2 0x3301 DUP8 DUP4 PUSH2 0x2284 JUMP JUMPDEST SWAP1 POP PUSH2 0x3311 DUP8 PUSH2 0x2FF7 DUP11 DUP5 PUSH2 0x2D50 JUMP JUMPDEST SWAP3 POP PUSH1 0x0 PUSH2 0x331F DUP8 DUP7 PUSH2 0x2284 JUMP JUMPDEST SWAP1 POP DUP1 DUP5 GT ISZERO PUSH2 0x332D JUMPI DUP1 SWAP4 POP JUMPDEST POP POP JUMPDEST PUSH1 0x0 DUP8 ISZERO PUSH2 0x3497 JUMPI PUSH1 0x40 DUP1 MLOAD PUSH1 0x2 DUP1 DUP3 MSTORE PUSH1 0x60 DUP1 DUP4 ADD DUP5 MSTORE SWAP3 PUSH1 0x20 DUP4 ADD SWAP1 DUP1 CALLDATASIZE DUP4 CALLDATACOPY ADD SWAP1 POP POP SWAP1 POP PUSH20 0xD533A949740BB3306D119CC777FA900BA034CD52 DUP2 PUSH1 0x0 DUP2 MLOAD DUP2 LT PUSH2 0x337A JUMPI INVALID JUMPDEST PUSH1 0x20 MUL PUSH1 0x20 ADD ADD SWAP1 PUSH1 0x1 PUSH1 0x1 PUSH1 0xA0 SHL SUB AND SWAP1 DUP2 PUSH1 0x1 PUSH1 0x1 PUSH1 0xA0 SHL SUB AND DUP2 MSTORE POP POP PUSH20 0xC02AAA39B223FE8D0A0E5C4F27EAD9083C756CC2 DUP2 PUSH1 0x1 DUP2 MLOAD DUP2 LT PUSH2 0x33BC JUMPI INVALID JUMPDEST PUSH1 0x20 MUL PUSH1 0x20 ADD ADD SWAP1 PUSH1 0x1 PUSH1 0x1 PUSH1 0xA0 SHL SUB AND SWAP1 DUP2 PUSH1 0x1 PUSH1 0x1 PUSH1 0xA0 SHL SUB AND DUP2 MSTORE POP POP PUSH1 0x60 PUSH1 0xE PUSH1 0x0 DUP2 SLOAD DUP2 LT PUSH2 0x33EC JUMPI INVALID JUMPDEST PUSH1 0x0 SWAP2 DUP3 MSTORE PUSH1 0x20 SWAP1 SWAP2 KECCAK256 ADD SLOAD PUSH1 0x40 MLOAD PUSH4 0xD06CA61F PUSH1 0xE0 SHL DUP2 MSTORE PUSH1 0x1 PUSH1 0x1 PUSH1 0xA0 SHL SUB SWAP1 SWAP2 AND SWAP1 PUSH4 0xD06CA61F SWAP1 PUSH2 0x3427 SWAP1 DUP14 SWAP1 DUP7 SWAP1 PUSH1 0x4 ADD PUSH2 0x3E31 JUMP JUMPDEST PUSH1 0x0 PUSH1 0x40 MLOAD DUP1 DUP4 SUB DUP2 DUP7 DUP1 EXTCODESIZE ISZERO DUP1 ISZERO PUSH2 0x343F JUMPI PUSH1 0x0 DUP1 REVERT JUMPDEST POP GAS STATICCALL ISZERO DUP1 ISZERO PUSH2 0x3453 JUMPI RETURNDATASIZE PUSH1 0x0 DUP1 RETURNDATACOPY RETURNDATASIZE PUSH1 0x0 REVERT JUMPDEST POP POP POP POP PUSH1 0x40 MLOAD RETURNDATASIZE PUSH1 0x0 DUP3 RETURNDATACOPY PUSH1 0x1F RETURNDATASIZE SWAP1 DUP2 ADD PUSH1 0x1F NOT AND DUP3 ADD PUSH1 0x40 MSTORE PUSH2 0x347B SWAP2 SWAP1 DUP2 ADD SWAP1 PUSH2 0x37DA JUMP JUMPDEST SWAP1 POP DUP1 PUSH1 0x1 DUP2 MLOAD DUP2 LT PUSH2 0x348A JUMPI INVALID JUMPDEST PUSH1 0x20 MUL PUSH1 0x20 ADD ADD MLOAD SWAP3 POP POP POP JUMPDEST PUSH1 0x0 DUP4 ISZERO PUSH2 0x35FE JUMPI PUSH1 0x40 DUP1 MLOAD PUSH1 0x2 DUP1 DUP3 MSTORE PUSH1 0x60 DUP1 DUP4 ADD DUP5 MSTORE SWAP3 PUSH1 0x20 DUP4 ADD SWAP1 DUP1 CALLDATASIZE DUP4 CALLDATACOPY ADD SWAP1 POP POP SWAP1 POP PUSH20 0x4E3FBD56CD56C3E72C1403E103B45DB9DA5B9D2B DUP2 PUSH1 0x0 DUP2 MLOAD DUP2 LT PUSH2 0x34E1 JUMPI INVALID JUMPDEST PUSH1 0x20 MUL PUSH1 0x20 ADD ADD SWAP1 PUSH1 0x1 PUSH1 0x1 PUSH1 0xA0 SHL SUB AND SWAP1 DUP2 PUSH1 0x1 PUSH1 0x1 PUSH1 0xA0 SHL SUB AND DUP2 MSTORE POP POP PUSH20 0xC02AAA39B223FE8D0A0E5C4F27EAD9083C756CC2 DUP2 PUSH1 0x1 DUP2 MLOAD DUP2 LT PUSH2 0x3523 JUMPI INVALID JUMPDEST PUSH1 0x20 MUL PUSH1 0x20 ADD ADD SWAP1 PUSH1 0x1 PUSH1 0x1 PUSH1 0xA0 SHL SUB AND SWAP1 DUP2 PUSH1 0x1 PUSH1 0x1 PUSH1 0xA0 SHL SUB AND DUP2 MSTORE POP POP PUSH1 0x60 PUSH1 0xE PUSH1 0x1 DUP2 SLOAD DUP2 LT PUSH2 0x3553 JUMPI INVALID JUMPDEST PUSH1 0x0 SWAP2 DUP3 MSTORE PUSH1 0x20 SWAP1 SWAP2 KECCAK256 ADD SLOAD PUSH1 0x40 MLOAD PUSH4 0xD06CA61F PUSH1 0xE0 SHL DUP2 MSTORE PUSH1 0x1 PUSH1 0x1 PUSH1 0xA0 SHL SUB SWAP1 SWAP2 AND SWAP1 PUSH4 0xD06CA61F SWAP1 PUSH2 0x358E SWAP1 DUP10 SWAP1 DUP7 SWAP1 PUSH1 0x4 ADD PUSH2 0x3E31 JUMP JUMPDEST PUSH1 0x0 PUSH1 0x40 MLOAD DUP1 DUP4 SUB DUP2 DUP7 DUP1 EXTCODESIZE ISZERO DUP1 ISZERO PUSH2 0x35A6 JUMPI PUSH1 0x0 DUP1 REVERT JUMPDEST POP GAS STATICCALL ISZERO DUP1 ISZERO PUSH2 0x35BA JUMPI RETURNDATASIZE PUSH1 0x0 DUP1 RETURNDATACOPY RETURNDATASIZE PUSH1 0x0 REVERT JUMPDEST POP POP POP POP PUSH1 0x40 MLOAD RETURNDATASIZE PUSH1 0x0 DUP3 RETURNDATACOPY PUSH1 0x1F RETURNDATASIZE SWAP1 DUP2 ADD PUSH1 0x1F NOT AND DUP3 ADD PUSH1 0x40 MSTORE PUSH2 0x35E2 SWAP2 SWAP1 DUP2 ADD SWAP1 PUSH2 0x37DA JUMP JUMPDEST SWAP1 POP DUP1 PUSH1 0x1 DUP2 MLOAD DUP2 LT PUSH2 0x35F1 JUMPI INVALID JUMPDEST PUSH1 0x20 MUL PUSH1 0x20 ADD ADD MLOAD SWAP3 POP POP POP JUMPDEST PUSH2 0x3608 DUP3 DUP3 PUSH2 0x2D21 JUMP JUMPDEST SWAP10 POP POP POP POP POP POP POP POP POP POP SWAP1 JUMP JUMPDEST PUSH1 0x0 DUP2 EXTCODEHASH PUSH32 0xC5D2460186F7233C927E7DB2DCC703C0E500B653CA82273B7BFAD8045D85A470 DUP2 DUP2 EQ DUP1 ISZERO SWAP1 PUSH2 0x18CA JUMPI POP POP ISZERO ISZERO SWAP3 SWAP2 POP POP JUMP JUMPDEST PUSH1 0x0 PUSH2 0x22C6 DUP4 DUP4 PUSH1 0x40 MLOAD DUP1 PUSH1 0x40 ADD PUSH1 0x40 MSTORE DUP1 PUSH1 0x1A DUP2 MSTORE PUSH1 0x20 ADD PUSH32 0x536166654D6174683A206469766973696F6E206279207A65726F000000000000 DUP2 MSTORE POP PUSH1 0x0 DUP2 DUP4 PUSH2 0x36AD JUMPI PUSH1 0x40 MLOAD PUSH3 0x461BCD PUSH1 0xE5 SHL DUP2 MSTORE PUSH1 0x4 ADD PUSH2 0x6F8 SWAP2 SWAP1 PUSH2 0x3C22 JUMP JUMPDEST POP PUSH1 0x0 DUP4 DUP6 DUP2 PUSH2 0x36B9 JUMPI INVALID JUMPDEST DIV SWAP6 SWAP5 POP POP POP POP POP JUMP JUMPDEST DUP3 DUP1 SLOAD PUSH1 0x1 DUP2 PUSH1 0x1 AND ISZERO PUSH2 0x100 MUL SUB AND PUSH1 0x2 SWAP1 DIV SWAP1 PUSH1 0x0 MSTORE PUSH1 0x20 PUSH1 0x0 KECCAK256 SWAP1 PUSH1 0x1F ADD PUSH1 0x20 SWAP1 DIV DUP2 ADD SWAP3 DUP3 PUSH1 0x1F LT PUSH2 0x3704 JUMPI DUP3 DUP1 ADD PUSH1 0xFF NOT DUP3 CALLDATALOAD AND OR DUP6 SSTORE PUSH2 0x3731 JUMP JUMPDEST DUP3 DUP1 ADD PUSH1 0x1 ADD DUP6 SSTORE DUP3 ISZERO PUSH2 0x3731 JUMPI SWAP2 DUP3 ADD JUMPDEST DUP3 DUP2 GT ISZERO PUSH2 0x3731 JUMPI DUP3 CALLDATALOAD DUP3 SSTORE SWAP2 PUSH1 0x20 ADD SWAP2 SWAP1 PUSH1 0x1 ADD SWAP1 PUSH2 0x3716 JUMP JUMPDEST POP PUSH2 0x373D SWAP3 SWAP2 POP PUSH2 0x378D JUMP JUMPDEST POP SWAP1 JUMP JUMPDEST PUSH1 0x40 MLOAD DUP1 PUSH2 0x120 ADD PUSH1 0x40 MSTORE DUP1 PUSH1 0x0 DUP2 MSTORE PUSH1 0x20 ADD PUSH1 0x0 DUP2 MSTORE PUSH1 0x20 ADD PUSH1 0x0 DUP2 MSTORE PUSH1 0x20 ADD PUSH1 0x0 DUP2 MSTORE PUSH1 0x20 ADD PUSH1 0x0 DUP2 MSTORE PUSH1 0x20 ADD PUSH1 0x0 DUP2 MSTORE PUSH1 0x20 ADD PUSH1 0x0 DUP2 MSTORE PUSH1 0x20 ADD PUSH1 0x0 DUP2 MSTORE PUSH1 0x20 ADD PUSH1 0x0 DUP2 MSTORE POP SWAP1 JUMP JUMPDEST JUMPDEST DUP1 DUP3 GT ISZERO PUSH2 0x373D JUMPI PUSH1 0x0 DUP2 SSTORE PUSH1 0x1 ADD PUSH2 0x378E JUMP JUMPDEST PUSH1 0x0 PUSH1 0x20 DUP3 DUP5 SUB SLT ISZERO PUSH2 0x37B3 JUMPI DUP1 DUP2 REVERT JUMPDEST DUP2 CALLDATALOAD PUSH2 0x22C6 DUP2 PUSH2 0x3F56 JUMP JUMPDEST PUSH1 0x0 PUSH1 0x20 DUP3 DUP5 SUB SLT ISZERO PUSH2 0x37CF JUMPI DUP1 DUP2 REVERT JUMPDEST DUP2 MLOAD PUSH2 0x22C6 DUP2 PUSH2 0x3F56 JUMP JUMPDEST PUSH1 0x0 PUSH1 0x20 DUP1 DUP4 DUP6 SUB SLT ISZERO PUSH2 0x37EC JUMPI DUP2 DUP3 REVERT JUMPDEST DUP3 MLOAD PUSH8 0xFFFFFFFFFFFFFFFF DUP2 GT ISZERO PUSH2 0x3802 JUMPI DUP3 DUP4 REVERT JUMPDEST DUP4 ADD PUSH1 0x1F DUP2 ADD DUP6 SGT PUSH2 0x3812 JUMPI DUP3 DUP4 REVERT JUMPDEST DUP1 MLOAD PUSH2 0x3825 PUSH2 0x3820 DUP3 PUSH2 0x3F06 JUMP JUMPDEST PUSH2 0x3EDF JUMP JUMPDEST DUP2 DUP2 MSTORE DUP4 DUP2 ADD SWAP1 DUP4 DUP6 ADD DUP6 DUP5 MUL DUP6 ADD DUP7 ADD DUP10 LT ISZERO PUSH2 0x3841 JUMPI DUP7 DUP8 REVERT JUMPDEST DUP7 SWAP5 POP JUMPDEST DUP4 DUP6 LT ISZERO PUSH2 0x3863 JUMPI DUP1 MLOAD DUP4 MSTORE PUSH1 0x1 SWAP5 SWAP1 SWAP5 ADD SWAP4 SWAP2 DUP6 ADD SWAP2 DUP6 ADD PUSH2 0x3845 JUMP JUMPDEST POP SWAP8 SWAP7 POP POP POP POP POP POP POP JUMP JUMPDEST PUSH1 0x0 PUSH1 0x20 DUP3 DUP5 SUB SLT ISZERO PUSH2 0x3880 JUMPI DUP1 DUP2 REVERT JUMPDEST DUP2 CALLDATALOAD PUSH2 0x22C6 DUP2 PUSH2 0x3F6B JUMP JUMPDEST PUSH1 0x0 PUSH1 0x20 DUP3 DUP5 SUB SLT ISZERO PUSH2 0x389C JUMPI DUP1 DUP2 REVERT JUMPDEST DUP2 MLOAD PUSH2 0x22C6 DUP2 PUSH2 0x3F6B JUMP JUMPDEST PUSH1 0x0 DUP1 PUSH1 0x20 DUP4 DUP6 SUB SLT ISZERO PUSH2 0x38B9 JUMPI DUP1 DUP2 REVERT JUMPDEST DUP3 CALLDATALOAD PUSH8 0xFFFFFFFFFFFFFFFF DUP1 DUP3 GT ISZERO PUSH2 0x38D0 JUMPI DUP3 DUP4 REVERT JUMPDEST DUP2 DUP6 ADD SWAP2 POP DUP6 PUSH1 0x1F DUP4 ADD SLT PUSH2 0x38E3 JUMPI DUP3 DUP4 REVERT JUMPDEST DUP2 CALLDATALOAD DUP2 DUP2 GT ISZERO PUSH2 0x38F1 JUMPI DUP4 DUP5 REVERT JUMPDEST DUP7 PUSH1 0x20 DUP3 DUP6 ADD ADD GT ISZERO PUSH2 0x3902 JUMPI DUP4 DUP5 REVERT JUMPDEST PUSH1 0x20 SWAP3 SWAP1 SWAP3 ADD SWAP7 SWAP2 SWAP6 POP SWAP1 SWAP4 POP POP POP POP JUMP JUMPDEST PUSH1 0x0 PUSH1 0x20 DUP3 DUP5 SUB SLT ISZERO PUSH2 0x3925 JUMPI DUP1 DUP2 REVERT JUMPDEST DUP2 MLOAD PUSH8 0xFFFFFFFFFFFFFFFF DUP1 DUP3 GT ISZERO PUSH2 0x393C JUMPI DUP3 DUP4 REVERT JUMPDEST DUP2 DUP5 ADD SWAP2 POP DUP5 PUSH1 0x1F DUP4 ADD SLT PUSH2 0x394F JUMPI DUP3 DUP4 REVERT JUMPDEST DUP2 MLOAD DUP2 DUP2 GT ISZERO PUSH2 0x395D JUMPI DUP4 DUP5 REVERT JUMPDEST PUSH2 0x3970 PUSH1 0x1F DUP3 ADD PUSH1 0x1F NOT AND PUSH1 0x20 ADD PUSH2 0x3EDF JUMP JUMPDEST SWAP2 POP DUP1 DUP3 MSTORE DUP6 PUSH1 0x20 DUP3 DUP6 ADD ADD GT ISZERO PUSH2 0x3986 JUMPI DUP4 DUP5 REVERT JUMPDEST PUSH2 0x3997 DUP2 PUSH1 0x20 DUP5 ADD PUSH1 0x20 DUP7 ADD PUSH2 0x3F26 JUMP JUMPDEST POP SWAP5 SWAP4 POP POP POP POP JUMP JUMPDEST PUSH1 0x0 PUSH2 0x120 DUP1 DUP4 DUP6 SUB SLT ISZERO PUSH2 0x39B3 JUMPI DUP2 DUP3 REVERT JUMPDEST PUSH2 0x39BC DUP2 PUSH2 0x3EDF JUMP JUMPDEST SWAP1 POP DUP3 MLOAD DUP2 MSTORE PUSH1 0x20 DUP4 ADD MLOAD PUSH1 0x20 DUP3 ADD MSTORE PUSH1 0x40 DUP4 ADD MLOAD PUSH1 0x40 DUP3 ADD MSTORE PUSH1 0x60 DUP4 ADD MLOAD PUSH1 0x60 DUP3 ADD MSTORE PUSH1 0x80 DUP4 ADD MLOAD PUSH1 0x80 DUP3 ADD MSTORE PUSH1 0xA0 DUP4 ADD MLOAD PUSH1 0xA0 DUP3 ADD MSTORE PUSH1 0xC0 DUP4 ADD MLOAD PUSH1 0xC0 DUP3 ADD MSTORE PUSH1 0xE0 DUP4 ADD MLOAD PUSH1 0xE0 DUP3 ADD MSTORE PUSH2 0x100 DUP1 DUP5 ADD MLOAD DUP2 DUP4 ADD MSTORE POP DUP1 SWAP2 POP POP SWAP3 SWAP2 POP POP JUMP JUMPDEST PUSH1 0x0 PUSH1 0x20 DUP3 DUP5 SUB SLT ISZERO PUSH2 0x3A2F JUMPI DUP1 DUP2 REVERT JUMPDEST POP CALLDATALOAD SWAP2 SWAP1 POP JUMP JUMPDEST PUSH1 0x0 PUSH1 0x20 DUP3 DUP5 SUB SLT ISZERO PUSH2 0x3A47 JUMPI DUP1 DUP2 REVERT JUMPDEST POP MLOAD SWAP2 SWAP1 POP JUMP JUMPDEST PUSH1 0x0 DUP1 PUSH1 0x40 DUP4 DUP6 SUB SLT ISZERO PUSH2 0x3A60 JUMPI DUP2 DUP3 REVERT JUMPDEST DUP3 CALLDATALOAD SWAP2 POP PUSH1 0x20 DUP4 ADD CALLDATALOAD PUSH2 0x3A72 DUP2 PUSH2 0x3F56 JUMP JUMPDEST DUP1 SWAP2 POP POP SWAP3 POP SWAP3 SWAP1 POP JUMP JUMPDEST PUSH1 0x0 DUP1 PUSH1 0x40 DUP4 DUP6 SUB SLT ISZERO PUSH2 0x3A8F JUMPI DUP2 DUP3 REVERT JUMPDEST POP POP DUP1 CALLDATALOAD SWAP3 PUSH1 0x20 SWAP1 SWAP2 ADD CALLDATALOAD SWAP2 POP JUMP JUMPDEST PUSH1 0x0 DUP2 MLOAD DUP1 DUP5 MSTORE PUSH1 0x20 DUP1 DUP6 ADD SWAP5 POP DUP1 DUP5 ADD DUP4 JUMPDEST DUP4 DUP2 LT ISZERO PUSH2 0x3AD6 JUMPI DUP2 MLOAD PUSH1 0x1 PUSH1 0x1 PUSH1 0xA0 SHL SUB AND DUP8 MSTORE SWAP6 DUP3 ADD SWAP6 SWAP1 DUP3 ADD SWAP1 PUSH1 0x1 ADD PUSH2 0x3AB1 JUMP JUMPDEST POP SWAP5 SWAP6 SWAP5 POP POP POP POP POP JUMP JUMPDEST PUSH1 0x0 DUP3 MLOAD PUSH2 0x3AF3 DUP2 DUP5 PUSH1 0x20 DUP8 ADD PUSH2 0x3F26 JUMP JUMPDEST SWAP2 SWAP1 SWAP2 ADD SWAP3 SWAP2 POP POP JUMP JUMPDEST PUSH1 0x0 PUSH6 0x86DEDCECCAF PUSH1 0xD3 SHL DUP3 MSTORE DUP3 MLOAD PUSH2 0x3B1E DUP2 PUSH1 0x6 DUP6 ADD PUSH1 0x20 DUP8 ADD PUSH2 0x3F26 JUMP JUMPDEST SWAP2 SWAP1 SWAP2 ADD PUSH1 0x6 ADD SWAP3 SWAP2 POP POP JUMP JUMPDEST PUSH1 0x1 PUSH1 0x1 PUSH1 0xA0 SHL SUB SWAP2 SWAP1 SWAP2 AND DUP2 MSTORE PUSH1 0x20 ADD SWAP1 JUMP JUMPDEST PUSH1 0x1 PUSH1 0x1 PUSH1 0xA0 SHL SUB SWAP3 DUP4 AND DUP2 MSTORE SWAP2 AND PUSH1 0x20 DUP3 ADD MSTORE PUSH1 0x40 ADD SWAP1 JUMP JUMPDEST PUSH1 0x1 PUSH1 0x1 PUSH1 0xA0 SHL SUB SWAP4 DUP5 AND DUP2 MSTORE SWAP2 DUP4 AND PUSH1 0x20 DUP4 ADD MSTORE SWAP1 SWAP2 AND PUSH1 0x40 DUP3 ADD MSTORE PUSH1 0x60 ADD SWAP1 JUMP JUMPDEST PUSH1 0x1 PUSH1 0x1 PUSH1 0xA0 SHL SUB SWAP3 SWAP1 SWAP3 AND DUP3 MSTORE ISZERO ISZERO PUSH1 0x20 DUP3 ADD MSTORE PUSH1 0x40 ADD SWAP1 JUMP JUMPDEST PUSH1 0x1 PUSH1 0x1 PUSH1 0xA0 SHL SUB SWAP3 SWAP1 SWAP3 AND DUP3 MSTORE PUSH1 0x20 DUP3 ADD MSTORE PUSH1 0x40 ADD SWAP1 JUMP JUMPDEST PUSH1 0x80 DUP2 ADD DUP2 DUP5 PUSH1 0x0 JUMPDEST PUSH1 0x3 DUP2 LT ISZERO PUSH2 0x3BD8 JUMPI DUP2 MLOAD DUP4 MSTORE PUSH1 0x20 SWAP3 DUP4 ADD SWAP3 SWAP1 SWAP2 ADD SWAP1 PUSH1 0x1 ADD PUSH2 0x3BB9 JUMP JUMPDEST POP POP POP DUP3 PUSH1 0x60 DUP4 ADD MSTORE SWAP4 SWAP3 POP POP POP JUMP JUMPDEST SWAP1 ISZERO ISZERO DUP2 MSTORE PUSH1 0x20 ADD SWAP1 JUMP JUMPDEST PUSH1 0x0 PUSH1 0x20 DUP3 MSTORE DUP3 PUSH1 0x20 DUP4 ADD MSTORE DUP3 DUP5 PUSH1 0x40 DUP5 ADD CALLDATACOPY DUP2 DUP4 ADD PUSH1 0x40 SWAP1 DUP2 ADD SWAP2 SWAP1 SWAP2 MSTORE PUSH1 0x1F SWAP1 SWAP3 ADD PUSH1 0x1F NOT AND ADD ADD SWAP2 SWAP1 POP JUMP JUMPDEST PUSH1 0x0 PUSH1 0x20 DUP3 MSTORE DUP3 MLOAD DUP1 PUSH1 0x20 DUP5 ADD MSTORE PUSH2 0x3C41 DUP2 PUSH1 0x40 DUP6 ADD PUSH1 0x20 DUP8 ADD PUSH2 0x3F26 JUMP JUMPDEST PUSH1 0x1F ADD PUSH1 0x1F NOT AND SWAP2 SWAP1 SWAP2 ADD PUSH1 0x40 ADD SWAP3 SWAP2 POP POP JUMP JUMPDEST PUSH1 0x20 DUP1 DUP3 MSTORE PUSH1 0x5 SWAP1 DUP3 ADD MSTORE PUSH5 0x85DD85B9D PUSH1 0xDA SHL PUSH1 0x40 DUP3 ADD MSTORE PUSH1 0x60 ADD SWAP1 JUMP JUMPDEST PUSH1 0x20 DUP1 DUP3 MSTORE PUSH1 0x1B SWAP1 DUP3 ADD MSTORE PUSH32 0x536166654D6174683A206164646974696F6E206F766572666C6F770000000000 PUSH1 0x40 DUP3 ADD MSTORE PUSH1 0x60 ADD SWAP1 JUMP JUMPDEST PUSH1 0x20 DUP1 DUP3 MSTORE PUSH1 0x21 SWAP1 DUP3 ADD MSTORE PUSH32 0x536166654D6174683A206D756C7469706C69636174696F6E206F766572666C6F PUSH1 0x40 DUP3 ADD MSTORE PUSH1 0x77 PUSH1 0xF8 SHL PUSH1 0x60 DUP3 ADD MSTORE PUSH1 0x80 ADD SWAP1 JUMP JUMPDEST PUSH1 0x20 DUP1 DUP3 MSTORE PUSH1 0x6 SWAP1 DUP3 ADD MSTORE PUSH6 0x85D985D5B1D PUSH1 0xD2 SHL PUSH1 0x40 DUP3 ADD MSTORE PUSH1 0x60 ADD SWAP1 JUMP JUMPDEST PUSH1 0x20 DUP1 DUP3 MSTORE PUSH1 0x7 SWAP1 DUP3 ADD MSTORE PUSH7 0x21736861726573 PUSH1 0xC8 SHL PUSH1 0x40 DUP3 ADD MSTORE PUSH1 0x60 ADD SWAP1 JUMP JUMPDEST PUSH1 0x20 DUP1 DUP3 MSTORE PUSH1 0x1D SWAP1 DUP3 ADD MSTORE PUSH32 0x416464726573733A2063616C6C20746F206E6F6E2D636F6E7472616374000000 PUSH1 0x40 DUP3 ADD MSTORE PUSH1 0x60 ADD SWAP1 JUMP JUMPDEST PUSH1 0x20 DUP1 DUP3 MSTORE PUSH1 0x2A SWAP1 DUP3 ADD MSTORE PUSH32 0x5361666545524332303A204552433230206F7065726174696F6E20646964206E PUSH1 0x40 DUP3 ADD MSTORE PUSH10 0x1BDD081CDD58D8D95959 PUSH1 0xB2 SHL PUSH1 0x60 DUP3 ADD MSTORE PUSH1 0x80 ADD SWAP1 JUMP JUMPDEST PUSH1 0x20 DUP1 DUP3 MSTORE PUSH1 0xA SWAP1 DUP3 ADD MSTORE PUSH10 0x85C1C9BDD1958DD1959 PUSH1 0xB2 SHL PUSH1 0x40 DUP3 ADD MSTORE PUSH1 0x60 ADD SWAP1 JUMP JUMPDEST PUSH1 0x20 DUP1 DUP3 MSTORE PUSH1 0x36 SWAP1 DUP3 ADD MSTORE PUSH32 0x5361666545524332303A20617070726F76652066726F6D206E6F6E2D7A65726F PUSH1 0x40 DUP3 ADD MSTORE PUSH22 0x20746F206E6F6E2D7A65726F20616C6C6F77616E6365 PUSH1 0x50 SHL PUSH1 0x60 DUP3 ADD MSTORE PUSH1 0x80 ADD SWAP1 JUMP JUMPDEST SWAP1 DUP2 MSTORE PUSH1 0x20 ADD SWAP1 JUMP JUMPDEST PUSH1 0x0 DUP4 DUP3 MSTORE PUSH1 0x40 PUSH1 0x20 DUP4 ADD MSTORE PUSH2 0x18CA PUSH1 0x40 DUP4 ADD DUP5 PUSH2 0x3A9E JUMP JUMPDEST SWAP2 DUP3 MSTORE ISZERO ISZERO PUSH1 0x20 DUP3 ADD MSTORE PUSH1 0x40 ADD SWAP1 JUMP JUMPDEST PUSH1 0x0 DUP7 DUP3 MSTORE DUP6 PUSH1 0x20 DUP4 ADD MSTORE PUSH1 0xA0 PUSH1 0x40 DUP4 ADD MSTORE PUSH2 0x3E79 PUSH1 0xA0 DUP4 ADD DUP7 PUSH2 0x3A9E JUMP JUMPDEST PUSH1 0x1 PUSH1 0x1 PUSH1 0xA0 SHL SUB SWAP5 SWAP1 SWAP5 AND PUSH1 0x60 DUP4 ADD MSTORE POP PUSH1 0x80 ADD MSTORE SWAP4 SWAP3 POP POP POP JUMP JUMPDEST SWAP3 DUP4 MSTORE PUSH1 0x20 DUP4 ADD SWAP2 SWAP1 SWAP2 MSTORE ISZERO ISZERO PUSH1 0x40 DUP3 ADD MSTORE PUSH1 0x60 ADD SWAP1 JUMP JUMPDEST SWAP3 DUP4 MSTORE PUSH1 0x20 DUP4 ADD SWAP2 SWAP1 SWAP2 MSTORE PUSH1 0x40 DUP3 ADD MSTORE PUSH1 0x60 ADD SWAP1 JUMP JUMPDEST SWAP4 DUP5 MSTORE PUSH1 0x20 DUP5 ADD SWAP3 SWAP1 SWAP3 MSTORE PUSH1 0x40 DUP4 ADD MSTORE PUSH1 0x60 DUP3 ADD MSTORE PUSH1 0x80 ADD SWAP1 JUMP JUMPDEST PUSH1 0x40 MLOAD DUP2 DUP2 ADD PUSH8 0xFFFFFFFFFFFFFFFF DUP2 GT DUP3 DUP3 LT OR ISZERO PUSH2 0x3EFE JUMPI PUSH1 0x0 DUP1 REVERT JUMPDEST PUSH1 0x40 MSTORE SWAP2 SWAP1 POP JUMP JUMPDEST PUSH1 0x0 PUSH8 0xFFFFFFFFFFFFFFFF DUP3 GT ISZERO PUSH2 0x3F1C JUMPI DUP1 DUP2 REVERT JUMPDEST POP PUSH1 0x20 SWAP1 DUP2 MUL ADD SWAP1 JUMP JUMPDEST PUSH1 0x0 JUMPDEST DUP4 DUP2 LT ISZERO PUSH2 0x3F41 JUMPI DUP2 DUP2 ADD MLOAD DUP4 DUP3 ADD MSTORE PUSH1 0x20 ADD PUSH2 0x3F29 JUMP JUMPDEST DUP4 DUP2 GT ISZERO PUSH2 0x3F50 JUMPI PUSH1 0x0 DUP5 DUP5 ADD MSTORE JUMPDEST POP POP POP POP JUMP JUMPDEST PUSH1 0x1 PUSH1 0x1 PUSH1 0xA0 SHL SUB DUP2 AND DUP2 EQ PUSH2 0x13FE JUMPI PUSH1 0x0 DUP1 REVERT JUMPDEST DUP1 ISZERO ISZERO DUP2 EQ PUSH2 0x13FE JUMPI PUSH1 0x0 DUP1 REVERT INVALID LOG2 PUSH5 0x6970667358 0x22 SLT KECCAK256 0x28 0xBB 0xFB 0xD8 0xE9 0xDC SELFDESTRUCT 0x5E 0xE5 CALLDATACOPY ADD DUP12 LT PUSH20 0x3E2A792E6F62413EC74FEB5EA991AC2346AB6473 PUSH16 0x6C634300060C00330000000000000000 ",
  "sha1": "3fbcc9e11807bec109b7db914bf69d1e9806edc2",
  "source": "// SPDX-License-Identifier: AGPL-3.0\n// Feel free to change the license, but this is what we use\n\n// Feel free to change this version of Solidity. We support >=0.6.0 <0.7.0;\npragma solidity 0.6.12;\npragma experimental ABIEncoderV2;\n\n// These are the core Yearn libraries\nimport {\n    BaseStrategy,\n    StrategyParams\n} from \"../BaseStrategy.sol\";\n\nimport {ConvexStable} from \"./ConvexStable.sol\";\nimport {Rewards} from \"../interfaces/Rewards.sol\";\nimport {Booster} from \"../interfaces/Booster.sol\";\nimport {Uni} from \"../interfaces/Uniswap.sol\";\nimport {ICurveFi} from \"../interfaces/ICurveFi.sol\";\n\nimport {\n    SafeERC20,\n    SafeMath,\n    IERC20,\n    Address\n} from \"@openzeppelin/contracts/token/ERC20/SafeERC20.sol\";\n\nimport {\n    Math\n} from \"@openzeppelin/contracts/math/MATH.sol\";\n\n// Import interfaces for many popular DeFi projects, or add your own!\n//import \"../interfaces/<protocol>/<Interface>.sol\";\n\n// contract Strategy is BaseStrategy {\n//     using SafeERC20 for IERC20;\n//     using Address for address;\n//     using SafeMath for uint256;\n\n//     constructor(address _vault) public BaseStrategy(_vault) {\n//         // You can set these parameters on deployment to whatever you want\n//         // maxReportDelay = 6300;\n//         // profitFactor = 100;\n//         // debtThreshold = 0;\n//     }\n\n//     // ******** OVERRIDE THESE METHODS FROM BASE CONTRACT ************\n\n//     function name() external view override returns (string memory) {\n//         // Add your own name here, suggestion e.g. \"StrategyCreamYFI\"\n//         return \"Strategy<Sygnum><Stable>\";\n//     }\n\n//     function estimatedTotalAssets() public view override returns (uint256) {\n//         // TODO: Build a more accurate estimate using the value of all positions in terms of `want`\n//         return want.balanceOf(address(this));\n//     }\n\n//     function prepareReturn(uint256 _debtOutstanding)\n//         internal\n//         override\n//         returns (\n//             uint256 _profit,\n//             uint256 _loss,\n//             uint256 _debtPayment\n//         )\n//     {\n//         // TODO: Do stuff here to free up any returns back into `want`\n//         // NOTE: Return `_profit` which is value generated by all positions, priced in `want`\n//         // NOTE: Should try to free up at least `_debtOutstanding` of underlying position\n//     }\n\n//     function adjustPosition(uint256 _debtOutstanding) internal override {\n//         // TODO: Do something to invest excess `want` tokens (from the Vault) into your positions\n//         // NOTE: Try to adjust positions so that `_debtOutstanding` can be freed up on *next* harvest (not immediately)\n//     }\n\n//     function liquidatePosition(uint256 _amountNeeded)\n//         internal\n//         override\n//         returns (uint256 _liquidatedAmount, uint256 _loss)\n//     {\n//         // TODO: Do stuff here to free up to `_amountNeeded` from all positions back into `want`\n//         // NOTE: Maintain invariant `want.balanceOf(this) >= _liquidatedAmount`\n//         // NOTE: Maintain invariant `_liquidatedAmount + _loss <= _amountNeeded`\n\n//         uint256 totalAssets = want.balanceOf(address(this));\n//         if (_amountNeeded > totalAssets) {\n//             _liquidatedAmount = totalAssets;\n//             _loss = _amountNeeded.sub(totalAssets);\n//         } else {\n//             _liquidatedAmount = _amountNeeded;\n//         }\n//     }\n\n//     function liquidateAllPositions() internal override returns (uint256) {\n//         // TODO: Liquidate all positions and return the amount freed.\n//         return want.balanceOf(address(this));\n//     }\n\n//     // NOTE: Can override `tendTrigger` and `harvestTrigger` if necessary\n\n//     function prepareMigration(address _newStrategy) internal override {\n//         // TODO: Transfer any non-`want` tokens to the new strategy\n//         // NOTE: `migrate` will automatically forward all `want` in this strategy to the new one\n//     }\n\n//     // Override this to add all tokens/tokenized positions this contract manages\n//     // on a *persistent* basis (e.g. not just for swapping back to want ephemerally)\n//     // NOTE: Do *not* include `want`, already included in `sweep` below\n//     //\n//     // Example:\n//     //\n//     //    function protectedTokens() internal override view returns (address[] memory) {\n//     //      address[] memory protected = new address[](3);\n//     //      protected[0] = tokenA;\n//     //      protected[1] = tokenB;\n//     //      protected[2] = tokenC;\n//     //      return protected;\n//     //    }\n//     function protectedTokens()\n//         internal\n//         view\n//         override\n//         returns (address[] memory)\n//     {}\n\n//     /**\n//      * @notice\n//      *  Provide an accurate conversion from `_amtInWei` (denominated in wei)\n//      *  to `want` (using the native decimal characteristics of `want`).\n//      * @dev\n//      *  Care must be taken when working with decimals to assure that the conversion\n//      *  is compatible. As an example:\n//      *\n//      *      given 1e17 wei (0.1 ETH) as input, and want is USDC (6 decimals),\n//      *      with USDC/ETH = 1800, this should give back 1800000000 (180 USDC)\n//      *\n//      * @param _amtInWei The amount (in wei/1e-18 ETH) to convert to `want`\n//      * @return The amount in `want` of `_amtInEth` converted to `want`\n//      **/\n//     function ethToWant(uint256 _amtInWei)\n//         public\n//         view\n//         virtual\n//         override\n//         returns (uint256)\n//     {\n//         // TODO create an accurate price oracle\n//         return _amtInWei;\n//     }\n// }\n\n\n\ncontract Strategy is ConvexStable {\n    address[] public pathTarget;\n\n    constructor(address _vault) public ConvexStable(_vault) {\n        curve = address(0xbEbc44782C7dB0a1A60Cb6fe97d0b483032FF1C7);\n        id = 9;\n        isClaimRewards = true; // default is true, turn off in emergency\n        // isClaimExtras = true; // add this if there are extra rewards\n\n        (address _lp,,,address _reward,,) = Booster(booster).poolInfo(id);\n        require(_lp == address(want), \"constructor: incorrect lp token\");\n        rewardContract = _reward;\n\n        _approveBasic();\n        pathTarget = new address[](2);\n        _setPathTarget(0, 0); // crv path target\n        _setPathTarget(1, 0); // cvx path target\n\n        dex = new address[](2);\n        dex[0] = sushiswap; // crv\n        dex[1] = sushiswap; // cvx\n        _approveDex();\n    }\n\n    // >>> approve other rewards on dex\n    // function _approveDex() internal override { super._approveDex(); }\n\n    // >>> include other rewards\n    // function _migrateRewards(address _newStrategy) internal override { super._migrateRewards(_newStrategy); }\n\n    // >>> include all other rewards in eth besides _claimableBasicInETH()\n    // function _claimableInETH() internal override view returns (uint256 _claimable) { _claimable = super._claimableInETH(); }\n\n    function _setPathTarget(uint _tokenId, uint _id) internal {\n        if (_id == 0) { \n            pathTarget[_tokenId] = dai;\n        }\n        else if (_id == 1) {\n            pathTarget[_tokenId] = usdc;\n        }\n        else {\n            pathTarget[_tokenId] = usdt;\n        }\n    }\n\n    function setPathTarget(uint _tokenId, uint _id) external onlyAuthorized {\n        _setPathTarget(_tokenId, _id);\n    }\n\n    function prepareReturn(uint256 _debtOutstanding)\n        internal\n        override\n        returns (\n            uint256 _profit,\n            uint256 _loss,\n            uint256 _debtPayment\n        )\n    {\n        uint before = balanceOfWant();\n        Rewards(rewardContract).getReward(address(this), isClaimExtras);\n        uint256 _crv = IERC20(crv).balanceOf(address(this));\n        if (_crv > 0) {\n            _crv = _adjustCRV(_crv);\n\n            address[] memory path = new address[](3);\n            path[0] = crv;\n            path[1] = weth;\n            path[2] = pathTarget[0];\n\n            Uni(dex[0]).swapExactTokensForTokens(_crv, uint256(0), path, address(this), now);\n        }\n        uint256 _cvx = IERC20(cvx).balanceOf(address(this));\n        if (_cvx > 0) {\n            address[] memory path = new address[](3);\n            path[0] = cvx;\n            path[1] = weth;\n            path[2] = pathTarget[1];\n\n            Uni(dex[1]).swapExactTokensForTokens(_cvx, uint256(0), path, address(this), now);\n        }\n        uint256 _dai = IERC20(dai).balanceOf(address(this));\n        uint256 _usdc = IERC20(usdc).balanceOf(address(this));\n        uint256 _usdt = IERC20(usdt).balanceOf(address(this));\n        if (_dai > 0 || _usdc > 0 || _usdt > 0) {\n            ICurveFi(curve).add_liquidity([_dai, _usdc, _usdt], 0);\n        }\n        _profit = want.balanceOf(address(this)).sub(before);\n\n        uint _total = estimatedTotalAssets();\n        uint _debt = vault.strategies(address(this)).totalDebt;\n        if(_total < _debt) {\n            _loss = _debt - _total;\n            _profit = 0;\n        }\n\n        if (_debtOutstanding > 0) {\n            _withdrawSome(_debtOutstanding);\n            _debtPayment = Math.min(_debtOutstanding, balanceOfWant().sub(_profit));\n        }\n    }\n\n    function protectedTokens()\n        internal\n        view\n        override\n        returns (address[] memory)\n    {\n        address[] memory protected = new address[](2);\n        protected[0] = crv;\n        protected[1] = cvx;\n        return protected;\n    }\n\n    function liquidateAllPositions() internal override returns (uint256) {\n        // TODO: Liquidate all positions and return the amount freed.\n        return want.balanceOf(address(this));\n    }\n\n    /**\n     * @notice\n     *  Provide an accurate conversion from `_amtInWei` (denominated in wei)\n     *  to `want` (using the native decimal characteristics of `want`).\n     * @dev\n     *  Care must be taken when working with decimals to assure that the conversion\n     *  is compatible. As an example:\n     *\n     *      given 1e17 wei (0.1 ETH) as input, and want is USDC (6 decimals),\n     *      with USDC/ETH = 1800, this should give back 1800000000 (180 USDC)\n     *\n     * @param _amtInWei The amount (in wei/1e-18 ETH) to convert to `want`\n     * @return The amount in `want` of `_amtInEth` converted to `want`\n     **/\n    function ethToWant(uint256 _amtInWei)\n        public\n        view\n        virtual\n        override\n        returns (uint256)\n    {\n        // TODO create an accurate price oracle\n        return _amtInWei;\n    }\n}",
  "sourcePath": "contracts/strategy/Strategy.sol",
  "type": "contract"
}