{
  "abi": [
    {
      "inputs": [],
      "stateMutability": "nonpayable",
      "type": "constructor"
    },
    {
      "inputs": [
        {
          "internalType": "address",
          "name": "callerStrategy",
          "type": "address"
        },
        {
          "internalType": "uint256",
          "name": "profit",
          "type": "uint256"
        },
        {
          "internalType": "uint256",
          "name": "loss",
          "type": "uint256"
        },
        {
          "internalType": "uint256",
          "name": "debtPayment",
          "type": "uint256"
        },
        {
          "internalType": "uint256",
          "name": "debtOutstanding",
          "type": "uint256"
        }
      ],
      "name": "check",
      "outputs": [
        {
          "internalType": "bool",
          "name": "",
          "type": "bool"
        }
      ],
      "stateMutability": "view",
      "type": "function"
    },
    {
      "inputs": [],
      "name": "togglePass",
      "outputs": [],
      "stateMutability": "nonpayable",
      "type": "function"
    }
  ],
  "bytecode": "608060405234801561001057600080fd5b506000805460ff1916600117905560e78061002c6000396000f3fe6080604052348015600f57600080fd5b506004361060325760003560e01c806345901be014603757806383c0c184146086575b600080fd5b6072600480360360a0811015604b57600080fd5b506001600160a01b038135169060208101359060408101359060608101359060800135608e565b604080519115158252519081900360200190f35b608c609d565b005b60005460ff1695945050505050565b6000805460ff19811660ff9091161517905556fea2646970667358221220ea60d593058f797b5df1c60606952703421838e2ea5be2aa55f0a727693a8dfa64736f6c634300060c0033",
  "bytecodeSha1": "a44a58914cd7a30d530245467c7cce385e2a760d",
  "compiler": {
    "evm_version": "istanbul",
    "optimizer": {
      "enabled": true,
      "runs": 200
    },
    "version": "0.6.12+commit.27d51765"
  },
  "contractName": "TestHealthCheck",
  "language": "Solidity",
  "natspec": {
    "kind": "dev",
    "methods": {},
    "version": 1
  },
  "opcodes": "PUSH1 0x80 PUSH1 0x40 MSTORE CALLVALUE DUP1 ISZERO PUSH1 0xF JUMPI PUSH1 0x0 DUP1 REVERT JUMPDEST POP PUSH1 0x4 CALLDATASIZE LT PUSH1 0x32 JUMPI PUSH1 0x0 CALLDATALOAD PUSH1 0xE0 SHR DUP1 PUSH4 0x45901BE0 EQ PUSH1 0x37 JUMPI DUP1 PUSH4 0x83C0C184 EQ PUSH1 0x86 JUMPI JUMPDEST PUSH1 0x0 DUP1 REVERT JUMPDEST PUSH1 0x72 PUSH1 0x4 DUP1 CALLDATASIZE SUB PUSH1 0xA0 DUP2 LT ISZERO PUSH1 0x4B JUMPI PUSH1 0x0 DUP1 REVERT JUMPDEST POP PUSH1 0x1 PUSH1 0x1 PUSH1 0xA0 SHL SUB DUP2 CALLDATALOAD AND SWAP1 PUSH1 0x20 DUP2 ADD CALLDATALOAD SWAP1 PUSH1 0x40 DUP2 ADD CALLDATALOAD SWAP1 PUSH1 0x60 DUP2 ADD CALLDATALOAD SWAP1 PUSH1 0x80 ADD CALLDATALOAD PUSH1 0x8E JUMP JUMPDEST PUSH1 0x40 DUP1 MLOAD SWAP2 ISZERO ISZERO DUP3 MSTORE MLOAD SWAP1 DUP2 SWAP1 SUB PUSH1 0x20 ADD SWAP1 RETURN JUMPDEST PUSH1 0x8C PUSH1 0x9D JUMP JUMPDEST STOP JUMPDEST PUSH1 0x0 SLOAD PUSH1 0xFF AND SWAP6 SWAP5 POP POP POP POP POP JUMP JUMPDEST PUSH1 0x0 DUP1 SLOAD PUSH1 0xFF NOT DUP2 AND PUSH1 0xFF SWAP1 SWAP2 AND ISZERO OR SWAP1 SSTORE JUMP INVALID LOG2 PUSH5 0x6970667358 0x22 SLT KECCAK256 0xEA PUSH1 0xD5 SWAP4 SDIV DUP16 PUSH26 0x7B5DF1C60606952703421838E2EA5BE2AA55F0A727693A8DFA64 PUSH20 0x6F6C634300060C00330000000000000000000000 ",
  "sha1": "8a95fb8b93e5720570ab844c38e82d115cbbe896",
  "source": "// SPDX-License-Identifier: MIT\npragma solidity ^0.6.12;\n\nimport \"@openzeppelin/contracts/token/ERC20/ERC20.sol\";\n\nimport {ICustomHealthCheck} from \"../interfaces/ICustomHealthCheck.sol\";\n\ncontract TestHealthCheck is ICustomHealthCheck {\n    bool pass;\n\n    constructor() public {\n        pass = true;\n    }\n\n    function togglePass() external {\n        pass = !pass;\n    }\n\n    function check(\n        address callerStrategy,\n        uint256 profit,\n        uint256 loss,\n        uint256 debtPayment,\n        uint256 debtOutstanding\n    ) external view override returns (bool) {\n        return pass;\n    }\n}\n",
  "sourcePath": "contracts/test/TestHealthCheck.sol",
  "type": "contract"
}