{
  "abi": [
    {
      "inputs": [
        {
          "internalType": "address",
          "name": "_vault",
          "type": "address"
        }
      ],
      "stateMutability": "nonpayable",
      "type": "constructor"
    },
    {
      "anonymous": false,
      "inputs": [
        {
          "indexed": true,
          "internalType": "address",
          "name": "clone",
          "type": "address"
        }
      ],
      "name": "Cloned",
      "type": "event"
    },
    {
      "anonymous": false,
      "inputs": [],
      "name": "EmergencyExitEnabled",
      "type": "event"
    },
    {
      "anonymous": false,
      "inputs": [
        {
          "indexed": false,
          "internalType": "uint256",
          "name": "profit",
          "type": "uint256"
        },
        {
          "indexed": false,
          "internalType": "uint256",
          "name": "loss",
          "type": "uint256"
        },
        {
          "indexed": false,
          "internalType": "uint256",
          "name": "debtPayment",
          "type": "uint256"
        },
        {
          "indexed": false,
          "internalType": "uint256",
          "name": "debtOutstanding",
          "type": "uint256"
        }
      ],
      "name": "Harvested",
      "type": "event"
    },
    {
      "anonymous": false,
      "inputs": [
        {
          "indexed": false,
          "internalType": "uint256",
          "name": "debtThreshold",
          "type": "uint256"
        }
      ],
      "name": "UpdatedDebtThreshold",
      "type": "event"
    },
    {
      "anonymous": false,
      "inputs": [
        {
          "indexed": false,
          "internalType": "address",
          "name": "newKeeper",
          "type": "address"
        }
      ],
      "name": "UpdatedKeeper",
      "type": "event"
    },
    {
      "anonymous": false,
      "inputs": [
        {
          "indexed": false,
          "internalType": "uint256",
          "name": "delay",
          "type": "uint256"
        }
      ],
      "name": "UpdatedMaxReportDelay",
      "type": "event"
    },
    {
      "anonymous": false,
      "inputs": [
        {
          "indexed": false,
          "internalType": "string",
          "name": "metadataURI",
          "type": "string"
        }
      ],
      "name": "UpdatedMetadataURI",
      "type": "event"
    },
    {
      "anonymous": false,
      "inputs": [
        {
          "indexed": false,
          "internalType": "uint256",
          "name": "delay",
          "type": "uint256"
        }
      ],
      "name": "UpdatedMinReportDelay",
      "type": "event"
    },
    {
      "anonymous": false,
      "inputs": [
        {
          "indexed": false,
          "internalType": "uint256",
          "name": "profitFactor",
          "type": "uint256"
        }
      ],
      "name": "UpdatedProfitFactor",
      "type": "event"
    },
    {
      "anonymous": false,
      "inputs": [
        {
          "indexed": false,
          "internalType": "address",
          "name": "rewards",
          "type": "address"
        }
      ],
      "name": "UpdatedRewards",
      "type": "event"
    },
    {
      "anonymous": false,
      "inputs": [
        {
          "indexed": false,
          "internalType": "address",
          "name": "newStrategist",
          "type": "address"
        }
      ],
      "name": "UpdatedStrategist",
      "type": "event"
    },
    {
      "inputs": [
        {
          "internalType": "contract IERC20",
          "name": "_want",
          "type": "address"
        }
      ],
      "name": "_setWant",
      "outputs": [],
      "stateMutability": "nonpayable",
      "type": "function"
    },
    {
      "inputs": [
        {
          "internalType": "uint256",
          "name": "amount",
          "type": "uint256"
        }
      ],
      "name": "_takeFunds",
      "outputs": [],
      "stateMutability": "nonpayable",
      "type": "function"
    },
    {
      "inputs": [],
      "name": "_toggleDelegation",
      "outputs": [],
      "stateMutability": "nonpayable",
      "type": "function"
    },
    {
      "inputs": [],
      "name": "_toggleReentrancyExploit",
      "outputs": [],
      "stateMutability": "nonpayable",
      "type": "function"
    },
    {
      "inputs": [],
      "name": "apiVersion",
      "outputs": [
        {
          "internalType": "string",
          "name": "",
          "type": "string"
        }
      ],
      "stateMutability": "pure",
      "type": "function"
    },
    {
      "inputs": [
        {
          "internalType": "address",
          "name": "_vault",
          "type": "address"
        }
      ],
      "name": "clone",
      "outputs": [
        {
          "internalType": "address",
          "name": "",
          "type": "address"
        }
      ],
      "stateMutability": "nonpayable",
      "type": "function"
    },
    {
      "inputs": [
        {
          "internalType": "address",
          "name": "_vault",
          "type": "address"
        },
        {
          "internalType": "address",
          "name": "_strategist",
          "type": "address"
        },
        {
          "internalType": "address",
          "name": "_rewards",
          "type": "address"
        },
        {
          "internalType": "address",
          "name": "_keeper",
          "type": "address"
        }
      ],
      "name": "clone",
      "outputs": [
        {
          "internalType": "address",
          "name": "newStrategy",
          "type": "address"
        }
      ],
      "stateMutability": "nonpayable",
      "type": "function"
    },
    {
      "inputs": [],
      "name": "debtThreshold",
      "outputs": [
        {
          "internalType": "uint256",
          "name": "",
          "type": "uint256"
        }
      ],
      "stateMutability": "view",
      "type": "function"
    },
    {
      "inputs": [],
      "name": "delegateEverything",
      "outputs": [
        {
          "internalType": "bool",
          "name": "",
          "type": "bool"
        }
      ],
      "stateMutability": "view",
      "type": "function"
    },
    {
      "inputs": [],
      "name": "delegatedAssets",
      "outputs": [
        {
          "internalType": "uint256",
          "name": "",
          "type": "uint256"
        }
      ],
      "stateMutability": "view",
      "type": "function"
    },
    {
      "inputs": [],
      "name": "doReentrancy",
      "outputs": [
        {
          "internalType": "bool",
          "name": "",
          "type": "bool"
        }
      ],
      "stateMutability": "view",
      "type": "function"
    },
    {
      "inputs": [],
      "name": "emergencyExit",
      "outputs": [
        {
          "internalType": "bool",
          "name": "",
          "type": "bool"
        }
      ],
      "stateMutability": "view",
      "type": "function"
    },
    {
      "inputs": [],
      "name": "estimatedTotalAssets",
      "outputs": [
        {
          "internalType": "uint256",
          "name": "",
          "type": "uint256"
        }
      ],
      "stateMutability": "view",
      "type": "function"
    },
    {
      "inputs": [
        {
          "internalType": "uint256",
          "name": "amtInWei",
          "type": "uint256"
        }
      ],
      "name": "ethToWant",
      "outputs": [
        {
          "internalType": "uint256",
          "name": "",
          "type": "uint256"
        }
      ],
      "stateMutability": "view",
      "type": "function"
    },
    {
      "inputs": [],
      "name": "harvest",
      "outputs": [],
      "stateMutability": "nonpayable",
      "type": "function"
    },
    {
      "inputs": [
        {
          "internalType": "uint256",
          "name": "callCostInWei",
          "type": "uint256"
        }
      ],
      "name": "harvestTrigger",
      "outputs": [
        {
          "internalType": "bool",
          "name": "",
          "type": "bool"
        }
      ],
      "stateMutability": "view",
      "type": "function"
    },
    {
      "inputs": [
        {
          "internalType": "address",
          "name": "_vault",
          "type": "address"
        },
        {
          "internalType": "address",
          "name": "_strategist",
          "type": "address"
        },
        {
          "internalType": "address",
          "name": "_rewards",
          "type": "address"
        },
        {
          "internalType": "address",
          "name": "_keeper",
          "type": "address"
        }
      ],
      "name": "initialize",
      "outputs": [],
      "stateMutability": "nonpayable",
      "type": "function"
    },
    {
      "inputs": [],
      "name": "isActive",
      "outputs": [
        {
          "internalType": "bool",
          "name": "",
          "type": "bool"
        }
      ],
      "stateMutability": "view",
      "type": "function"
    },
    {
      "inputs": [],
      "name": "isOriginal",
      "outputs": [
        {
          "internalType": "bool",
          "name": "",
          "type": "bool"
        }
      ],
      "stateMutability": "view",
      "type": "function"
    },
    {
      "inputs": [],
      "name": "keeper",
      "outputs": [
        {
          "internalType": "address",
          "name": "",
          "type": "address"
        }
      ],
      "stateMutability": "view",
      "type": "function"
    },
    {
      "inputs": [],
      "name": "maxReportDelay",
      "outputs": [
        {
          "internalType": "uint256",
          "name": "",
          "type": "uint256"
        }
      ],
      "stateMutability": "view",
      "type": "function"
    },
    {
      "inputs": [],
      "name": "metadataURI",
      "outputs": [
        {
          "internalType": "string",
          "name": "",
          "type": "string"
        }
      ],
      "stateMutability": "view",
      "type": "function"
    },
    {
      "inputs": [
        {
          "internalType": "address",
          "name": "_newStrategy",
          "type": "address"
        }
      ],
      "name": "migrate",
      "outputs": [],
      "stateMutability": "nonpayable",
      "type": "function"
    },
    {
      "inputs": [],
      "name": "minReportDelay",
      "outputs": [
        {
          "internalType": "uint256",
          "name": "",
          "type": "uint256"
        }
      ],
      "stateMutability": "view",
      "type": "function"
    },
    {
      "inputs": [],
      "name": "name",
      "outputs": [
        {
          "internalType": "string",
          "name": "",
          "type": "string"
        }
      ],
      "stateMutability": "view",
      "type": "function"
    },
    {
      "inputs": [],
      "name": "profitFactor",
      "outputs": [
        {
          "internalType": "uint256",
          "name": "",
          "type": "uint256"
        }
      ],
      "stateMutability": "view",
      "type": "function"
    },
    {
      "inputs": [],
      "name": "protectedToken",
      "outputs": [
        {
          "internalType": "address",
          "name": "",
          "type": "address"
        }
      ],
      "stateMutability": "view",
      "type": "function"
    },
    {
      "inputs": [],
      "name": "rewards",
      "outputs": [
        {
          "internalType": "address",
          "name": "",
          "type": "address"
        }
      ],
      "stateMutability": "view",
      "type": "function"
    },
    {
      "inputs": [
        {
          "internalType": "uint256",
          "name": "_debtThreshold",
          "type": "uint256"
        }
      ],
      "name": "setDebtThreshold",
      "outputs": [],
      "stateMutability": "nonpayable",
      "type": "function"
    },
    {
      "inputs": [],
      "name": "setEmergencyExit",
      "outputs": [],
      "stateMutability": "nonpayable",
      "type": "function"
    },
    {
      "inputs": [
        {
          "internalType": "address",
          "name": "_keeper",
          "type": "address"
        }
      ],
      "name": "setKeeper",
      "outputs": [],
      "stateMutability": "nonpayable",
      "type": "function"
    },
    {
      "inputs": [
        {
          "internalType": "uint256",
          "name": "_delay",
          "type": "uint256"
        }
      ],
      "name": "setMaxReportDelay",
      "outputs": [],
      "stateMutability": "nonpayable",
      "type": "function"
    },
    {
      "inputs": [
        {
          "internalType": "string",
          "name": "_metadataURI",
          "type": "string"
        }
      ],
      "name": "setMetadataURI",
      "outputs": [],
      "stateMutability": "nonpayable",
      "type": "function"
    },
    {
      "inputs": [
        {
          "internalType": "uint256",
          "name": "_delay",
          "type": "uint256"
        }
      ],
      "name": "setMinReportDelay",
      "outputs": [],
      "stateMutability": "nonpayable",
      "type": "function"
    },
    {
      "inputs": [
        {
          "internalType": "uint256",
          "name": "_profitFactor",
          "type": "uint256"
        }
      ],
      "name": "setProfitFactor",
      "outputs": [],
      "stateMutability": "nonpayable",
      "type": "function"
    },
    {
      "inputs": [
        {
          "internalType": "address",
          "name": "_rewards",
          "type": "address"
        }
      ],
      "name": "setRewards",
      "outputs": [],
      "stateMutability": "nonpayable",
      "type": "function"
    },
    {
      "inputs": [
        {
          "internalType": "address",
          "name": "_strategist",
          "type": "address"
        }
      ],
      "name": "setStrategist",
      "outputs": [],
      "stateMutability": "nonpayable",
      "type": "function"
    },
    {
      "inputs": [],
      "name": "strategist",
      "outputs": [
        {
          "internalType": "address",
          "name": "",
          "type": "address"
        }
      ],
      "stateMutability": "view",
      "type": "function"
    },
    {
      "inputs": [
        {
          "internalType": "address",
          "name": "_token",
          "type": "address"
        }
      ],
      "name": "sweep",
      "outputs": [],
      "stateMutability": "nonpayable",
      "type": "function"
    },
    {
      "inputs": [],
      "name": "tend",
      "outputs": [],
      "stateMutability": "nonpayable",
      "type": "function"
    },
    {
      "inputs": [
        {
          "internalType": "uint256",
          "name": "callCostInWei",
          "type": "uint256"
        }
      ],
      "name": "tendTrigger",
      "outputs": [
        {
          "internalType": "bool",
          "name": "",
          "type": "bool"
        }
      ],
      "stateMutability": "view",
      "type": "function"
    },
    {
      "inputs": [],
      "name": "vault",
      "outputs": [
        {
          "internalType": "contract VaultAPI",
          "name": "",
          "type": "address"
        }
      ],
      "stateMutability": "view",
      "type": "function"
    },
    {
      "inputs": [],
      "name": "want",
      "outputs": [
        {
          "internalType": "contract IERC20",
          "name": "",
          "type": "address"
        }
      ],
      "stateMutability": "view",
      "type": "function"
    },
    {
      "inputs": [
        {
          "internalType": "uint256",
          "name": "_amountNeeded",
          "type": "uint256"
        }
      ],
      "name": "withdraw",
      "outputs": [
        {
          "internalType": "uint256",
          "name": "_loss",
          "type": "uint256"
        }
      ],
      "stateMutability": "nonpayable",
      "type": "function"
    }
  ],
  "bytecode": "6080604052600a805461ff0019166101001790553480156200002057600080fd5b5060405162002dce38038062002dce833981016040819052620000439162000510565b808062000053813380806200005c565b50505062000749565b6005546001600160a01b031615620000915760405162461bcd60e51b8152600401620000889062000601565b60405180910390fd5b600180546001600160a01b0319166001600160a01b03868116919091179182905560408051637e062a3560e11b81529051929091169163fc0c546a91600480820192602092909190829003018186803b158015620000ee57600080fd5b505afa15801562000103573d6000803e3d6000fd5b505050506040513d601f19601f8201168201806040525081019062000129919062000510565b600580546001600160a01b0319166001600160a01b0392831617908190556200016391168560001962000241602090811b6200139f17901c565b600280546001600160a01b038086166001600160a01b0319928316179092556003805485841690831617908190556004805485851693169290921782556000600681905562015180600755606460085560095560015460405163095ea7b360e01b81529084169363095ea7b393620001e493909116916000199101620005b3565b602060405180830381600087803b158015620001ff57600080fd5b505af115801562000214573d6000803e3d6000fd5b505050506040513d601f19601f820116820180604052508101906200023a919062000540565b5050505050565b801580620002d05750604051636eb1769f60e11b81526001600160a01b0384169063dd62ed3e906200027a903090869060040162000599565b60206040518083038186803b1580156200029357600080fd5b505afa158015620002a8573d6000803e3d6000fd5b505050506040513d601f19601f82011682018060405250810190620002ce919062000562565b155b620002ef5760405162461bcd60e51b81526004016200008890620006b9565b6200034a8363095ea7b360e01b848460405160240162000311929190620005b3565b60408051808303601f190181529190526020810180516001600160e01b0319939093166001600160e01b03938416179052906200034f16565b505050565b6060620003ab826040518060400160405280602081526020017f5361666545524332303a206c6f772d6c6576656c2063616c6c206661696c6564815250856001600160a01b0316620003eb60201b6200149e179092919060201c565b8051909150156200034a5780806020019051810190620003cc919062000540565b6200034a5760405162461bcd60e51b815260040162000088906200066f565b6060620003fc848460008562000404565b949350505050565b60606200041185620004d6565b620004305760405162461bcd60e51b8152600401620000889062000638565b60006060866001600160a01b031685876040516200044f91906200057b565b60006040518083038185875af1925050503d80600081146200048e576040519150601f19603f3d011682016040523d82523d6000602084013e62000493565b606091505b50915091508115620004a9579150620003fc9050565b805115620004ba5780518082602001fd5b8360405162461bcd60e51b8152600401620000889190620005cc565b6000813f7fc5d2460186f7233c927e7db2dcc703c0e500b653ca82273b7bfad8045d85a470818114801590620003fc575050151592915050565b60006020828403121562000522578081fd5b81516001600160a01b038116811462000539578182fd5b9392505050565b60006020828403121562000552578081fd5b8151801515811462000539578182fd5b60006020828403121562000574578081fd5b5051919050565b600082516200058f81846020870162000716565b9190910192915050565b6001600160a01b0392831681529116602082015260400190565b6001600160a01b03929092168252602082015260400190565b6000602082528251806020840152620005ed81604085016020870162000716565b601f01601f19169190910160400192915050565b6020808252601c908201527f537472617465677920616c726561647920696e697469616c697a656400000000604082015260600190565b6020808252601d908201527f416464726573733a2063616c6c20746f206e6f6e2d636f6e7472616374000000604082015260600190565b6020808252602a908201527f5361666545524332303a204552433230206f7065726174696f6e20646964206e6040820152691bdd081cdd58d8d9595960b21b606082015260800190565b60208082526036908201527f5361666545524332303a20617070726f76652066726f6d206e6f6e2d7a65726f60408201527f20746f206e6f6e2d7a65726f20616c6c6f77616e636500000000000000000000606082015260800190565b60005b838110156200073357818101518382015260200162000719565b8381111562000743576000848401525b50505050565b61267580620007596000396000f3fe608060405234801561001057600080fd5b50600436106102745760003560e01c80638124b78e11610151578063d0e8577d116100c3578063efbb5cb011610087578063efbb5cb014610498578063f017c92f146104a0578063f8c8765e146104b3578063fba04a44146104c6578063fbfa77cf146104d9578063fcf2d0ad146104e157610274565b8063d0e8577d1461044f578063d64a42e914610462578063d653943a1461046a578063ec38a86214610472578063ed882c2b1461048557610274565b80639ec5a894116101155780639ec5a894146103fe578063aced166114610406578063b30db32c1461040e578063c7b9d53014610416578063ce5494bb14610429578063d05118421461043c57610274565b80638124b78e146103c05780638cdfe166146103d35780638e6350e2146103db57806391397ab4146103e357806395e80c50146103f657610274565b80632e1a7d4d116101ea5780635641ec03116101ae5780635641ec0314610364578063650d18801461036c5780636f392ce71461037f578063748747e614610387578063750521f51461039a578063780022a0146103ad57610274565b80632e1a7d4d1461032657806339a172a814610339578063440368a31461034c5780634641257d1461035457806352052af81461035c57610274565b80631d12f28b1161023c5780631d12f28b146102dc5780631f1fcd51146102f15780631fe4a6861461030657806322f3e2d41461030e578063258294101461031657806328b7ccf71461031e57610274565b806301681a621461027957806303aaab6f1461028e57806303ee438c146102ac57806306fdde03146102c15780630f969b87146102c9575b600080fd5b61028c610287366004612075565b6104e9565b005b61029661064d565b6040516102a39190612367565b60405180910390f35b6102b461065c565b6040516102a391906123a1565b6102b46106ea565b61028c6102d7366004612213565b610719565b6102e4610761565b6040516102a39190612586565b6102f9610767565b6040516102a39190612294565b6102f9610776565b610296610785565b6102b4610827565b6102e4610846565b6102e4610334366004612213565b61084c565b61028c610347366004612213565b6108a7565b61028c6108e4565b61028c610971565b61028c610b46565b610296610b65565b61029661037a366004612213565b610b6e565b610296610b74565b61028c610395366004612075565b610b82565b61028c6103a8366004612128565b610be8565b6102e46103bb366004612213565b610716565b6102f96103ce366004612075565b610c3a565b6102e4610cbe565b6102e4610cc4565b61028c6103f1366004612213565b610d6d565b6102e4610daa565b6102f9610db0565b6102f9610dbf565b61028c610dce565b61028c610424366004612075565b610def565b61028c610437366004612075565b610e55565b6102f961044a3660046120ad565b610f40565b61028c61045d366004612075565b611056565b610296611078565b6102f9611088565b61028c610480366004612075565b61108e565b610296610493366004612213565b611157565b6102e461120a565b61028c6104ae366004612213565b61128b565b61028c6104c13660046120ad565b6112c8565b61028c6104d4366004612213565b6112da565b6102f96112f1565b61028c611300565b6104f16114b5565b6005546001600160a01b03828116911614156105285760405162461bcd60e51b815260040161051f906123d4565b60405180910390fd5b6001546001600160a01b03828116911614156105565760405162461bcd60e51b815260040161051f9061244a565b60606105606114da565b905060005b81518110156105bb5781818151811061057a57fe5b60200260200101516001600160a01b0316836001600160a01b031614156105b35760405162461bcd60e51b815260040161051f9061250c565b600101610565565b50610649826105c861152c565b6040516370a0823160e01b81526001600160a01b038616906370a08231906105f4903090600401612294565b60206040518083038186803b15801561060c57600080fd5b505afa158015610620573d6000803e3d6000fd5b505050506040513d601f19601f82011682018060405250810190610644919061222b565b6115a9565b5050565b600a5462010000900460ff1681565b6000805460408051602060026001851615610100026000190190941693909304601f810184900484028201840190925281815292918301828280156106e25780601f106106b7576101008083540402835291602001916106e2565b820191906000526020600020905b8154815290600101906020018083116106c557829003601f168201915b505050505081565b60606106f4610827565b604051602001610704919061225f565b60405160208183030381529060405290505b90565b6107216115c8565b60098190556040517fa68ba126373d04c004c5748c300c9fca12bd444b3d4332e261f3bd2bac4a860090610756908390612586565b60405180910390a150565b60095481565b6005546001600160a01b031681565b6002546001600160a01b031681565b6001546040516339ebf82360e01b815260009182916001600160a01b03909116906339ebf823906107ba903090600401612294565b6101206040518083038186803b1580156107d357600080fd5b505afa1580156107e7573d6000803e3d6000fd5b505050506040513d601f19601f8201168201806040525081019061080b9190612195565b6040015111806108225750600061082061120a565b115b905090565b604080518082019091526005815264302e342e3360d81b602082015290565b60075481565b6001546000906001600160a01b031633146108795760405162461bcd60e51b815260040161051f9061242a565b6000610884836115ed565b6005549093509091506108a1906001600160a01b031633836115a9565b50919050565b6108af6115c8565b60068190556040517fbb2c369a0355a34b02ab5fce0643150c87e1c8dfe7c918d465591879f57948b190610756908390612586565b6108ec61185f565b6001546040805163bf3759b560e01b8152905161096f926001600160a01b03169163bf3759b5916004808301926020929190829003018186803b15801561093257600080fd5b505afa158015610946573d6000803e3d6000fd5b505050506040513d601f19601f8201168201806040525081019061096a919061222b565b610f3d565b565b61097961185f565b6000806000600160009054906101000a90046001600160a01b03166001600160a01b031663bf3759b56040518163ffffffff1660e01b815260040160206040518083038186803b1580156109cc57600080fd5b505afa1580156109e0573d6000803e3d6000fd5b505050506040513d601f19601f82011682018060405250810190610a04919061222b565b600a5490915060009060ff1615610a61576000610a1f6119d2565b905082811015610a3a57610a338382611a57565b9350610a4f565b82811115610a4f57610a4c8184611a57565b94505b610a598385611a57565b915050610a72565b610a6a82611aa0565b919550935090505b6001546040516328766ebf60e21b81526001600160a01b039091169063a1d9bafc90610aa6908790879086906004016125a6565b602060405180830381600087803b158015610ac057600080fd5b505af1158015610ad4573d6000803e3d6000fd5b505050506040513d601f19601f82011682018060405250810190610af8919061222b565b9150610b0382610f3d565b7f4c0f499ffe6befa0ca7c826b0916cf87bea98de658013e76938489368d60d50984848385604051610b3894939291906125bc565b60405180910390a150505050565b600a805462ff0000198116620100009182900460ff1615909102179055565b600a5460ff1681565b50600090565b600a54610100900460ff1681565b610b8a6115c8565b6001600160a01b038116610b9d57600080fd5b600480546001600160a01b0319166001600160a01b0383161790556040517f2f202ddb4a2e345f6323ed90f8fc8559d770a7abbbeee84dde8aca3351fe715490610756908390612294565b610bf06115c8565b610bfc60008383611fe2565b507f300e67d5a415b6d015a471d9c7b95dd58f3e8290af965e84e0f845de2996dda68282604051610c2e929190612372565b60405180910390a15050565b6040516368288c2160e11b8152600090309063d051184290610c669085903390819081906004016122c2565b602060405180830381600087803b158015610c8057600080fd5b505af1158015610c94573d6000803e3d6000fd5b505050506040513d601f19601f82011682018060405250810190610cb89190612091565b92915050565b60085481565b600a546000906301000000900460ff1615610d65576001546040516339ebf82360e01b81526001600160a01b03909116906339ebf82390610d09903090600401612294565b6101206040518083038186803b158015610d2257600080fd5b505afa158015610d36573d6000803e3d6000fd5b505050506040513d601f19601f82011682018060405250810190610d5a9190612195565b60c001519050610716565b506000610716565b610d756115c8565b60088190556040517fd94596337df4c2f0f44d30a7fc5db1c7bb60d9aca4185ed77c6fd96eb45ec29890610756908390612586565b60065481565b6003546001600160a01b031681565b6004546001600160a01b031681565b600a805463ff00000019811663010000009182900460ff1615909102179055565b610df76115c8565b6001600160a01b038116610e0a57600080fd5b600280546001600160a01b0319166001600160a01b0383161790556040517f352ececae6d7d1e6d26bcf2c549dfd55be1637e9b22dc0cf3b71ddb36097a6b490610756908390612294565b6001546001600160a01b03163314610e6c57600080fd5b6001546040805163fbfa77cf60e01b815290516001600160a01b039283169284169163fbfa77cf916004808301926020929190829003018186803b158015610eb357600080fd5b505afa158015610ec7573d6000803e3d6000fd5b505050506040513d601f19601f82011682018060405250810190610eeb9190612091565b6001600160a01b031614610efe57600080fd5b610f0781610f3d565b6005546040516370a0823160e01b8152610f3d916001600160a01b031690839082906370a08231906105f4903090600401612294565b50565b600a54600090610100900460ff16610f6a5760405162461bcd60e51b815260040161051f9061246b565b604051733d602d80600a3d3981f3363d3d373d3d3d363d7360601b81523060601b601482018190526e5af43d82803e903d91602b57fd5bf360881b6028830152906037816000f0604051637c643b2f60e11b81529093506001600160a01b038416915063f8c8765e90610fe79089908990899089906004016122c2565b600060405180830381600087803b15801561100157600080fd5b505af1158015611015573d6000803e3d6000fd5b50506040516001600160a01b03851692507f783540fb4221a3238720dc7038937d0d79982bcf895274aa6ad179f82cf0d53c9150600090a250949350505050565b600580546001600160a01b0319166001600160a01b0392909216919091179055565b600a546301000000900460ff1681565b610bad81565b611096611c14565b600380546001600160a01b038381166001600160a01b0319831617909255600154604051635b70bdbf60e11b81529183169273__StrategyLib___________________________9263b6e17b7e926110f89286928892909116906004016122ed565b60006040518083038186803b15801561111057600080fd5b505af4158015611124573d6000803e3d6000fd5b505050507fafbb66abf8f3b719799940473a4052a3717cdd8e40fb6c8a3faadab316b1a06982604051610c2e9190612294565b60015460009073__StrategyLib___________________________90634937cba9906001600160a01b03163061118c86610716565b6006546007546009546008546040518863ffffffff1660e01b81526004016111ba9796959493929190612310565b60206040518083038186803b1580156111d257600080fd5b505af41580156111e6573d6000803e3d6000fd5b505050506040513d601f19601f82011682018060405250810190610cb89190612108565b6005546040516370a0823160e01b81526000916001600160a01b0316906370a082319061123b903090600401612294565b60206040518083038186803b15801561125357600080fd5b505afa158015611267573d6000803e3d6000fd5b505050506040513d601f19601f82011682018060405250810190610822919061222b565b6112936115c8565b60078190556040517f5430e11864ad7aa9775b07d12657fe52df9aa2ba734355bd8ef8747be2c800c590610756908390612586565b6112d484848484611c4d565b50505050565b600554610f3d906001600160a01b031633836115a9565b6001546001600160a01b031681565b611308611e0e565b600a805460ff19166001908117909155546040805163507257cd60e11b815290516001600160a01b039092169163a0e4af9a9160048082019260009290919082900301818387803b15801561135c57600080fd5b505af1158015611370573d6000803e3d6000fd5b50506040517f97e963041e952738788b9d4871d854d282065b8f90a464928d6528f2e9a4fd0b925060009150a1565b8015806114275750604051636eb1769f60e11b81526001600160a01b0384169063dd62ed3e906113d590309086906004016122a8565b60206040518083038186803b1580156113ed57600080fd5b505afa158015611401573d6000803e3d6000fd5b505050506040513d601f19601f82011682018060405250810190611425919061222b565b155b6114435760405162461bcd60e51b815260040161051f90612530565b6114998363095ea7b360e01b848460405160240161146292919061234e565b60408051601f198184030181529190526020810180516001600160e01b03166001600160e01b031990931692909217909152611e2a565b505050565b60606114ad8484600085611eb9565b949350505050565b6114bd61152c565b6001600160a01b0316336001600160a01b03161461096f57600080fd5b60408051600180825281830190925260609182919060208083019080368337019050509050610bad8160008151811061150f57fe5b6001600160a01b0390921660209283029190910190910152905090565b60015460408051635aa6e67560e01b815290516000926001600160a01b031691635aa6e675916004808301926020929190829003018186803b15801561157157600080fd5b505afa158015611585573d6000803e3d6000fd5b505050506040513d601f19601f820116820180604052508101906108229190612091565b6114998363a9059cbb60e01b848460405160240161146292919061234e565b6002546001600160a01b03163314806115e457506114bd61152c565b61096f57600080fd5b600a54600090819062010000900460ff161561170a576001546040516370a0823160e01b81526000916001600160a01b0316906370a0823190611634903090600401612294565b60206040518083038186803b15801561164c57600080fd5b505afa158015611660573d6000803e3d6000fd5b505050506040513d601f19601f82011682018060405250810190611684919061222b565b600154604051627b8a6760e11b81529192506001600160a01b03169062f714ce906116b5908490309060040161258f565b602060405180830381600087803b1580156116cf57600080fd5b505af11580156116e3573d6000803e3d6000fd5b505050506040513d601f19601f82011682018060405250810190611707919061222b565b50505b6001546040516339ebf82360e01b81526000916001600160a01b0316906339ebf8239061173b903090600401612294565b6101206040518083038186803b15801561175457600080fd5b505afa158015611768573d6000803e3d6000fd5b505050506040513d601f19601f8201168201806040525081019061178c9190612195565b60c001516005546040516370a0823160e01b81529192506000916001600160a01b03909116906370a08231906117c6903090600401612294565b60206040518083038186803b1580156117de57600080fd5b505afa1580156117f2573d6000803e3d6000fd5b505050506040513d601f19601f82011682018060405250810190611816919061222b565b9050808511156118345792508261182d8582611a57565b9250611858565b80821115611854576118468282611a57565b925084831115611854578492505b8493505b5050915091565b6004546001600160a01b031633148061188257506002546001600160a01b031633145b806118a5575061189061152c565b6001600160a01b0316336001600160a01b0316145b806119465750600160009054906101000a90046001600160a01b03166001600160a01b031663452a93206040518163ffffffff1660e01b815260040160206040518083038186803b1580156118f957600080fd5b505afa15801561190d573d6000803e3d6000fd5b505050506040513d601f19601f820116820180604052508101906119319190612091565b6001600160a01b0316336001600160a01b0316145b806115e45750600160009054906101000a90046001600160a01b03166001600160a01b03166388a8d6026040518163ffffffff1660e01b815260040160206040518083038186803b15801561199a57600080fd5b505afa1580156119ae573d6000803e3d6000fd5b505050506040513d601f19601f820116820180604052508101906114bd9190612091565b6005546040516370a0823160e01b815260009182916001600160a01b03909116906370a0823190611a07903090600401612294565b60206040518083038186803b158015611a1f57600080fd5b505afa158015611a33573d6000803e3d6000fd5b505050506040513d601f19601f82011682018060405250810190610cb8919061222b565b6000611a9983836040518060400160405280601e81526020017f536166654d6174683a207375627472616374696f6e206f766572666c6f770000815250611f7d565b9392505050565b6005546040516370a0823160e01b81526000918291829182916001600160a01b03909116906370a0823190611ad9903090600401612294565b60206040518083038186803b158015611af157600080fd5b505afa158015611b05573d6000803e3d6000fd5b505050506040513d601f19601f82011682018060405250810190611b29919061222b565b6001546040516339ebf82360e01b81529192506000916001600160a01b03909116906339ebf82390611b5f903090600401612294565b6101206040518083038186803b158015611b7857600080fd5b505afa158015611b8c573d6000803e3d6000fd5b505050506040513d601f19601f82011682018060405250810190611bb09190612195565b60c00151905085821115611bd257859250611bcb8284611a57565b9150611bd9565b9091506000905b611be38184611a57565b905080821115611bfe57611bf78282611a57565b9450611c0b565b611c088183611a57565b93505b50509193909250565b611c1c61152c565b6001600160a01b0316336001600160a01b031614806115e457506002546001600160a01b0316331461096f57600080fd5b6005546001600160a01b031615611c765760405162461bcd60e51b815260040161051f906123f3565b600180546001600160a01b0319166001600160a01b03868116919091179182905560408051637e062a3560e11b81529051929091169163fc0c546a91600480820192602092909190829003018186803b158015611cd257600080fd5b505afa158015611ce6573d6000803e3d6000fd5b505050506040513d601f19601f82011682018060405250810190611d0a9190612091565b600580546001600160a01b0319166001600160a01b039283161790819055611d3691168560001961139f565b600280546001600160a01b038086166001600160a01b0319928316179092556003805485841690831617908190556004805485851693169290921782556000600681905562015180600755606460085560095560015460405163095ea7b360e01b81529084169363095ea7b393611db59390911691600019910161234e565b602060405180830381600087803b158015611dcf57600080fd5b505af1158015611de3573d6000803e3d6000fd5b505050506040513d601f19601f82011682018060405250810190611e079190612108565b5050505050565b6002546001600160a01b03163314806118a5575061189061152c565b6060611e7f826040518060400160405280602081526020017f5361666545524332303a206c6f772d6c6576656c2063616c6c206661696c6564815250856001600160a01b031661149e9092919063ffffffff16565b8051909150156114995780806020019051810190611e9d9190612108565b6114995760405162461bcd60e51b815260040161051f906124c2565b6060611ec485611fa9565b611ee05760405162461bcd60e51b815260040161051f9061248b565b60006060866001600160a01b03168587604051611efd9190612243565b60006040518083038185875af1925050503d8060008114611f3a576040519150601f19603f3d011682016040523d82523d6000602084013e611f3f565b606091505b50915091508115611f535791506114ad9050565b805115611f635780518082602001fd5b8360405162461bcd60e51b815260040161051f91906123a1565b60008184841115611fa15760405162461bcd60e51b815260040161051f91906123a1565b505050900390565b6000813f7fc5d2460186f7233c927e7db2dcc703c0e500b653ca82273b7bfad8045d85a4708181148015906114ad575050151592915050565b828054600181600116156101000203166002900490600052602060002090601f016020900481019282601f106120235782800160ff19823516178555612050565b82800160010185558215612050579182015b82811115612050578235825591602001919060010190612035565b5061205c929150612060565b5090565b5b8082111561205c5760008155600101612061565b600060208284031215612086578081fd5b8135611a998161262a565b6000602082840312156120a2578081fd5b8151611a998161262a565b600080600080608085870312156120c2578283fd5b84356120cd8161262a565b935060208501356120dd8161262a565b925060408501356120ed8161262a565b915060608501356120fd8161262a565b939692955090935050565b600060208284031215612119578081fd5b81518015158114611a99578182fd5b6000806020838503121561213a578182fd5b823567ffffffffffffffff80821115612151578384fd5b818501915085601f830112612164578384fd5b813581811115612172578485fd5b866020828501011115612183578485fd5b60209290920196919550909350505050565b60006101208083850312156121a8578182fd5b6121b1816125d7565b9050825181526020830151602082015260408301516040820152606083015160608201526080830151608082015260a083015160a082015260c083015160c082015260e083015160e08201526101008084015181830152508091505092915050565b600060208284031215612224578081fd5b5035919050565b60006020828403121561223c578081fd5b5051919050565b600082516122558184602087016125fe565b9190910192915050565b60006c02a32b9ba29ba3930ba32b3bc9609d1b8252825161228781600d8501602087016125fe565b91909101600d0192915050565b6001600160a01b0391909116815260200190565b6001600160a01b0392831681529116602082015260400190565b6001600160a01b03948516815292841660208401529083166040830152909116606082015260800190565b6001600160a01b0393841681529183166020830152909116604082015260600190565b6001600160a01b03978816815295909616602086015260408501939093526060840191909152608083015260a082015260c081019190915260e00190565b6001600160a01b03929092168252602082015260400190565b901515815260200190565b60006020825282602083015282846040840137818301604090810191909152601f909201601f19160101919050565b60006020825282518060208401526123c08160408501602087016125fe565b601f01601f19169190910160400192915050565b602080825260059082015264085dd85b9d60da1b604082015260600190565b6020808252601c908201527f537472617465677920616c726561647920696e697469616c697a656400000000604082015260600190565b602080825260069082015265085d985d5b1d60d21b604082015260600190565b6020808252600790820152662173686172657360c81b604082015260600190565b60208082526006908201526521636c6f6e6560d01b604082015260600190565b6020808252601d908201527f416464726573733a2063616c6c20746f206e6f6e2d636f6e7472616374000000604082015260600190565b6020808252602a908201527f5361666545524332303a204552433230206f7065726174696f6e20646964206e6040820152691bdd081cdd58d8d9595960b21b606082015260800190565b6020808252600a9082015269085c1c9bdd1958dd195960b21b604082015260600190565b60208082526036908201527f5361666545524332303a20617070726f76652066726f6d206e6f6e2d7a65726f60408201527520746f206e6f6e2d7a65726f20616c6c6f77616e636560501b606082015260800190565b90815260200190565b9182526001600160a01b0316602082015260400190565b9283526020830191909152604082015260600190565b93845260208401929092526040830152606082015260800190565b60405181810167ffffffffffffffff811182821017156125f657600080fd5b604052919050565b60005b83811015612619578181015183820152602001612601565b838111156112d45750506000910152565b6001600160a01b0381168114610f3d57600080fdfea264697066735822122023947b7a575e335d5d25e9e56517c482ebe3b5ae5bf7e0ef412fb0c01bc9b14d64736f6c634300060c0033",
  "bytecodeSha1": "c5c70762bab010febe8f348750b7599bbf342d98",
  "compiler": {
    "evm_version": "istanbul",
    "optimizer": {
      "enabled": true,
      "runs": 200
    },
    "version": "0.6.12+commit.27d51765"
  },
  "contractName": "TestStrategy",
  "deployedBytecode": "608060405234801561001057600080fd5b50600436106102745760003560e01c80638124b78e11610151578063d0e8577d116100c3578063efbb5cb011610087578063efbb5cb014610498578063f017c92f146104a0578063f8c8765e146104b3578063fba04a44146104c6578063fbfa77cf146104d9578063fcf2d0ad146104e157610274565b8063d0e8577d1461044f578063d64a42e914610462578063d653943a1461046a578063ec38a86214610472578063ed882c2b1461048557610274565b80639ec5a894116101155780639ec5a894146103fe578063aced166114610406578063b30db32c1461040e578063c7b9d53014610416578063ce5494bb14610429578063d05118421461043c57610274565b80638124b78e146103c05780638cdfe166146103d35780638e6350e2146103db57806391397ab4146103e357806395e80c50146103f657610274565b80632e1a7d4d116101ea5780635641ec03116101ae5780635641ec0314610364578063650d18801461036c5780636f392ce71461037f578063748747e614610387578063750521f51461039a578063780022a0146103ad57610274565b80632e1a7d4d1461032657806339a172a814610339578063440368a31461034c5780634641257d1461035457806352052af81461035c57610274565b80631d12f28b1161023c5780631d12f28b146102dc5780631f1fcd51146102f15780631fe4a6861461030657806322f3e2d41461030e578063258294101461031657806328b7ccf71461031e57610274565b806301681a621461027957806303aaab6f1461028e57806303ee438c146102ac57806306fdde03146102c15780630f969b87146102c9575b600080fd5b61028c610287366004612075565b6104e9565b005b61029661064d565b6040516102a39190612367565b60405180910390f35b6102b461065c565b6040516102a391906123a1565b6102b46106ea565b61028c6102d7366004612213565b610719565b6102e4610761565b6040516102a39190612586565b6102f9610767565b6040516102a39190612294565b6102f9610776565b610296610785565b6102b4610827565b6102e4610846565b6102e4610334366004612213565b61084c565b61028c610347366004612213565b6108a7565b61028c6108e4565b61028c610971565b61028c610b46565b610296610b65565b61029661037a366004612213565b610b6e565b610296610b74565b61028c610395366004612075565b610b82565b61028c6103a8366004612128565b610be8565b6102e46103bb366004612213565b610716565b6102f96103ce366004612075565b610c3a565b6102e4610cbe565b6102e4610cc4565b61028c6103f1366004612213565b610d6d565b6102e4610daa565b6102f9610db0565b6102f9610dbf565b61028c610dce565b61028c610424366004612075565b610def565b61028c610437366004612075565b610e55565b6102f961044a3660046120ad565b610f40565b61028c61045d366004612075565b611056565b610296611078565b6102f9611088565b61028c610480366004612075565b61108e565b610296610493366004612213565b611157565b6102e461120a565b61028c6104ae366004612213565b61128b565b61028c6104c13660046120ad565b6112c8565b61028c6104d4366004612213565b6112da565b6102f96112f1565b61028c611300565b6104f16114b5565b6005546001600160a01b03828116911614156105285760405162461bcd60e51b815260040161051f906123d4565b60405180910390fd5b6001546001600160a01b03828116911614156105565760405162461bcd60e51b815260040161051f9061244a565b60606105606114da565b905060005b81518110156105bb5781818151811061057a57fe5b60200260200101516001600160a01b0316836001600160a01b031614156105b35760405162461bcd60e51b815260040161051f9061250c565b600101610565565b50610649826105c861152c565b6040516370a0823160e01b81526001600160a01b038616906370a08231906105f4903090600401612294565b60206040518083038186803b15801561060c57600080fd5b505afa158015610620573d6000803e3d6000fd5b505050506040513d601f19601f82011682018060405250810190610644919061222b565b6115a9565b5050565b600a5462010000900460ff1681565b6000805460408051602060026001851615610100026000190190941693909304601f810184900484028201840190925281815292918301828280156106e25780601f106106b7576101008083540402835291602001916106e2565b820191906000526020600020905b8154815290600101906020018083116106c557829003601f168201915b505050505081565b60606106f4610827565b604051602001610704919061225f565b60405160208183030381529060405290505b90565b6107216115c8565b60098190556040517fa68ba126373d04c004c5748c300c9fca12bd444b3d4332e261f3bd2bac4a860090610756908390612586565b60405180910390a150565b60095481565b6005546001600160a01b031681565b6002546001600160a01b031681565b6001546040516339ebf82360e01b815260009182916001600160a01b03909116906339ebf823906107ba903090600401612294565b6101206040518083038186803b1580156107d357600080fd5b505afa1580156107e7573d6000803e3d6000fd5b505050506040513d601f19601f8201168201806040525081019061080b9190612195565b6040015111806108225750600061082061120a565b115b905090565b604080518082019091526005815264302e342e3360d81b602082015290565b60075481565b6001546000906001600160a01b031633146108795760405162461bcd60e51b815260040161051f9061242a565b6000610884836115ed565b6005549093509091506108a1906001600160a01b031633836115a9565b50919050565b6108af6115c8565b60068190556040517fbb2c369a0355a34b02ab5fce0643150c87e1c8dfe7c918d465591879f57948b190610756908390612586565b6108ec61185f565b6001546040805163bf3759b560e01b8152905161096f926001600160a01b03169163bf3759b5916004808301926020929190829003018186803b15801561093257600080fd5b505afa158015610946573d6000803e3d6000fd5b505050506040513d601f19601f8201168201806040525081019061096a919061222b565b610f3d565b565b61097961185f565b6000806000600160009054906101000a90046001600160a01b03166001600160a01b031663bf3759b56040518163ffffffff1660e01b815260040160206040518083038186803b1580156109cc57600080fd5b505afa1580156109e0573d6000803e3d6000fd5b505050506040513d601f19601f82011682018060405250810190610a04919061222b565b600a5490915060009060ff1615610a61576000610a1f6119d2565b905082811015610a3a57610a338382611a57565b9350610a4f565b82811115610a4f57610a4c8184611a57565b94505b610a598385611a57565b915050610a72565b610a6a82611aa0565b919550935090505b6001546040516328766ebf60e21b81526001600160a01b039091169063a1d9bafc90610aa6908790879086906004016125a6565b602060405180830381600087803b158015610ac057600080fd5b505af1158015610ad4573d6000803e3d6000fd5b505050506040513d601f19601f82011682018060405250810190610af8919061222b565b9150610b0382610f3d565b7f4c0f499ffe6befa0ca7c826b0916cf87bea98de658013e76938489368d60d50984848385604051610b3894939291906125bc565b60405180910390a150505050565b600a805462ff0000198116620100009182900460ff1615909102179055565b600a5460ff1681565b50600090565b600a54610100900460ff1681565b610b8a6115c8565b6001600160a01b038116610b9d57600080fd5b600480546001600160a01b0319166001600160a01b0383161790556040517f2f202ddb4a2e345f6323ed90f8fc8559d770a7abbbeee84dde8aca3351fe715490610756908390612294565b610bf06115c8565b610bfc60008383611fe2565b507f300e67d5a415b6d015a471d9c7b95dd58f3e8290af965e84e0f845de2996dda68282604051610c2e929190612372565b60405180910390a15050565b6040516368288c2160e11b8152600090309063d051184290610c669085903390819081906004016122c2565b602060405180830381600087803b158015610c8057600080fd5b505af1158015610c94573d6000803e3d6000fd5b505050506040513d601f19601f82011682018060405250810190610cb89190612091565b92915050565b60085481565b600a546000906301000000900460ff1615610d65576001546040516339ebf82360e01b81526001600160a01b03909116906339ebf82390610d09903090600401612294565b6101206040518083038186803b158015610d2257600080fd5b505afa158015610d36573d6000803e3d6000fd5b505050506040513d601f19601f82011682018060405250810190610d5a9190612195565b60c001519050610716565b506000610716565b610d756115c8565b60088190556040517fd94596337df4c2f0f44d30a7fc5db1c7bb60d9aca4185ed77c6fd96eb45ec29890610756908390612586565b60065481565b6003546001600160a01b031681565b6004546001600160a01b031681565b600a805463ff00000019811663010000009182900460ff1615909102179055565b610df76115c8565b6001600160a01b038116610e0a57600080fd5b600280546001600160a01b0319166001600160a01b0383161790556040517f352ececae6d7d1e6d26bcf2c549dfd55be1637e9b22dc0cf3b71ddb36097a6b490610756908390612294565b6001546001600160a01b03163314610e6c57600080fd5b6001546040805163fbfa77cf60e01b815290516001600160a01b039283169284169163fbfa77cf916004808301926020929190829003018186803b158015610eb357600080fd5b505afa158015610ec7573d6000803e3d6000fd5b505050506040513d601f19601f82011682018060405250810190610eeb9190612091565b6001600160a01b031614610efe57600080fd5b610f0781610f3d565b6005546040516370a0823160e01b8152610f3d916001600160a01b031690839082906370a08231906105f4903090600401612294565b50565b600a54600090610100900460ff16610f6a5760405162461bcd60e51b815260040161051f9061246b565b604051733d602d80600a3d3981f3363d3d373d3d3d363d7360601b81523060601b601482018190526e5af43d82803e903d91602b57fd5bf360881b6028830152906037816000f0604051637c643b2f60e11b81529093506001600160a01b038416915063f8c8765e90610fe79089908990899089906004016122c2565b600060405180830381600087803b15801561100157600080fd5b505af1158015611015573d6000803e3d6000fd5b50506040516001600160a01b03851692507f783540fb4221a3238720dc7038937d0d79982bcf895274aa6ad179f82cf0d53c9150600090a250949350505050565b600580546001600160a01b0319166001600160a01b0392909216919091179055565b600a546301000000900460ff1681565b610bad81565b611096611c14565b600380546001600160a01b038381166001600160a01b0319831617909255600154604051635b70bdbf60e11b81529183169273__$eb9b5892ae0349d1b5d3fad03cb4ae8f40$__9263b6e17b7e926110f89286928892909116906004016122ed565b60006040518083038186803b15801561111057600080fd5b505af4158015611124573d6000803e3d6000fd5b505050507fafbb66abf8f3b719799940473a4052a3717cdd8e40fb6c8a3faadab316b1a06982604051610c2e9190612294565b60015460009073__$eb9b5892ae0349d1b5d3fad03cb4ae8f40$__90634937cba9906001600160a01b03163061118c86610716565b6006546007546009546008546040518863ffffffff1660e01b81526004016111ba9796959493929190612310565b60206040518083038186803b1580156111d257600080fd5b505af41580156111e6573d6000803e3d6000fd5b505050506040513d601f19601f82011682018060405250810190610cb89190612108565b6005546040516370a0823160e01b81526000916001600160a01b0316906370a082319061123b903090600401612294565b60206040518083038186803b15801561125357600080fd5b505afa158015611267573d6000803e3d6000fd5b505050506040513d601f19601f82011682018060405250810190610822919061222b565b6112936115c8565b60078190556040517f5430e11864ad7aa9775b07d12657fe52df9aa2ba734355bd8ef8747be2c800c590610756908390612586565b6112d484848484611c4d565b50505050565b600554610f3d906001600160a01b031633836115a9565b6001546001600160a01b031681565b611308611e0e565b600a805460ff19166001908117909155546040805163507257cd60e11b815290516001600160a01b039092169163a0e4af9a9160048082019260009290919082900301818387803b15801561135c57600080fd5b505af1158015611370573d6000803e3d6000fd5b50506040517f97e963041e952738788b9d4871d854d282065b8f90a464928d6528f2e9a4fd0b925060009150a1565b8015806114275750604051636eb1769f60e11b81526001600160a01b0384169063dd62ed3e906113d590309086906004016122a8565b60206040518083038186803b1580156113ed57600080fd5b505afa158015611401573d6000803e3d6000fd5b505050506040513d601f19601f82011682018060405250810190611425919061222b565b155b6114435760405162461bcd60e51b815260040161051f90612530565b6114998363095ea7b360e01b848460405160240161146292919061234e565b60408051601f198184030181529190526020810180516001600160e01b03166001600160e01b031990931692909217909152611e2a565b505050565b60606114ad8484600085611eb9565b949350505050565b6114bd61152c565b6001600160a01b0316336001600160a01b03161461096f57600080fd5b60408051600180825281830190925260609182919060208083019080368337019050509050610bad8160008151811061150f57fe5b6001600160a01b0390921660209283029190910190910152905090565b60015460408051635aa6e67560e01b815290516000926001600160a01b031691635aa6e675916004808301926020929190829003018186803b15801561157157600080fd5b505afa158015611585573d6000803e3d6000fd5b505050506040513d601f19601f820116820180604052508101906108229190612091565b6114998363a9059cbb60e01b848460405160240161146292919061234e565b6002546001600160a01b03163314806115e457506114bd61152c565b61096f57600080fd5b600a54600090819062010000900460ff161561170a576001546040516370a0823160e01b81526000916001600160a01b0316906370a0823190611634903090600401612294565b60206040518083038186803b15801561164c57600080fd5b505afa158015611660573d6000803e3d6000fd5b505050506040513d601f19601f82011682018060405250810190611684919061222b565b600154604051627b8a6760e11b81529192506001600160a01b03169062f714ce906116b5908490309060040161258f565b602060405180830381600087803b1580156116cf57600080fd5b505af11580156116e3573d6000803e3d6000fd5b505050506040513d601f19601f82011682018060405250810190611707919061222b565b50505b6001546040516339ebf82360e01b81526000916001600160a01b0316906339ebf8239061173b903090600401612294565b6101206040518083038186803b15801561175457600080fd5b505afa158015611768573d6000803e3d6000fd5b505050506040513d601f19601f8201168201806040525081019061178c9190612195565b60c001516005546040516370a0823160e01b81529192506000916001600160a01b03909116906370a08231906117c6903090600401612294565b60206040518083038186803b1580156117de57600080fd5b505afa1580156117f2573d6000803e3d6000fd5b505050506040513d601f19601f82011682018060405250810190611816919061222b565b9050808511156118345792508261182d8582611a57565b9250611858565b80821115611854576118468282611a57565b925084831115611854578492505b8493505b5050915091565b6004546001600160a01b031633148061188257506002546001600160a01b031633145b806118a5575061189061152c565b6001600160a01b0316336001600160a01b0316145b806119465750600160009054906101000a90046001600160a01b03166001600160a01b031663452a93206040518163ffffffff1660e01b815260040160206040518083038186803b1580156118f957600080fd5b505afa15801561190d573d6000803e3d6000fd5b505050506040513d601f19601f820116820180604052508101906119319190612091565b6001600160a01b0316336001600160a01b0316145b806115e45750600160009054906101000a90046001600160a01b03166001600160a01b03166388a8d6026040518163ffffffff1660e01b815260040160206040518083038186803b15801561199a57600080fd5b505afa1580156119ae573d6000803e3d6000fd5b505050506040513d601f19601f820116820180604052508101906114bd9190612091565b6005546040516370a0823160e01b815260009182916001600160a01b03909116906370a0823190611a07903090600401612294565b60206040518083038186803b158015611a1f57600080fd5b505afa158015611a33573d6000803e3d6000fd5b505050506040513d601f19601f82011682018060405250810190610cb8919061222b565b6000611a9983836040518060400160405280601e81526020017f536166654d6174683a207375627472616374696f6e206f766572666c6f770000815250611f7d565b9392505050565b6005546040516370a0823160e01b81526000918291829182916001600160a01b03909116906370a0823190611ad9903090600401612294565b60206040518083038186803b158015611af157600080fd5b505afa158015611b05573d6000803e3d6000fd5b505050506040513d601f19601f82011682018060405250810190611b29919061222b565b6001546040516339ebf82360e01b81529192506000916001600160a01b03909116906339ebf82390611b5f903090600401612294565b6101206040518083038186803b158015611b7857600080fd5b505afa158015611b8c573d6000803e3d6000fd5b505050506040513d601f19601f82011682018060405250810190611bb09190612195565b60c00151905085821115611bd257859250611bcb8284611a57565b9150611bd9565b9091506000905b611be38184611a57565b905080821115611bfe57611bf78282611a57565b9450611c0b565b611c088183611a57565b93505b50509193909250565b611c1c61152c565b6001600160a01b0316336001600160a01b031614806115e457506002546001600160a01b0316331461096f57600080fd5b6005546001600160a01b031615611c765760405162461bcd60e51b815260040161051f906123f3565b600180546001600160a01b0319166001600160a01b03868116919091179182905560408051637e062a3560e11b81529051929091169163fc0c546a91600480820192602092909190829003018186803b158015611cd257600080fd5b505afa158015611ce6573d6000803e3d6000fd5b505050506040513d601f19601f82011682018060405250810190611d0a9190612091565b600580546001600160a01b0319166001600160a01b039283161790819055611d3691168560001961139f565b600280546001600160a01b038086166001600160a01b0319928316179092556003805485841690831617908190556004805485851693169290921782556000600681905562015180600755606460085560095560015460405163095ea7b360e01b81529084169363095ea7b393611db59390911691600019910161234e565b602060405180830381600087803b158015611dcf57600080fd5b505af1158015611de3573d6000803e3d6000fd5b505050506040513d601f19601f82011682018060405250810190611e079190612108565b5050505050565b6002546001600160a01b03163314806118a5575061189061152c565b6060611e7f826040518060400160405280602081526020017f5361666545524332303a206c6f772d6c6576656c2063616c6c206661696c6564815250856001600160a01b031661149e9092919063ffffffff16565b8051909150156114995780806020019051810190611e9d9190612108565b6114995760405162461bcd60e51b815260040161051f906124c2565b6060611ec485611fa9565b611ee05760405162461bcd60e51b815260040161051f9061248b565b60006060866001600160a01b03168587604051611efd9190612243565b60006040518083038185875af1925050503d8060008114611f3a576040519150601f19603f3d011682016040523d82523d6000602084013e611f3f565b606091505b50915091508115611f535791506114ad9050565b805115611f635780518082602001fd5b8360405162461bcd60e51b815260040161051f91906123a1565b60008184841115611fa15760405162461bcd60e51b815260040161051f91906123a1565b505050900390565b6000813f7fc5d2460186f7233c927e7db2dcc703c0e500b653ca82273b7bfad8045d85a4708181148015906114ad575050151592915050565b828054600181600116156101000203166002900490600052602060002090601f016020900481019282601f106120235782800160ff19823516178555612050565b82800160010185558215612050579182015b82811115612050578235825591602001919060010190612035565b5061205c929150612060565b5090565b5b8082111561205c5760008155600101612061565b600060208284031215612086578081fd5b8135611a998161262a565b6000602082840312156120a2578081fd5b8151611a998161262a565b600080600080608085870312156120c2578283fd5b84356120cd8161262a565b935060208501356120dd8161262a565b925060408501356120ed8161262a565b915060608501356120fd8161262a565b939692955090935050565b600060208284031215612119578081fd5b81518015158114611a99578182fd5b6000806020838503121561213a578182fd5b823567ffffffffffffffff80821115612151578384fd5b818501915085601f830112612164578384fd5b813581811115612172578485fd5b866020828501011115612183578485fd5b60209290920196919550909350505050565b60006101208083850312156121a8578182fd5b6121b1816125d7565b9050825181526020830151602082015260408301516040820152606083015160608201526080830151608082015260a083015160a082015260c083015160c082015260e083015160e08201526101008084015181830152508091505092915050565b600060208284031215612224578081fd5b5035919050565b60006020828403121561223c578081fd5b5051919050565b600082516122558184602087016125fe565b9190910192915050565b60006c02a32b9ba29ba3930ba32b3bc9609d1b8252825161228781600d8501602087016125fe565b91909101600d0192915050565b6001600160a01b0391909116815260200190565b6001600160a01b0392831681529116602082015260400190565b6001600160a01b03948516815292841660208401529083166040830152909116606082015260800190565b6001600160a01b0393841681529183166020830152909116604082015260600190565b6001600160a01b03978816815295909616602086015260408501939093526060840191909152608083015260a082015260c081019190915260e00190565b6001600160a01b03929092168252602082015260400190565b901515815260200190565b60006020825282602083015282846040840137818301604090810191909152601f909201601f19160101919050565b60006020825282518060208401526123c08160408501602087016125fe565b601f01601f19169190910160400192915050565b602080825260059082015264085dd85b9d60da1b604082015260600190565b6020808252601c908201527f537472617465677920616c726561647920696e697469616c697a656400000000604082015260600190565b602080825260069082015265085d985d5b1d60d21b604082015260600190565b6020808252600790820152662173686172657360c81b604082015260600190565b60208082526006908201526521636c6f6e6560d01b604082015260600190565b6020808252601d908201527f416464726573733a2063616c6c20746f206e6f6e2d636f6e7472616374000000604082015260600190565b6020808252602a908201527f5361666545524332303a204552433230206f7065726174696f6e20646964206e6040820152691bdd081cdd58d8d9595960b21b606082015260800190565b6020808252600a9082015269085c1c9bdd1958dd195960b21b604082015260600190565b60208082526036908201527f5361666545524332303a20617070726f76652066726f6d206e6f6e2d7a65726f60408201527520746f206e6f6e2d7a65726f20616c6c6f77616e636560501b606082015260800190565b90815260200190565b9182526001600160a01b0316602082015260400190565b9283526020830191909152604082015260600190565b93845260208401929092526040830152606082015260800190565b60405181810167ffffffffffffffff811182821017156125f657600080fd5b604052919050565b60005b83811015612619578181015183820152602001612601565b838111156112d45750506000910152565b6001600160a01b0381168114610f3d57600080fdfea264697066735822122023947b7a575e335d5d25e9e56517c482ebe3b5ae5bf7e0ef412fb0c01bc9b14d64736f6c634300060c0033",
  "language": "Solidity",
  "natspec": {
    "kind": "dev",
    "methods": {
      "apiVersion()": {
        "details": "The Strategy's version must match the Vault's `API_VERSION`.",
        "notice": "Used to track which version of `StrategyAPI` this Strategy  implements.",
        "returns": {
          "_0": "A string which holds the current API version of this contract."
        }
      },
      "delegatedAssets()": {
        "details": "You can override this field to set it to a non-zero value if some of the assets of this  Strategy is somehow delegated inside another part of of Yearn's ecosystem e.g. another Vault.  Note that this value must be strictly less than or equal to the amount provided by  `estimatedTotalAssets()` below, as the TVL calc will be total assets minus delegated assets.  Also note that this value is used to determine the total assets under management by this  strategy, for the purposes of computing the management fee in `Vault`",
        "notice": "The amount (priced in want) of the total assets managed by this strategy should not count  towards Yearn's TVL calculations.",
        "returns": {
          "_0": "The amount of assets this strategy manages that should not be included in Yearn's Total Value  Locked (TVL) calculation across it's ecosystem."
        }
      },
      "estimatedTotalAssets()": {
        "details": "Care must be taken in using this function, since it relies on external  systems, which could be manipulated by the attacker to give an inflated  (or reduced) value produced by this function, based on current on-chain  conditions (e.g. this function is possible to influence through  flashloan attacks, oracle manipulations, or other DeFi attack  mechanisms).  It is up to governance to use this function to correctly order this  Strategy relative to its peers in the withdrawal queue to minimize  losses for the Vault based on sudden withdrawals. This value should be  higher than the total debt of the Strategy and higher than its expected  value to be \"safe\".",
        "notice": "Provide an accurate estimate for the total amount of assets  (principle + return) that this Strategy is currently managing,  denominated in terms of `want` tokens.  This total should be \"realizable\" e.g. the total value that could  *actually* be obtained from this Strategy if it were to divest its  entire position based on current on-chain conditions.",
        "returns": {
          "_0": "The estimated total assets in this Strategy."
        }
      },
      "harvest()": {
        "details": "When `harvest()` is called, the Strategy reports to the Vault (via  `vault.report()`), so in some cases `harvest()` must be called in order  to take in profits, to borrow newly available funds from the Vault, or  otherwise adjust its position. In other cases `harvest()` must be  called to report to the Vault on the Strategy's position, especially if  any losses have occurred.",
        "notice": "Harvests the Strategy, recognizing any profits or losses and adjusting  the Strategy's position.  In the rare case the Strategy is in emergency shutdown, this will exit  the Strategy's position.  This may only be called by governance, the strategist, or the keeper."
      },
      "harvestTrigger(uint256)": {
        "details": "`callCostInWei` must be priced in terms of `wei` (1e-18 ETH).  This call and `tendTrigger` should never return `true` at the  same time.  See `min/maxReportDelay`, `profitFactor`, `debtThreshold` to adjust the  strategist-controlled parameters that will influence whether this call  returns `true` or not. These parameters will be used in conjunction  with the parameters reported to the Vault (see `params`) to determine  if calling `harvest()` is merited.  It is expected that an external system will check `harvestTrigger()`.  This could be a script run off a desktop or cloud bot (e.g.  https://github.com/iearn-finance/yearn-vaults/blob/main/scripts/keep.py),  or via an integration with the Keep3r network (e.g.  https://github.com/Macarse/GenericKeep3rV2/blob/master/contracts/keep3r/GenericKeep3rV2.sol).",
        "notice": "Provide a signal to the keeper that `harvest()` should be called. The  keeper will provide the estimated gas cost that they would pay to call  `harvest()`, and this function should use that estimate to make a  determination if calling it is \"worth it\" for the keeper. This is not  the only consideration into issuing this trigger, for example if the  position would be negatively affected if `harvest()` is not called  shortly, then this can return `true` even if the keeper might be \"at a  loss\" (keepers are always reimbursed by Yearn).",
        "params": {
          "callCostInWei": "The keeper's estimated gas cost to call `harvest()` (in wei)."
        },
        "returns": {
          "_0": "`true` if `harvest()` should be called, `false` otherwise."
        }
      },
      "migrate(address)": {
        "details": "The new Strategy's Vault must be the same as this Strategy's Vault.  The migration process should be carefully performed to make sure all the assets are migrated to the new address, which should have never interacted with the vault before.",
        "notice": "Transfers all `want` from this Strategy to `_newStrategy`.  This may only be called by the Vault.",
        "params": {
          "_newStrategy": "The Strategy to migrate to."
        }
      },
      "name()": {
        "details": "You can use this field to manage the \"version\" of this Strategy, e.g.  `StrategySomethingOrOtherV1`. However, \"API Version\" is managed by  `apiVersion()` function above.",
        "notice": "This Strategy's name.",
        "returns": {
          "_0": "This Strategy's name."
        }
      },
      "setDebtThreshold(uint256)": {
        "notice": "Sets how far the Strategy can go into loss without a harvest and report  being required.  By default this is 0, meaning any losses would cause a harvest which  will subsequently report the loss to the Vault for tracking. (See  `harvestTrigger()` for more details.)  This may only be called by governance or the strategist.",
        "params": {
          "_debtThreshold": "How big of a loss this Strategy may carry without being required to report to the Vault."
        }
      },
      "setEmergencyExit()": {
        "details": "See `vault.setEmergencyShutdown()` and `harvest()` for further details.",
        "notice": "Activates emergency exit. Once activated, the Strategy will exit its  position upon the next harvest, depositing all funds into the Vault as  quickly as is reasonable given on-chain conditions.  This may only be called by governance or the strategist."
      },
      "setKeeper(address)": {
        "notice": "Used to change `keeper`.  `keeper` is the only address that may call `tend()` or `harvest()`,  other than `governance()` or `strategist`. However, unlike  `governance()` or `strategist`, `keeper` may *only* call `tend()`  and `harvest()`, and no other authorized functions, following the  principle of least privilege.  This may only be called by governance or the strategist.",
        "params": {
          "_keeper": "The new address to assign as `keeper`."
        }
      },
      "setMaxReportDelay(uint256)": {
        "notice": "Used to change `maxReportDelay`. `maxReportDelay` is the maximum number  of blocks that should pass for `harvest()` to be called.  For external keepers (such as the Keep3r network), this is the maximum  time between jobs to wait. (see `harvestTrigger()`  for more details.)  This may only be called by governance or the strategist.",
        "params": {
          "_delay": "The maximum number of seconds to wait between harvests."
        }
      },
      "setMetadataURI(string)": {
        "notice": "Used to change `metadataURI`. `metadataURI` is used to store the URI of the file describing the strategy.  This may only be called by governance or the strategist.",
        "params": {
          "_metadataURI": "The URI that describe the strategy."
        }
      },
      "setMinReportDelay(uint256)": {
        "notice": "Used to change `minReportDelay`. `minReportDelay` is the minimum number  of blocks that should pass for `harvest()` to be called.  For external keepers (such as the Keep3r network), this is the minimum  time between jobs to wait. (see `harvestTrigger()`  for more details.)  This may only be called by governance or the strategist.",
        "params": {
          "_delay": "The minimum number of seconds to wait between harvests."
        }
      },
      "setProfitFactor(uint256)": {
        "notice": "Used to change `profitFactor`. `profitFactor` is used to determine  if it's worthwhile to harvest, given gas costs. (See `harvestTrigger()`  for more details.)  This may only be called by governance or the strategist.",
        "params": {
          "_profitFactor": "A ratio to multiply anticipated `harvest()` gas cost against."
        }
      },
      "setRewards(address)": {
        "notice": "Used to change `rewards`. EOA or smart contract which has the permission  to pull rewards from the vault.  This may only be called by the strategist.",
        "params": {
          "_rewards": "The address to use for pulling rewards."
        }
      },
      "setStrategist(address)": {
        "notice": "Used to change `strategist`.  This may only be called by governance or the existing strategist.",
        "params": {
          "_strategist": "The new address to assign as `strategist`."
        }
      },
      "sweep(address)": {
        "details": "Implement `protectedTokens()` to specify any additional tokens that  should be protected from sweeping in addition to `want`.",
        "notice": "Removes tokens from this Strategy that are not the type of tokens  managed by this Strategy. This may be used in case of accidentally  sending the wrong kind of token to this Strategy.  Tokens will be sent to `governance()`.  This will fail if an attempt is made to sweep `want`, or any tokens  that are protected by this Strategy.  This may only be called by governance.",
        "params": {
          "_token": "The token to transfer out of this vault."
        }
      },
      "tend()": {
        "notice": "Adjust the Strategy's position. The purpose of tending isn't to  realize gains, but to maximize yield by reinvesting any returns.  See comments on `adjustPosition()`.  This may only be called by governance, the strategist, or the keeper."
      },
      "tendTrigger(uint256)": {
        "details": "`callCostInWei` must be priced in terms of `wei` (1e-18 ETH).  This call and `harvestTrigger()` should never return `true` at the same  time.",
        "notice": "Provide a signal to the keeper that `tend()` should be called. The  keeper will provide the estimated gas cost that they would pay to call  `tend()`, and this function should use that estimate to make a  determination if calling it is \"worth it\" for the keeper. This is not  the only consideration into issuing this trigger, for example if the  position would be negatively affected if `tend()` is not called  shortly, then this can return `true` even if the keeper might be  \"at a loss\" (keepers are always reimbursed by Yearn).",
        "params": {
          "callCostInWei": "The keeper's estimated gas cost to call `tend()` (in wei)."
        },
        "returns": {
          "_0": "`true` if `tend()` should be called, `false` otherwise."
        }
      },
      "withdraw(uint256)": {
        "notice": "Withdraws `_amountNeeded` to `vault`.  This may only be called by the Vault.",
        "params": {
          "_amountNeeded": "How much `want` to withdraw."
        },
        "returns": {
          "_loss": "Any realized losses"
        }
      }
    },
    "version": 1
  },
  "opcodes": "PUSH1 0x80 PUSH1 0x40 MSTORE CALLVALUE DUP1 ISZERO PUSH2 0x10 JUMPI PUSH1 0x0 DUP1 REVERT JUMPDEST POP PUSH1 0x4 CALLDATASIZE LT PUSH2 0x274 JUMPI PUSH1 0x0 CALLDATALOAD PUSH1 0xE0 SHR DUP1 PUSH4 0x8124B78E GT PUSH2 0x151 JUMPI DUP1 PUSH4 0xD0E8577D GT PUSH2 0xC3 JUMPI DUP1 PUSH4 0xEFBB5CB0 GT PUSH2 0x87 JUMPI DUP1 PUSH4 0xEFBB5CB0 EQ PUSH2 0x498 JUMPI DUP1 PUSH4 0xF017C92F EQ PUSH2 0x4A0 JUMPI DUP1 PUSH4 0xF8C8765E EQ PUSH2 0x4B3 JUMPI DUP1 PUSH4 0xFBA04A44 EQ PUSH2 0x4C6 JUMPI DUP1 PUSH4 0xFBFA77CF EQ PUSH2 0x4D9 JUMPI DUP1 PUSH4 0xFCF2D0AD EQ PUSH2 0x4E1 JUMPI PUSH2 0x274 JUMP JUMPDEST DUP1 PUSH4 0xD0E8577D EQ PUSH2 0x44F JUMPI DUP1 PUSH4 0xD64A42E9 EQ PUSH2 0x462 JUMPI DUP1 PUSH4 0xD653943A EQ PUSH2 0x46A JUMPI DUP1 PUSH4 0xEC38A862 EQ PUSH2 0x472 JUMPI DUP1 PUSH4 0xED882C2B EQ PUSH2 0x485 JUMPI PUSH2 0x274 JUMP JUMPDEST DUP1 PUSH4 0x9EC5A894 GT PUSH2 0x115 JUMPI DUP1 PUSH4 0x9EC5A894 EQ PUSH2 0x3FE JUMPI DUP1 PUSH4 0xACED1661 EQ PUSH2 0x406 JUMPI DUP1 PUSH4 0xB30DB32C EQ PUSH2 0x40E JUMPI DUP1 PUSH4 0xC7B9D530 EQ PUSH2 0x416 JUMPI DUP1 PUSH4 0xCE5494BB EQ PUSH2 0x429 JUMPI DUP1 PUSH4 0xD0511842 EQ PUSH2 0x43C JUMPI PUSH2 0x274 JUMP JUMPDEST DUP1 PUSH4 0x8124B78E EQ PUSH2 0x3C0 JUMPI DUP1 PUSH4 0x8CDFE166 EQ PUSH2 0x3D3 JUMPI DUP1 PUSH4 0x8E6350E2 EQ PUSH2 0x3DB JUMPI DUP1 PUSH4 0x91397AB4 EQ PUSH2 0x3E3 JUMPI DUP1 PUSH4 0x95E80C50 EQ PUSH2 0x3F6 JUMPI PUSH2 0x274 JUMP JUMPDEST DUP1 PUSH4 0x2E1A7D4D GT PUSH2 0x1EA JUMPI DUP1 PUSH4 0x5641EC03 GT PUSH2 0x1AE JUMPI DUP1 PUSH4 0x5641EC03 EQ PUSH2 0x364 JUMPI DUP1 PUSH4 0x650D1880 EQ PUSH2 0x36C JUMPI DUP1 PUSH4 0x6F392CE7 EQ PUSH2 0x37F JUMPI DUP1 PUSH4 0x748747E6 EQ PUSH2 0x387 JUMPI DUP1 PUSH4 0x750521F5 EQ PUSH2 0x39A JUMPI DUP1 PUSH4 0x780022A0 EQ PUSH2 0x3AD JUMPI PUSH2 0x274 JUMP JUMPDEST DUP1 PUSH4 0x2E1A7D4D EQ PUSH2 0x326 JUMPI DUP1 PUSH4 0x39A172A8 EQ PUSH2 0x339 JUMPI DUP1 PUSH4 0x440368A3 EQ PUSH2 0x34C JUMPI DUP1 PUSH4 0x4641257D EQ PUSH2 0x354 JUMPI DUP1 PUSH4 0x52052AF8 EQ PUSH2 0x35C JUMPI PUSH2 0x274 JUMP JUMPDEST DUP1 PUSH4 0x1D12F28B GT PUSH2 0x23C JUMPI DUP1 PUSH4 0x1D12F28B EQ PUSH2 0x2DC JUMPI DUP1 PUSH4 0x1F1FCD51 EQ PUSH2 0x2F1 JUMPI DUP1 PUSH4 0x1FE4A686 EQ PUSH2 0x306 JUMPI DUP1 PUSH4 0x22F3E2D4 EQ PUSH2 0x30E JUMPI DUP1 PUSH4 0x25829410 EQ PUSH2 0x316 JUMPI DUP1 PUSH4 0x28B7CCF7 EQ PUSH2 0x31E JUMPI PUSH2 0x274 JUMP JUMPDEST DUP1 PUSH4 0x1681A62 EQ PUSH2 0x279 JUMPI DUP1 PUSH4 0x3AAAB6F EQ PUSH2 0x28E JUMPI DUP1 PUSH4 0x3EE438C EQ PUSH2 0x2AC JUMPI DUP1 PUSH4 0x6FDDE03 EQ PUSH2 0x2C1 JUMPI DUP1 PUSH4 0xF969B87 EQ PUSH2 0x2C9 JUMPI JUMPDEST PUSH1 0x0 DUP1 REVERT JUMPDEST PUSH2 0x28C PUSH2 0x287 CALLDATASIZE PUSH1 0x4 PUSH2 0x2075 JUMP JUMPDEST PUSH2 0x4E9 JUMP JUMPDEST STOP JUMPDEST PUSH2 0x296 PUSH2 0x64D JUMP JUMPDEST PUSH1 0x40 MLOAD PUSH2 0x2A3 SWAP2 SWAP1 PUSH2 0x2367 JUMP JUMPDEST PUSH1 0x40 MLOAD DUP1 SWAP2 SUB SWAP1 RETURN JUMPDEST PUSH2 0x2B4 PUSH2 0x65C JUMP JUMPDEST PUSH1 0x40 MLOAD PUSH2 0x2A3 SWAP2 SWAP1 PUSH2 0x23A1 JUMP JUMPDEST PUSH2 0x2B4 PUSH2 0x6EA JUMP JUMPDEST PUSH2 0x28C PUSH2 0x2D7 CALLDATASIZE PUSH1 0x4 PUSH2 0x2213 JUMP JUMPDEST PUSH2 0x719 JUMP JUMPDEST PUSH2 0x2E4 PUSH2 0x761 JUMP JUMPDEST PUSH1 0x40 MLOAD PUSH2 0x2A3 SWAP2 SWAP1 PUSH2 0x2586 JUMP JUMPDEST PUSH2 0x2F9 PUSH2 0x767 JUMP JUMPDEST PUSH1 0x40 MLOAD PUSH2 0x2A3 SWAP2 SWAP1 PUSH2 0x2294 JUMP JUMPDEST PUSH2 0x2F9 PUSH2 0x776 JUMP JUMPDEST PUSH2 0x296 PUSH2 0x785 JUMP JUMPDEST PUSH2 0x2B4 PUSH2 0x827 JUMP JUMPDEST PUSH2 0x2E4 PUSH2 0x846 JUMP JUMPDEST PUSH2 0x2E4 PUSH2 0x334 CALLDATASIZE PUSH1 0x4 PUSH2 0x2213 JUMP JUMPDEST PUSH2 0x84C JUMP JUMPDEST PUSH2 0x28C PUSH2 0x347 CALLDATASIZE PUSH1 0x4 PUSH2 0x2213 JUMP JUMPDEST PUSH2 0x8A7 JUMP JUMPDEST PUSH2 0x28C PUSH2 0x8E4 JUMP JUMPDEST PUSH2 0x28C PUSH2 0x971 JUMP JUMPDEST PUSH2 0x28C PUSH2 0xB46 JUMP JUMPDEST PUSH2 0x296 PUSH2 0xB65 JUMP JUMPDEST PUSH2 0x296 PUSH2 0x37A CALLDATASIZE PUSH1 0x4 PUSH2 0x2213 JUMP JUMPDEST PUSH2 0xB6E JUMP JUMPDEST PUSH2 0x296 PUSH2 0xB74 JUMP JUMPDEST PUSH2 0x28C PUSH2 0x395 CALLDATASIZE PUSH1 0x4 PUSH2 0x2075 JUMP JUMPDEST PUSH2 0xB82 JUMP JUMPDEST PUSH2 0x28C PUSH2 0x3A8 CALLDATASIZE PUSH1 0x4 PUSH2 0x2128 JUMP JUMPDEST PUSH2 0xBE8 JUMP JUMPDEST PUSH2 0x2E4 PUSH2 0x3BB CALLDATASIZE PUSH1 0x4 PUSH2 0x2213 JUMP JUMPDEST PUSH2 0x716 JUMP JUMPDEST PUSH2 0x2F9 PUSH2 0x3CE CALLDATASIZE PUSH1 0x4 PUSH2 0x2075 JUMP JUMPDEST PUSH2 0xC3A JUMP JUMPDEST PUSH2 0x2E4 PUSH2 0xCBE JUMP JUMPDEST PUSH2 0x2E4 PUSH2 0xCC4 JUMP JUMPDEST PUSH2 0x28C PUSH2 0x3F1 CALLDATASIZE PUSH1 0x4 PUSH2 0x2213 JUMP JUMPDEST PUSH2 0xD6D JUMP JUMPDEST PUSH2 0x2E4 PUSH2 0xDAA JUMP JUMPDEST PUSH2 0x2F9 PUSH2 0xDB0 JUMP JUMPDEST PUSH2 0x2F9 PUSH2 0xDBF JUMP JUMPDEST PUSH2 0x28C PUSH2 0xDCE JUMP JUMPDEST PUSH2 0x28C PUSH2 0x424 CALLDATASIZE PUSH1 0x4 PUSH2 0x2075 JUMP JUMPDEST PUSH2 0xDEF JUMP JUMPDEST PUSH2 0x28C PUSH2 0x437 CALLDATASIZE PUSH1 0x4 PUSH2 0x2075 JUMP JUMPDEST PUSH2 0xE55 JUMP JUMPDEST PUSH2 0x2F9 PUSH2 0x44A CALLDATASIZE PUSH1 0x4 PUSH2 0x20AD JUMP JUMPDEST PUSH2 0xF40 JUMP JUMPDEST PUSH2 0x28C PUSH2 0x45D CALLDATASIZE PUSH1 0x4 PUSH2 0x2075 JUMP JUMPDEST PUSH2 0x1056 JUMP JUMPDEST PUSH2 0x296 PUSH2 0x1078 JUMP JUMPDEST PUSH2 0x2F9 PUSH2 0x1088 JUMP JUMPDEST PUSH2 0x28C PUSH2 0x480 CALLDATASIZE PUSH1 0x4 PUSH2 0x2075 JUMP JUMPDEST PUSH2 0x108E JUMP JUMPDEST PUSH2 0x296 PUSH2 0x493 CALLDATASIZE PUSH1 0x4 PUSH2 0x2213 JUMP JUMPDEST PUSH2 0x1157 JUMP JUMPDEST PUSH2 0x2E4 PUSH2 0x120A JUMP JUMPDEST PUSH2 0x28C PUSH2 0x4AE CALLDATASIZE PUSH1 0x4 PUSH2 0x2213 JUMP JUMPDEST PUSH2 0x128B JUMP JUMPDEST PUSH2 0x28C PUSH2 0x4C1 CALLDATASIZE PUSH1 0x4 PUSH2 0x20AD JUMP JUMPDEST PUSH2 0x12C8 JUMP JUMPDEST PUSH2 0x28C PUSH2 0x4D4 CALLDATASIZE PUSH1 0x4 PUSH2 0x2213 JUMP JUMPDEST PUSH2 0x12DA JUMP JUMPDEST PUSH2 0x2F9 PUSH2 0x12F1 JUMP JUMPDEST PUSH2 0x28C PUSH2 0x1300 JUMP JUMPDEST PUSH2 0x4F1 PUSH2 0x14B5 JUMP JUMPDEST PUSH1 0x5 SLOAD PUSH1 0x1 PUSH1 0x1 PUSH1 0xA0 SHL SUB DUP3 DUP2 AND SWAP2 AND EQ ISZERO PUSH2 0x528 JUMPI PUSH1 0x40 MLOAD PUSH3 0x461BCD PUSH1 0xE5 SHL DUP2 MSTORE PUSH1 0x4 ADD PUSH2 0x51F SWAP1 PUSH2 0x23D4 JUMP JUMPDEST PUSH1 0x40 MLOAD DUP1 SWAP2 SUB SWAP1 REVERT JUMPDEST PUSH1 0x1 SLOAD PUSH1 0x1 PUSH1 0x1 PUSH1 0xA0 SHL SUB DUP3 DUP2 AND SWAP2 AND EQ ISZERO PUSH2 0x556 JUMPI PUSH1 0x40 MLOAD PUSH3 0x461BCD PUSH1 0xE5 SHL DUP2 MSTORE PUSH1 0x4 ADD PUSH2 0x51F SWAP1 PUSH2 0x244A JUMP JUMPDEST PUSH1 0x60 PUSH2 0x560 PUSH2 0x14DA JUMP JUMPDEST SWAP1 POP PUSH1 0x0 JUMPDEST DUP2 MLOAD DUP2 LT ISZERO PUSH2 0x5BB JUMPI DUP2 DUP2 DUP2 MLOAD DUP2 LT PUSH2 0x57A JUMPI INVALID JUMPDEST PUSH1 0x20 MUL PUSH1 0x20 ADD ADD MLOAD PUSH1 0x1 PUSH1 0x1 PUSH1 0xA0 SHL SUB AND DUP4 PUSH1 0x1 PUSH1 0x1 PUSH1 0xA0 SHL SUB AND EQ ISZERO PUSH2 0x5B3 JUMPI PUSH1 0x40 MLOAD PUSH3 0x461BCD PUSH1 0xE5 SHL DUP2 MSTORE PUSH1 0x4 ADD PUSH2 0x51F SWAP1 PUSH2 0x250C JUMP JUMPDEST PUSH1 0x1 ADD PUSH2 0x565 JUMP JUMPDEST POP PUSH2 0x649 DUP3 PUSH2 0x5C8 PUSH2 0x152C JUMP JUMPDEST PUSH1 0x40 MLOAD PUSH4 0x70A08231 PUSH1 0xE0 SHL DUP2 MSTORE PUSH1 0x1 PUSH1 0x1 PUSH1 0xA0 SHL SUB DUP7 AND SWAP1 PUSH4 0x70A08231 SWAP1 PUSH2 0x5F4 SWAP1 ADDRESS SWAP1 PUSH1 0x4 ADD PUSH2 0x2294 JUMP JUMPDEST PUSH1 0x20 PUSH1 0x40 MLOAD DUP1 DUP4 SUB DUP2 DUP7 DUP1 EXTCODESIZE ISZERO DUP1 ISZERO PUSH2 0x60C JUMPI PUSH1 0x0 DUP1 REVERT JUMPDEST POP GAS STATICCALL ISZERO DUP1 ISZERO PUSH2 0x620 JUMPI RETURNDATASIZE PUSH1 0x0 DUP1 RETURNDATACOPY RETURNDATASIZE PUSH1 0x0 REVERT JUMPDEST POP POP POP POP PUSH1 0x40 MLOAD RETURNDATASIZE PUSH1 0x1F NOT PUSH1 0x1F DUP3 ADD AND DUP3 ADD DUP1 PUSH1 0x40 MSTORE POP DUP2 ADD SWAP1 PUSH2 0x644 SWAP2 SWAP1 PUSH2 0x222B JUMP JUMPDEST PUSH2 0x15A9 JUMP JUMPDEST POP POP JUMP JUMPDEST PUSH1 0xA SLOAD PUSH3 0x10000 SWAP1 DIV PUSH1 0xFF AND DUP2 JUMP JUMPDEST PUSH1 0x0 DUP1 SLOAD PUSH1 0x40 DUP1 MLOAD PUSH1 0x20 PUSH1 0x2 PUSH1 0x1 DUP6 AND ISZERO PUSH2 0x100 MUL PUSH1 0x0 NOT ADD SWAP1 SWAP5 AND SWAP4 SWAP1 SWAP4 DIV PUSH1 0x1F DUP2 ADD DUP5 SWAP1 DIV DUP5 MUL DUP3 ADD DUP5 ADD SWAP1 SWAP3 MSTORE DUP2 DUP2 MSTORE SWAP3 SWAP2 DUP4 ADD DUP3 DUP3 DUP1 ISZERO PUSH2 0x6E2 JUMPI DUP1 PUSH1 0x1F LT PUSH2 0x6B7 JUMPI PUSH2 0x100 DUP1 DUP4 SLOAD DIV MUL DUP4 MSTORE SWAP2 PUSH1 0x20 ADD SWAP2 PUSH2 0x6E2 JUMP JUMPDEST DUP3 ADD SWAP2 SWAP1 PUSH1 0x0 MSTORE PUSH1 0x20 PUSH1 0x0 KECCAK256 SWAP1 JUMPDEST DUP2 SLOAD DUP2 MSTORE SWAP1 PUSH1 0x1 ADD SWAP1 PUSH1 0x20 ADD DUP1 DUP4 GT PUSH2 0x6C5 JUMPI DUP3 SWAP1 SUB PUSH1 0x1F AND DUP3 ADD SWAP2 JUMPDEST POP POP POP POP POP DUP2 JUMP JUMPDEST PUSH1 0x60 PUSH2 0x6F4 PUSH2 0x827 JUMP JUMPDEST PUSH1 0x40 MLOAD PUSH1 0x20 ADD PUSH2 0x704 SWAP2 SWAP1 PUSH2 0x225F JUMP JUMPDEST PUSH1 0x40 MLOAD PUSH1 0x20 DUP2 DUP4 SUB SUB DUP2 MSTORE SWAP1 PUSH1 0x40 MSTORE SWAP1 POP JUMPDEST SWAP1 JUMP JUMPDEST PUSH2 0x721 PUSH2 0x15C8 JUMP JUMPDEST PUSH1 0x9 DUP2 SWAP1 SSTORE PUSH1 0x40 MLOAD PUSH32 0xA68BA126373D04C004C5748C300C9FCA12BD444B3D4332E261F3BD2BAC4A8600 SWAP1 PUSH2 0x756 SWAP1 DUP4 SWAP1 PUSH2 0x2586 JUMP JUMPDEST PUSH1 0x40 MLOAD DUP1 SWAP2 SUB SWAP1 LOG1 POP JUMP JUMPDEST PUSH1 0x9 SLOAD DUP2 JUMP JUMPDEST PUSH1 0x5 SLOAD PUSH1 0x1 PUSH1 0x1 PUSH1 0xA0 SHL SUB AND DUP2 JUMP JUMPDEST PUSH1 0x2 SLOAD PUSH1 0x1 PUSH1 0x1 PUSH1 0xA0 SHL SUB AND DUP2 JUMP JUMPDEST PUSH1 0x1 SLOAD PUSH1 0x40 MLOAD PUSH4 0x39EBF823 PUSH1 0xE0 SHL DUP2 MSTORE PUSH1 0x0 SWAP2 DUP3 SWAP2 PUSH1 0x1 PUSH1 0x1 PUSH1 0xA0 SHL SUB SWAP1 SWAP2 AND SWAP1 PUSH4 0x39EBF823 SWAP1 PUSH2 0x7BA SWAP1 ADDRESS SWAP1 PUSH1 0x4 ADD PUSH2 0x2294 JUMP JUMPDEST PUSH2 0x120 PUSH1 0x40 MLOAD DUP1 DUP4 SUB DUP2 DUP7 DUP1 EXTCODESIZE ISZERO DUP1 ISZERO PUSH2 0x7D3 JUMPI PUSH1 0x0 DUP1 REVERT JUMPDEST POP GAS STATICCALL ISZERO DUP1 ISZERO PUSH2 0x7E7 JUMPI RETURNDATASIZE PUSH1 0x0 DUP1 RETURNDATACOPY RETURNDATASIZE PUSH1 0x0 REVERT JUMPDEST POP POP POP POP PUSH1 0x40 MLOAD RETURNDATASIZE PUSH1 0x1F NOT PUSH1 0x1F DUP3 ADD AND DUP3 ADD DUP1 PUSH1 0x40 MSTORE POP DUP2 ADD SWAP1 PUSH2 0x80B SWAP2 SWAP1 PUSH2 0x2195 JUMP JUMPDEST PUSH1 0x40 ADD MLOAD GT DUP1 PUSH2 0x822 JUMPI POP PUSH1 0x0 PUSH2 0x820 PUSH2 0x120A JUMP JUMPDEST GT JUMPDEST SWAP1 POP SWAP1 JUMP JUMPDEST PUSH1 0x40 DUP1 MLOAD DUP1 DUP3 ADD SWAP1 SWAP2 MSTORE PUSH1 0x5 DUP2 MSTORE PUSH5 0x302E342E33 PUSH1 0xD8 SHL PUSH1 0x20 DUP3 ADD MSTORE SWAP1 JUMP JUMPDEST PUSH1 0x7 SLOAD DUP2 JUMP JUMPDEST PUSH1 0x1 SLOAD PUSH1 0x0 SWAP1 PUSH1 0x1 PUSH1 0x1 PUSH1 0xA0 SHL SUB AND CALLER EQ PUSH2 0x879 JUMPI PUSH1 0x40 MLOAD PUSH3 0x461BCD PUSH1 0xE5 SHL DUP2 MSTORE PUSH1 0x4 ADD PUSH2 0x51F SWAP1 PUSH2 0x242A JUMP JUMPDEST PUSH1 0x0 PUSH2 0x884 DUP4 PUSH2 0x15ED JUMP JUMPDEST PUSH1 0x5 SLOAD SWAP1 SWAP4 POP SWAP1 SWAP2 POP PUSH2 0x8A1 SWAP1 PUSH1 0x1 PUSH1 0x1 PUSH1 0xA0 SHL SUB AND CALLER DUP4 PUSH2 0x15A9 JUMP JUMPDEST POP SWAP2 SWAP1 POP JUMP JUMPDEST PUSH2 0x8AF PUSH2 0x15C8 JUMP JUMPDEST PUSH1 0x6 DUP2 SWAP1 SSTORE PUSH1 0x40 MLOAD PUSH32 0xBB2C369A0355A34B02AB5FCE0643150C87E1C8DFE7C918D465591879F57948B1 SWAP1 PUSH2 0x756 SWAP1 DUP4 SWAP1 PUSH2 0x2586 JUMP JUMPDEST PUSH2 0x8EC PUSH2 0x185F JUMP JUMPDEST PUSH1 0x1 SLOAD PUSH1 0x40 DUP1 MLOAD PUSH4 0xBF3759B5 PUSH1 0xE0 SHL DUP2 MSTORE SWAP1 MLOAD PUSH2 0x96F SWAP3 PUSH1 0x1 PUSH1 0x1 PUSH1 0xA0 SHL SUB AND SWAP2 PUSH4 0xBF3759B5 SWAP2 PUSH1 0x4 DUP1 DUP4 ADD SWAP3 PUSH1 0x20 SWAP3 SWAP2 SWAP1 DUP3 SWAP1 SUB ADD DUP2 DUP7 DUP1 EXTCODESIZE ISZERO DUP1 ISZERO PUSH2 0x932 JUMPI PUSH1 0x0 DUP1 REVERT JUMPDEST POP GAS STATICCALL ISZERO DUP1 ISZERO PUSH2 0x946 JUMPI RETURNDATASIZE PUSH1 0x0 DUP1 RETURNDATACOPY RETURNDATASIZE PUSH1 0x0 REVERT JUMPDEST POP POP POP POP PUSH1 0x40 MLOAD RETURNDATASIZE PUSH1 0x1F NOT PUSH1 0x1F DUP3 ADD AND DUP3 ADD DUP1 PUSH1 0x40 MSTORE POP DUP2 ADD SWAP1 PUSH2 0x96A SWAP2 SWAP1 PUSH2 0x222B JUMP JUMPDEST PUSH2 0xF3D JUMP JUMPDEST JUMP JUMPDEST PUSH2 0x979 PUSH2 0x185F JUMP JUMPDEST PUSH1 0x0 DUP1 PUSH1 0x0 PUSH1 0x1 PUSH1 0x0 SWAP1 SLOAD SWAP1 PUSH2 0x100 EXP SWAP1 DIV PUSH1 0x1 PUSH1 0x1 PUSH1 0xA0 SHL SUB AND PUSH1 0x1 PUSH1 0x1 PUSH1 0xA0 SHL SUB AND PUSH4 0xBF3759B5 PUSH1 0x40 MLOAD DUP2 PUSH4 0xFFFFFFFF AND PUSH1 0xE0 SHL DUP2 MSTORE PUSH1 0x4 ADD PUSH1 0x20 PUSH1 0x40 MLOAD DUP1 DUP4 SUB DUP2 DUP7 DUP1 EXTCODESIZE ISZERO DUP1 ISZERO PUSH2 0x9CC JUMPI PUSH1 0x0 DUP1 REVERT JUMPDEST POP GAS STATICCALL ISZERO DUP1 ISZERO PUSH2 0x9E0 JUMPI RETURNDATASIZE PUSH1 0x0 DUP1 RETURNDATACOPY RETURNDATASIZE PUSH1 0x0 REVERT JUMPDEST POP POP POP POP PUSH1 0x40 MLOAD RETURNDATASIZE PUSH1 0x1F NOT PUSH1 0x1F DUP3 ADD AND DUP3 ADD DUP1 PUSH1 0x40 MSTORE POP DUP2 ADD SWAP1 PUSH2 0xA04 SWAP2 SWAP1 PUSH2 0x222B JUMP JUMPDEST PUSH1 0xA SLOAD SWAP1 SWAP2 POP PUSH1 0x0 SWAP1 PUSH1 0xFF AND ISZERO PUSH2 0xA61 JUMPI PUSH1 0x0 PUSH2 0xA1F PUSH2 0x19D2 JUMP JUMPDEST SWAP1 POP DUP3 DUP2 LT ISZERO PUSH2 0xA3A JUMPI PUSH2 0xA33 DUP4 DUP3 PUSH2 0x1A57 JUMP JUMPDEST SWAP4 POP PUSH2 0xA4F JUMP JUMPDEST DUP3 DUP2 GT ISZERO PUSH2 0xA4F JUMPI PUSH2 0xA4C DUP2 DUP5 PUSH2 0x1A57 JUMP JUMPDEST SWAP5 POP JUMPDEST PUSH2 0xA59 DUP4 DUP6 PUSH2 0x1A57 JUMP JUMPDEST SWAP2 POP POP PUSH2 0xA72 JUMP JUMPDEST PUSH2 0xA6A DUP3 PUSH2 0x1AA0 JUMP JUMPDEST SWAP2 SWAP6 POP SWAP4 POP SWAP1 POP JUMPDEST PUSH1 0x1 SLOAD PUSH1 0x40 MLOAD PUSH4 0x28766EBF PUSH1 0xE2 SHL DUP2 MSTORE PUSH1 0x1 PUSH1 0x1 PUSH1 0xA0 SHL SUB SWAP1 SWAP2 AND SWAP1 PUSH4 0xA1D9BAFC SWAP1 PUSH2 0xAA6 SWAP1 DUP8 SWAP1 DUP8 SWAP1 DUP7 SWAP1 PUSH1 0x4 ADD PUSH2 0x25A6 JUMP JUMPDEST PUSH1 0x20 PUSH1 0x40 MLOAD DUP1 DUP4 SUB DUP2 PUSH1 0x0 DUP8 DUP1 EXTCODESIZE ISZERO DUP1 ISZERO PUSH2 0xAC0 JUMPI PUSH1 0x0 DUP1 REVERT JUMPDEST POP GAS CALL ISZERO DUP1 ISZERO PUSH2 0xAD4 JUMPI RETURNDATASIZE PUSH1 0x0 DUP1 RETURNDATACOPY RETURNDATASIZE PUSH1 0x0 REVERT JUMPDEST POP POP POP POP PUSH1 0x40 MLOAD RETURNDATASIZE PUSH1 0x1F NOT PUSH1 0x1F DUP3 ADD AND DUP3 ADD DUP1 PUSH1 0x40 MSTORE POP DUP2 ADD SWAP1 PUSH2 0xAF8 SWAP2 SWAP1 PUSH2 0x222B JUMP JUMPDEST SWAP2 POP PUSH2 0xB03 DUP3 PUSH2 0xF3D JUMP JUMPDEST PUSH32 0x4C0F499FFE6BEFA0CA7C826B0916CF87BEA98DE658013E76938489368D60D509 DUP5 DUP5 DUP4 DUP6 PUSH1 0x40 MLOAD PUSH2 0xB38 SWAP5 SWAP4 SWAP3 SWAP2 SWAP1 PUSH2 0x25BC JUMP JUMPDEST PUSH1 0x40 MLOAD DUP1 SWAP2 SUB SWAP1 LOG1 POP POP POP POP JUMP JUMPDEST PUSH1 0xA DUP1 SLOAD PUSH3 0xFF0000 NOT DUP2 AND PUSH3 0x10000 SWAP2 DUP3 SWAP1 DIV PUSH1 0xFF AND ISZERO SWAP1 SWAP2 MUL OR SWAP1 SSTORE JUMP JUMPDEST PUSH1 0xA SLOAD PUSH1 0xFF AND DUP2 JUMP JUMPDEST POP PUSH1 0x0 SWAP1 JUMP JUMPDEST PUSH1 0xA SLOAD PUSH2 0x100 SWAP1 DIV PUSH1 0xFF AND DUP2 JUMP JUMPDEST PUSH2 0xB8A PUSH2 0x15C8 JUMP JUMPDEST PUSH1 0x1 PUSH1 0x1 PUSH1 0xA0 SHL SUB DUP2 AND PUSH2 0xB9D JUMPI PUSH1 0x0 DUP1 REVERT JUMPDEST PUSH1 0x4 DUP1 SLOAD PUSH1 0x1 PUSH1 0x1 PUSH1 0xA0 SHL SUB NOT AND PUSH1 0x1 PUSH1 0x1 PUSH1 0xA0 SHL SUB DUP4 AND OR SWAP1 SSTORE PUSH1 0x40 MLOAD PUSH32 0x2F202DDB4A2E345F6323ED90F8FC8559D770A7ABBBEEE84DDE8ACA3351FE7154 SWAP1 PUSH2 0x756 SWAP1 DUP4 SWAP1 PUSH2 0x2294 JUMP JUMPDEST PUSH2 0xBF0 PUSH2 0x15C8 JUMP JUMPDEST PUSH2 0xBFC PUSH1 0x0 DUP4 DUP4 PUSH2 0x1FE2 JUMP JUMPDEST POP PUSH32 0x300E67D5A415B6D015A471D9C7B95DD58F3E8290AF965E84E0F845DE2996DDA6 DUP3 DUP3 PUSH1 0x40 MLOAD PUSH2 0xC2E SWAP3 SWAP2 SWAP1 PUSH2 0x2372 JUMP JUMPDEST PUSH1 0x40 MLOAD DUP1 SWAP2 SUB SWAP1 LOG1 POP POP JUMP JUMPDEST PUSH1 0x40 MLOAD PUSH4 0x68288C21 PUSH1 0xE1 SHL DUP2 MSTORE PUSH1 0x0 SWAP1 ADDRESS SWAP1 PUSH4 0xD0511842 SWAP1 PUSH2 0xC66 SWAP1 DUP6 SWAP1 CALLER SWAP1 DUP2 SWAP1 DUP2 SWAP1 PUSH1 0x4 ADD PUSH2 0x22C2 JUMP JUMPDEST PUSH1 0x20 PUSH1 0x40 MLOAD DUP1 DUP4 SUB DUP2 PUSH1 0x0 DUP8 DUP1 EXTCODESIZE ISZERO DUP1 ISZERO PUSH2 0xC80 JUMPI PUSH1 0x0 DUP1 REVERT JUMPDEST POP GAS CALL ISZERO DUP1 ISZERO PUSH2 0xC94 JUMPI RETURNDATASIZE PUSH1 0x0 DUP1 RETURNDATACOPY RETURNDATASIZE PUSH1 0x0 REVERT JUMPDEST POP POP POP POP PUSH1 0x40 MLOAD RETURNDATASIZE PUSH1 0x1F NOT PUSH1 0x1F DUP3 ADD AND DUP3 ADD DUP1 PUSH1 0x40 MSTORE POP DUP2 ADD SWAP1 PUSH2 0xCB8 SWAP2 SWAP1 PUSH2 0x2091 JUMP JUMPDEST SWAP3 SWAP2 POP POP JUMP JUMPDEST PUSH1 0x8 SLOAD DUP2 JUMP JUMPDEST PUSH1 0xA SLOAD PUSH1 0x0 SWAP1 PUSH4 0x1000000 SWAP1 DIV PUSH1 0xFF AND ISZERO PUSH2 0xD65 JUMPI PUSH1 0x1 SLOAD PUSH1 0x40 MLOAD PUSH4 0x39EBF823 PUSH1 0xE0 SHL DUP2 MSTORE PUSH1 0x1 PUSH1 0x1 PUSH1 0xA0 SHL SUB SWAP1 SWAP2 AND SWAP1 PUSH4 0x39EBF823 SWAP1 PUSH2 0xD09 SWAP1 ADDRESS SWAP1 PUSH1 0x4 ADD PUSH2 0x2294 JUMP JUMPDEST PUSH2 0x120 PUSH1 0x40 MLOAD DUP1 DUP4 SUB DUP2 DUP7 DUP1 EXTCODESIZE ISZERO DUP1 ISZERO PUSH2 0xD22 JUMPI PUSH1 0x0 DUP1 REVERT JUMPDEST POP GAS STATICCALL ISZERO DUP1 ISZERO PUSH2 0xD36 JUMPI RETURNDATASIZE PUSH1 0x0 DUP1 RETURNDATACOPY RETURNDATASIZE PUSH1 0x0 REVERT JUMPDEST POP POP POP POP PUSH1 0x40 MLOAD RETURNDATASIZE PUSH1 0x1F NOT PUSH1 0x1F DUP3 ADD AND DUP3 ADD DUP1 PUSH1 0x40 MSTORE POP DUP2 ADD SWAP1 PUSH2 0xD5A SWAP2 SWAP1 PUSH2 0x2195 JUMP JUMPDEST PUSH1 0xC0 ADD MLOAD SWAP1 POP PUSH2 0x716 JUMP JUMPDEST POP PUSH1 0x0 PUSH2 0x716 JUMP JUMPDEST PUSH2 0xD75 PUSH2 0x15C8 JUMP JUMPDEST PUSH1 0x8 DUP2 SWAP1 SSTORE PUSH1 0x40 MLOAD PUSH32 0xD94596337DF4C2F0F44D30A7FC5DB1C7BB60D9ACA4185ED77C6FD96EB45EC298 SWAP1 PUSH2 0x756 SWAP1 DUP4 SWAP1 PUSH2 0x2586 JUMP JUMPDEST PUSH1 0x6 SLOAD DUP2 JUMP JUMPDEST PUSH1 0x3 SLOAD PUSH1 0x1 PUSH1 0x1 PUSH1 0xA0 SHL SUB AND DUP2 JUMP JUMPDEST PUSH1 0x4 SLOAD PUSH1 0x1 PUSH1 0x1 PUSH1 0xA0 SHL SUB AND DUP2 JUMP JUMPDEST PUSH1 0xA DUP1 SLOAD PUSH4 0xFF000000 NOT DUP2 AND PUSH4 0x1000000 SWAP2 DUP3 SWAP1 DIV PUSH1 0xFF AND ISZERO SWAP1 SWAP2 MUL OR SWAP1 SSTORE JUMP JUMPDEST PUSH2 0xDF7 PUSH2 0x15C8 JUMP JUMPDEST PUSH1 0x1 PUSH1 0x1 PUSH1 0xA0 SHL SUB DUP2 AND PUSH2 0xE0A JUMPI PUSH1 0x0 DUP1 REVERT JUMPDEST PUSH1 0x2 DUP1 SLOAD PUSH1 0x1 PUSH1 0x1 PUSH1 0xA0 SHL SUB NOT AND PUSH1 0x1 PUSH1 0x1 PUSH1 0xA0 SHL SUB DUP4 AND OR SWAP1 SSTORE PUSH1 0x40 MLOAD PUSH32 0x352ECECAE6D7D1E6D26BCF2C549DFD55BE1637E9B22DC0CF3B71DDB36097A6B4 SWAP1 PUSH2 0x756 SWAP1 DUP4 SWAP1 PUSH2 0x2294 JUMP JUMPDEST PUSH1 0x1 SLOAD PUSH1 0x1 PUSH1 0x1 PUSH1 0xA0 SHL SUB AND CALLER EQ PUSH2 0xE6C JUMPI PUSH1 0x0 DUP1 REVERT JUMPDEST PUSH1 0x1 SLOAD PUSH1 0x40 DUP1 MLOAD PUSH4 0xFBFA77CF PUSH1 0xE0 SHL DUP2 MSTORE SWAP1 MLOAD PUSH1 0x1 PUSH1 0x1 PUSH1 0xA0 SHL SUB SWAP3 DUP4 AND SWAP3 DUP5 AND SWAP2 PUSH4 0xFBFA77CF SWAP2 PUSH1 0x4 DUP1 DUP4 ADD SWAP3 PUSH1 0x20 SWAP3 SWAP2 SWAP1 DUP3 SWAP1 SUB ADD DUP2 DUP7 DUP1 EXTCODESIZE ISZERO DUP1 ISZERO PUSH2 0xEB3 JUMPI PUSH1 0x0 DUP1 REVERT JUMPDEST POP GAS STATICCALL ISZERO DUP1 ISZERO PUSH2 0xEC7 JUMPI RETURNDATASIZE PUSH1 0x0 DUP1 RETURNDATACOPY RETURNDATASIZE PUSH1 0x0 REVERT JUMPDEST POP POP POP POP PUSH1 0x40 MLOAD RETURNDATASIZE PUSH1 0x1F NOT PUSH1 0x1F DUP3 ADD AND DUP3 ADD DUP1 PUSH1 0x40 MSTORE POP DUP2 ADD SWAP1 PUSH2 0xEEB SWAP2 SWAP1 PUSH2 0x2091 JUMP JUMPDEST PUSH1 0x1 PUSH1 0x1 PUSH1 0xA0 SHL SUB AND EQ PUSH2 0xEFE JUMPI PUSH1 0x0 DUP1 REVERT JUMPDEST PUSH2 0xF07 DUP2 PUSH2 0xF3D JUMP JUMPDEST PUSH1 0x5 SLOAD PUSH1 0x40 MLOAD PUSH4 0x70A08231 PUSH1 0xE0 SHL DUP2 MSTORE PUSH2 0xF3D SWAP2 PUSH1 0x1 PUSH1 0x1 PUSH1 0xA0 SHL SUB AND SWAP1 DUP4 SWAP1 DUP3 SWAP1 PUSH4 0x70A08231 SWAP1 PUSH2 0x5F4 SWAP1 ADDRESS SWAP1 PUSH1 0x4 ADD PUSH2 0x2294 JUMP JUMPDEST POP JUMP JUMPDEST PUSH1 0xA SLOAD PUSH1 0x0 SWAP1 PUSH2 0x100 SWAP1 DIV PUSH1 0xFF AND PUSH2 0xF6A JUMPI PUSH1 0x40 MLOAD PUSH3 0x461BCD PUSH1 0xE5 SHL DUP2 MSTORE PUSH1 0x4 ADD PUSH2 0x51F SWAP1 PUSH2 0x246B JUMP JUMPDEST PUSH1 0x40 MLOAD PUSH20 0x3D602D80600A3D3981F3363D3D373D3D3D363D73 PUSH1 0x60 SHL DUP2 MSTORE ADDRESS PUSH1 0x60 SHL PUSH1 0x14 DUP3 ADD DUP2 SWAP1 MSTORE PUSH15 0x5AF43D82803E903D91602B57FD5BF3 PUSH1 0x88 SHL PUSH1 0x28 DUP4 ADD MSTORE SWAP1 PUSH1 0x37 DUP2 PUSH1 0x0 CREATE PUSH1 0x40 MLOAD PUSH4 0x7C643B2F PUSH1 0xE1 SHL DUP2 MSTORE SWAP1 SWAP4 POP PUSH1 0x1 PUSH1 0x1 PUSH1 0xA0 SHL SUB DUP5 AND SWAP2 POP PUSH4 0xF8C8765E SWAP1 PUSH2 0xFE7 SWAP1 DUP10 SWAP1 DUP10 SWAP1 DUP10 SWAP1 DUP10 SWAP1 PUSH1 0x4 ADD PUSH2 0x22C2 JUMP JUMPDEST PUSH1 0x0 PUSH1 0x40 MLOAD DUP1 DUP4 SUB DUP2 PUSH1 0x0 DUP8 DUP1 EXTCODESIZE ISZERO DUP1 ISZERO PUSH2 0x1001 JUMPI PUSH1 0x0 DUP1 REVERT JUMPDEST POP GAS CALL ISZERO DUP1 ISZERO PUSH2 0x1015 JUMPI RETURNDATASIZE PUSH1 0x0 DUP1 RETURNDATACOPY RETURNDATASIZE PUSH1 0x0 REVERT JUMPDEST POP POP PUSH1 0x40 MLOAD PUSH1 0x1 PUSH1 0x1 PUSH1 0xA0 SHL SUB DUP6 AND SWAP3 POP PUSH32 0x783540FB4221A3238720DC7038937D0D79982BCF895274AA6AD179F82CF0D53C SWAP2 POP PUSH1 0x0 SWAP1 LOG2 POP SWAP5 SWAP4 POP POP POP POP JUMP JUMPDEST PUSH1 0x5 DUP1 SLOAD PUSH1 0x1 PUSH1 0x1 PUSH1 0xA0 SHL SUB NOT AND PUSH1 0x1 PUSH1 0x1 PUSH1 0xA0 SHL SUB SWAP3 SWAP1 SWAP3 AND SWAP2 SWAP1 SWAP2 OR SWAP1 SSTORE JUMP JUMPDEST PUSH1 0xA SLOAD PUSH4 0x1000000 SWAP1 DIV PUSH1 0xFF AND DUP2 JUMP JUMPDEST PUSH2 0xBAD DUP2 JUMP JUMPDEST PUSH2 0x1096 PUSH2 0x1C14 JUMP JUMPDEST PUSH1 0x3 DUP1 SLOAD PUSH1 0x1 PUSH1 0x1 PUSH1 0xA0 SHL SUB DUP4 DUP2 AND PUSH1 0x1 PUSH1 0x1 PUSH1 0xA0 SHL SUB NOT DUP4 AND OR SWAP1 SWAP3 SSTORE PUSH1 0x1 SLOAD PUSH1 0x40 MLOAD PUSH4 0x5B70BDBF PUSH1 0xE1 SHL DUP2 MSTORE SWAP2 DUP4 AND SWAP3 PUSH20 0x0 SWAP3 PUSH4 0xB6E17B7E SWAP3 PUSH2 0x10F8 SWAP3 DUP7 SWAP3 DUP9 SWAP3 SWAP1 SWAP2 AND SWAP1 PUSH1 0x4 ADD PUSH2 0x22ED JUMP JUMPDEST PUSH1 0x0 PUSH1 0x40 MLOAD DUP1 DUP4 SUB DUP2 DUP7 DUP1 EXTCODESIZE ISZERO DUP1 ISZERO PUSH2 0x1110 JUMPI PUSH1 0x0 DUP1 REVERT JUMPDEST POP GAS DELEGATECALL ISZERO DUP1 ISZERO PUSH2 0x1124 JUMPI RETURNDATASIZE PUSH1 0x0 DUP1 RETURNDATACOPY RETURNDATASIZE PUSH1 0x0 REVERT JUMPDEST POP POP POP POP PUSH32 0xAFBB66ABF8F3B719799940473A4052A3717CDD8E40FB6C8A3FAADAB316B1A069 DUP3 PUSH1 0x40 MLOAD PUSH2 0xC2E SWAP2 SWAP1 PUSH2 0x2294 JUMP JUMPDEST PUSH1 0x1 SLOAD PUSH1 0x0 SWAP1 PUSH20 0x0 SWAP1 PUSH4 0x4937CBA9 SWAP1 PUSH1 0x1 PUSH1 0x1 PUSH1 0xA0 SHL SUB AND ADDRESS PUSH2 0x118C DUP7 PUSH2 0x716 JUMP JUMPDEST PUSH1 0x6 SLOAD PUSH1 0x7 SLOAD PUSH1 0x9 SLOAD PUSH1 0x8 SLOAD PUSH1 0x40 MLOAD DUP9 PUSH4 0xFFFFFFFF AND PUSH1 0xE0 SHL DUP2 MSTORE PUSH1 0x4 ADD PUSH2 0x11BA SWAP8 SWAP7 SWAP6 SWAP5 SWAP4 SWAP3 SWAP2 SWAP1 PUSH2 0x2310 JUMP JUMPDEST PUSH1 0x20 PUSH1 0x40 MLOAD DUP1 DUP4 SUB DUP2 DUP7 DUP1 EXTCODESIZE ISZERO DUP1 ISZERO PUSH2 0x11D2 JUMPI PUSH1 0x0 DUP1 REVERT JUMPDEST POP GAS DELEGATECALL ISZERO DUP1 ISZERO PUSH2 0x11E6 JUMPI RETURNDATASIZE PUSH1 0x0 DUP1 RETURNDATACOPY RETURNDATASIZE PUSH1 0x0 REVERT JUMPDEST POP POP POP POP PUSH1 0x40 MLOAD RETURNDATASIZE PUSH1 0x1F NOT PUSH1 0x1F DUP3 ADD AND DUP3 ADD DUP1 PUSH1 0x40 MSTORE POP DUP2 ADD SWAP1 PUSH2 0xCB8 SWAP2 SWAP1 PUSH2 0x2108 JUMP JUMPDEST PUSH1 0x5 SLOAD PUSH1 0x40 MLOAD PUSH4 0x70A08231 PUSH1 0xE0 SHL DUP2 MSTORE PUSH1 0x0 SWAP2 PUSH1 0x1 PUSH1 0x1 PUSH1 0xA0 SHL SUB AND SWAP1 PUSH4 0x70A08231 SWAP1 PUSH2 0x123B SWAP1 ADDRESS SWAP1 PUSH1 0x4 ADD PUSH2 0x2294 JUMP JUMPDEST PUSH1 0x20 PUSH1 0x40 MLOAD DUP1 DUP4 SUB DUP2 DUP7 DUP1 EXTCODESIZE ISZERO DUP1 ISZERO PUSH2 0x1253 JUMPI PUSH1 0x0 DUP1 REVERT JUMPDEST POP GAS STATICCALL ISZERO DUP1 ISZERO PUSH2 0x1267 JUMPI RETURNDATASIZE PUSH1 0x0 DUP1 RETURNDATACOPY RETURNDATASIZE PUSH1 0x0 REVERT JUMPDEST POP POP POP POP PUSH1 0x40 MLOAD RETURNDATASIZE PUSH1 0x1F NOT PUSH1 0x1F DUP3 ADD AND DUP3 ADD DUP1 PUSH1 0x40 MSTORE POP DUP2 ADD SWAP1 PUSH2 0x822 SWAP2 SWAP1 PUSH2 0x222B JUMP JUMPDEST PUSH2 0x1293 PUSH2 0x15C8 JUMP JUMPDEST PUSH1 0x7 DUP2 SWAP1 SSTORE PUSH1 0x40 MLOAD PUSH32 0x5430E11864AD7AA9775B07D12657FE52DF9AA2BA734355BD8EF8747BE2C800C5 SWAP1 PUSH2 0x756 SWAP1 DUP4 SWAP1 PUSH2 0x2586 JUMP JUMPDEST PUSH2 0x12D4 DUP5 DUP5 DUP5 DUP5 PUSH2 0x1C4D JUMP JUMPDEST POP POP POP POP JUMP JUMPDEST PUSH1 0x5 SLOAD PUSH2 0xF3D SWAP1 PUSH1 0x1 PUSH1 0x1 PUSH1 0xA0 SHL SUB AND CALLER DUP4 PUSH2 0x15A9 JUMP JUMPDEST PUSH1 0x1 SLOAD PUSH1 0x1 PUSH1 0x1 PUSH1 0xA0 SHL SUB AND DUP2 JUMP JUMPDEST PUSH2 0x1308 PUSH2 0x1E0E JUMP JUMPDEST PUSH1 0xA DUP1 SLOAD PUSH1 0xFF NOT AND PUSH1 0x1 SWAP1 DUP2 OR SWAP1 SWAP2 SSTORE SLOAD PUSH1 0x40 DUP1 MLOAD PUSH4 0x507257CD PUSH1 0xE1 SHL DUP2 MSTORE SWAP1 MLOAD PUSH1 0x1 PUSH1 0x1 PUSH1 0xA0 SHL SUB SWAP1 SWAP3 AND SWAP2 PUSH4 0xA0E4AF9A SWAP2 PUSH1 0x4 DUP1 DUP3 ADD SWAP3 PUSH1 0x0 SWAP3 SWAP1 SWAP2 SWAP1 DUP3 SWAP1 SUB ADD DUP2 DUP4 DUP8 DUP1 EXTCODESIZE ISZERO DUP1 ISZERO PUSH2 0x135C JUMPI PUSH1 0x0 DUP1 REVERT JUMPDEST POP GAS CALL ISZERO DUP1 ISZERO PUSH2 0x1370 JUMPI RETURNDATASIZE PUSH1 0x0 DUP1 RETURNDATACOPY RETURNDATASIZE PUSH1 0x0 REVERT JUMPDEST POP POP PUSH1 0x40 MLOAD PUSH32 0x97E963041E952738788B9D4871D854D282065B8F90A464928D6528F2E9A4FD0B SWAP3 POP PUSH1 0x0 SWAP2 POP LOG1 JUMP JUMPDEST DUP1 ISZERO DUP1 PUSH2 0x1427 JUMPI POP PUSH1 0x40 MLOAD PUSH4 0x6EB1769F PUSH1 0xE1 SHL DUP2 MSTORE PUSH1 0x1 PUSH1 0x1 PUSH1 0xA0 SHL SUB DUP5 AND SWAP1 PUSH4 0xDD62ED3E SWAP1 PUSH2 0x13D5 SWAP1 ADDRESS SWAP1 DUP7 SWAP1 PUSH1 0x4 ADD PUSH2 0x22A8 JUMP JUMPDEST PUSH1 0x20 PUSH1 0x40 MLOAD DUP1 DUP4 SUB DUP2 DUP7 DUP1 EXTCODESIZE ISZERO DUP1 ISZERO PUSH2 0x13ED JUMPI PUSH1 0x0 DUP1 REVERT JUMPDEST POP GAS STATICCALL ISZERO DUP1 ISZERO PUSH2 0x1401 JUMPI RETURNDATASIZE PUSH1 0x0 DUP1 RETURNDATACOPY RETURNDATASIZE PUSH1 0x0 REVERT JUMPDEST POP POP POP POP PUSH1 0x40 MLOAD RETURNDATASIZE PUSH1 0x1F NOT PUSH1 0x1F DUP3 ADD AND DUP3 ADD DUP1 PUSH1 0x40 MSTORE POP DUP2 ADD SWAP1 PUSH2 0x1425 SWAP2 SWAP1 PUSH2 0x222B JUMP JUMPDEST ISZERO JUMPDEST PUSH2 0x1443 JUMPI PUSH1 0x40 MLOAD PUSH3 0x461BCD PUSH1 0xE5 SHL DUP2 MSTORE PUSH1 0x4 ADD PUSH2 0x51F SWAP1 PUSH2 0x2530 JUMP JUMPDEST PUSH2 0x1499 DUP4 PUSH4 0x95EA7B3 PUSH1 0xE0 SHL DUP5 DUP5 PUSH1 0x40 MLOAD PUSH1 0x24 ADD PUSH2 0x1462 SWAP3 SWAP2 SWAP1 PUSH2 0x234E JUMP JUMPDEST PUSH1 0x40 DUP1 MLOAD PUSH1 0x1F NOT DUP2 DUP5 SUB ADD DUP2 MSTORE SWAP2 SWAP1 MSTORE PUSH1 0x20 DUP2 ADD DUP1 MLOAD PUSH1 0x1 PUSH1 0x1 PUSH1 0xE0 SHL SUB AND PUSH1 0x1 PUSH1 0x1 PUSH1 0xE0 SHL SUB NOT SWAP1 SWAP4 AND SWAP3 SWAP1 SWAP3 OR SWAP1 SWAP2 MSTORE PUSH2 0x1E2A JUMP JUMPDEST POP POP POP JUMP JUMPDEST PUSH1 0x60 PUSH2 0x14AD DUP5 DUP5 PUSH1 0x0 DUP6 PUSH2 0x1EB9 JUMP JUMPDEST SWAP5 SWAP4 POP POP POP POP JUMP JUMPDEST PUSH2 0x14BD PUSH2 0x152C JUMP JUMPDEST PUSH1 0x1 PUSH1 0x1 PUSH1 0xA0 SHL SUB AND CALLER PUSH1 0x1 PUSH1 0x1 PUSH1 0xA0 SHL SUB AND EQ PUSH2 0x96F JUMPI PUSH1 0x0 DUP1 REVERT JUMPDEST PUSH1 0x40 DUP1 MLOAD PUSH1 0x1 DUP1 DUP3 MSTORE DUP2 DUP4 ADD SWAP1 SWAP3 MSTORE PUSH1 0x60 SWAP2 DUP3 SWAP2 SWAP1 PUSH1 0x20 DUP1 DUP4 ADD SWAP1 DUP1 CALLDATASIZE DUP4 CALLDATACOPY ADD SWAP1 POP POP SWAP1 POP PUSH2 0xBAD DUP2 PUSH1 0x0 DUP2 MLOAD DUP2 LT PUSH2 0x150F JUMPI INVALID JUMPDEST PUSH1 0x1 PUSH1 0x1 PUSH1 0xA0 SHL SUB SWAP1 SWAP3 AND PUSH1 0x20 SWAP3 DUP4 MUL SWAP2 SWAP1 SWAP2 ADD SWAP1 SWAP2 ADD MSTORE SWAP1 POP SWAP1 JUMP JUMPDEST PUSH1 0x1 SLOAD PUSH1 0x40 DUP1 MLOAD PUSH4 0x5AA6E675 PUSH1 0xE0 SHL DUP2 MSTORE SWAP1 MLOAD PUSH1 0x0 SWAP3 PUSH1 0x1 PUSH1 0x1 PUSH1 0xA0 SHL SUB AND SWAP2 PUSH4 0x5AA6E675 SWAP2 PUSH1 0x4 DUP1 DUP4 ADD SWAP3 PUSH1 0x20 SWAP3 SWAP2 SWAP1 DUP3 SWAP1 SUB ADD DUP2 DUP7 DUP1 EXTCODESIZE ISZERO DUP1 ISZERO PUSH2 0x1571 JUMPI PUSH1 0x0 DUP1 REVERT JUMPDEST POP GAS STATICCALL ISZERO DUP1 ISZERO PUSH2 0x1585 JUMPI RETURNDATASIZE PUSH1 0x0 DUP1 RETURNDATACOPY RETURNDATASIZE PUSH1 0x0 REVERT JUMPDEST POP POP POP POP PUSH1 0x40 MLOAD RETURNDATASIZE PUSH1 0x1F NOT PUSH1 0x1F DUP3 ADD AND DUP3 ADD DUP1 PUSH1 0x40 MSTORE POP DUP2 ADD SWAP1 PUSH2 0x822 SWAP2 SWAP1 PUSH2 0x2091 JUMP JUMPDEST PUSH2 0x1499 DUP4 PUSH4 0xA9059CBB PUSH1 0xE0 SHL DUP5 DUP5 PUSH1 0x40 MLOAD PUSH1 0x24 ADD PUSH2 0x1462 SWAP3 SWAP2 SWAP1 PUSH2 0x234E JUMP JUMPDEST PUSH1 0x2 SLOAD PUSH1 0x1 PUSH1 0x1 PUSH1 0xA0 SHL SUB AND CALLER EQ DUP1 PUSH2 0x15E4 JUMPI POP PUSH2 0x14BD PUSH2 0x152C JUMP JUMPDEST PUSH2 0x96F JUMPI PUSH1 0x0 DUP1 REVERT JUMPDEST PUSH1 0xA SLOAD PUSH1 0x0 SWAP1 DUP2 SWAP1 PUSH3 0x10000 SWAP1 DIV PUSH1 0xFF AND ISZERO PUSH2 0x170A JUMPI PUSH1 0x1 SLOAD PUSH1 0x40 MLOAD PUSH4 0x70A08231 PUSH1 0xE0 SHL DUP2 MSTORE PUSH1 0x0 SWAP2 PUSH1 0x1 PUSH1 0x1 PUSH1 0xA0 SHL SUB AND SWAP1 PUSH4 0x70A08231 SWAP1 PUSH2 0x1634 SWAP1 ADDRESS SWAP1 PUSH1 0x4 ADD PUSH2 0x2294 JUMP JUMPDEST PUSH1 0x20 PUSH1 0x40 MLOAD DUP1 DUP4 SUB DUP2 DUP7 DUP1 EXTCODESIZE ISZERO DUP1 ISZERO PUSH2 0x164C JUMPI PUSH1 0x0 DUP1 REVERT JUMPDEST POP GAS STATICCALL ISZERO DUP1 ISZERO PUSH2 0x1660 JUMPI RETURNDATASIZE PUSH1 0x0 DUP1 RETURNDATACOPY RETURNDATASIZE PUSH1 0x0 REVERT JUMPDEST POP POP POP POP PUSH1 0x40 MLOAD RETURNDATASIZE PUSH1 0x1F NOT PUSH1 0x1F DUP3 ADD AND DUP3 ADD DUP1 PUSH1 0x40 MSTORE POP DUP2 ADD SWAP1 PUSH2 0x1684 SWAP2 SWAP1 PUSH2 0x222B JUMP JUMPDEST PUSH1 0x1 SLOAD PUSH1 0x40 MLOAD PUSH3 0x7B8A67 PUSH1 0xE1 SHL DUP2 MSTORE SWAP2 SWAP3 POP PUSH1 0x1 PUSH1 0x1 PUSH1 0xA0 SHL SUB AND SWAP1 PUSH3 0xF714CE SWAP1 PUSH2 0x16B5 SWAP1 DUP5 SWAP1 ADDRESS SWAP1 PUSH1 0x4 ADD PUSH2 0x258F JUMP JUMPDEST PUSH1 0x20 PUSH1 0x40 MLOAD DUP1 DUP4 SUB DUP2 PUSH1 0x0 DUP8 DUP1 EXTCODESIZE ISZERO DUP1 ISZERO PUSH2 0x16CF JUMPI PUSH1 0x0 DUP1 REVERT JUMPDEST POP GAS CALL ISZERO DUP1 ISZERO PUSH2 0x16E3 JUMPI RETURNDATASIZE PUSH1 0x0 DUP1 RETURNDATACOPY RETURNDATASIZE PUSH1 0x0 REVERT JUMPDEST POP POP POP POP PUSH1 0x40 MLOAD RETURNDATASIZE PUSH1 0x1F NOT PUSH1 0x1F DUP3 ADD AND DUP3 ADD DUP1 PUSH1 0x40 MSTORE POP DUP2 ADD SWAP1 PUSH2 0x1707 SWAP2 SWAP1 PUSH2 0x222B JUMP JUMPDEST POP POP JUMPDEST PUSH1 0x1 SLOAD PUSH1 0x40 MLOAD PUSH4 0x39EBF823 PUSH1 0xE0 SHL DUP2 MSTORE PUSH1 0x0 SWAP2 PUSH1 0x1 PUSH1 0x1 PUSH1 0xA0 SHL SUB AND SWAP1 PUSH4 0x39EBF823 SWAP1 PUSH2 0x173B SWAP1 ADDRESS SWAP1 PUSH1 0x4 ADD PUSH2 0x2294 JUMP JUMPDEST PUSH2 0x120 PUSH1 0x40 MLOAD DUP1 DUP4 SUB DUP2 DUP7 DUP1 EXTCODESIZE ISZERO DUP1 ISZERO PUSH2 0x1754 JUMPI PUSH1 0x0 DUP1 REVERT JUMPDEST POP GAS STATICCALL ISZERO DUP1 ISZERO PUSH2 0x1768 JUMPI RETURNDATASIZE PUSH1 0x0 DUP1 RETURNDATACOPY RETURNDATASIZE PUSH1 0x0 REVERT JUMPDEST POP POP POP POP PUSH1 0x40 MLOAD RETURNDATASIZE PUSH1 0x1F NOT PUSH1 0x1F DUP3 ADD AND DUP3 ADD DUP1 PUSH1 0x40 MSTORE POP DUP2 ADD SWAP1 PUSH2 0x178C SWAP2 SWAP1 PUSH2 0x2195 JUMP JUMPDEST PUSH1 0xC0 ADD MLOAD PUSH1 0x5 SLOAD PUSH1 0x40 MLOAD PUSH4 0x70A08231 PUSH1 0xE0 SHL DUP2 MSTORE SWAP2 SWAP3 POP PUSH1 0x0 SWAP2 PUSH1 0x1 PUSH1 0x1 PUSH1 0xA0 SHL SUB SWAP1 SWAP2 AND SWAP1 PUSH4 0x70A08231 SWAP1 PUSH2 0x17C6 SWAP1 ADDRESS SWAP1 PUSH1 0x4 ADD PUSH2 0x2294 JUMP JUMPDEST PUSH1 0x20 PUSH1 0x40 MLOAD DUP1 DUP4 SUB DUP2 DUP7 DUP1 EXTCODESIZE ISZERO DUP1 ISZERO PUSH2 0x17DE JUMPI PUSH1 0x0 DUP1 REVERT JUMPDEST POP GAS STATICCALL ISZERO DUP1 ISZERO PUSH2 0x17F2 JUMPI RETURNDATASIZE PUSH1 0x0 DUP1 RETURNDATACOPY RETURNDATASIZE PUSH1 0x0 REVERT JUMPDEST POP POP POP POP PUSH1 0x40 MLOAD RETURNDATASIZE PUSH1 0x1F NOT PUSH1 0x1F DUP3 ADD AND DUP3 ADD DUP1 PUSH1 0x40 MSTORE POP DUP2 ADD SWAP1 PUSH2 0x1816 SWAP2 SWAP1 PUSH2 0x222B JUMP JUMPDEST SWAP1 POP DUP1 DUP6 GT ISZERO PUSH2 0x1834 JUMPI SWAP3 POP DUP3 PUSH2 0x182D DUP6 DUP3 PUSH2 0x1A57 JUMP JUMPDEST SWAP3 POP PUSH2 0x1858 JUMP JUMPDEST DUP1 DUP3 GT ISZERO PUSH2 0x1854 JUMPI PUSH2 0x1846 DUP3 DUP3 PUSH2 0x1A57 JUMP JUMPDEST SWAP3 POP DUP5 DUP4 GT ISZERO PUSH2 0x1854 JUMPI DUP5 SWAP3 POP JUMPDEST DUP5 SWAP4 POP JUMPDEST POP POP SWAP2 POP SWAP2 JUMP JUMPDEST PUSH1 0x4 SLOAD PUSH1 0x1 PUSH1 0x1 PUSH1 0xA0 SHL SUB AND CALLER EQ DUP1 PUSH2 0x1882 JUMPI POP PUSH1 0x2 SLOAD PUSH1 0x1 PUSH1 0x1 PUSH1 0xA0 SHL SUB AND CALLER EQ JUMPDEST DUP1 PUSH2 0x18A5 JUMPI POP PUSH2 0x1890 PUSH2 0x152C JUMP JUMPDEST PUSH1 0x1 PUSH1 0x1 PUSH1 0xA0 SHL SUB AND CALLER PUSH1 0x1 PUSH1 0x1 PUSH1 0xA0 SHL SUB AND EQ JUMPDEST DUP1 PUSH2 0x1946 JUMPI POP PUSH1 0x1 PUSH1 0x0 SWAP1 SLOAD SWAP1 PUSH2 0x100 EXP SWAP1 DIV PUSH1 0x1 PUSH1 0x1 PUSH1 0xA0 SHL SUB AND PUSH1 0x1 PUSH1 0x1 PUSH1 0xA0 SHL SUB AND PUSH4 0x452A9320 PUSH1 0x40 MLOAD DUP2 PUSH4 0xFFFFFFFF AND PUSH1 0xE0 SHL DUP2 MSTORE PUSH1 0x4 ADD PUSH1 0x20 PUSH1 0x40 MLOAD DUP1 DUP4 SUB DUP2 DUP7 DUP1 EXTCODESIZE ISZERO DUP1 ISZERO PUSH2 0x18F9 JUMPI PUSH1 0x0 DUP1 REVERT JUMPDEST POP GAS STATICCALL ISZERO DUP1 ISZERO PUSH2 0x190D JUMPI RETURNDATASIZE PUSH1 0x0 DUP1 RETURNDATACOPY RETURNDATASIZE PUSH1 0x0 REVERT JUMPDEST POP POP POP POP PUSH1 0x40 MLOAD RETURNDATASIZE PUSH1 0x1F NOT PUSH1 0x1F DUP3 ADD AND DUP3 ADD DUP1 PUSH1 0x40 MSTORE POP DUP2 ADD SWAP1 PUSH2 0x1931 SWAP2 SWAP1 PUSH2 0x2091 JUMP JUMPDEST PUSH1 0x1 PUSH1 0x1 PUSH1 0xA0 SHL SUB AND CALLER PUSH1 0x1 PUSH1 0x1 PUSH1 0xA0 SHL SUB AND EQ JUMPDEST DUP1 PUSH2 0x15E4 JUMPI POP PUSH1 0x1 PUSH1 0x0 SWAP1 SLOAD SWAP1 PUSH2 0x100 EXP SWAP1 DIV PUSH1 0x1 PUSH1 0x1 PUSH1 0xA0 SHL SUB AND PUSH1 0x1 PUSH1 0x1 PUSH1 0xA0 SHL SUB AND PUSH4 0x88A8D602 PUSH1 0x40 MLOAD DUP2 PUSH4 0xFFFFFFFF AND PUSH1 0xE0 SHL DUP2 MSTORE PUSH1 0x4 ADD PUSH1 0x20 PUSH1 0x40 MLOAD DUP1 DUP4 SUB DUP2 DUP7 DUP1 EXTCODESIZE ISZERO DUP1 ISZERO PUSH2 0x199A JUMPI PUSH1 0x0 DUP1 REVERT JUMPDEST POP GAS STATICCALL ISZERO DUP1 ISZERO PUSH2 0x19AE JUMPI RETURNDATASIZE PUSH1 0x0 DUP1 RETURNDATACOPY RETURNDATASIZE PUSH1 0x0 REVERT JUMPDEST POP POP POP POP PUSH1 0x40 MLOAD RETURNDATASIZE PUSH1 0x1F NOT PUSH1 0x1F DUP3 ADD AND DUP3 ADD DUP1 PUSH1 0x40 MSTORE POP DUP2 ADD SWAP1 PUSH2 0x14BD SWAP2 SWAP1 PUSH2 0x2091 JUMP JUMPDEST PUSH1 0x5 SLOAD PUSH1 0x40 MLOAD PUSH4 0x70A08231 PUSH1 0xE0 SHL DUP2 MSTORE PUSH1 0x0 SWAP2 DUP3 SWAP2 PUSH1 0x1 PUSH1 0x1 PUSH1 0xA0 SHL SUB SWAP1 SWAP2 AND SWAP1 PUSH4 0x70A08231 SWAP1 PUSH2 0x1A07 SWAP1 ADDRESS SWAP1 PUSH1 0x4 ADD PUSH2 0x2294 JUMP JUMPDEST PUSH1 0x20 PUSH1 0x40 MLOAD DUP1 DUP4 SUB DUP2 DUP7 DUP1 EXTCODESIZE ISZERO DUP1 ISZERO PUSH2 0x1A1F JUMPI PUSH1 0x0 DUP1 REVERT JUMPDEST POP GAS STATICCALL ISZERO DUP1 ISZERO PUSH2 0x1A33 JUMPI RETURNDATASIZE PUSH1 0x0 DUP1 RETURNDATACOPY RETURNDATASIZE PUSH1 0x0 REVERT JUMPDEST POP POP POP POP PUSH1 0x40 MLOAD RETURNDATASIZE PUSH1 0x1F NOT PUSH1 0x1F DUP3 ADD AND DUP3 ADD DUP1 PUSH1 0x40 MSTORE POP DUP2 ADD SWAP1 PUSH2 0xCB8 SWAP2 SWAP1 PUSH2 0x222B JUMP JUMPDEST PUSH1 0x0 PUSH2 0x1A99 DUP4 DUP4 PUSH1 0x40 MLOAD DUP1 PUSH1 0x40 ADD PUSH1 0x40 MSTORE DUP1 PUSH1 0x1E DUP2 MSTORE PUSH1 0x20 ADD PUSH32 0x536166654D6174683A207375627472616374696F6E206F766572666C6F770000 DUP2 MSTORE POP PUSH2 0x1F7D JUMP JUMPDEST SWAP4 SWAP3 POP POP POP JUMP JUMPDEST PUSH1 0x5 SLOAD PUSH1 0x40 MLOAD PUSH4 0x70A08231 PUSH1 0xE0 SHL DUP2 MSTORE PUSH1 0x0 SWAP2 DUP3 SWAP2 DUP3 SWAP2 DUP3 SWAP2 PUSH1 0x1 PUSH1 0x1 PUSH1 0xA0 SHL SUB SWAP1 SWAP2 AND SWAP1 PUSH4 0x70A08231 SWAP1 PUSH2 0x1AD9 SWAP1 ADDRESS SWAP1 PUSH1 0x4 ADD PUSH2 0x2294 JUMP JUMPDEST PUSH1 0x20 PUSH1 0x40 MLOAD DUP1 DUP4 SUB DUP2 DUP7 DUP1 EXTCODESIZE ISZERO DUP1 ISZERO PUSH2 0x1AF1 JUMPI PUSH1 0x0 DUP1 REVERT JUMPDEST POP GAS STATICCALL ISZERO DUP1 ISZERO PUSH2 0x1B05 JUMPI RETURNDATASIZE PUSH1 0x0 DUP1 RETURNDATACOPY RETURNDATASIZE PUSH1 0x0 REVERT JUMPDEST POP POP POP POP PUSH1 0x40 MLOAD RETURNDATASIZE PUSH1 0x1F NOT PUSH1 0x1F DUP3 ADD AND DUP3 ADD DUP1 PUSH1 0x40 MSTORE POP DUP2 ADD SWAP1 PUSH2 0x1B29 SWAP2 SWAP1 PUSH2 0x222B JUMP JUMPDEST PUSH1 0x1 SLOAD PUSH1 0x40 MLOAD PUSH4 0x39EBF823 PUSH1 0xE0 SHL DUP2 MSTORE SWAP2 SWAP3 POP PUSH1 0x0 SWAP2 PUSH1 0x1 PUSH1 0x1 PUSH1 0xA0 SHL SUB SWAP1 SWAP2 AND SWAP1 PUSH4 0x39EBF823 SWAP1 PUSH2 0x1B5F SWAP1 ADDRESS SWAP1 PUSH1 0x4 ADD PUSH2 0x2294 JUMP JUMPDEST PUSH2 0x120 PUSH1 0x40 MLOAD DUP1 DUP4 SUB DUP2 DUP7 DUP1 EXTCODESIZE ISZERO DUP1 ISZERO PUSH2 0x1B78 JUMPI PUSH1 0x0 DUP1 REVERT JUMPDEST POP GAS STATICCALL ISZERO DUP1 ISZERO PUSH2 0x1B8C JUMPI RETURNDATASIZE PUSH1 0x0 DUP1 RETURNDATACOPY RETURNDATASIZE PUSH1 0x0 REVERT JUMPDEST POP POP POP POP PUSH1 0x40 MLOAD RETURNDATASIZE PUSH1 0x1F NOT PUSH1 0x1F DUP3 ADD AND DUP3 ADD DUP1 PUSH1 0x40 MSTORE POP DUP2 ADD SWAP1 PUSH2 0x1BB0 SWAP2 SWAP1 PUSH2 0x2195 JUMP JUMPDEST PUSH1 0xC0 ADD MLOAD SWAP1 POP DUP6 DUP3 GT ISZERO PUSH2 0x1BD2 JUMPI DUP6 SWAP3 POP PUSH2 0x1BCB DUP3 DUP5 PUSH2 0x1A57 JUMP JUMPDEST SWAP2 POP PUSH2 0x1BD9 JUMP JUMPDEST SWAP1 SWAP2 POP PUSH1 0x0 SWAP1 JUMPDEST PUSH2 0x1BE3 DUP2 DUP5 PUSH2 0x1A57 JUMP JUMPDEST SWAP1 POP DUP1 DUP3 GT ISZERO PUSH2 0x1BFE JUMPI PUSH2 0x1BF7 DUP3 DUP3 PUSH2 0x1A57 JUMP JUMPDEST SWAP5 POP PUSH2 0x1C0B JUMP JUMPDEST PUSH2 0x1C08 DUP2 DUP4 PUSH2 0x1A57 JUMP JUMPDEST SWAP4 POP JUMPDEST POP POP SWAP2 SWAP4 SWAP1 SWAP3 POP JUMP JUMPDEST PUSH2 0x1C1C PUSH2 0x152C JUMP JUMPDEST PUSH1 0x1 PUSH1 0x1 PUSH1 0xA0 SHL SUB AND CALLER PUSH1 0x1 PUSH1 0x1 PUSH1 0xA0 SHL SUB AND EQ DUP1 PUSH2 0x15E4 JUMPI POP PUSH1 0x2 SLOAD PUSH1 0x1 PUSH1 0x1 PUSH1 0xA0 SHL SUB AND CALLER EQ PUSH2 0x96F JUMPI PUSH1 0x0 DUP1 REVERT JUMPDEST PUSH1 0x5 SLOAD PUSH1 0x1 PUSH1 0x1 PUSH1 0xA0 SHL SUB AND ISZERO PUSH2 0x1C76 JUMPI PUSH1 0x40 MLOAD PUSH3 0x461BCD PUSH1 0xE5 SHL DUP2 MSTORE PUSH1 0x4 ADD PUSH2 0x51F SWAP1 PUSH2 0x23F3 JUMP JUMPDEST PUSH1 0x1 DUP1 SLOAD PUSH1 0x1 PUSH1 0x1 PUSH1 0xA0 SHL SUB NOT AND PUSH1 0x1 PUSH1 0x1 PUSH1 0xA0 SHL SUB DUP7 DUP2 AND SWAP2 SWAP1 SWAP2 OR SWAP2 DUP3 SWAP1 SSTORE PUSH1 0x40 DUP1 MLOAD PUSH4 0x7E062A35 PUSH1 0xE1 SHL DUP2 MSTORE SWAP1 MLOAD SWAP3 SWAP1 SWAP2 AND SWAP2 PUSH4 0xFC0C546A SWAP2 PUSH1 0x4 DUP1 DUP3 ADD SWAP3 PUSH1 0x20 SWAP3 SWAP1 SWAP2 SWAP1 DUP3 SWAP1 SUB ADD DUP2 DUP7 DUP1 EXTCODESIZE ISZERO DUP1 ISZERO PUSH2 0x1CD2 JUMPI PUSH1 0x0 DUP1 REVERT JUMPDEST POP GAS STATICCALL ISZERO DUP1 ISZERO PUSH2 0x1CE6 JUMPI RETURNDATASIZE PUSH1 0x0 DUP1 RETURNDATACOPY RETURNDATASIZE PUSH1 0x0 REVERT JUMPDEST POP POP POP POP PUSH1 0x40 MLOAD RETURNDATASIZE PUSH1 0x1F NOT PUSH1 0x1F DUP3 ADD AND DUP3 ADD DUP1 PUSH1 0x40 MSTORE POP DUP2 ADD SWAP1 PUSH2 0x1D0A SWAP2 SWAP1 PUSH2 0x2091 JUMP JUMPDEST PUSH1 0x5 DUP1 SLOAD PUSH1 0x1 PUSH1 0x1 PUSH1 0xA0 SHL SUB NOT AND PUSH1 0x1 PUSH1 0x1 PUSH1 0xA0 SHL SUB SWAP3 DUP4 AND OR SWAP1 DUP2 SWAP1 SSTORE PUSH2 0x1D36 SWAP2 AND DUP6 PUSH1 0x0 NOT PUSH2 0x139F JUMP JUMPDEST PUSH1 0x2 DUP1 SLOAD PUSH1 0x1 PUSH1 0x1 PUSH1 0xA0 SHL SUB DUP1 DUP7 AND PUSH1 0x1 PUSH1 0x1 PUSH1 0xA0 SHL SUB NOT SWAP3 DUP4 AND OR SWAP1 SWAP3 SSTORE PUSH1 0x3 DUP1 SLOAD DUP6 DUP5 AND SWAP1 DUP4 AND OR SWAP1 DUP2 SWAP1 SSTORE PUSH1 0x4 DUP1 SLOAD DUP6 DUP6 AND SWAP4 AND SWAP3 SWAP1 SWAP3 OR DUP3 SSTORE PUSH1 0x0 PUSH1 0x6 DUP2 SWAP1 SSTORE PUSH3 0x15180 PUSH1 0x7 SSTORE PUSH1 0x64 PUSH1 0x8 SSTORE PUSH1 0x9 SSTORE PUSH1 0x1 SLOAD PUSH1 0x40 MLOAD PUSH4 0x95EA7B3 PUSH1 0xE0 SHL DUP2 MSTORE SWAP1 DUP5 AND SWAP4 PUSH4 0x95EA7B3 SWAP4 PUSH2 0x1DB5 SWAP4 SWAP1 SWAP2 AND SWAP2 PUSH1 0x0 NOT SWAP2 ADD PUSH2 0x234E JUMP JUMPDEST PUSH1 0x20 PUSH1 0x40 MLOAD DUP1 DUP4 SUB DUP2 PUSH1 0x0 DUP8 DUP1 EXTCODESIZE ISZERO DUP1 ISZERO PUSH2 0x1DCF JUMPI PUSH1 0x0 DUP1 REVERT JUMPDEST POP GAS CALL ISZERO DUP1 ISZERO PUSH2 0x1DE3 JUMPI RETURNDATASIZE PUSH1 0x0 DUP1 RETURNDATACOPY RETURNDATASIZE PUSH1 0x0 REVERT JUMPDEST POP POP POP POP PUSH1 0x40 MLOAD RETURNDATASIZE PUSH1 0x1F NOT PUSH1 0x1F DUP3 ADD AND DUP3 ADD DUP1 PUSH1 0x40 MSTORE POP DUP2 ADD SWAP1 PUSH2 0x1E07 SWAP2 SWAP1 PUSH2 0x2108 JUMP JUMPDEST POP POP POP POP POP JUMP JUMPDEST PUSH1 0x2 SLOAD PUSH1 0x1 PUSH1 0x1 PUSH1 0xA0 SHL SUB AND CALLER EQ DUP1 PUSH2 0x18A5 JUMPI POP PUSH2 0x1890 PUSH2 0x152C JUMP JUMPDEST PUSH1 0x60 PUSH2 0x1E7F DUP3 PUSH1 0x40 MLOAD DUP1 PUSH1 0x40 ADD PUSH1 0x40 MSTORE DUP1 PUSH1 0x20 DUP2 MSTORE PUSH1 0x20 ADD PUSH32 0x5361666545524332303A206C6F772D6C6576656C2063616C6C206661696C6564 DUP2 MSTORE POP DUP6 PUSH1 0x1 PUSH1 0x1 PUSH1 0xA0 SHL SUB AND PUSH2 0x149E SWAP1 SWAP3 SWAP2 SWAP1 PUSH4 0xFFFFFFFF AND JUMP JUMPDEST DUP1 MLOAD SWAP1 SWAP2 POP ISZERO PUSH2 0x1499 JUMPI DUP1 DUP1 PUSH1 0x20 ADD SWAP1 MLOAD DUP2 ADD SWAP1 PUSH2 0x1E9D SWAP2 SWAP1 PUSH2 0x2108 JUMP JUMPDEST PUSH2 0x1499 JUMPI PUSH1 0x40 MLOAD PUSH3 0x461BCD PUSH1 0xE5 SHL DUP2 MSTORE PUSH1 0x4 ADD PUSH2 0x51F SWAP1 PUSH2 0x24C2 JUMP JUMPDEST PUSH1 0x60 PUSH2 0x1EC4 DUP6 PUSH2 0x1FA9 JUMP JUMPDEST PUSH2 0x1EE0 JUMPI PUSH1 0x40 MLOAD PUSH3 0x461BCD PUSH1 0xE5 SHL DUP2 MSTORE PUSH1 0x4 ADD PUSH2 0x51F SWAP1 PUSH2 0x248B JUMP JUMPDEST PUSH1 0x0 PUSH1 0x60 DUP7 PUSH1 0x1 PUSH1 0x1 PUSH1 0xA0 SHL SUB AND DUP6 DUP8 PUSH1 0x40 MLOAD PUSH2 0x1EFD SWAP2 SWAP1 PUSH2 0x2243 JUMP JUMPDEST PUSH1 0x0 PUSH1 0x40 MLOAD DUP1 DUP4 SUB DUP2 DUP6 DUP8 GAS CALL SWAP3 POP POP POP RETURNDATASIZE DUP1 PUSH1 0x0 DUP2 EQ PUSH2 0x1F3A JUMPI PUSH1 0x40 MLOAD SWAP2 POP PUSH1 0x1F NOT PUSH1 0x3F RETURNDATASIZE ADD AND DUP3 ADD PUSH1 0x40 MSTORE RETURNDATASIZE DUP3 MSTORE RETURNDATASIZE PUSH1 0x0 PUSH1 0x20 DUP5 ADD RETURNDATACOPY PUSH2 0x1F3F JUMP JUMPDEST PUSH1 0x60 SWAP2 POP JUMPDEST POP SWAP2 POP SWAP2 POP DUP2 ISZERO PUSH2 0x1F53 JUMPI SWAP2 POP PUSH2 0x14AD SWAP1 POP JUMP JUMPDEST DUP1 MLOAD ISZERO PUSH2 0x1F63 JUMPI DUP1 MLOAD DUP1 DUP3 PUSH1 0x20 ADD REVERT JUMPDEST DUP4 PUSH1 0x40 MLOAD PUSH3 0x461BCD PUSH1 0xE5 SHL DUP2 MSTORE PUSH1 0x4 ADD PUSH2 0x51F SWAP2 SWAP1 PUSH2 0x23A1 JUMP JUMPDEST PUSH1 0x0 DUP2 DUP5 DUP5 GT ISZERO PUSH2 0x1FA1 JUMPI PUSH1 0x40 MLOAD PUSH3 0x461BCD PUSH1 0xE5 SHL DUP2 MSTORE PUSH1 0x4 ADD PUSH2 0x51F SWAP2 SWAP1 PUSH2 0x23A1 JUMP JUMPDEST POP POP POP SWAP1 SUB SWAP1 JUMP JUMPDEST PUSH1 0x0 DUP2 EXTCODEHASH PUSH32 0xC5D2460186F7233C927E7DB2DCC703C0E500B653CA82273B7BFAD8045D85A470 DUP2 DUP2 EQ DUP1 ISZERO SWAP1 PUSH2 0x14AD JUMPI POP POP ISZERO ISZERO SWAP3 SWAP2 POP POP JUMP JUMPDEST DUP3 DUP1 SLOAD PUSH1 0x1 DUP2 PUSH1 0x1 AND ISZERO PUSH2 0x100 MUL SUB AND PUSH1 0x2 SWAP1 DIV SWAP1 PUSH1 0x0 MSTORE PUSH1 0x20 PUSH1 0x0 KECCAK256 SWAP1 PUSH1 0x1F ADD PUSH1 0x20 SWAP1 DIV DUP2 ADD SWAP3 DUP3 PUSH1 0x1F LT PUSH2 0x2023 JUMPI DUP3 DUP1 ADD PUSH1 0xFF NOT DUP3 CALLDATALOAD AND OR DUP6 SSTORE PUSH2 0x2050 JUMP JUMPDEST DUP3 DUP1 ADD PUSH1 0x1 ADD DUP6 SSTORE DUP3 ISZERO PUSH2 0x2050 JUMPI SWAP2 DUP3 ADD JUMPDEST DUP3 DUP2 GT ISZERO PUSH2 0x2050 JUMPI DUP3 CALLDATALOAD DUP3 SSTORE SWAP2 PUSH1 0x20 ADD SWAP2 SWAP1 PUSH1 0x1 ADD SWAP1 PUSH2 0x2035 JUMP JUMPDEST POP PUSH2 0x205C SWAP3 SWAP2 POP PUSH2 0x2060 JUMP JUMPDEST POP SWAP1 JUMP JUMPDEST JUMPDEST DUP1 DUP3 GT ISZERO PUSH2 0x205C JUMPI PUSH1 0x0 DUP2 SSTORE PUSH1 0x1 ADD PUSH2 0x2061 JUMP JUMPDEST PUSH1 0x0 PUSH1 0x20 DUP3 DUP5 SUB SLT ISZERO PUSH2 0x2086 JUMPI DUP1 DUP2 REVERT JUMPDEST DUP2 CALLDATALOAD PUSH2 0x1A99 DUP2 PUSH2 0x262A JUMP JUMPDEST PUSH1 0x0 PUSH1 0x20 DUP3 DUP5 SUB SLT ISZERO PUSH2 0x20A2 JUMPI DUP1 DUP2 REVERT JUMPDEST DUP2 MLOAD PUSH2 0x1A99 DUP2 PUSH2 0x262A JUMP JUMPDEST PUSH1 0x0 DUP1 PUSH1 0x0 DUP1 PUSH1 0x80 DUP6 DUP8 SUB SLT ISZERO PUSH2 0x20C2 JUMPI DUP3 DUP4 REVERT JUMPDEST DUP5 CALLDATALOAD PUSH2 0x20CD DUP2 PUSH2 0x262A JUMP JUMPDEST SWAP4 POP PUSH1 0x20 DUP6 ADD CALLDATALOAD PUSH2 0x20DD DUP2 PUSH2 0x262A JUMP JUMPDEST SWAP3 POP PUSH1 0x40 DUP6 ADD CALLDATALOAD PUSH2 0x20ED DUP2 PUSH2 0x262A JUMP JUMPDEST SWAP2 POP PUSH1 0x60 DUP6 ADD CALLDATALOAD PUSH2 0x20FD DUP2 PUSH2 0x262A JUMP JUMPDEST SWAP4 SWAP7 SWAP3 SWAP6 POP SWAP1 SWAP4 POP POP JUMP JUMPDEST PUSH1 0x0 PUSH1 0x20 DUP3 DUP5 SUB SLT ISZERO PUSH2 0x2119 JUMPI DUP1 DUP2 REVERT JUMPDEST DUP2 MLOAD DUP1 ISZERO ISZERO DUP2 EQ PUSH2 0x1A99 JUMPI DUP2 DUP3 REVERT JUMPDEST PUSH1 0x0 DUP1 PUSH1 0x20 DUP4 DUP6 SUB SLT ISZERO PUSH2 0x213A JUMPI DUP2 DUP3 REVERT JUMPDEST DUP3 CALLDATALOAD PUSH8 0xFFFFFFFFFFFFFFFF DUP1 DUP3 GT ISZERO PUSH2 0x2151 JUMPI DUP4 DUP5 REVERT JUMPDEST DUP2 DUP6 ADD SWAP2 POP DUP6 PUSH1 0x1F DUP4 ADD SLT PUSH2 0x2164 JUMPI DUP4 DUP5 REVERT JUMPDEST DUP2 CALLDATALOAD DUP2 DUP2 GT ISZERO PUSH2 0x2172 JUMPI DUP5 DUP6 REVERT JUMPDEST DUP7 PUSH1 0x20 DUP3 DUP6 ADD ADD GT ISZERO PUSH2 0x2183 JUMPI DUP5 DUP6 REVERT JUMPDEST PUSH1 0x20 SWAP3 SWAP1 SWAP3 ADD SWAP7 SWAP2 SWAP6 POP SWAP1 SWAP4 POP POP POP POP JUMP JUMPDEST PUSH1 0x0 PUSH2 0x120 DUP1 DUP4 DUP6 SUB SLT ISZERO PUSH2 0x21A8 JUMPI DUP2 DUP3 REVERT JUMPDEST PUSH2 0x21B1 DUP2 PUSH2 0x25D7 JUMP JUMPDEST SWAP1 POP DUP3 MLOAD DUP2 MSTORE PUSH1 0x20 DUP4 ADD MLOAD PUSH1 0x20 DUP3 ADD MSTORE PUSH1 0x40 DUP4 ADD MLOAD PUSH1 0x40 DUP3 ADD MSTORE PUSH1 0x60 DUP4 ADD MLOAD PUSH1 0x60 DUP3 ADD MSTORE PUSH1 0x80 DUP4 ADD MLOAD PUSH1 0x80 DUP3 ADD MSTORE PUSH1 0xA0 DUP4 ADD MLOAD PUSH1 0xA0 DUP3 ADD MSTORE PUSH1 0xC0 DUP4 ADD MLOAD PUSH1 0xC0 DUP3 ADD MSTORE PUSH1 0xE0 DUP4 ADD MLOAD PUSH1 0xE0 DUP3 ADD MSTORE PUSH2 0x100 DUP1 DUP5 ADD MLOAD DUP2 DUP4 ADD MSTORE POP DUP1 SWAP2 POP POP SWAP3 SWAP2 POP POP JUMP JUMPDEST PUSH1 0x0 PUSH1 0x20 DUP3 DUP5 SUB SLT ISZERO PUSH2 0x2224 JUMPI DUP1 DUP2 REVERT JUMPDEST POP CALLDATALOAD SWAP2 SWAP1 POP JUMP JUMPDEST PUSH1 0x0 PUSH1 0x20 DUP3 DUP5 SUB SLT ISZERO PUSH2 0x223C JUMPI DUP1 DUP2 REVERT JUMPDEST POP MLOAD SWAP2 SWAP1 POP JUMP JUMPDEST PUSH1 0x0 DUP3 MLOAD PUSH2 0x2255 DUP2 DUP5 PUSH1 0x20 DUP8 ADD PUSH2 0x25FE JUMP JUMPDEST SWAP2 SWAP1 SWAP2 ADD SWAP3 SWAP2 POP POP JUMP JUMPDEST PUSH1 0x0 PUSH13 0x2A32B9BA29BA3930BA32B3BC9 PUSH1 0x9D SHL DUP3 MSTORE DUP3 MLOAD PUSH2 0x2287 DUP2 PUSH1 0xD DUP6 ADD PUSH1 0x20 DUP8 ADD PUSH2 0x25FE JUMP JUMPDEST SWAP2 SWAP1 SWAP2 ADD PUSH1 0xD ADD SWAP3 SWAP2 POP POP JUMP JUMPDEST PUSH1 0x1 PUSH1 0x1 PUSH1 0xA0 SHL SUB SWAP2 SWAP1 SWAP2 AND DUP2 MSTORE PUSH1 0x20 ADD SWAP1 JUMP JUMPDEST PUSH1 0x1 PUSH1 0x1 PUSH1 0xA0 SHL SUB SWAP3 DUP4 AND DUP2 MSTORE SWAP2 AND PUSH1 0x20 DUP3 ADD MSTORE PUSH1 0x40 ADD SWAP1 JUMP JUMPDEST PUSH1 0x1 PUSH1 0x1 PUSH1 0xA0 SHL SUB SWAP5 DUP6 AND DUP2 MSTORE SWAP3 DUP5 AND PUSH1 0x20 DUP5 ADD MSTORE SWAP1 DUP4 AND PUSH1 0x40 DUP4 ADD MSTORE SWAP1 SWAP2 AND PUSH1 0x60 DUP3 ADD MSTORE PUSH1 0x80 ADD SWAP1 JUMP JUMPDEST PUSH1 0x1 PUSH1 0x1 PUSH1 0xA0 SHL SUB SWAP4 DUP5 AND DUP2 MSTORE SWAP2 DUP4 AND PUSH1 0x20 DUP4 ADD MSTORE SWAP1 SWAP2 AND PUSH1 0x40 DUP3 ADD MSTORE PUSH1 0x60 ADD SWAP1 JUMP JUMPDEST PUSH1 0x1 PUSH1 0x1 PUSH1 0xA0 SHL SUB SWAP8 DUP9 AND DUP2 MSTORE SWAP6 SWAP1 SWAP7 AND PUSH1 0x20 DUP7 ADD MSTORE PUSH1 0x40 DUP6 ADD SWAP4 SWAP1 SWAP4 MSTORE PUSH1 0x60 DUP5 ADD SWAP2 SWAP1 SWAP2 MSTORE PUSH1 0x80 DUP4 ADD MSTORE PUSH1 0xA0 DUP3 ADD MSTORE PUSH1 0xC0 DUP2 ADD SWAP2 SWAP1 SWAP2 MSTORE PUSH1 0xE0 ADD SWAP1 JUMP JUMPDEST PUSH1 0x1 PUSH1 0x1 PUSH1 0xA0 SHL SUB SWAP3 SWAP1 SWAP3 AND DUP3 MSTORE PUSH1 0x20 DUP3 ADD MSTORE PUSH1 0x40 ADD SWAP1 JUMP JUMPDEST SWAP1 ISZERO ISZERO DUP2 MSTORE PUSH1 0x20 ADD SWAP1 JUMP JUMPDEST PUSH1 0x0 PUSH1 0x20 DUP3 MSTORE DUP3 PUSH1 0x20 DUP4 ADD MSTORE DUP3 DUP5 PUSH1 0x40 DUP5 ADD CALLDATACOPY DUP2 DUP4 ADD PUSH1 0x40 SWAP1 DUP2 ADD SWAP2 SWAP1 SWAP2 MSTORE PUSH1 0x1F SWAP1 SWAP3 ADD PUSH1 0x1F NOT AND ADD ADD SWAP2 SWAP1 POP JUMP JUMPDEST PUSH1 0x0 PUSH1 0x20 DUP3 MSTORE DUP3 MLOAD DUP1 PUSH1 0x20 DUP5 ADD MSTORE PUSH2 0x23C0 DUP2 PUSH1 0x40 DUP6 ADD PUSH1 0x20 DUP8 ADD PUSH2 0x25FE JUMP JUMPDEST PUSH1 0x1F ADD PUSH1 0x1F NOT AND SWAP2 SWAP1 SWAP2 ADD PUSH1 0x40 ADD SWAP3 SWAP2 POP POP JUMP JUMPDEST PUSH1 0x20 DUP1 DUP3 MSTORE PUSH1 0x5 SWAP1 DUP3 ADD MSTORE PUSH5 0x85DD85B9D PUSH1 0xDA SHL PUSH1 0x40 DUP3 ADD MSTORE PUSH1 0x60 ADD SWAP1 JUMP JUMPDEST PUSH1 0x20 DUP1 DUP3 MSTORE PUSH1 0x1C SWAP1 DUP3 ADD MSTORE PUSH32 0x537472617465677920616C726561647920696E697469616C697A656400000000 PUSH1 0x40 DUP3 ADD MSTORE PUSH1 0x60 ADD SWAP1 JUMP JUMPDEST PUSH1 0x20 DUP1 DUP3 MSTORE PUSH1 0x6 SWAP1 DUP3 ADD MSTORE PUSH6 0x85D985D5B1D PUSH1 0xD2 SHL PUSH1 0x40 DUP3 ADD MSTORE PUSH1 0x60 ADD SWAP1 JUMP JUMPDEST PUSH1 0x20 DUP1 DUP3 MSTORE PUSH1 0x7 SWAP1 DUP3 ADD MSTORE PUSH7 0x21736861726573 PUSH1 0xC8 SHL PUSH1 0x40 DUP3 ADD MSTORE PUSH1 0x60 ADD SWAP1 JUMP JUMPDEST PUSH1 0x20 DUP1 DUP3 MSTORE PUSH1 0x6 SWAP1 DUP3 ADD MSTORE PUSH6 0x21636C6F6E65 PUSH1 0xD0 SHL PUSH1 0x40 DUP3 ADD MSTORE PUSH1 0x60 ADD SWAP1 JUMP JUMPDEST PUSH1 0x20 DUP1 DUP3 MSTORE PUSH1 0x1D SWAP1 DUP3 ADD MSTORE PUSH32 0x416464726573733A2063616C6C20746F206E6F6E2D636F6E7472616374000000 PUSH1 0x40 DUP3 ADD MSTORE PUSH1 0x60 ADD SWAP1 JUMP JUMPDEST PUSH1 0x20 DUP1 DUP3 MSTORE PUSH1 0x2A SWAP1 DUP3 ADD MSTORE PUSH32 0x5361666545524332303A204552433230206F7065726174696F6E20646964206E PUSH1 0x40 DUP3 ADD MSTORE PUSH10 0x1BDD081CDD58D8D95959 PUSH1 0xB2 SHL PUSH1 0x60 DUP3 ADD MSTORE PUSH1 0x80 ADD SWAP1 JUMP JUMPDEST PUSH1 0x20 DUP1 DUP3 MSTORE PUSH1 0xA SWAP1 DUP3 ADD MSTORE PUSH10 0x85C1C9BDD1958DD1959 PUSH1 0xB2 SHL PUSH1 0x40 DUP3 ADD MSTORE PUSH1 0x60 ADD SWAP1 JUMP JUMPDEST PUSH1 0x20 DUP1 DUP3 MSTORE PUSH1 0x36 SWAP1 DUP3 ADD MSTORE PUSH32 0x5361666545524332303A20617070726F76652066726F6D206E6F6E2D7A65726F PUSH1 0x40 DUP3 ADD MSTORE PUSH22 0x20746F206E6F6E2D7A65726F20616C6C6F77616E6365 PUSH1 0x50 SHL PUSH1 0x60 DUP3 ADD MSTORE PUSH1 0x80 ADD SWAP1 JUMP JUMPDEST SWAP1 DUP2 MSTORE PUSH1 0x20 ADD SWAP1 JUMP JUMPDEST SWAP2 DUP3 MSTORE PUSH1 0x1 PUSH1 0x1 PUSH1 0xA0 SHL SUB AND PUSH1 0x20 DUP3 ADD MSTORE PUSH1 0x40 ADD SWAP1 JUMP JUMPDEST SWAP3 DUP4 MSTORE PUSH1 0x20 DUP4 ADD SWAP2 SWAP1 SWAP2 MSTORE PUSH1 0x40 DUP3 ADD MSTORE PUSH1 0x60 ADD SWAP1 JUMP JUMPDEST SWAP4 DUP5 MSTORE PUSH1 0x20 DUP5 ADD SWAP3 SWAP1 SWAP3 MSTORE PUSH1 0x40 DUP4 ADD MSTORE PUSH1 0x60 DUP3 ADD MSTORE PUSH1 0x80 ADD SWAP1 JUMP JUMPDEST PUSH1 0x40 MLOAD DUP2 DUP2 ADD PUSH8 0xFFFFFFFFFFFFFFFF DUP2 GT DUP3 DUP3 LT OR ISZERO PUSH2 0x25F6 JUMPI PUSH1 0x0 DUP1 REVERT JUMPDEST PUSH1 0x40 MSTORE SWAP2 SWAP1 POP JUMP JUMPDEST PUSH1 0x0 JUMPDEST DUP4 DUP2 LT ISZERO PUSH2 0x2619 JUMPI DUP2 DUP2 ADD MLOAD DUP4 DUP3 ADD MSTORE PUSH1 0x20 ADD PUSH2 0x2601 JUMP JUMPDEST DUP4 DUP2 GT ISZERO PUSH2 0x12D4 JUMPI POP POP PUSH1 0x0 SWAP2 ADD MSTORE JUMP JUMPDEST PUSH1 0x1 PUSH1 0x1 PUSH1 0xA0 SHL SUB DUP2 AND DUP2 EQ PUSH2 0xF3D JUMPI PUSH1 0x0 DUP1 REVERT INVALID LOG2 PUSH5 0x6970667358 0x22 SLT KECCAK256 0x23 SWAP5 PUSH28 0x7A575E335D5D25E9E56517C482EBE3B5AE5BF7E0EF412FB0C01BC9B1 0x4D PUSH5 0x736F6C6343 STOP MOD 0xC STOP CALLER ",
  "sha1": "7aa7e89b20dcc11c3d324e296193d8ad289e2896",
  "source": "// SPDX-License-Identifier: GPL-3.0\npragma solidity 0.6.12;\npragma experimental ABIEncoderV2;\n\nimport \"@openzeppelin/contracts/token/ERC20/IERC20.sol\";\nimport {BaseStrategyInitializable, StrategyParams, VaultAPI} from \"../BaseStrategy.sol\";\nimport {SafeERC20} from \"@openzeppelin/contracts/token/ERC20/SafeERC20.sol\";\n\n/*\n * This Strategy serves as both a mock Strategy for testing, and an example\n * for integrators on how to use BaseStrategy\n */\n\ncontract TestStrategy is BaseStrategyInitializable {\n    bool public doReentrancy;\n    bool public delegateEverything;\n\n    // Some token that needs to be protected for some reason\n    // Initialize this to some fake address, because we're just using it\n    // to test `BaseStrategy.protectedTokens()`\n    address public constant protectedToken = address(0xbad);\n\n    constructor(address _vault) public BaseStrategyInitializable(_vault) {}\n\n    function name() external view override returns (string memory) {\n        return string(abi.encodePacked(\"TestStrategy \", apiVersion()));\n    }\n\n    // NOTE: This is a test-only function to simulate delegation\n    function _toggleDelegation() public {\n        delegateEverything = !delegateEverything;\n    }\n\n    function delegatedAssets() external view override returns (uint256) {\n        if (delegateEverything) {\n            return vault.strategies(address(this)).totalDebt;\n        } else {\n            return 0;\n        }\n    }\n\n    // NOTE: This is a test-only function to simulate losses\n    function _takeFunds(uint256 amount) public {\n        SafeERC20.safeTransfer(want, msg.sender, amount);\n    }\n\n    // NOTE: This is a test-only function to enable reentrancy on withdraw\n    function _toggleReentrancyExploit() public {\n        doReentrancy = !doReentrancy;\n    }\n\n    // NOTE: This is a test-only function to simulate a wrong want token\n    function _setWant(IERC20 _want) public {\n        want = _want;\n    }\n\n    function ethToWant(uint256 amtInWei) public view override returns (uint256) {\n        return amtInWei; // 1:1 conversion for testing\n    }\n\n    function estimatedTotalAssets() public view override returns (uint256) {\n        // For mock, this is just everything we have\n        return want.balanceOf(address(this));\n    }\n\n    function prepareReturn(uint256 _debtOutstanding)\n        internal\n        override\n        returns (\n            uint256 _profit,\n            uint256 _loss,\n            uint256 _debtPayment\n        )\n    {\n        // During testing, send this contract some tokens to simulate \"Rewards\"\n        uint256 totalAssets = want.balanceOf(address(this));\n        uint256 totalDebt = vault.strategies(address(this)).totalDebt;\n        if (totalAssets > _debtOutstanding) {\n            _debtPayment = _debtOutstanding;\n            totalAssets = totalAssets.sub(_debtOutstanding);\n        } else {\n            _debtPayment = totalAssets;\n            totalAssets = 0;\n        }\n        totalDebt = totalDebt.sub(_debtPayment);\n\n        if (totalAssets > totalDebt) {\n            _profit = totalAssets.sub(totalDebt);\n        } else {\n            _loss = totalDebt.sub(totalAssets);\n        }\n    }\n\n    function adjustPosition(uint256 _debtOutstanding) internal override {\n        // Whatever we have \"free\", consider it \"invested\" now\n    }\n\n    function liquidatePosition(uint256 _amountNeeded) internal override returns (uint256 _liquidatedAmount, uint256 _loss) {\n        if (doReentrancy) {\n            // simulate a malicious protocol or reentrancy situation triggered by strategy withdraw interactions\n            uint256 stratBalance = VaultAPI(address(vault)).balanceOf(address(this));\n            VaultAPI(address(vault)).withdraw(stratBalance, address(this));\n        }\n\n        uint256 totalDebt = vault.strategies(address(this)).totalDebt;\n        uint256 totalAssets = want.balanceOf(address(this));\n        if (_amountNeeded > totalAssets) {\n            _liquidatedAmount = totalAssets;\n            _loss = _amountNeeded.sub(totalAssets);\n        } else {\n            // NOTE: Just in case something was stolen from this contract\n            if (totalDebt > totalAssets) {\n                _loss = totalDebt.sub(totalAssets);\n                if (_loss > _amountNeeded) _loss = _amountNeeded;\n            }\n            _liquidatedAmount = _amountNeeded;\n        }\n    }\n\n    function prepareMigration(address _newStrategy) internal override {\n        // Nothing needed here because no additional tokens/tokenized positions for mock\n    }\n\n    function protectedTokens() internal view override returns (address[] memory) {\n        address[] memory protected = new address[](1);\n        protected[0] = protectedToken;\n        return protected;\n    }\n\n    function liquidateAllPositions() internal override returns (uint256 amountFreed) {\n        uint256 totalAssets = want.balanceOf(address(this));\n        amountFreed = totalAssets;\n    }\n}\n",
  "sourcePath": "contracts/test/TestStrategy.sol",
  "type": "contract"
}