{
  "abi": [
    {
      "inputs": [
        {
          "internalType": "address",
          "name": "_weth",
          "type": "address"
        },
        {
          "internalType": "address",
          "name": "_registry",
          "type": "address"
        }
      ],
      "stateMutability": "nonpayable",
      "type": "constructor"
    },
    {
      "anonymous": false,
      "inputs": [
        {
          "indexed": true,
          "internalType": "address",
          "name": "owner",
          "type": "address"
        },
        {
          "indexed": true,
          "internalType": "address",
          "name": "spender",
          "type": "address"
        },
        {
          "indexed": false,
          "internalType": "uint256",
          "name": "value",
          "type": "uint256"
        }
      ],
      "name": "Approval",
      "type": "event"
    },
    {
      "anonymous": false,
      "inputs": [
        {
          "indexed": true,
          "internalType": "address",
          "name": "from",
          "type": "address"
        },
        {
          "indexed": true,
          "internalType": "address",
          "name": "to",
          "type": "address"
        },
        {
          "indexed": false,
          "internalType": "uint256",
          "name": "value",
          "type": "uint256"
        }
      ],
      "name": "Transfer",
      "type": "event"
    },
    {
      "inputs": [],
      "name": "allVaults",
      "outputs": [
        {
          "internalType": "contract VaultAPI[]",
          "name": "",
          "type": "address[]"
        }
      ],
      "stateMutability": "view",
      "type": "function"
    },
    {
      "inputs": [
        {
          "internalType": "address",
          "name": "token",
          "type": "address"
        }
      ],
      "name": "allVaults",
      "outputs": [
        {
          "internalType": "contract VaultAPI[]",
          "name": "",
          "type": "address[]"
        }
      ],
      "stateMutability": "view",
      "type": "function"
    },
    {
      "inputs": [
        {
          "internalType": "address",
          "name": "",
          "type": "address"
        },
        {
          "internalType": "address",
          "name": "",
          "type": "address"
        }
      ],
      "name": "allowance",
      "outputs": [
        {
          "internalType": "uint256",
          "name": "",
          "type": "uint256"
        }
      ],
      "stateMutability": "view",
      "type": "function"
    },
    {
      "inputs": [
        {
          "internalType": "address",
          "name": "spender",
          "type": "address"
        },
        {
          "internalType": "uint256",
          "name": "amount",
          "type": "uint256"
        }
      ],
      "name": "approve",
      "outputs": [
        {
          "internalType": "bool",
          "name": "",
          "type": "bool"
        }
      ],
      "stateMutability": "nonpayable",
      "type": "function"
    },
    {
      "inputs": [
        {
          "internalType": "address",
          "name": "account",
          "type": "address"
        }
      ],
      "name": "balanceOf",
      "outputs": [
        {
          "internalType": "uint256",
          "name": "balance",
          "type": "uint256"
        }
      ],
      "stateMutability": "view",
      "type": "function"
    },
    {
      "inputs": [
        {
          "internalType": "address",
          "name": "token",
          "type": "address"
        }
      ],
      "name": "bestVault",
      "outputs": [
        {
          "internalType": "contract VaultAPI",
          "name": "",
          "type": "address"
        }
      ],
      "stateMutability": "view",
      "type": "function"
    },
    {
      "inputs": [],
      "name": "bestVault",
      "outputs": [
        {
          "internalType": "contract VaultAPI",
          "name": "",
          "type": "address"
        }
      ],
      "stateMutability": "view",
      "type": "function"
    },
    {
      "inputs": [],
      "name": "decimals",
      "outputs": [
        {
          "internalType": "uint256",
          "name": "",
          "type": "uint256"
        }
      ],
      "stateMutability": "view",
      "type": "function"
    },
    {
      "inputs": [
        {
          "internalType": "address",
          "name": "spender",
          "type": "address"
        },
        {
          "internalType": "uint256",
          "name": "subtractedValue",
          "type": "uint256"
        }
      ],
      "name": "decreaseAllowance",
      "outputs": [
        {
          "internalType": "bool",
          "name": "",
          "type": "bool"
        }
      ],
      "stateMutability": "nonpayable",
      "type": "function"
    },
    {
      "inputs": [
        {
          "internalType": "uint256",
          "name": "amount",
          "type": "uint256"
        }
      ],
      "name": "deposit",
      "outputs": [
        {
          "internalType": "uint256",
          "name": "",
          "type": "uint256"
        }
      ],
      "stateMutability": "nonpayable",
      "type": "function"
    },
    {
      "inputs": [],
      "name": "depositETH",
      "outputs": [
        {
          "internalType": "uint256",
          "name": "",
          "type": "uint256"
        }
      ],
      "stateMutability": "payable",
      "type": "function"
    },
    {
      "inputs": [
        {
          "internalType": "address",
          "name": "spender",
          "type": "address"
        },
        {
          "internalType": "uint256",
          "name": "addedValue",
          "type": "uint256"
        }
      ],
      "name": "increaseAllowance",
      "outputs": [
        {
          "internalType": "bool",
          "name": "",
          "type": "bool"
        }
      ],
      "stateMutability": "nonpayable",
      "type": "function"
    },
    {
      "inputs": [
        {
          "internalType": "contract VaultAPI[]",
          "name": "vaults",
          "type": "address[]"
        },
        {
          "internalType": "bytes[]",
          "name": "signatures",
          "type": "bytes[]"
        }
      ],
      "name": "migrate",
      "outputs": [
        {
          "internalType": "uint256",
          "name": "",
          "type": "uint256"
        }
      ],
      "stateMutability": "nonpayable",
      "type": "function"
    },
    {
      "inputs": [
        {
          "internalType": "uint256",
          "name": "amount",
          "type": "uint256"
        },
        {
          "internalType": "uint256",
          "name": "maxMigrationLoss",
          "type": "uint256"
        }
      ],
      "name": "migrate",
      "outputs": [
        {
          "internalType": "uint256",
          "name": "",
          "type": "uint256"
        }
      ],
      "stateMutability": "nonpayable",
      "type": "function"
    },
    {
      "inputs": [
        {
          "internalType": "contract VaultAPI[]",
          "name": "vaults",
          "type": "address[]"
        },
        {
          "internalType": "bytes[]",
          "name": "signatures",
          "type": "bytes[]"
        },
        {
          "internalType": "uint256",
          "name": "amount",
          "type": "uint256"
        }
      ],
      "name": "migrate",
      "outputs": [
        {
          "internalType": "uint256",
          "name": "",
          "type": "uint256"
        }
      ],
      "stateMutability": "nonpayable",
      "type": "function"
    },
    {
      "inputs": [
        {
          "internalType": "uint256",
          "name": "amount",
          "type": "uint256"
        }
      ],
      "name": "migrate",
      "outputs": [
        {
          "internalType": "uint256",
          "name": "",
          "type": "uint256"
        }
      ],
      "stateMutability": "nonpayable",
      "type": "function"
    },
    {
      "inputs": [],
      "name": "migrate",
      "outputs": [
        {
          "internalType": "uint256",
          "name": "",
          "type": "uint256"
        }
      ],
      "stateMutability": "nonpayable",
      "type": "function"
    },
    {
      "inputs": [
        {
          "internalType": "contract VaultAPI[]",
          "name": "vaults",
          "type": "address[]"
        },
        {
          "internalType": "bytes[]",
          "name": "signatures",
          "type": "bytes[]"
        },
        {
          "internalType": "address",
          "name": "user",
          "type": "address"
        },
        {
          "internalType": "uint256",
          "name": "amount",
          "type": "uint256"
        }
      ],
      "name": "migrate",
      "outputs": [
        {
          "internalType": "uint256",
          "name": "",
          "type": "uint256"
        }
      ],
      "stateMutability": "nonpayable",
      "type": "function"
    },
    {
      "inputs": [],
      "name": "name",
      "outputs": [
        {
          "internalType": "string",
          "name": "",
          "type": "string"
        }
      ],
      "stateMutability": "view",
      "type": "function"
    },
    {
      "inputs": [
        {
          "internalType": "contract VaultAPI[]",
          "name": "vaults",
          "type": "address[]"
        },
        {
          "internalType": "bytes[]",
          "name": "signatures",
          "type": "bytes[]"
        }
      ],
      "name": "permitAll",
      "outputs": [],
      "stateMutability": "nonpayable",
      "type": "function"
    },
    {
      "inputs": [],
      "name": "registry",
      "outputs": [
        {
          "internalType": "contract RegistryAPI",
          "name": "",
          "type": "address"
        }
      ],
      "stateMutability": "view",
      "type": "function"
    },
    {
      "inputs": [
        {
          "internalType": "contract VaultAPI[]",
          "name": "vaults",
          "type": "address[]"
        },
        {
          "internalType": "bytes[]",
          "name": "signatures",
          "type": "bytes[]"
        }
      ],
      "name": "revokeAll",
      "outputs": [],
      "stateMutability": "nonpayable",
      "type": "function"
    },
    {
      "inputs": [
        {
          "internalType": "address",
          "name": "_registry",
          "type": "address"
        }
      ],
      "name": "setRegistry",
      "outputs": [],
      "stateMutability": "nonpayable",
      "type": "function"
    },
    {
      "inputs": [],
      "name": "symbol",
      "outputs": [
        {
          "internalType": "string",
          "name": "",
          "type": "string"
        }
      ],
      "stateMutability": "view",
      "type": "function"
    },
    {
      "inputs": [],
      "name": "token",
      "outputs": [
        {
          "internalType": "contract IERC20",
          "name": "",
          "type": "address"
        }
      ],
      "stateMutability": "view",
      "type": "function"
    },
    {
      "inputs": [],
      "name": "totalAssets",
      "outputs": [
        {
          "internalType": "uint256",
          "name": "",
          "type": "uint256"
        }
      ],
      "stateMutability": "view",
      "type": "function"
    },
    {
      "inputs": [
        {
          "internalType": "address",
          "name": "token",
          "type": "address"
        }
      ],
      "name": "totalAssets",
      "outputs": [
        {
          "internalType": "uint256",
          "name": "assets",
          "type": "uint256"
        }
      ],
      "stateMutability": "view",
      "type": "function"
    },
    {
      "inputs": [],
      "name": "totalSupply",
      "outputs": [
        {
          "internalType": "uint256",
          "name": "total",
          "type": "uint256"
        }
      ],
      "stateMutability": "view",
      "type": "function"
    },
    {
      "inputs": [
        {
          "internalType": "address",
          "name": "token",
          "type": "address"
        },
        {
          "internalType": "address",
          "name": "account",
          "type": "address"
        }
      ],
      "name": "totalVaultBalance",
      "outputs": [
        {
          "internalType": "uint256",
          "name": "balance",
          "type": "uint256"
        }
      ],
      "stateMutability": "view",
      "type": "function"
    },
    {
      "inputs": [
        {
          "internalType": "address",
          "name": "account",
          "type": "address"
        }
      ],
      "name": "totalVaultBalance",
      "outputs": [
        {
          "internalType": "uint256",
          "name": "",
          "type": "uint256"
        }
      ],
      "stateMutability": "view",
      "type": "function"
    },
    {
      "inputs": [
        {
          "internalType": "address",
          "name": "receiver",
          "type": "address"
        },
        {
          "internalType": "uint256",
          "name": "amount",
          "type": "uint256"
        }
      ],
      "name": "transfer",
      "outputs": [
        {
          "internalType": "bool",
          "name": "",
          "type": "bool"
        }
      ],
      "stateMutability": "nonpayable",
      "type": "function"
    },
    {
      "inputs": [
        {
          "internalType": "address",
          "name": "sender",
          "type": "address"
        },
        {
          "internalType": "address",
          "name": "receiver",
          "type": "address"
        },
        {
          "internalType": "uint256",
          "name": "amount",
          "type": "uint256"
        }
      ],
      "name": "transferFrom",
      "outputs": [
        {
          "internalType": "bool",
          "name": "",
          "type": "bool"
        }
      ],
      "stateMutability": "nonpayable",
      "type": "function"
    },
    {
      "inputs": [
        {
          "internalType": "uint256",
          "name": "amount",
          "type": "uint256"
        }
      ],
      "name": "withdraw",
      "outputs": [
        {
          "internalType": "uint256",
          "name": "",
          "type": "uint256"
        }
      ],
      "stateMutability": "nonpayable",
      "type": "function"
    },
    {
      "inputs": [
        {
          "internalType": "uint256",
          "name": "amount",
          "type": "uint256"
        }
      ],
      "name": "withdrawETH",
      "outputs": [
        {
          "internalType": "uint256",
          "name": "withdrawn",
          "type": "uint256"
        }
      ],
      "stateMutability": "nonpayable",
      "type": "function"
    },
    {
      "stateMutability": "payable",
      "type": "receive"
    }
  ],
  "bytecode": "60806040523480156200001157600080fd5b50604051620034453803806200344583398101604081905262000034916200006b565b6001600055600280546001600160a01b039283166001600160a01b03199182161790915560038054929093169116179055620000c2565b600080604083850312156200007e578182fd5b82516200008b81620000a9565b60208401519092506200009e81620000a9565b809150509250929050565b6001600160a01b0381168114620000bf57600080fd5b50565b61337380620000d26000396000f3fe6080604052600436106101fd5760003560e01c80637b1039991161010d578063b02b7cc3116100a0578063e95b2de81161006f578063e95b2de8146105b7578063f14210a6146105cc578063f3e0ffbf146105ec578063f6326fb31461060c578063fc0c546a1461061457610220565b8063b02b7cc314610537578063b6b55f2514610557578063c8e801ed14610577578063dd62ed3e1461059757610220565b8063a457c2d7116100dc578063a457c2d7146104b7578063a9059cbb146104d7578063a91ee0dc146104f7578063ac0699071461051757610220565b80637b1039991461044b578063801348011461046d5780638fd3ab801461048d57806395d89b41146104a257610220565b80632e1a7d4d116101905780633e54bacb1161015f5780633e54bacb146103ab5780633f7046f9146103cb578063454b0608146103eb57806370a082311461040b578063732cd7ab1461042b57610220565b80632e1a7d4d1461033657806330e5065e14610356578063313ce56714610376578063395093511461038b57610220565b8063095ea7b3116101cc578063095ea7b3146102b457806318160ddd146102e1578063212a8c95146102f657806323b872dd1461031657610220565b806301e1d114146102255780630309beaf14610250578063063effeb1461027057806306fdde031461029257610220565b36610220576003546001600160a01b0316331461021e5761021c610629565b505b005b600080fd5b34801561023157600080fd5b5061023a6106a0565b6040516102479190613297565b60405180910390f35b34801561025c57600080fd5b5061023a61026b366004612b51565b6106bd565b34801561027c57600080fd5b506102856106e0565b6040516102479190612f29565b34801561029e57600080fd5b506102a76106f8565b6040516102479190612f81565b3480156102c057600080fd5b506102d46102cf366004612b26565b61079d565b6040516102479190612f76565b3480156102ed57600080fd5b5061023a6107b4565b34801561030257600080fd5b5061023a610311366004612aae565b6107be565b34801561032257600080fd5b506102d4610331366004612ae6565b6109a1565b34801561034257600080fd5b5061023a610351366004612d65565b6109f3565b34801561036257600080fd5b5061023a610371366004612a76565b610a0a565b34801561038257600080fd5b5061023a610a23565b34801561039757600080fd5b506102d46103a6366004612b26565b610aa8565b3480156103b757600080fd5b5061023a6103c6366004612d95565b610ade565b3480156103d757600080fd5b5061023a6103e6366004612c43565b610aeb565b3480156103f757600080fd5b5061023a610406366004612d65565b610b0e565b34801561041757600080fd5b5061023a610426366004612a76565b610b1a565b34801561043757600080fd5b50610285610446366004612a76565b610b25565b34801561045757600080fd5b50610460610dbe565b6040516102479190612e77565b34801561047957600080fd5b5061021e610488366004612b51565b610dcd565b34801561049957600080fd5b5061023a610ec1565b3480156104ae57600080fd5b506102a7610ecc565b3480156104c357600080fd5b506102d46104d2366004612b26565b610f5d565b3480156104e357600080fd5b506102d46104f2366004612b26565b610f93565b34801561050357600080fd5b5061021e610512366004612a76565b610fa0565b34801561052357600080fd5b50610460610532366004612a76565b6110f7565b34801561054357600080fd5b5061023a610552366004612bba565b611178565b34801561056357600080fd5b5061023a610572366004612d65565b61119c565b34801561058357600080fd5b5061021e610592366004612b51565b6111ab565b3480156105a357600080fd5b5061023a6105b2366004612aae565b6111be565b3480156105c357600080fd5b506104606111db565b3480156105d857600080fd5b5061023a6105e7366004612d65565b6111f3565b3480156105f857600080fd5b5061023a610607366004612a76565b6112ad565b61023a610629565b34801561062057600080fd5b50610460611360565b60035460408051630d0e30db60e41b8152905160009234926001600160a01b039091169163d0e30db09184916004808301928892919082900301818588803b15801561067457600080fd5b505af1158015610688573d6000803e3d6000fd5b505050505061069a303383600061136f565b91505090565b6003546000906106b8906001600160a01b03166112ad565b905090565b60006106cc338686868661138b565b6106d533611482565b90505b949350505050565b6003546060906106b8906001600160a01b0316610b25565b600354604080516306fdde0360e01b815290516060926001600160a01b0316916306fdde03916004808301926000929190829003018186803b15801561073d57600080fd5b505afa158015610751573d6000803e3d6000fd5b505050506040513d6000823e601f3d908101601f191682016040526107799190810190612cd4565b6040516020016107899190612e1d565b604051602081830303815290604052905090565b60006107aa338484611490565b5060015b92915050565b60006106b86106a0565b600060606107cb84610b25565b905060005b81518110156109995761098f6109888383815181106107eb57fe5b60200260200101516001600160a01b031663313ce5676040518163ffffffff1660e01b815260040160206040518083038186803b15801561082b57600080fd5b505afa15801561083f573d6000803e3d6000fd5b505050506040513d601f19601f820116820180604052508101906108639190612d7d565b600a0a61098285858151811061087557fe5b60200260200101516001600160a01b03166399530b066040518163ffffffff1660e01b815260040160206040518083038186803b1580156108b557600080fd5b505afa1580156108c9573d6000803e3d6000fd5b505050506040513d601f19601f820116820180604052508101906108ed9190612d7d565b8686815181106108f957fe5b60200260200101516001600160a01b03166370a082318a6040518263ffffffff1660e01b815260040161092c9190612e77565b60206040518083038186803b15801561094457600080fd5b505afa158015610958573d6000803e3d6000fd5b505050506040513d601f19601f8201168201806040525081019061097c9190612d7d565b90611544565b9061157e565b84906115c0565b92506001016107d0565b505092915050565b60006109ae8484846115e5565b6001600160a01b0384166000908152600460209081526040808320338085529252909120546109e89186916109e39086611666565b611490565b5060015b9392505050565b6000610a0233338460016116a8565b90505b919050565b600354600090610a02906001600160a01b0316836107be565b6003546040805163313ce56760e01b815290516000926001600160a01b03169163313ce567916004808301926020929190829003018186803b158015610a6857600080fd5b505afa158015610a7c573d6000803e3d6000fd5b505050506040513d601f19601f82011682018060405250810190610aa09190612db6565b60ff16905090565b3360008181526004602090815260408083206001600160a01b038716845290915281205490916107aa9185906109e390866115c0565b60006109ec3384846116c4565b6000610afa338787878761138b565b610b043383611878565b9695505050505050565b6000610a023383611878565b6000610a0282610a0a565b6001600160a01b0380821660009081526001602052604080822054600254915163f9c7bba560e01b81526060949193929091169063f9c7bba590610b6d908790600401612e77565b60206040518083038186803b158015610b8557600080fd5b505afa158015610b99573d6000803e3d6000fd5b505050506040513d601f19601f82011682018060405250810190610bbd9190612d7d565b905080821415610c3d576001600160a01b03841660009081526001602090815260409182902080548351818402810184019094528084529091830182828015610c2f57602002820191906000526020600020905b81546001600160a01b03168152600190910190602001808311610c11575b505050505092505050610a05565b60608167ffffffffffffffff81118015610c5657600080fd5b50604051908082528060200260200182016040528015610c80578160200160208202803683370190505b50905060005b83811015610cfc576001600160a01b0386166000908152600160205260409020805482908110610cb257fe5b9060005260206000200160009054906101000a90046001600160a01b0316828281518110610cdc57fe5b6001600160a01b0390921660209283029190910190910152600101610c86565b50825b82811015610db557600254604051633ddfe34f60e11b81526001600160a01b0390911690637bbfc69e90610d399089908590600401612f10565b60206040518083038186803b158015610d5157600080fd5b505afa158015610d65573d6000803e3d6000fd5b505050506040513d601f19601f82011682018060405250810190610d899190612a92565b828281518110610d9557fe5b6001600160a01b0390921660209283029190910190910152600101610cff565b50949350505050565b6002546001600160a01b031681565b828114610dd957600080fd5b60005b83811015610eba57848482818110610df057fe5b9050602002016020810190610e059190612a76565b6001600160a01b0316639fd5a6cf3330600080888888818110610e2457fe5b9050602002810190610e3691906132b7565b6040518763ffffffff1660e01b8152600401610e5796959493929190612e8b565b602060405180830381600087803b158015610e7157600080fd5b505af1158015610e85573d6000803e3d6000fd5b505050506040513d601f19601f82011682018060405250810190610ea99190612cb4565b610eb257600080fd5b600101610ddc565b5050505050565b60006106b833611482565b600354604080516395d89b4160e01b815290516060926001600160a01b0316916395d89b41916004808301926000929190829003018186803b158015610f1157600080fd5b505afa158015610f25573d6000803e3d6000fd5b505050506040513d6000823e601f3d908101601f19168201604052610f4d9190810190612cd4565b6040516020016107899190612e4b565b3360008181526004602090815260408083206001600160a01b038716845290915281205490916107aa9185906109e39086611666565b60006107aa3384846115e5565b600260009054906101000a90046001600160a01b03166001600160a01b0316635aa6e6756040518163ffffffff1660e01b815260040160206040518083038186803b158015610fee57600080fd5b505afa158015611002573d6000803e3d6000fd5b505050506040513d601f19601f820116820180604052508101906110269190612a92565b6001600160a01b0316336001600160a01b03161461104357600080fd5b600280546001600160a01b0319166001600160a01b03838116919091179182905560408051635aa6e67560e01b815290519290911691635aa6e67591600480820192602092909190829003018186803b15801561109f57600080fd5b505afa1580156110b3573d6000803e3d6000fd5b505050506040513d601f19601f820116820180604052508101906110d79190612a92565b6001600160a01b0316336001600160a01b0316146110f457600080fd5b50565b600254604051630e177dc760e41b81526000916001600160a01b03169063e177dc7090611128908590600401612e77565b60206040518083038186803b15801561114057600080fd5b505afa158015611154573d6000803e3d6000fd5b505050506040513d601f19601f82011682018060405250810190610a029190612a92565b6000611187838888888861138b565b6111918383611878565b979650505050505050565b6000610a02333384600161136f565b6111b8338585858561138b565b50505050565b600460209081526000928352604080842090915290825290205481565b6003546000906106b8906001600160a01b03166110f7565b6000600260005414156112215760405162461bcd60e51b81526004016112189061320a565b60405180910390fd5b600260005561123333308460016116a8565b600354604051632e1a7d4d60e01b81529192506001600160a01b031690632e1a7d4d90611264908490600401613297565b600060405180830381600087803b15801561127e57600080fd5b505af1158015611292573d6000803e3d6000fd5b506112a39250339150479050611886565b6001600055919050565b600060606112ba83610b25565b905060005b81518110156113595761134f8282815181106112d757fe5b60200260200101516001600160a01b03166301e1d1146040518163ffffffff1660e01b815260040160206040518083038186803b15801561131757600080fd5b505afa15801561132b573d6000803e3d6000fd5b505050506040513d601f19601f820116820180604052508101906109889190612d7d565b92506001016112bf565b5050919050565b6003546001600160a01b031681565b6003546000906106d5906001600160a01b031686868686611927565b82811461139757600080fd5b60005b8381101561147a578484828181106113ae57fe5b90506020020160208101906113c39190612a76565b6001600160a01b0316639fd5a6cf873060001960008888888181106113e457fe5b90506020028101906113f691906132b7565b6040518763ffffffff1660e01b815260040161141796959493929190612e8b565b602060405180830381600087803b15801561143157600080fd5b505af1158015611445573d6000803e3d6000fd5b505050506040513d601f19601f820116820180604052508101906114699190612cb4565b61147257600080fd5b60010161139a565b505050505050565b6000610a0282600019611878565b6001600160a01b0383166114b65760405162461bcd60e51b815260040161121890613145565b6001600160a01b0382166114dc5760405162461bcd60e51b815260040161121890612ff7565b6001600160a01b0380841660008181526004602090815260408083209487168084529490915290819020849055517f8c5be1e5ebec7d5bd14f71427d1e84f3dd0314c0f7b2291e5b200ac8c7c3b92590611537908590613297565b60405180910390a3505050565b600082611553575060006107ae565b8282028284828161156057fe5b04146109ec5760405162461bcd60e51b815260040161121890613104565b60006109ec83836040518060400160405280601a81526020017f536166654d6174683a206469766973696f6e206279207a65726f000000000000815250611cf2565b6000828201838110156109ec5760405162461bcd60e51b815260040161121890613039565b6001600160a01b03821661160b5760405162461bcd60e51b815260040161121890612fb4565b61161883838360016116a8565b811461162357600080fd5b816001600160a01b0316836001600160a01b03167fddf252ad1be2c89b69c2b068fc378daa952ba7f163c4a11628f55a4df523b3ef836040516115379190613297565b60006109ec83836040518060400160405280601e81526020017f536166654d6174683a207375627472616374696f6e206f766572666c6f770000815250611d29565b6003546000906106d5906001600160a01b031686868686611d55565b6000806116cf6111db565b90506000816001600160a01b031663ecf708586040518163ffffffff1660e01b815260040160206040518083038186803b15801561170c57600080fd5b505afa158015611720573d6000803e3d6000fd5b505050506040513d601f19601f820116820180604052508101906117449190612d7d565b90506000826001600160a01b03166301e1d1146040518163ffffffff1660e01b815260040160206040518083038186803b15801561178157600080fd5b505afa158015611795573d6000803e3d6000fd5b505050506040513d601f19601f820116820180604052508101906117b99190612d7d565b90508082116117ce57600093505050506109ec565b85600019831080156117e1575060001981105b156118025760006117f28484611666565b905080821115611800578091505b505b801561186d57600354600090611824906001600160a01b03168a308585611d55565b905080611839576000955050505050506109ec565b600354611853906001600160a01b0316308b846000611927565b9550866118608288611666565b111561186b57600080fd5b505b505050509392505050565b60006109ec838360006116c4565b804710156118a65760405162461bcd60e51b8152600401611218906130cd565b6000826001600160a01b0316826040516118bf90612e74565b60006040518083038185875af1925050503d80600081146118fc576040519150601f19603f3d011682016040523d82523d6000602084013e611901565b606091505b50509050806119225760405162461bcd60e51b815260040161121890613070565b505050565b600080611933876110f7565b905082156119d0576000198414156119c4576040516370a0823160e01b81526001600160a01b038816906370a0823190611971908990600401612e77565b60206040518083038186803b15801561198957600080fd5b505afa15801561199d573d6000803e3d6000fd5b505050506040513d601f19601f820116820180604052508101906119c19190612d7d565b93505b6119d087873087612675565b604051636eb1769f60e11b815284906001600160a01b0389169063dd62ed3e90611a009030908690600401612ed2565b60206040518083038186803b158015611a1857600080fd5b505afa158015611a2c573d6000803e3d6000fd5b505050506040513d601f19601f82011682018060405250810190611a509190612d7d565b1015611a6f57611a62878260006126cd565b611a6f87826000196126cd565b6040516370a0823160e01b81526000906001600160a01b038916906370a0823190611a9e903090600401612e77565b60206040518083038186803b158015611ab657600080fd5b505afa158015611aca573d6000803e3d6000fd5b505050506040513d601f19601f82011682018060405250810190611aee9190612d7d565b90506001600160a01b0386163014611b8657604051636e553f6560e01b81526001600160a01b03831690636e553f6590611b2e9088908a906004016132a0565b602060405180830381600087803b158015611b4857600080fd5b505af1158015611b5c573d6000803e3d6000fd5b505050506040513d601f19601f82011682018060405250810190611b809190612d7d565b50611c30565b6000198514611bbb5760405163b6b55f2560e01b81526001600160a01b0383169063b6b55f2590611b2e908890600401613297565b816001600160a01b031663d0e30db06040518163ffffffff1660e01b8152600401602060405180830381600087803b158015611bf657600080fd5b505af1158015611c0a573d6000803e3d6000fd5b505050506040513d601f19601f82011682018060405250810190611c2e9190612d7d565b505b6040516370a0823160e01b81526000906001600160a01b038a16906370a0823190611c5f903090600401612e77565b60206040518083038186803b158015611c7757600080fd5b505afa158015611c8b573d6000803e3d6000fd5b505050506040513d601f19601f82011682018060405250810190611caf9190612d7d565b9050611cbb8282611666565b93506001600160a01b0388163014801590611cd65750600081115b15611ce657611ce6898983612790565b50505095945050505050565b60008183611d135760405162461bcd60e51b81526004016112189190612f81565b506000838581611d1f57fe5b0495945050505050565b60008184841115611d4d5760405162461bcd60e51b81526004016112189190612f81565b505050900390565b600080611d61876110f7565b90506060611d6e88610b25565b9050611d7a88826127af565b60005b81518110156124225784158015611db85750826001600160a01b0316828281518110611da557fe5b60200260200101516001600160a01b0316145b15611dc25761241a565b6000828281518110611dd057fe5b60200260200101516001600160a01b03166370a082318a6040518263ffffffff1660e01b8152600401611e039190612e77565b60206040518083038186803b158015611e1b57600080fd5b505afa158015611e2f573d6000803e3d6000fd5b505050506040513d601f19601f82011682018060405250810190611e539190612d7d565b90506001600160a01b0389163014611f0257611eff81848481518110611e7557fe5b60200260200101516001600160a01b031663dd62ed3e8c306040518363ffffffff1660e01b8152600401611eaa929190612ed2565b60206040518083038186803b158015611ec257600080fd5b505afa158015611ed6573d6000803e3d6000fd5b505050506040513d601f19601f82011682018060405250810190611efa9190612d7d565b6127fd565b90505b611f5281848481518110611f1257fe5b60200260200101516001600160a01b03166375de29026040518163ffffffff1660e01b815260040160206040518083038186803b158015611ec257600080fd5b905080156124185760001987146122d1576000612080848481518110611f7457fe5b60200260200101516001600160a01b03166399530b066040518163ffffffff1660e01b815260040160206040518083038186803b158015611fb457600080fd5b505afa158015611fc8573d6000803e3d6000fd5b505050506040513d601f19601f82011682018060405250810190611fec9190612d7d565b610982868681518110611ffb57fe5b60200260200101516001600160a01b031663313ce5676040518163ffffffff1660e01b815260040160206040518083038186803b15801561203b57600080fd5b505afa15801561204f573d6000803e3d6000fd5b505050506040513d601f19601f820116820180604052508101906120739190612d7d565b600a0a61097c8c8b611666565b905060008111801561209157508181105b156121df576001600160a01b038a16301461213d578383815181106120b257fe5b60200260200101516001600160a01b03166323b872dd8b30846040518463ffffffff1660e01b81526004016120e993929190612eec565b602060405180830381600087803b15801561210357600080fd5b505af1158015612117573d6000803e3d6000fd5b505050506040513d601f19601f8201168201806040525081019061213b9190612cb4565b505b6121d884848151811061214c57fe5b60200260200101516001600160a01b0316632e1a7d4d836040518263ffffffff1660e01b815260040161217f9190613297565b602060405180830381600087803b15801561219957600080fd5b505af11580156121ad573d6000803e3d6000fd5b505050506040513d601f19601f820116820180604052508101906121d19190612d7d565b87906115c0565b95506122cb565b6001600160a01b038a163014612286578383815181106121fb57fe5b60200260200101516001600160a01b03166323b872dd8b30856040518463ffffffff1660e01b815260040161223293929190612eec565b602060405180830381600087803b15801561224c57600080fd5b505af1158015612260573d6000803e3d6000fd5b505050506040513d601f19601f820116820180604052508101906122849190612cb4565b505b6122c884848151811061229557fe5b60200260200101516001600160a01b0316632e1a7d4d846040518263ffffffff1660e01b815260040161217f9190613297565b95505b5061240b565b6001600160a01b0389163014612378578282815181106122ed57fe5b60200260200101516001600160a01b03166323b872dd8a30846040518463ffffffff1660e01b815260040161232493929190612eec565b602060405180830381600087803b15801561233e57600080fd5b505af1158015612352573d6000803e3d6000fd5b505050506040513d601f19601f820116820180604052508101906123769190612cb4565b505b61240883838151811061238757fe5b60200260200101516001600160a01b0316633ccfd60b6040518163ffffffff1660e01b8152600401602060405180830381600087803b1580156123c957600080fd5b505af11580156123dd573d6000803e3d6000fd5b505050506040513d601f19601f820116820180604052508101906124019190612d7d565b86906115c0565b94505b8487116124185750612422565b505b600101611d7d565b5084831180156125215750612515826001600160a01b031663313ce5676040518163ffffffff1660e01b815260040160206040518083038186803b15801561246957600080fd5b505afa15801561247d573d6000803e3d6000fd5b505050506040513d601f19601f820116820180604052508101906124a19190612d7d565b600a0a836001600160a01b03166399530b066040518163ffffffff1660e01b815260040160206040518083038186803b1580156124dd57600080fd5b505afa1580156124f1573d6000803e3d6000fd5b505050506040513d601f19601f820116820180604052508101906109829190612d7d565b61251f8487611666565b115b1561264f576125308386611666565b604051636eb1769f60e11b81526001600160a01b038a169063dd62ed3e9061255e9030908790600401612ed2565b60206040518083038186803b15801561257657600080fd5b505afa15801561258a573d6000803e3d6000fd5b505050506040513d601f19601f820116820180604052508101906125ae9190612d7d565b10156125c1576125c188836000196126cd565b6001600160a01b038216636e553f656125da8588611666565b896040518363ffffffff1660e01b81526004016125f89291906132a0565b602060405180830381600087803b15801561261257600080fd5b505af1158015612626573d6000803e3d6000fd5b505050506040513d601f19601f8201168201806040525081019061264a9190612d7d565b508492505b6001600160a01b038616301461266a5761266a888785612790565b505095945050505050565b6111b8846323b872dd60e01b85858560405160240161269693929190612eec565b60408051601f198184030181529190526020810180516001600160e01b03166001600160e01b031990931692909217909152612813565b8015806127555750604051636eb1769f60e11b81526001600160a01b0384169063dd62ed3e906127039030908690600401612ed2565b60206040518083038186803b15801561271b57600080fd5b505afa15801561272f573d6000803e3d6000fd5b505050506040513d601f19601f820116820180604052508101906127539190612d7d565b155b6127715760405162461bcd60e51b815260040161121890613241565b6119228363095ea7b360e01b8484604051602401612696929190612f10565b6119228363a9059cbb60e01b8484604051602401612696929190612f10565b6001600160a01b038216600090815260016020526040902054815111156127f9576001600160a01b03821660009081526001602090815260409091208251611922928401906129a9565b5050565b600081831061280c57816109ec565b5090919050565b6060612868826040518060400160405280602081526020017f5361666545524332303a206c6f772d6c6576656c2063616c6c206661696c6564815250856001600160a01b03166128a29092919063ffffffff16565b80519091501561192257808060200190518101906128869190612cb4565b6119225760405162461bcd60e51b8152600401611218906131c0565b60606106d8848460008560606128b785612970565b6128d35760405162461bcd60e51b815260040161121890613189565b60006060866001600160a01b031685876040516128f09190612e01565b60006040518083038185875af1925050503d806000811461292d576040519150601f19603f3d011682016040523d82523d6000602084013e612932565b606091505b509150915081156129465791506106d89050565b8051156129565780518082602001fd5b8360405162461bcd60e51b81526004016112189190612f81565b6000813f7fc5d2460186f7233c927e7db2dcc703c0e500b653ca82273b7bfad8045d85a4708181148015906106d8575050151592915050565b8280548282559060005260206000209081019282156129fe579160200282015b828111156129fe57825182546001600160a01b0319166001600160a01b039091161782556020909201916001909101906129c9565b50612a0a929150612a0e565b5090565b5b80821115612a0a5780546001600160a01b0319168155600101612a0f565b60008083601f840112612a3e578182fd5b50813567ffffffffffffffff811115612a55578182fd5b6020830191508360208083028501011115612a6f57600080fd5b9250929050565b600060208284031215612a87578081fd5b81356109ec81613328565b600060208284031215612aa3578081fd5b81516109ec81613328565b60008060408385031215612ac0578081fd5b8235612acb81613328565b91506020830135612adb81613328565b809150509250929050565b600080600060608486031215612afa578081fd5b8335612b0581613328565b92506020840135612b1581613328565b929592945050506040919091013590565b60008060408385031215612b38578182fd5b8235612b4381613328565b946020939093013593505050565b60008060008060408587031215612b66578081fd5b843567ffffffffffffffff80821115612b7d578283fd5b612b8988838901612a2d565b90965094506020870135915080821115612ba1578283fd5b50612bae87828801612a2d565b95989497509550505050565b60008060008060008060808789031215612bd2578182fd5b863567ffffffffffffffff80821115612be9578384fd5b612bf58a838b01612a2d565b90985096506020890135915080821115612c0d578384fd5b50612c1a89828a01612a2d565b9095509350506040870135612c2e81613328565b80925050606087013590509295509295509295565b600080600080600060608688031215612c5a578081fd5b853567ffffffffffffffff80821115612c71578283fd5b612c7d89838a01612a2d565b90975095506020880135915080821115612c95578283fd5b50612ca288828901612a2d565b96999598509660400135949350505050565b600060208284031215612cc5578081fd5b815180151581146109ec578182fd5b600060208284031215612ce5578081fd5b815167ffffffffffffffff80821115612cfc578283fd5b818401915084601f830112612d0f578283fd5b815181811115612d1d578384fd5b604051601f8201601f191681016020018381118282101715612d3d578586fd5b604052818152838201602001871015612d54578485fd5b610b048260208301602087016132fc565b600060208284031215612d76578081fd5b5035919050565b600060208284031215612d8e578081fd5b5051919050565b60008060408385031215612da7578182fd5b50508035926020909101359150565b600060208284031215612dc7578081fd5b815160ff811681146109ec578182fd5b60008284528282602086013780602084860101526020601f19601f85011685010190509392505050565b60008251612e138184602087016132fc565b9190910192915050565b60006502cb2b0b937160d51b82528251612e3e8160068501602087016132fc565b9190910160060192915050565b6000607960f81b82528251612e678160018501602087016132fc565b9190910160010192915050565b90565b6001600160a01b0391909116815260200190565b6001600160a01b03878116825286166020820152604081018590526060810184905260a060808201819052600090612ec69083018486612dd7565b98975050505050505050565b6001600160a01b0392831681529116602082015260400190565b6001600160a01b039384168152919092166020820152604081019190915260600190565b6001600160a01b03929092168252602082015260400190565b6020808252825182820181905260009190848201906040850190845b81811015612f6a5783516001600160a01b031683529284019291840191600101612f45565b50909695505050505050565b901515815260200190565b6000602082528251806020840152612fa08160408501602087016132fc565b601f01601f19169190910160400192915050565b60208082526023908201527f45524332303a207472616e7366657220746f20746865207a65726f206164647260408201526265737360e81b606082015260800190565b60208082526022908201527f45524332303a20617070726f766520746f20746865207a65726f206164647265604082015261737360f01b606082015260800190565b6020808252601b908201527f536166654d6174683a206164646974696f6e206f766572666c6f770000000000604082015260600190565b6020808252603a908201527f416464726573733a20756e61626c6520746f2073656e642076616c75652c207260408201527f6563697069656e74206d61792068617665207265766572746564000000000000606082015260800190565b6020808252601d908201527f416464726573733a20696e73756666696369656e742062616c616e6365000000604082015260600190565b60208082526021908201527f536166654d6174683a206d756c7469706c69636174696f6e206f766572666c6f6040820152607760f81b606082015260800190565b60208082526024908201527f45524332303a20617070726f76652066726f6d20746865207a65726f206164646040820152637265737360e01b606082015260800190565b6020808252601d908201527f416464726573733a2063616c6c20746f206e6f6e2d636f6e7472616374000000604082015260600190565b6020808252602a908201527f5361666545524332303a204552433230206f7065726174696f6e20646964206e6040820152691bdd081cdd58d8d9595960b21b606082015260800190565b6020808252601f908201527f5265656e7472616e637947756172643a207265656e7472616e742063616c6c00604082015260600190565b60208082526036908201527f5361666545524332303a20617070726f76652066726f6d206e6f6e2d7a65726f60408201527520746f206e6f6e2d7a65726f20616c6c6f77616e636560501b606082015260800190565b90815260200190565b9182526001600160a01b0316602082015260400190565b6000808335601e198436030181126132cd578283fd5b83018035915067ffffffffffffffff8211156132e7578283fd5b602001915036819003821315612a6f57600080fd5b60005b838110156133175781810151838201526020016132ff565b838111156111b85750506000910152565b6001600160a01b03811681146110f457600080fdfea26469706673582212200c647dab0206984ef91edc63f4d00420e3a34267faf81430c4b0ad7f89946f2b64736f6c634300060c0033",
  "bytecodeSha1": "acb15bddef46284ce0baddd5bde1a6775f9731f0",
  "compiler": {
    "evm_version": "istanbul",
    "optimizer": {
      "enabled": true,
      "runs": 200
    },
    "version": "0.6.12+commit.27d51765"
  },
  "contractName": "yWETH",
  "language": "Solidity",
  "natspec": {
    "kind": "dev",
    "methods": {
      "allVaults()": {
        "notice": "Used to get all vaults from the registery for the token",
        "returns": {
          "_0": "An array containing instances of VaultAPI"
        }
      },
      "allVaults(address)": {
        "notice": "Used to get all vaults from the registery for the token",
        "returns": {
          "_0": "An array containing instances of VaultAPI"
        }
      },
      "approve(address,uint256)": {
        "details": "Sets `amount` as the allowance of `spender` over the caller's tokens. Returns a boolean value indicating whether the operation succeeded. IMPORTANT: Beware that changing an allowance with this method brings the risk that someone may use both the old and the new allowance by unfortunate transaction ordering. One possible solution to mitigate this race condition is to first reduce the spender's allowance to 0 and set the desired value afterwards: https://github.com/ethereum/EIPs/issues/20#issuecomment-263524729 Emits an {Approval} event."
      },
      "balanceOf(address)": {
        "details": "Returns the amount of tokens owned by `account`."
      },
      "bestVault()": {
        "notice": "Used to get the most recent vault for the token using the registry.",
        "returns": {
          "_0": "An instance of a VaultAPI"
        }
      },
      "bestVault(address)": {
        "notice": "Used to get the most recent vault for the token using the registry.",
        "returns": {
          "_0": "An instance of a VaultAPI"
        }
      },
      "setRegistry(address)": {
        "notice": "Used to update the yearn registry.",
        "params": {
          "_registry": "The new _registry address."
        }
      },
      "totalAssets()": {
        "notice": "Used to get the TVL on the underlying vaults.",
        "returns": {
          "_0": "assets the sum of all the assets managed by the underlying vaults."
        }
      },
      "totalAssets(address)": {
        "notice": "Used to get the TVL on the underlying vaults.",
        "returns": {
          "assets": "the sum of all the assets managed by the underlying vaults."
        }
      },
      "totalSupply()": {
        "details": "Returns the amount of tokens in existence."
      },
      "totalVaultBalance(address)": {
        "details": "will be used to get the wrapper balance using totalVaultBalance(address(this)).",
        "notice": "Used to get the balance of an account accross all the vaults for a token.",
        "params": {
          "account": "The address of the account."
        },
        "returns": {
          "_0": "balance of token for the account accross all the vaults."
        }
      },
      "totalVaultBalance(address,address)": {
        "details": "will be used to get the router balance using totalVaultBalance(address(this)).",
        "notice": "Used to get the balance of an account accross all the vaults for a token.",
        "params": {
          "account": "The address of the account."
        },
        "returns": {
          "balance": "of token for the account accross all the vaults."
        }
      }
    },
    "version": 1
  },
  "opcodes": "PUSH1 0x80 PUSH1 0x40 MSTORE PUSH1 0x4 CALLDATASIZE LT PUSH2 0x1FD JUMPI PUSH1 0x0 CALLDATALOAD PUSH1 0xE0 SHR DUP1 PUSH4 0x7B103999 GT PUSH2 0x10D JUMPI DUP1 PUSH4 0xB02B7CC3 GT PUSH2 0xA0 JUMPI DUP1 PUSH4 0xE95B2DE8 GT PUSH2 0x6F JUMPI DUP1 PUSH4 0xE95B2DE8 EQ PUSH2 0x5B7 JUMPI DUP1 PUSH4 0xF14210A6 EQ PUSH2 0x5CC JUMPI DUP1 PUSH4 0xF3E0FFBF EQ PUSH2 0x5EC JUMPI DUP1 PUSH4 0xF6326FB3 EQ PUSH2 0x60C JUMPI DUP1 PUSH4 0xFC0C546A EQ PUSH2 0x614 JUMPI PUSH2 0x220 JUMP JUMPDEST DUP1 PUSH4 0xB02B7CC3 EQ PUSH2 0x537 JUMPI DUP1 PUSH4 0xB6B55F25 EQ PUSH2 0x557 JUMPI DUP1 PUSH4 0xC8E801ED EQ PUSH2 0x577 JUMPI DUP1 PUSH4 0xDD62ED3E EQ PUSH2 0x597 JUMPI PUSH2 0x220 JUMP JUMPDEST DUP1 PUSH4 0xA457C2D7 GT PUSH2 0xDC JUMPI DUP1 PUSH4 0xA457C2D7 EQ PUSH2 0x4B7 JUMPI DUP1 PUSH4 0xA9059CBB EQ PUSH2 0x4D7 JUMPI DUP1 PUSH4 0xA91EE0DC EQ PUSH2 0x4F7 JUMPI DUP1 PUSH4 0xAC069907 EQ PUSH2 0x517 JUMPI PUSH2 0x220 JUMP JUMPDEST DUP1 PUSH4 0x7B103999 EQ PUSH2 0x44B JUMPI DUP1 PUSH4 0x80134801 EQ PUSH2 0x46D JUMPI DUP1 PUSH4 0x8FD3AB80 EQ PUSH2 0x48D JUMPI DUP1 PUSH4 0x95D89B41 EQ PUSH2 0x4A2 JUMPI PUSH2 0x220 JUMP JUMPDEST DUP1 PUSH4 0x2E1A7D4D GT PUSH2 0x190 JUMPI DUP1 PUSH4 0x3E54BACB GT PUSH2 0x15F JUMPI DUP1 PUSH4 0x3E54BACB EQ PUSH2 0x3AB JUMPI DUP1 PUSH4 0x3F7046F9 EQ PUSH2 0x3CB JUMPI DUP1 PUSH4 0x454B0608 EQ PUSH2 0x3EB JUMPI DUP1 PUSH4 0x70A08231 EQ PUSH2 0x40B JUMPI DUP1 PUSH4 0x732CD7AB EQ PUSH2 0x42B JUMPI PUSH2 0x220 JUMP JUMPDEST DUP1 PUSH4 0x2E1A7D4D EQ PUSH2 0x336 JUMPI DUP1 PUSH4 0x30E5065E EQ PUSH2 0x356 JUMPI DUP1 PUSH4 0x313CE567 EQ PUSH2 0x376 JUMPI DUP1 PUSH4 0x39509351 EQ PUSH2 0x38B JUMPI PUSH2 0x220 JUMP JUMPDEST DUP1 PUSH4 0x95EA7B3 GT PUSH2 0x1CC JUMPI DUP1 PUSH4 0x95EA7B3 EQ PUSH2 0x2B4 JUMPI DUP1 PUSH4 0x18160DDD EQ PUSH2 0x2E1 JUMPI DUP1 PUSH4 0x212A8C95 EQ PUSH2 0x2F6 JUMPI DUP1 PUSH4 0x23B872DD EQ PUSH2 0x316 JUMPI PUSH2 0x220 JUMP JUMPDEST DUP1 PUSH4 0x1E1D114 EQ PUSH2 0x225 JUMPI DUP1 PUSH4 0x309BEAF EQ PUSH2 0x250 JUMPI DUP1 PUSH4 0x63EFFEB EQ PUSH2 0x270 JUMPI DUP1 PUSH4 0x6FDDE03 EQ PUSH2 0x292 JUMPI PUSH2 0x220 JUMP JUMPDEST CALLDATASIZE PUSH2 0x220 JUMPI PUSH1 0x3 SLOAD PUSH1 0x1 PUSH1 0x1 PUSH1 0xA0 SHL SUB AND CALLER EQ PUSH2 0x21E JUMPI PUSH2 0x21C PUSH2 0x629 JUMP JUMPDEST POP JUMPDEST STOP JUMPDEST PUSH1 0x0 DUP1 REVERT JUMPDEST CALLVALUE DUP1 ISZERO PUSH2 0x231 JUMPI PUSH1 0x0 DUP1 REVERT JUMPDEST POP PUSH2 0x23A PUSH2 0x6A0 JUMP JUMPDEST PUSH1 0x40 MLOAD PUSH2 0x247 SWAP2 SWAP1 PUSH2 0x3297 JUMP JUMPDEST PUSH1 0x40 MLOAD DUP1 SWAP2 SUB SWAP1 RETURN JUMPDEST CALLVALUE DUP1 ISZERO PUSH2 0x25C JUMPI PUSH1 0x0 DUP1 REVERT JUMPDEST POP PUSH2 0x23A PUSH2 0x26B CALLDATASIZE PUSH1 0x4 PUSH2 0x2B51 JUMP JUMPDEST PUSH2 0x6BD JUMP JUMPDEST CALLVALUE DUP1 ISZERO PUSH2 0x27C JUMPI PUSH1 0x0 DUP1 REVERT JUMPDEST POP PUSH2 0x285 PUSH2 0x6E0 JUMP JUMPDEST PUSH1 0x40 MLOAD PUSH2 0x247 SWAP2 SWAP1 PUSH2 0x2F29 JUMP JUMPDEST CALLVALUE DUP1 ISZERO PUSH2 0x29E JUMPI PUSH1 0x0 DUP1 REVERT JUMPDEST POP PUSH2 0x2A7 PUSH2 0x6F8 JUMP JUMPDEST PUSH1 0x40 MLOAD PUSH2 0x247 SWAP2 SWAP1 PUSH2 0x2F81 JUMP JUMPDEST CALLVALUE DUP1 ISZERO PUSH2 0x2C0 JUMPI PUSH1 0x0 DUP1 REVERT JUMPDEST POP PUSH2 0x2D4 PUSH2 0x2CF CALLDATASIZE PUSH1 0x4 PUSH2 0x2B26 JUMP JUMPDEST PUSH2 0x79D JUMP JUMPDEST PUSH1 0x40 MLOAD PUSH2 0x247 SWAP2 SWAP1 PUSH2 0x2F76 JUMP JUMPDEST CALLVALUE DUP1 ISZERO PUSH2 0x2ED JUMPI PUSH1 0x0 DUP1 REVERT JUMPDEST POP PUSH2 0x23A PUSH2 0x7B4 JUMP JUMPDEST CALLVALUE DUP1 ISZERO PUSH2 0x302 JUMPI PUSH1 0x0 DUP1 REVERT JUMPDEST POP PUSH2 0x23A PUSH2 0x311 CALLDATASIZE PUSH1 0x4 PUSH2 0x2AAE JUMP JUMPDEST PUSH2 0x7BE JUMP JUMPDEST CALLVALUE DUP1 ISZERO PUSH2 0x322 JUMPI PUSH1 0x0 DUP1 REVERT JUMPDEST POP PUSH2 0x2D4 PUSH2 0x331 CALLDATASIZE PUSH1 0x4 PUSH2 0x2AE6 JUMP JUMPDEST PUSH2 0x9A1 JUMP JUMPDEST CALLVALUE DUP1 ISZERO PUSH2 0x342 JUMPI PUSH1 0x0 DUP1 REVERT JUMPDEST POP PUSH2 0x23A PUSH2 0x351 CALLDATASIZE PUSH1 0x4 PUSH2 0x2D65 JUMP JUMPDEST PUSH2 0x9F3 JUMP JUMPDEST CALLVALUE DUP1 ISZERO PUSH2 0x362 JUMPI PUSH1 0x0 DUP1 REVERT JUMPDEST POP PUSH2 0x23A PUSH2 0x371 CALLDATASIZE PUSH1 0x4 PUSH2 0x2A76 JUMP JUMPDEST PUSH2 0xA0A JUMP JUMPDEST CALLVALUE DUP1 ISZERO PUSH2 0x382 JUMPI PUSH1 0x0 DUP1 REVERT JUMPDEST POP PUSH2 0x23A PUSH2 0xA23 JUMP JUMPDEST CALLVALUE DUP1 ISZERO PUSH2 0x397 JUMPI PUSH1 0x0 DUP1 REVERT JUMPDEST POP PUSH2 0x2D4 PUSH2 0x3A6 CALLDATASIZE PUSH1 0x4 PUSH2 0x2B26 JUMP JUMPDEST PUSH2 0xAA8 JUMP JUMPDEST CALLVALUE DUP1 ISZERO PUSH2 0x3B7 JUMPI PUSH1 0x0 DUP1 REVERT JUMPDEST POP PUSH2 0x23A PUSH2 0x3C6 CALLDATASIZE PUSH1 0x4 PUSH2 0x2D95 JUMP JUMPDEST PUSH2 0xADE JUMP JUMPDEST CALLVALUE DUP1 ISZERO PUSH2 0x3D7 JUMPI PUSH1 0x0 DUP1 REVERT JUMPDEST POP PUSH2 0x23A PUSH2 0x3E6 CALLDATASIZE PUSH1 0x4 PUSH2 0x2C43 JUMP JUMPDEST PUSH2 0xAEB JUMP JUMPDEST CALLVALUE DUP1 ISZERO PUSH2 0x3F7 JUMPI PUSH1 0x0 DUP1 REVERT JUMPDEST POP PUSH2 0x23A PUSH2 0x406 CALLDATASIZE PUSH1 0x4 PUSH2 0x2D65 JUMP JUMPDEST PUSH2 0xB0E JUMP JUMPDEST CALLVALUE DUP1 ISZERO PUSH2 0x417 JUMPI PUSH1 0x0 DUP1 REVERT JUMPDEST POP PUSH2 0x23A PUSH2 0x426 CALLDATASIZE PUSH1 0x4 PUSH2 0x2A76 JUMP JUMPDEST PUSH2 0xB1A JUMP JUMPDEST CALLVALUE DUP1 ISZERO PUSH2 0x437 JUMPI PUSH1 0x0 DUP1 REVERT JUMPDEST POP PUSH2 0x285 PUSH2 0x446 CALLDATASIZE PUSH1 0x4 PUSH2 0x2A76 JUMP JUMPDEST PUSH2 0xB25 JUMP JUMPDEST CALLVALUE DUP1 ISZERO PUSH2 0x457 JUMPI PUSH1 0x0 DUP1 REVERT JUMPDEST POP PUSH2 0x460 PUSH2 0xDBE JUMP JUMPDEST PUSH1 0x40 MLOAD PUSH2 0x247 SWAP2 SWAP1 PUSH2 0x2E77 JUMP JUMPDEST CALLVALUE DUP1 ISZERO PUSH2 0x479 JUMPI PUSH1 0x0 DUP1 REVERT JUMPDEST POP PUSH2 0x21E PUSH2 0x488 CALLDATASIZE PUSH1 0x4 PUSH2 0x2B51 JUMP JUMPDEST PUSH2 0xDCD JUMP JUMPDEST CALLVALUE DUP1 ISZERO PUSH2 0x499 JUMPI PUSH1 0x0 DUP1 REVERT JUMPDEST POP PUSH2 0x23A PUSH2 0xEC1 JUMP JUMPDEST CALLVALUE DUP1 ISZERO PUSH2 0x4AE JUMPI PUSH1 0x0 DUP1 REVERT JUMPDEST POP PUSH2 0x2A7 PUSH2 0xECC JUMP JUMPDEST CALLVALUE DUP1 ISZERO PUSH2 0x4C3 JUMPI PUSH1 0x0 DUP1 REVERT JUMPDEST POP PUSH2 0x2D4 PUSH2 0x4D2 CALLDATASIZE PUSH1 0x4 PUSH2 0x2B26 JUMP JUMPDEST PUSH2 0xF5D JUMP JUMPDEST CALLVALUE DUP1 ISZERO PUSH2 0x4E3 JUMPI PUSH1 0x0 DUP1 REVERT JUMPDEST POP PUSH2 0x2D4 PUSH2 0x4F2 CALLDATASIZE PUSH1 0x4 PUSH2 0x2B26 JUMP JUMPDEST PUSH2 0xF93 JUMP JUMPDEST CALLVALUE DUP1 ISZERO PUSH2 0x503 JUMPI PUSH1 0x0 DUP1 REVERT JUMPDEST POP PUSH2 0x21E PUSH2 0x512 CALLDATASIZE PUSH1 0x4 PUSH2 0x2A76 JUMP JUMPDEST PUSH2 0xFA0 JUMP JUMPDEST CALLVALUE DUP1 ISZERO PUSH2 0x523 JUMPI PUSH1 0x0 DUP1 REVERT JUMPDEST POP PUSH2 0x460 PUSH2 0x532 CALLDATASIZE PUSH1 0x4 PUSH2 0x2A76 JUMP JUMPDEST PUSH2 0x10F7 JUMP JUMPDEST CALLVALUE DUP1 ISZERO PUSH2 0x543 JUMPI PUSH1 0x0 DUP1 REVERT JUMPDEST POP PUSH2 0x23A PUSH2 0x552 CALLDATASIZE PUSH1 0x4 PUSH2 0x2BBA JUMP JUMPDEST PUSH2 0x1178 JUMP JUMPDEST CALLVALUE DUP1 ISZERO PUSH2 0x563 JUMPI PUSH1 0x0 DUP1 REVERT JUMPDEST POP PUSH2 0x23A PUSH2 0x572 CALLDATASIZE PUSH1 0x4 PUSH2 0x2D65 JUMP JUMPDEST PUSH2 0x119C JUMP JUMPDEST CALLVALUE DUP1 ISZERO PUSH2 0x583 JUMPI PUSH1 0x0 DUP1 REVERT JUMPDEST POP PUSH2 0x21E PUSH2 0x592 CALLDATASIZE PUSH1 0x4 PUSH2 0x2B51 JUMP JUMPDEST PUSH2 0x11AB JUMP JUMPDEST CALLVALUE DUP1 ISZERO PUSH2 0x5A3 JUMPI PUSH1 0x0 DUP1 REVERT JUMPDEST POP PUSH2 0x23A PUSH2 0x5B2 CALLDATASIZE PUSH1 0x4 PUSH2 0x2AAE JUMP JUMPDEST PUSH2 0x11BE JUMP JUMPDEST CALLVALUE DUP1 ISZERO PUSH2 0x5C3 JUMPI PUSH1 0x0 DUP1 REVERT JUMPDEST POP PUSH2 0x460 PUSH2 0x11DB JUMP JUMPDEST CALLVALUE DUP1 ISZERO PUSH2 0x5D8 JUMPI PUSH1 0x0 DUP1 REVERT JUMPDEST POP PUSH2 0x23A PUSH2 0x5E7 CALLDATASIZE PUSH1 0x4 PUSH2 0x2D65 JUMP JUMPDEST PUSH2 0x11F3 JUMP JUMPDEST CALLVALUE DUP1 ISZERO PUSH2 0x5F8 JUMPI PUSH1 0x0 DUP1 REVERT JUMPDEST POP PUSH2 0x23A PUSH2 0x607 CALLDATASIZE PUSH1 0x4 PUSH2 0x2A76 JUMP JUMPDEST PUSH2 0x12AD JUMP JUMPDEST PUSH2 0x23A PUSH2 0x629 JUMP JUMPDEST CALLVALUE DUP1 ISZERO PUSH2 0x620 JUMPI PUSH1 0x0 DUP1 REVERT JUMPDEST POP PUSH2 0x460 PUSH2 0x1360 JUMP JUMPDEST PUSH1 0x3 SLOAD PUSH1 0x40 DUP1 MLOAD PUSH4 0xD0E30DB PUSH1 0xE4 SHL DUP2 MSTORE SWAP1 MLOAD PUSH1 0x0 SWAP3 CALLVALUE SWAP3 PUSH1 0x1 PUSH1 0x1 PUSH1 0xA0 SHL SUB SWAP1 SWAP2 AND SWAP2 PUSH4 0xD0E30DB0 SWAP2 DUP5 SWAP2 PUSH1 0x4 DUP1 DUP4 ADD SWAP3 DUP9 SWAP3 SWAP2 SWAP1 DUP3 SWAP1 SUB ADD DUP2 DUP6 DUP9 DUP1 EXTCODESIZE ISZERO DUP1 ISZERO PUSH2 0x674 JUMPI PUSH1 0x0 DUP1 REVERT JUMPDEST POP GAS CALL ISZERO DUP1 ISZERO PUSH2 0x688 JUMPI RETURNDATASIZE PUSH1 0x0 DUP1 RETURNDATACOPY RETURNDATASIZE PUSH1 0x0 REVERT JUMPDEST POP POP POP POP POP PUSH2 0x69A ADDRESS CALLER DUP4 PUSH1 0x0 PUSH2 0x136F JUMP JUMPDEST SWAP2 POP POP SWAP1 JUMP JUMPDEST PUSH1 0x3 SLOAD PUSH1 0x0 SWAP1 PUSH2 0x6B8 SWAP1 PUSH1 0x1 PUSH1 0x1 PUSH1 0xA0 SHL SUB AND PUSH2 0x12AD JUMP JUMPDEST SWAP1 POP SWAP1 JUMP JUMPDEST PUSH1 0x0 PUSH2 0x6CC CALLER DUP7 DUP7 DUP7 DUP7 PUSH2 0x138B JUMP JUMPDEST PUSH2 0x6D5 CALLER PUSH2 0x1482 JUMP JUMPDEST SWAP1 POP JUMPDEST SWAP5 SWAP4 POP POP POP POP JUMP JUMPDEST PUSH1 0x3 SLOAD PUSH1 0x60 SWAP1 PUSH2 0x6B8 SWAP1 PUSH1 0x1 PUSH1 0x1 PUSH1 0xA0 SHL SUB AND PUSH2 0xB25 JUMP JUMPDEST PUSH1 0x3 SLOAD PUSH1 0x40 DUP1 MLOAD PUSH4 0x6FDDE03 PUSH1 0xE0 SHL DUP2 MSTORE SWAP1 MLOAD PUSH1 0x60 SWAP3 PUSH1 0x1 PUSH1 0x1 PUSH1 0xA0 SHL SUB AND SWAP2 PUSH4 0x6FDDE03 SWAP2 PUSH1 0x4 DUP1 DUP4 ADD SWAP3 PUSH1 0x0 SWAP3 SWAP2 SWAP1 DUP3 SWAP1 SUB ADD DUP2 DUP7 DUP1 EXTCODESIZE ISZERO DUP1 ISZERO PUSH2 0x73D JUMPI PUSH1 0x0 DUP1 REVERT JUMPDEST POP GAS STATICCALL ISZERO DUP1 ISZERO PUSH2 0x751 JUMPI RETURNDATASIZE PUSH1 0x0 DUP1 RETURNDATACOPY RETURNDATASIZE PUSH1 0x0 REVERT JUMPDEST POP POP POP POP PUSH1 0x40 MLOAD RETURNDATASIZE PUSH1 0x0 DUP3 RETURNDATACOPY PUSH1 0x1F RETURNDATASIZE SWAP1 DUP2 ADD PUSH1 0x1F NOT AND DUP3 ADD PUSH1 0x40 MSTORE PUSH2 0x779 SWAP2 SWAP1 DUP2 ADD SWAP1 PUSH2 0x2CD4 JUMP JUMPDEST PUSH1 0x40 MLOAD PUSH1 0x20 ADD PUSH2 0x789 SWAP2 SWAP1 PUSH2 0x2E1D JUMP JUMPDEST PUSH1 0x40 MLOAD PUSH1 0x20 DUP2 DUP4 SUB SUB DUP2 MSTORE SWAP1 PUSH1 0x40 MSTORE SWAP1 POP SWAP1 JUMP JUMPDEST PUSH1 0x0 PUSH2 0x7AA CALLER DUP5 DUP5 PUSH2 0x1490 JUMP JUMPDEST POP PUSH1 0x1 JUMPDEST SWAP3 SWAP2 POP POP JUMP JUMPDEST PUSH1 0x0 PUSH2 0x6B8 PUSH2 0x6A0 JUMP JUMPDEST PUSH1 0x0 PUSH1 0x60 PUSH2 0x7CB DUP5 PUSH2 0xB25 JUMP JUMPDEST SWAP1 POP PUSH1 0x0 JUMPDEST DUP2 MLOAD DUP2 LT ISZERO PUSH2 0x999 JUMPI PUSH2 0x98F PUSH2 0x988 DUP4 DUP4 DUP2 MLOAD DUP2 LT PUSH2 0x7EB JUMPI INVALID JUMPDEST PUSH1 0x20 MUL PUSH1 0x20 ADD ADD MLOAD PUSH1 0x1 PUSH1 0x1 PUSH1 0xA0 SHL SUB AND PUSH4 0x313CE567 PUSH1 0x40 MLOAD DUP2 PUSH4 0xFFFFFFFF AND PUSH1 0xE0 SHL DUP2 MSTORE PUSH1 0x4 ADD PUSH1 0x20 PUSH1 0x40 MLOAD DUP1 DUP4 SUB DUP2 DUP7 DUP1 EXTCODESIZE ISZERO DUP1 ISZERO PUSH2 0x82B JUMPI PUSH1 0x0 DUP1 REVERT JUMPDEST POP GAS STATICCALL ISZERO DUP1 ISZERO PUSH2 0x83F JUMPI RETURNDATASIZE PUSH1 0x0 DUP1 RETURNDATACOPY RETURNDATASIZE PUSH1 0x0 REVERT JUMPDEST POP POP POP POP PUSH1 0x40 MLOAD RETURNDATASIZE PUSH1 0x1F NOT PUSH1 0x1F DUP3 ADD AND DUP3 ADD DUP1 PUSH1 0x40 MSTORE POP DUP2 ADD SWAP1 PUSH2 0x863 SWAP2 SWAP1 PUSH2 0x2D7D JUMP JUMPDEST PUSH1 0xA EXP PUSH2 0x982 DUP6 DUP6 DUP2 MLOAD DUP2 LT PUSH2 0x875 JUMPI INVALID JUMPDEST PUSH1 0x20 MUL PUSH1 0x20 ADD ADD MLOAD PUSH1 0x1 PUSH1 0x1 PUSH1 0xA0 SHL SUB AND PUSH4 0x99530B06 PUSH1 0x40 MLOAD DUP2 PUSH4 0xFFFFFFFF AND PUSH1 0xE0 SHL DUP2 MSTORE PUSH1 0x4 ADD PUSH1 0x20 PUSH1 0x40 MLOAD DUP1 DUP4 SUB DUP2 DUP7 DUP1 EXTCODESIZE ISZERO DUP1 ISZERO PUSH2 0x8B5 JUMPI PUSH1 0x0 DUP1 REVERT JUMPDEST POP GAS STATICCALL ISZERO DUP1 ISZERO PUSH2 0x8C9 JUMPI RETURNDATASIZE PUSH1 0x0 DUP1 RETURNDATACOPY RETURNDATASIZE PUSH1 0x0 REVERT JUMPDEST POP POP POP POP PUSH1 0x40 MLOAD RETURNDATASIZE PUSH1 0x1F NOT PUSH1 0x1F DUP3 ADD AND DUP3 ADD DUP1 PUSH1 0x40 MSTORE POP DUP2 ADD SWAP1 PUSH2 0x8ED SWAP2 SWAP1 PUSH2 0x2D7D JUMP JUMPDEST DUP7 DUP7 DUP2 MLOAD DUP2 LT PUSH2 0x8F9 JUMPI INVALID JUMPDEST PUSH1 0x20 MUL PUSH1 0x20 ADD ADD MLOAD PUSH1 0x1 PUSH1 0x1 PUSH1 0xA0 SHL SUB AND PUSH4 0x70A08231 DUP11 PUSH1 0x40 MLOAD DUP3 PUSH4 0xFFFFFFFF AND PUSH1 0xE0 SHL DUP2 MSTORE PUSH1 0x4 ADD PUSH2 0x92C SWAP2 SWAP1 PUSH2 0x2E77 JUMP JUMPDEST PUSH1 0x20 PUSH1 0x40 MLOAD DUP1 DUP4 SUB DUP2 DUP7 DUP1 EXTCODESIZE ISZERO DUP1 ISZERO PUSH2 0x944 JUMPI PUSH1 0x0 DUP1 REVERT JUMPDEST POP GAS STATICCALL ISZERO DUP1 ISZERO PUSH2 0x958 JUMPI RETURNDATASIZE PUSH1 0x0 DUP1 RETURNDATACOPY RETURNDATASIZE PUSH1 0x0 REVERT JUMPDEST POP POP POP POP PUSH1 0x40 MLOAD RETURNDATASIZE PUSH1 0x1F NOT PUSH1 0x1F DUP3 ADD AND DUP3 ADD DUP1 PUSH1 0x40 MSTORE POP DUP2 ADD SWAP1 PUSH2 0x97C SWAP2 SWAP1 PUSH2 0x2D7D JUMP JUMPDEST SWAP1 PUSH2 0x1544 JUMP JUMPDEST SWAP1 PUSH2 0x157E JUMP JUMPDEST DUP5 SWAP1 PUSH2 0x15C0 JUMP JUMPDEST SWAP3 POP PUSH1 0x1 ADD PUSH2 0x7D0 JUMP JUMPDEST POP POP SWAP3 SWAP2 POP POP JUMP JUMPDEST PUSH1 0x0 PUSH2 0x9AE DUP5 DUP5 DUP5 PUSH2 0x15E5 JUMP JUMPDEST PUSH1 0x1 PUSH1 0x1 PUSH1 0xA0 SHL SUB DUP5 AND PUSH1 0x0 SWAP1 DUP2 MSTORE PUSH1 0x4 PUSH1 0x20 SWAP1 DUP2 MSTORE PUSH1 0x40 DUP1 DUP4 KECCAK256 CALLER DUP1 DUP6 MSTORE SWAP3 MSTORE SWAP1 SWAP2 KECCAK256 SLOAD PUSH2 0x9E8 SWAP2 DUP7 SWAP2 PUSH2 0x9E3 SWAP1 DUP7 PUSH2 0x1666 JUMP JUMPDEST PUSH2 0x1490 JUMP JUMPDEST POP PUSH1 0x1 JUMPDEST SWAP4 SWAP3 POP POP POP JUMP JUMPDEST PUSH1 0x0 PUSH2 0xA02 CALLER CALLER DUP5 PUSH1 0x1 PUSH2 0x16A8 JUMP JUMPDEST SWAP1 POP JUMPDEST SWAP2 SWAP1 POP JUMP JUMPDEST PUSH1 0x3 SLOAD PUSH1 0x0 SWAP1 PUSH2 0xA02 SWAP1 PUSH1 0x1 PUSH1 0x1 PUSH1 0xA0 SHL SUB AND DUP4 PUSH2 0x7BE JUMP JUMPDEST PUSH1 0x3 SLOAD PUSH1 0x40 DUP1 MLOAD PUSH4 0x313CE567 PUSH1 0xE0 SHL DUP2 MSTORE SWAP1 MLOAD PUSH1 0x0 SWAP3 PUSH1 0x1 PUSH1 0x1 PUSH1 0xA0 SHL SUB AND SWAP2 PUSH4 0x313CE567 SWAP2 PUSH1 0x4 DUP1 DUP4 ADD SWAP3 PUSH1 0x20 SWAP3 SWAP2 SWAP1 DUP3 SWAP1 SUB ADD DUP2 DUP7 DUP1 EXTCODESIZE ISZERO DUP1 ISZERO PUSH2 0xA68 JUMPI PUSH1 0x0 DUP1 REVERT JUMPDEST POP GAS STATICCALL ISZERO DUP1 ISZERO PUSH2 0xA7C JUMPI RETURNDATASIZE PUSH1 0x0 DUP1 RETURNDATACOPY RETURNDATASIZE PUSH1 0x0 REVERT JUMPDEST POP POP POP POP PUSH1 0x40 MLOAD RETURNDATASIZE PUSH1 0x1F NOT PUSH1 0x1F DUP3 ADD AND DUP3 ADD DUP1 PUSH1 0x40 MSTORE POP DUP2 ADD SWAP1 PUSH2 0xAA0 SWAP2 SWAP1 PUSH2 0x2DB6 JUMP JUMPDEST PUSH1 0xFF AND SWAP1 POP SWAP1 JUMP JUMPDEST CALLER PUSH1 0x0 DUP2 DUP2 MSTORE PUSH1 0x4 PUSH1 0x20 SWAP1 DUP2 MSTORE PUSH1 0x40 DUP1 DUP4 KECCAK256 PUSH1 0x1 PUSH1 0x1 PUSH1 0xA0 SHL SUB DUP8 AND DUP5 MSTORE SWAP1 SWAP2 MSTORE DUP2 KECCAK256 SLOAD SWAP1 SWAP2 PUSH2 0x7AA SWAP2 DUP6 SWAP1 PUSH2 0x9E3 SWAP1 DUP7 PUSH2 0x15C0 JUMP JUMPDEST PUSH1 0x0 PUSH2 0x9EC CALLER DUP5 DUP5 PUSH2 0x16C4 JUMP JUMPDEST PUSH1 0x0 PUSH2 0xAFA CALLER DUP8 DUP8 DUP8 DUP8 PUSH2 0x138B JUMP JUMPDEST PUSH2 0xB04 CALLER DUP4 PUSH2 0x1878 JUMP JUMPDEST SWAP7 SWAP6 POP POP POP POP POP POP JUMP JUMPDEST PUSH1 0x0 PUSH2 0xA02 CALLER DUP4 PUSH2 0x1878 JUMP JUMPDEST PUSH1 0x0 PUSH2 0xA02 DUP3 PUSH2 0xA0A JUMP JUMPDEST PUSH1 0x1 PUSH1 0x1 PUSH1 0xA0 SHL SUB DUP1 DUP3 AND PUSH1 0x0 SWAP1 DUP2 MSTORE PUSH1 0x1 PUSH1 0x20 MSTORE PUSH1 0x40 DUP1 DUP3 KECCAK256 SLOAD PUSH1 0x2 SLOAD SWAP2 MLOAD PUSH4 0xF9C7BBA5 PUSH1 0xE0 SHL DUP2 MSTORE PUSH1 0x60 SWAP5 SWAP2 SWAP4 SWAP3 SWAP1 SWAP2 AND SWAP1 PUSH4 0xF9C7BBA5 SWAP1 PUSH2 0xB6D SWAP1 DUP8 SWAP1 PUSH1 0x4 ADD PUSH2 0x2E77 JUMP JUMPDEST PUSH1 0x20 PUSH1 0x40 MLOAD DUP1 DUP4 SUB DUP2 DUP7 DUP1 EXTCODESIZE ISZERO DUP1 ISZERO PUSH2 0xB85 JUMPI PUSH1 0x0 DUP1 REVERT JUMPDEST POP GAS STATICCALL ISZERO DUP1 ISZERO PUSH2 0xB99 JUMPI RETURNDATASIZE PUSH1 0x0 DUP1 RETURNDATACOPY RETURNDATASIZE PUSH1 0x0 REVERT JUMPDEST POP POP POP POP PUSH1 0x40 MLOAD RETURNDATASIZE PUSH1 0x1F NOT PUSH1 0x1F DUP3 ADD AND DUP3 ADD DUP1 PUSH1 0x40 MSTORE POP DUP2 ADD SWAP1 PUSH2 0xBBD SWAP2 SWAP1 PUSH2 0x2D7D JUMP JUMPDEST SWAP1 POP DUP1 DUP3 EQ ISZERO PUSH2 0xC3D JUMPI PUSH1 0x1 PUSH1 0x1 PUSH1 0xA0 SHL SUB DUP5 AND PUSH1 0x0 SWAP1 DUP2 MSTORE PUSH1 0x1 PUSH1 0x20 SWAP1 DUP2 MSTORE PUSH1 0x40 SWAP2 DUP3 SWAP1 KECCAK256 DUP1 SLOAD DUP4 MLOAD DUP2 DUP5 MUL DUP2 ADD DUP5 ADD SWAP1 SWAP5 MSTORE DUP1 DUP5 MSTORE SWAP1 SWAP2 DUP4 ADD DUP3 DUP3 DUP1 ISZERO PUSH2 0xC2F JUMPI PUSH1 0x20 MUL DUP3 ADD SWAP2 SWAP1 PUSH1 0x0 MSTORE PUSH1 0x20 PUSH1 0x0 KECCAK256 SWAP1 JUMPDEST DUP2 SLOAD PUSH1 0x1 PUSH1 0x1 PUSH1 0xA0 SHL SUB AND DUP2 MSTORE PUSH1 0x1 SWAP1 SWAP2 ADD SWAP1 PUSH1 0x20 ADD DUP1 DUP4 GT PUSH2 0xC11 JUMPI JUMPDEST POP POP POP POP POP SWAP3 POP POP POP PUSH2 0xA05 JUMP JUMPDEST PUSH1 0x60 DUP2 PUSH8 0xFFFFFFFFFFFFFFFF DUP2 GT DUP1 ISZERO PUSH2 0xC56 JUMPI PUSH1 0x0 DUP1 REVERT JUMPDEST POP PUSH1 0x40 MLOAD SWAP1 DUP1 DUP3 MSTORE DUP1 PUSH1 0x20 MUL PUSH1 0x20 ADD DUP3 ADD PUSH1 0x40 MSTORE DUP1 ISZERO PUSH2 0xC80 JUMPI DUP2 PUSH1 0x20 ADD PUSH1 0x20 DUP3 MUL DUP1 CALLDATASIZE DUP4 CALLDATACOPY ADD SWAP1 POP JUMPDEST POP SWAP1 POP PUSH1 0x0 JUMPDEST DUP4 DUP2 LT ISZERO PUSH2 0xCFC JUMPI PUSH1 0x1 PUSH1 0x1 PUSH1 0xA0 SHL SUB DUP7 AND PUSH1 0x0 SWAP1 DUP2 MSTORE PUSH1 0x1 PUSH1 0x20 MSTORE PUSH1 0x40 SWAP1 KECCAK256 DUP1 SLOAD DUP3 SWAP1 DUP2 LT PUSH2 0xCB2 JUMPI INVALID JUMPDEST SWAP1 PUSH1 0x0 MSTORE PUSH1 0x20 PUSH1 0x0 KECCAK256 ADD PUSH1 0x0 SWAP1 SLOAD SWAP1 PUSH2 0x100 EXP SWAP1 DIV PUSH1 0x1 PUSH1 0x1 PUSH1 0xA0 SHL SUB AND DUP3 DUP3 DUP2 MLOAD DUP2 LT PUSH2 0xCDC JUMPI INVALID JUMPDEST PUSH1 0x1 PUSH1 0x1 PUSH1 0xA0 SHL SUB SWAP1 SWAP3 AND PUSH1 0x20 SWAP3 DUP4 MUL SWAP2 SWAP1 SWAP2 ADD SWAP1 SWAP2 ADD MSTORE PUSH1 0x1 ADD PUSH2 0xC86 JUMP JUMPDEST POP DUP3 JUMPDEST DUP3 DUP2 LT ISZERO PUSH2 0xDB5 JUMPI PUSH1 0x2 SLOAD PUSH1 0x40 MLOAD PUSH4 0x3DDFE34F PUSH1 0xE1 SHL DUP2 MSTORE PUSH1 0x1 PUSH1 0x1 PUSH1 0xA0 SHL SUB SWAP1 SWAP2 AND SWAP1 PUSH4 0x7BBFC69E SWAP1 PUSH2 0xD39 SWAP1 DUP10 SWAP1 DUP6 SWAP1 PUSH1 0x4 ADD PUSH2 0x2F10 JUMP JUMPDEST PUSH1 0x20 PUSH1 0x40 MLOAD DUP1 DUP4 SUB DUP2 DUP7 DUP1 EXTCODESIZE ISZERO DUP1 ISZERO PUSH2 0xD51 JUMPI PUSH1 0x0 DUP1 REVERT JUMPDEST POP GAS STATICCALL ISZERO DUP1 ISZERO PUSH2 0xD65 JUMPI RETURNDATASIZE PUSH1 0x0 DUP1 RETURNDATACOPY RETURNDATASIZE PUSH1 0x0 REVERT JUMPDEST POP POP POP POP PUSH1 0x40 MLOAD RETURNDATASIZE PUSH1 0x1F NOT PUSH1 0x1F DUP3 ADD AND DUP3 ADD DUP1 PUSH1 0x40 MSTORE POP DUP2 ADD SWAP1 PUSH2 0xD89 SWAP2 SWAP1 PUSH2 0x2A92 JUMP JUMPDEST DUP3 DUP3 DUP2 MLOAD DUP2 LT PUSH2 0xD95 JUMPI INVALID JUMPDEST PUSH1 0x1 PUSH1 0x1 PUSH1 0xA0 SHL SUB SWAP1 SWAP3 AND PUSH1 0x20 SWAP3 DUP4 MUL SWAP2 SWAP1 SWAP2 ADD SWAP1 SWAP2 ADD MSTORE PUSH1 0x1 ADD PUSH2 0xCFF JUMP JUMPDEST POP SWAP5 SWAP4 POP POP POP POP JUMP JUMPDEST PUSH1 0x2 SLOAD PUSH1 0x1 PUSH1 0x1 PUSH1 0xA0 SHL SUB AND DUP2 JUMP JUMPDEST DUP3 DUP2 EQ PUSH2 0xDD9 JUMPI PUSH1 0x0 DUP1 REVERT JUMPDEST PUSH1 0x0 JUMPDEST DUP4 DUP2 LT ISZERO PUSH2 0xEBA JUMPI DUP5 DUP5 DUP3 DUP2 DUP2 LT PUSH2 0xDF0 JUMPI INVALID JUMPDEST SWAP1 POP PUSH1 0x20 MUL ADD PUSH1 0x20 DUP2 ADD SWAP1 PUSH2 0xE05 SWAP2 SWAP1 PUSH2 0x2A76 JUMP JUMPDEST PUSH1 0x1 PUSH1 0x1 PUSH1 0xA0 SHL SUB AND PUSH4 0x9FD5A6CF CALLER ADDRESS PUSH1 0x0 DUP1 DUP9 DUP9 DUP9 DUP2 DUP2 LT PUSH2 0xE24 JUMPI INVALID JUMPDEST SWAP1 POP PUSH1 0x20 MUL DUP2 ADD SWAP1 PUSH2 0xE36 SWAP2 SWAP1 PUSH2 0x32B7 JUMP JUMPDEST PUSH1 0x40 MLOAD DUP8 PUSH4 0xFFFFFFFF AND PUSH1 0xE0 SHL DUP2 MSTORE PUSH1 0x4 ADD PUSH2 0xE57 SWAP7 SWAP6 SWAP5 SWAP4 SWAP3 SWAP2 SWAP1 PUSH2 0x2E8B JUMP JUMPDEST PUSH1 0x20 PUSH1 0x40 MLOAD DUP1 DUP4 SUB DUP2 PUSH1 0x0 DUP8 DUP1 EXTCODESIZE ISZERO DUP1 ISZERO PUSH2 0xE71 JUMPI PUSH1 0x0 DUP1 REVERT JUMPDEST POP GAS CALL ISZERO DUP1 ISZERO PUSH2 0xE85 JUMPI RETURNDATASIZE PUSH1 0x0 DUP1 RETURNDATACOPY RETURNDATASIZE PUSH1 0x0 REVERT JUMPDEST POP POP POP POP PUSH1 0x40 MLOAD RETURNDATASIZE PUSH1 0x1F NOT PUSH1 0x1F DUP3 ADD AND DUP3 ADD DUP1 PUSH1 0x40 MSTORE POP DUP2 ADD SWAP1 PUSH2 0xEA9 SWAP2 SWAP1 PUSH2 0x2CB4 JUMP JUMPDEST PUSH2 0xEB2 JUMPI PUSH1 0x0 DUP1 REVERT JUMPDEST PUSH1 0x1 ADD PUSH2 0xDDC JUMP JUMPDEST POP POP POP POP POP JUMP JUMPDEST PUSH1 0x0 PUSH2 0x6B8 CALLER PUSH2 0x1482 JUMP JUMPDEST PUSH1 0x3 SLOAD PUSH1 0x40 DUP1 MLOAD PUSH4 0x95D89B41 PUSH1 0xE0 SHL DUP2 MSTORE SWAP1 MLOAD PUSH1 0x60 SWAP3 PUSH1 0x1 PUSH1 0x1 PUSH1 0xA0 SHL SUB AND SWAP2 PUSH4 0x95D89B41 SWAP2 PUSH1 0x4 DUP1 DUP4 ADD SWAP3 PUSH1 0x0 SWAP3 SWAP2 SWAP1 DUP3 SWAP1 SUB ADD DUP2 DUP7 DUP1 EXTCODESIZE ISZERO DUP1 ISZERO PUSH2 0xF11 JUMPI PUSH1 0x0 DUP1 REVERT JUMPDEST POP GAS STATICCALL ISZERO DUP1 ISZERO PUSH2 0xF25 JUMPI RETURNDATASIZE PUSH1 0x0 DUP1 RETURNDATACOPY RETURNDATASIZE PUSH1 0x0 REVERT JUMPDEST POP POP POP POP PUSH1 0x40 MLOAD RETURNDATASIZE PUSH1 0x0 DUP3 RETURNDATACOPY PUSH1 0x1F RETURNDATASIZE SWAP1 DUP2 ADD PUSH1 0x1F NOT AND DUP3 ADD PUSH1 0x40 MSTORE PUSH2 0xF4D SWAP2 SWAP1 DUP2 ADD SWAP1 PUSH2 0x2CD4 JUMP JUMPDEST PUSH1 0x40 MLOAD PUSH1 0x20 ADD PUSH2 0x789 SWAP2 SWAP1 PUSH2 0x2E4B JUMP JUMPDEST CALLER PUSH1 0x0 DUP2 DUP2 MSTORE PUSH1 0x4 PUSH1 0x20 SWAP1 DUP2 MSTORE PUSH1 0x40 DUP1 DUP4 KECCAK256 PUSH1 0x1 PUSH1 0x1 PUSH1 0xA0 SHL SUB DUP8 AND DUP5 MSTORE SWAP1 SWAP2 MSTORE DUP2 KECCAK256 SLOAD SWAP1 SWAP2 PUSH2 0x7AA SWAP2 DUP6 SWAP1 PUSH2 0x9E3 SWAP1 DUP7 PUSH2 0x1666 JUMP JUMPDEST PUSH1 0x0 PUSH2 0x7AA CALLER DUP5 DUP5 PUSH2 0x15E5 JUMP JUMPDEST PUSH1 0x2 PUSH1 0x0 SWAP1 SLOAD SWAP1 PUSH2 0x100 EXP SWAP1 DIV PUSH1 0x1 PUSH1 0x1 PUSH1 0xA0 SHL SUB AND PUSH1 0x1 PUSH1 0x1 PUSH1 0xA0 SHL SUB AND PUSH4 0x5AA6E675 PUSH1 0x40 MLOAD DUP2 PUSH4 0xFFFFFFFF AND PUSH1 0xE0 SHL DUP2 MSTORE PUSH1 0x4 ADD PUSH1 0x20 PUSH1 0x40 MLOAD DUP1 DUP4 SUB DUP2 DUP7 DUP1 EXTCODESIZE ISZERO DUP1 ISZERO PUSH2 0xFEE JUMPI PUSH1 0x0 DUP1 REVERT JUMPDEST POP GAS STATICCALL ISZERO DUP1 ISZERO PUSH2 0x1002 JUMPI RETURNDATASIZE PUSH1 0x0 DUP1 RETURNDATACOPY RETURNDATASIZE PUSH1 0x0 REVERT JUMPDEST POP POP POP POP PUSH1 0x40 MLOAD RETURNDATASIZE PUSH1 0x1F NOT PUSH1 0x1F DUP3 ADD AND DUP3 ADD DUP1 PUSH1 0x40 MSTORE POP DUP2 ADD SWAP1 PUSH2 0x1026 SWAP2 SWAP1 PUSH2 0x2A92 JUMP JUMPDEST PUSH1 0x1 PUSH1 0x1 PUSH1 0xA0 SHL SUB AND CALLER PUSH1 0x1 PUSH1 0x1 PUSH1 0xA0 SHL SUB AND EQ PUSH2 0x1043 JUMPI PUSH1 0x0 DUP1 REVERT JUMPDEST PUSH1 0x2 DUP1 SLOAD PUSH1 0x1 PUSH1 0x1 PUSH1 0xA0 SHL SUB NOT AND PUSH1 0x1 PUSH1 0x1 PUSH1 0xA0 SHL SUB DUP4 DUP2 AND SWAP2 SWAP1 SWAP2 OR SWAP2 DUP3 SWAP1 SSTORE PUSH1 0x40 DUP1 MLOAD PUSH4 0x5AA6E675 PUSH1 0xE0 SHL DUP2 MSTORE SWAP1 MLOAD SWAP3 SWAP1 SWAP2 AND SWAP2 PUSH4 0x5AA6E675 SWAP2 PUSH1 0x4 DUP1 DUP3 ADD SWAP3 PUSH1 0x20 SWAP3 SWAP1 SWAP2 SWAP1 DUP3 SWAP1 SUB ADD DUP2 DUP7 DUP1 EXTCODESIZE ISZERO DUP1 ISZERO PUSH2 0x109F JUMPI PUSH1 0x0 DUP1 REVERT JUMPDEST POP GAS STATICCALL ISZERO DUP1 ISZERO PUSH2 0x10B3 JUMPI RETURNDATASIZE PUSH1 0x0 DUP1 RETURNDATACOPY RETURNDATASIZE PUSH1 0x0 REVERT JUMPDEST POP POP POP POP PUSH1 0x40 MLOAD RETURNDATASIZE PUSH1 0x1F NOT PUSH1 0x1F DUP3 ADD AND DUP3 ADD DUP1 PUSH1 0x40 MSTORE POP DUP2 ADD SWAP1 PUSH2 0x10D7 SWAP2 SWAP1 PUSH2 0x2A92 JUMP JUMPDEST PUSH1 0x1 PUSH1 0x1 PUSH1 0xA0 SHL SUB AND CALLER PUSH1 0x1 PUSH1 0x1 PUSH1 0xA0 SHL SUB AND EQ PUSH2 0x10F4 JUMPI PUSH1 0x0 DUP1 REVERT JUMPDEST POP JUMP JUMPDEST PUSH1 0x2 SLOAD PUSH1 0x40 MLOAD PUSH4 0xE177DC7 PUSH1 0xE4 SHL DUP2 MSTORE PUSH1 0x0 SWAP2 PUSH1 0x1 PUSH1 0x1 PUSH1 0xA0 SHL SUB AND SWAP1 PUSH4 0xE177DC70 SWAP1 PUSH2 0x1128 SWAP1 DUP6 SWAP1 PUSH1 0x4 ADD PUSH2 0x2E77 JUMP JUMPDEST PUSH1 0x20 PUSH1 0x40 MLOAD DUP1 DUP4 SUB DUP2 DUP7 DUP1 EXTCODESIZE ISZERO DUP1 ISZERO PUSH2 0x1140 JUMPI PUSH1 0x0 DUP1 REVERT JUMPDEST POP GAS STATICCALL ISZERO DUP1 ISZERO PUSH2 0x1154 JUMPI RETURNDATASIZE PUSH1 0x0 DUP1 RETURNDATACOPY RETURNDATASIZE PUSH1 0x0 REVERT JUMPDEST POP POP POP POP PUSH1 0x40 MLOAD RETURNDATASIZE PUSH1 0x1F NOT PUSH1 0x1F DUP3 ADD AND DUP3 ADD DUP1 PUSH1 0x40 MSTORE POP DUP2 ADD SWAP1 PUSH2 0xA02 SWAP2 SWAP1 PUSH2 0x2A92 JUMP JUMPDEST PUSH1 0x0 PUSH2 0x1187 DUP4 DUP9 DUP9 DUP9 DUP9 PUSH2 0x138B JUMP JUMPDEST PUSH2 0x1191 DUP4 DUP4 PUSH2 0x1878 JUMP JUMPDEST SWAP8 SWAP7 POP POP POP POP POP POP POP JUMP JUMPDEST PUSH1 0x0 PUSH2 0xA02 CALLER CALLER DUP5 PUSH1 0x1 PUSH2 0x136F JUMP JUMPDEST PUSH2 0x11B8 CALLER DUP6 DUP6 DUP6 DUP6 PUSH2 0x138B JUMP JUMPDEST POP POP POP POP JUMP JUMPDEST PUSH1 0x4 PUSH1 0x20 SWAP1 DUP2 MSTORE PUSH1 0x0 SWAP3 DUP4 MSTORE PUSH1 0x40 DUP1 DUP5 KECCAK256 SWAP1 SWAP2 MSTORE SWAP1 DUP3 MSTORE SWAP1 KECCAK256 SLOAD DUP2 JUMP JUMPDEST PUSH1 0x3 SLOAD PUSH1 0x0 SWAP1 PUSH2 0x6B8 SWAP1 PUSH1 0x1 PUSH1 0x1 PUSH1 0xA0 SHL SUB AND PUSH2 0x10F7 JUMP JUMPDEST PUSH1 0x0 PUSH1 0x2 PUSH1 0x0 SLOAD EQ ISZERO PUSH2 0x1221 JUMPI PUSH1 0x40 MLOAD PUSH3 0x461BCD PUSH1 0xE5 SHL DUP2 MSTORE PUSH1 0x4 ADD PUSH2 0x1218 SWAP1 PUSH2 0x320A JUMP JUMPDEST PUSH1 0x40 MLOAD DUP1 SWAP2 SUB SWAP1 REVERT JUMPDEST PUSH1 0x2 PUSH1 0x0 SSTORE PUSH2 0x1233 CALLER ADDRESS DUP5 PUSH1 0x1 PUSH2 0x16A8 JUMP JUMPDEST PUSH1 0x3 SLOAD PUSH1 0x40 MLOAD PUSH4 0x2E1A7D4D PUSH1 0xE0 SHL DUP2 MSTORE SWAP2 SWAP3 POP PUSH1 0x1 PUSH1 0x1 PUSH1 0xA0 SHL SUB AND SWAP1 PUSH4 0x2E1A7D4D SWAP1 PUSH2 0x1264 SWAP1 DUP5 SWAP1 PUSH1 0x4 ADD PUSH2 0x3297 JUMP JUMPDEST PUSH1 0x0 PUSH1 0x40 MLOAD DUP1 DUP4 SUB DUP2 PUSH1 0x0 DUP8 DUP1 EXTCODESIZE ISZERO DUP1 ISZERO PUSH2 0x127E JUMPI PUSH1 0x0 DUP1 REVERT JUMPDEST POP GAS CALL ISZERO DUP1 ISZERO PUSH2 0x1292 JUMPI RETURNDATASIZE PUSH1 0x0 DUP1 RETURNDATACOPY RETURNDATASIZE PUSH1 0x0 REVERT JUMPDEST POP PUSH2 0x12A3 SWAP3 POP CALLER SWAP2 POP SELFBALANCE SWAP1 POP PUSH2 0x1886 JUMP JUMPDEST PUSH1 0x1 PUSH1 0x0 SSTORE SWAP2 SWAP1 POP JUMP JUMPDEST PUSH1 0x0 PUSH1 0x60 PUSH2 0x12BA DUP4 PUSH2 0xB25 JUMP JUMPDEST SWAP1 POP PUSH1 0x0 JUMPDEST DUP2 MLOAD DUP2 LT ISZERO PUSH2 0x1359 JUMPI PUSH2 0x134F DUP3 DUP3 DUP2 MLOAD DUP2 LT PUSH2 0x12D7 JUMPI INVALID JUMPDEST PUSH1 0x20 MUL PUSH1 0x20 ADD ADD MLOAD PUSH1 0x1 PUSH1 0x1 PUSH1 0xA0 SHL SUB AND PUSH4 0x1E1D114 PUSH1 0x40 MLOAD DUP2 PUSH4 0xFFFFFFFF AND PUSH1 0xE0 SHL DUP2 MSTORE PUSH1 0x4 ADD PUSH1 0x20 PUSH1 0x40 MLOAD DUP1 DUP4 SUB DUP2 DUP7 DUP1 EXTCODESIZE ISZERO DUP1 ISZERO PUSH2 0x1317 JUMPI PUSH1 0x0 DUP1 REVERT JUMPDEST POP GAS STATICCALL ISZERO DUP1 ISZERO PUSH2 0x132B JUMPI RETURNDATASIZE PUSH1 0x0 DUP1 RETURNDATACOPY RETURNDATASIZE PUSH1 0x0 REVERT JUMPDEST POP POP POP POP PUSH1 0x40 MLOAD RETURNDATASIZE PUSH1 0x1F NOT PUSH1 0x1F DUP3 ADD AND DUP3 ADD DUP1 PUSH1 0x40 MSTORE POP DUP2 ADD SWAP1 PUSH2 0x988 SWAP2 SWAP1 PUSH2 0x2D7D JUMP JUMPDEST SWAP3 POP PUSH1 0x1 ADD PUSH2 0x12BF JUMP JUMPDEST POP POP SWAP2 SWAP1 POP JUMP JUMPDEST PUSH1 0x3 SLOAD PUSH1 0x1 PUSH1 0x1 PUSH1 0xA0 SHL SUB AND DUP2 JUMP JUMPDEST PUSH1 0x3 SLOAD PUSH1 0x0 SWAP1 PUSH2 0x6D5 SWAP1 PUSH1 0x1 PUSH1 0x1 PUSH1 0xA0 SHL SUB AND DUP7 DUP7 DUP7 DUP7 PUSH2 0x1927 JUMP JUMPDEST DUP3 DUP2 EQ PUSH2 0x1397 JUMPI PUSH1 0x0 DUP1 REVERT JUMPDEST PUSH1 0x0 JUMPDEST DUP4 DUP2 LT ISZERO PUSH2 0x147A JUMPI DUP5 DUP5 DUP3 DUP2 DUP2 LT PUSH2 0x13AE JUMPI INVALID JUMPDEST SWAP1 POP PUSH1 0x20 MUL ADD PUSH1 0x20 DUP2 ADD SWAP1 PUSH2 0x13C3 SWAP2 SWAP1 PUSH2 0x2A76 JUMP JUMPDEST PUSH1 0x1 PUSH1 0x1 PUSH1 0xA0 SHL SUB AND PUSH4 0x9FD5A6CF DUP8 ADDRESS PUSH1 0x0 NOT PUSH1 0x0 DUP9 DUP9 DUP9 DUP2 DUP2 LT PUSH2 0x13E4 JUMPI INVALID JUMPDEST SWAP1 POP PUSH1 0x20 MUL DUP2 ADD SWAP1 PUSH2 0x13F6 SWAP2 SWAP1 PUSH2 0x32B7 JUMP JUMPDEST PUSH1 0x40 MLOAD DUP8 PUSH4 0xFFFFFFFF AND PUSH1 0xE0 SHL DUP2 MSTORE PUSH1 0x4 ADD PUSH2 0x1417 SWAP7 SWAP6 SWAP5 SWAP4 SWAP3 SWAP2 SWAP1 PUSH2 0x2E8B JUMP JUMPDEST PUSH1 0x20 PUSH1 0x40 MLOAD DUP1 DUP4 SUB DUP2 PUSH1 0x0 DUP8 DUP1 EXTCODESIZE ISZERO DUP1 ISZERO PUSH2 0x1431 JUMPI PUSH1 0x0 DUP1 REVERT JUMPDEST POP GAS CALL ISZERO DUP1 ISZERO PUSH2 0x1445 JUMPI RETURNDATASIZE PUSH1 0x0 DUP1 RETURNDATACOPY RETURNDATASIZE PUSH1 0x0 REVERT JUMPDEST POP POP POP POP PUSH1 0x40 MLOAD RETURNDATASIZE PUSH1 0x1F NOT PUSH1 0x1F DUP3 ADD AND DUP3 ADD DUP1 PUSH1 0x40 MSTORE POP DUP2 ADD SWAP1 PUSH2 0x1469 SWAP2 SWAP1 PUSH2 0x2CB4 JUMP JUMPDEST PUSH2 0x1472 JUMPI PUSH1 0x0 DUP1 REVERT JUMPDEST PUSH1 0x1 ADD PUSH2 0x139A JUMP JUMPDEST POP POP POP POP POP POP JUMP JUMPDEST PUSH1 0x0 PUSH2 0xA02 DUP3 PUSH1 0x0 NOT PUSH2 0x1878 JUMP JUMPDEST PUSH1 0x1 PUSH1 0x1 PUSH1 0xA0 SHL SUB DUP4 AND PUSH2 0x14B6 JUMPI PUSH1 0x40 MLOAD PUSH3 0x461BCD PUSH1 0xE5 SHL DUP2 MSTORE PUSH1 0x4 ADD PUSH2 0x1218 SWAP1 PUSH2 0x3145 JUMP JUMPDEST PUSH1 0x1 PUSH1 0x1 PUSH1 0xA0 SHL SUB DUP3 AND PUSH2 0x14DC JUMPI PUSH1 0x40 MLOAD PUSH3 0x461BCD PUSH1 0xE5 SHL DUP2 MSTORE PUSH1 0x4 ADD PUSH2 0x1218 SWAP1 PUSH2 0x2FF7 JUMP JUMPDEST PUSH1 0x1 PUSH1 0x1 PUSH1 0xA0 SHL SUB DUP1 DUP5 AND PUSH1 0x0 DUP2 DUP2 MSTORE PUSH1 0x4 PUSH1 0x20 SWAP1 DUP2 MSTORE PUSH1 0x40 DUP1 DUP4 KECCAK256 SWAP5 DUP8 AND DUP1 DUP5 MSTORE SWAP5 SWAP1 SWAP2 MSTORE SWAP1 DUP2 SWAP1 KECCAK256 DUP5 SWAP1 SSTORE MLOAD PUSH32 0x8C5BE1E5EBEC7D5BD14F71427D1E84F3DD0314C0F7B2291E5B200AC8C7C3B925 SWAP1 PUSH2 0x1537 SWAP1 DUP6 SWAP1 PUSH2 0x3297 JUMP JUMPDEST PUSH1 0x40 MLOAD DUP1 SWAP2 SUB SWAP1 LOG3 POP POP POP JUMP JUMPDEST PUSH1 0x0 DUP3 PUSH2 0x1553 JUMPI POP PUSH1 0x0 PUSH2 0x7AE JUMP JUMPDEST DUP3 DUP3 MUL DUP3 DUP5 DUP3 DUP2 PUSH2 0x1560 JUMPI INVALID JUMPDEST DIV EQ PUSH2 0x9EC JUMPI PUSH1 0x40 MLOAD PUSH3 0x461BCD PUSH1 0xE5 SHL DUP2 MSTORE PUSH1 0x4 ADD PUSH2 0x1218 SWAP1 PUSH2 0x3104 JUMP JUMPDEST PUSH1 0x0 PUSH2 0x9EC DUP4 DUP4 PUSH1 0x40 MLOAD DUP1 PUSH1 0x40 ADD PUSH1 0x40 MSTORE DUP1 PUSH1 0x1A DUP2 MSTORE PUSH1 0x20 ADD PUSH32 0x536166654D6174683A206469766973696F6E206279207A65726F000000000000 DUP2 MSTORE POP PUSH2 0x1CF2 JUMP JUMPDEST PUSH1 0x0 DUP3 DUP3 ADD DUP4 DUP2 LT ISZERO PUSH2 0x9EC JUMPI PUSH1 0x40 MLOAD PUSH3 0x461BCD PUSH1 0xE5 SHL DUP2 MSTORE PUSH1 0x4 ADD PUSH2 0x1218 SWAP1 PUSH2 0x3039 JUMP JUMPDEST PUSH1 0x1 PUSH1 0x1 PUSH1 0xA0 SHL SUB DUP3 AND PUSH2 0x160B JUMPI PUSH1 0x40 MLOAD PUSH3 0x461BCD PUSH1 0xE5 SHL DUP2 MSTORE PUSH1 0x4 ADD PUSH2 0x1218 SWAP1 PUSH2 0x2FB4 JUMP JUMPDEST PUSH2 0x1618 DUP4 DUP4 DUP4 PUSH1 0x1 PUSH2 0x16A8 JUMP JUMPDEST DUP2 EQ PUSH2 0x1623 JUMPI PUSH1 0x0 DUP1 REVERT JUMPDEST DUP2 PUSH1 0x1 PUSH1 0x1 PUSH1 0xA0 SHL SUB AND DUP4 PUSH1 0x1 PUSH1 0x1 PUSH1 0xA0 SHL SUB AND PUSH32 0xDDF252AD1BE2C89B69C2B068FC378DAA952BA7F163C4A11628F55A4DF523B3EF DUP4 PUSH1 0x40 MLOAD PUSH2 0x1537 SWAP2 SWAP1 PUSH2 0x3297 JUMP JUMPDEST PUSH1 0x0 PUSH2 0x9EC DUP4 DUP4 PUSH1 0x40 MLOAD DUP1 PUSH1 0x40 ADD PUSH1 0x40 MSTORE DUP1 PUSH1 0x1E DUP2 MSTORE PUSH1 0x20 ADD PUSH32 0x536166654D6174683A207375627472616374696F6E206F766572666C6F770000 DUP2 MSTORE POP PUSH2 0x1D29 JUMP JUMPDEST PUSH1 0x3 SLOAD PUSH1 0x0 SWAP1 PUSH2 0x6D5 SWAP1 PUSH1 0x1 PUSH1 0x1 PUSH1 0xA0 SHL SUB AND DUP7 DUP7 DUP7 DUP7 PUSH2 0x1D55 JUMP JUMPDEST PUSH1 0x0 DUP1 PUSH2 0x16CF PUSH2 0x11DB JUMP JUMPDEST SWAP1 POP PUSH1 0x0 DUP2 PUSH1 0x1 PUSH1 0x1 PUSH1 0xA0 SHL SUB AND PUSH4 0xECF70858 PUSH1 0x40 MLOAD DUP2 PUSH4 0xFFFFFFFF AND PUSH1 0xE0 SHL DUP2 MSTORE PUSH1 0x4 ADD PUSH1 0x20 PUSH1 0x40 MLOAD DUP1 DUP4 SUB DUP2 DUP7 DUP1 EXTCODESIZE ISZERO DUP1 ISZERO PUSH2 0x170C JUMPI PUSH1 0x0 DUP1 REVERT JUMPDEST POP GAS STATICCALL ISZERO DUP1 ISZERO PUSH2 0x1720 JUMPI RETURNDATASIZE PUSH1 0x0 DUP1 RETURNDATACOPY RETURNDATASIZE PUSH1 0x0 REVERT JUMPDEST POP POP POP POP PUSH1 0x40 MLOAD RETURNDATASIZE PUSH1 0x1F NOT PUSH1 0x1F DUP3 ADD AND DUP3 ADD DUP1 PUSH1 0x40 MSTORE POP DUP2 ADD SWAP1 PUSH2 0x1744 SWAP2 SWAP1 PUSH2 0x2D7D JUMP JUMPDEST SWAP1 POP PUSH1 0x0 DUP3 PUSH1 0x1 PUSH1 0x1 PUSH1 0xA0 SHL SUB AND PUSH4 0x1E1D114 PUSH1 0x40 MLOAD DUP2 PUSH4 0xFFFFFFFF AND PUSH1 0xE0 SHL DUP2 MSTORE PUSH1 0x4 ADD PUSH1 0x20 PUSH1 0x40 MLOAD DUP1 DUP4 SUB DUP2 DUP7 DUP1 EXTCODESIZE ISZERO DUP1 ISZERO PUSH2 0x1781 JUMPI PUSH1 0x0 DUP1 REVERT JUMPDEST POP GAS STATICCALL ISZERO DUP1 ISZERO PUSH2 0x1795 JUMPI RETURNDATASIZE PUSH1 0x0 DUP1 RETURNDATACOPY RETURNDATASIZE PUSH1 0x0 REVERT JUMPDEST POP POP POP POP PUSH1 0x40 MLOAD RETURNDATASIZE PUSH1 0x1F NOT PUSH1 0x1F DUP3 ADD AND DUP3 ADD DUP1 PUSH1 0x40 MSTORE POP DUP2 ADD SWAP1 PUSH2 0x17B9 SWAP2 SWAP1 PUSH2 0x2D7D JUMP JUMPDEST SWAP1 POP DUP1 DUP3 GT PUSH2 0x17CE JUMPI PUSH1 0x0 SWAP4 POP POP POP POP PUSH2 0x9EC JUMP JUMPDEST DUP6 PUSH1 0x0 NOT DUP4 LT DUP1 ISZERO PUSH2 0x17E1 JUMPI POP PUSH1 0x0 NOT DUP2 LT JUMPDEST ISZERO PUSH2 0x1802 JUMPI PUSH1 0x0 PUSH2 0x17F2 DUP5 DUP5 PUSH2 0x1666 JUMP JUMPDEST SWAP1 POP DUP1 DUP3 GT ISZERO PUSH2 0x1800 JUMPI DUP1 SWAP2 POP JUMPDEST POP JUMPDEST DUP1 ISZERO PUSH2 0x186D JUMPI PUSH1 0x3 SLOAD PUSH1 0x0 SWAP1 PUSH2 0x1824 SWAP1 PUSH1 0x1 PUSH1 0x1 PUSH1 0xA0 SHL SUB AND DUP11 ADDRESS DUP6 DUP6 PUSH2 0x1D55 JUMP JUMPDEST SWAP1 POP DUP1 PUSH2 0x1839 JUMPI PUSH1 0x0 SWAP6 POP POP POP POP POP POP PUSH2 0x9EC JUMP JUMPDEST PUSH1 0x3 SLOAD PUSH2 0x1853 SWAP1 PUSH1 0x1 PUSH1 0x1 PUSH1 0xA0 SHL SUB AND ADDRESS DUP12 DUP5 PUSH1 0x0 PUSH2 0x1927 JUMP JUMPDEST SWAP6 POP DUP7 PUSH2 0x1860 DUP3 DUP9 PUSH2 0x1666 JUMP JUMPDEST GT ISZERO PUSH2 0x186B JUMPI PUSH1 0x0 DUP1 REVERT JUMPDEST POP JUMPDEST POP POP POP POP SWAP4 SWAP3 POP POP POP JUMP JUMPDEST PUSH1 0x0 PUSH2 0x9EC DUP4 DUP4 PUSH1 0x0 PUSH2 0x16C4 JUMP JUMPDEST DUP1 SELFBALANCE LT ISZERO PUSH2 0x18A6 JUMPI PUSH1 0x40 MLOAD PUSH3 0x461BCD PUSH1 0xE5 SHL DUP2 MSTORE PUSH1 0x4 ADD PUSH2 0x1218 SWAP1 PUSH2 0x30CD JUMP JUMPDEST PUSH1 0x0 DUP3 PUSH1 0x1 PUSH1 0x1 PUSH1 0xA0 SHL SUB AND DUP3 PUSH1 0x40 MLOAD PUSH2 0x18BF SWAP1 PUSH2 0x2E74 JUMP JUMPDEST PUSH1 0x0 PUSH1 0x40 MLOAD DUP1 DUP4 SUB DUP2 DUP6 DUP8 GAS CALL SWAP3 POP POP POP RETURNDATASIZE DUP1 PUSH1 0x0 DUP2 EQ PUSH2 0x18FC JUMPI PUSH1 0x40 MLOAD SWAP2 POP PUSH1 0x1F NOT PUSH1 0x3F RETURNDATASIZE ADD AND DUP3 ADD PUSH1 0x40 MSTORE RETURNDATASIZE DUP3 MSTORE RETURNDATASIZE PUSH1 0x0 PUSH1 0x20 DUP5 ADD RETURNDATACOPY PUSH2 0x1901 JUMP JUMPDEST PUSH1 0x60 SWAP2 POP JUMPDEST POP POP SWAP1 POP DUP1 PUSH2 0x1922 JUMPI PUSH1 0x40 MLOAD PUSH3 0x461BCD PUSH1 0xE5 SHL DUP2 MSTORE PUSH1 0x4 ADD PUSH2 0x1218 SWAP1 PUSH2 0x3070 JUMP JUMPDEST POP POP POP JUMP JUMPDEST PUSH1 0x0 DUP1 PUSH2 0x1933 DUP8 PUSH2 0x10F7 JUMP JUMPDEST SWAP1 POP DUP3 ISZERO PUSH2 0x19D0 JUMPI PUSH1 0x0 NOT DUP5 EQ ISZERO PUSH2 0x19C4 JUMPI PUSH1 0x40 MLOAD PUSH4 0x70A08231 PUSH1 0xE0 SHL DUP2 MSTORE PUSH1 0x1 PUSH1 0x1 PUSH1 0xA0 SHL SUB DUP9 AND SWAP1 PUSH4 0x70A08231 SWAP1 PUSH2 0x1971 SWAP1 DUP10 SWAP1 PUSH1 0x4 ADD PUSH2 0x2E77 JUMP JUMPDEST PUSH1 0x20 PUSH1 0x40 MLOAD DUP1 DUP4 SUB DUP2 DUP7 DUP1 EXTCODESIZE ISZERO DUP1 ISZERO PUSH2 0x1989 JUMPI PUSH1 0x0 DUP1 REVERT JUMPDEST POP GAS STATICCALL ISZERO DUP1 ISZERO PUSH2 0x199D JUMPI RETURNDATASIZE PUSH1 0x0 DUP1 RETURNDATACOPY RETURNDATASIZE PUSH1 0x0 REVERT JUMPDEST POP POP POP POP PUSH1 0x40 MLOAD RETURNDATASIZE PUSH1 0x1F NOT PUSH1 0x1F DUP3 ADD AND DUP3 ADD DUP1 PUSH1 0x40 MSTORE POP DUP2 ADD SWAP1 PUSH2 0x19C1 SWAP2 SWAP1 PUSH2 0x2D7D JUMP JUMPDEST SWAP4 POP JUMPDEST PUSH2 0x19D0 DUP8 DUP8 ADDRESS DUP8 PUSH2 0x2675 JUMP JUMPDEST PUSH1 0x40 MLOAD PUSH4 0x6EB1769F PUSH1 0xE1 SHL DUP2 MSTORE DUP5 SWAP1 PUSH1 0x1 PUSH1 0x1 PUSH1 0xA0 SHL SUB DUP10 AND SWAP1 PUSH4 0xDD62ED3E SWAP1 PUSH2 0x1A00 SWAP1 ADDRESS SWAP1 DUP7 SWAP1 PUSH1 0x4 ADD PUSH2 0x2ED2 JUMP JUMPDEST PUSH1 0x20 PUSH1 0x40 MLOAD DUP1 DUP4 SUB DUP2 DUP7 DUP1 EXTCODESIZE ISZERO DUP1 ISZERO PUSH2 0x1A18 JUMPI PUSH1 0x0 DUP1 REVERT JUMPDEST POP GAS STATICCALL ISZERO DUP1 ISZERO PUSH2 0x1A2C JUMPI RETURNDATASIZE PUSH1 0x0 DUP1 RETURNDATACOPY RETURNDATASIZE PUSH1 0x0 REVERT JUMPDEST POP POP POP POP PUSH1 0x40 MLOAD RETURNDATASIZE PUSH1 0x1F NOT PUSH1 0x1F DUP3 ADD AND DUP3 ADD DUP1 PUSH1 0x40 MSTORE POP DUP2 ADD SWAP1 PUSH2 0x1A50 SWAP2 SWAP1 PUSH2 0x2D7D JUMP JUMPDEST LT ISZERO PUSH2 0x1A6F JUMPI PUSH2 0x1A62 DUP8 DUP3 PUSH1 0x0 PUSH2 0x26CD JUMP JUMPDEST PUSH2 0x1A6F DUP8 DUP3 PUSH1 0x0 NOT PUSH2 0x26CD JUMP JUMPDEST PUSH1 0x40 MLOAD PUSH4 0x70A08231 PUSH1 0xE0 SHL DUP2 MSTORE PUSH1 0x0 SWAP1 PUSH1 0x1 PUSH1 0x1 PUSH1 0xA0 SHL SUB DUP10 AND SWAP1 PUSH4 0x70A08231 SWAP1 PUSH2 0x1A9E SWAP1 ADDRESS SWAP1 PUSH1 0x4 ADD PUSH2 0x2E77 JUMP JUMPDEST PUSH1 0x20 PUSH1 0x40 MLOAD DUP1 DUP4 SUB DUP2 DUP7 DUP1 EXTCODESIZE ISZERO DUP1 ISZERO PUSH2 0x1AB6 JUMPI PUSH1 0x0 DUP1 REVERT JUMPDEST POP GAS STATICCALL ISZERO DUP1 ISZERO PUSH2 0x1ACA JUMPI RETURNDATASIZE PUSH1 0x0 DUP1 RETURNDATACOPY RETURNDATASIZE PUSH1 0x0 REVERT JUMPDEST POP POP POP POP PUSH1 0x40 MLOAD RETURNDATASIZE PUSH1 0x1F NOT PUSH1 0x1F DUP3 ADD AND DUP3 ADD DUP1 PUSH1 0x40 MSTORE POP DUP2 ADD SWAP1 PUSH2 0x1AEE SWAP2 SWAP1 PUSH2 0x2D7D JUMP JUMPDEST SWAP1 POP PUSH1 0x1 PUSH1 0x1 PUSH1 0xA0 SHL SUB DUP7 AND ADDRESS EQ PUSH2 0x1B86 JUMPI PUSH1 0x40 MLOAD PUSH4 0x6E553F65 PUSH1 0xE0 SHL DUP2 MSTORE PUSH1 0x1 PUSH1 0x1 PUSH1 0xA0 SHL SUB DUP4 AND SWAP1 PUSH4 0x6E553F65 SWAP1 PUSH2 0x1B2E SWAP1 DUP9 SWAP1 DUP11 SWAP1 PUSH1 0x4 ADD PUSH2 0x32A0 JUMP JUMPDEST PUSH1 0x20 PUSH1 0x40 MLOAD DUP1 DUP4 SUB DUP2 PUSH1 0x0 DUP8 DUP1 EXTCODESIZE ISZERO DUP1 ISZERO PUSH2 0x1B48 JUMPI PUSH1 0x0 DUP1 REVERT JUMPDEST POP GAS CALL ISZERO DUP1 ISZERO PUSH2 0x1B5C JUMPI RETURNDATASIZE PUSH1 0x0 DUP1 RETURNDATACOPY RETURNDATASIZE PUSH1 0x0 REVERT JUMPDEST POP POP POP POP PUSH1 0x40 MLOAD RETURNDATASIZE PUSH1 0x1F NOT PUSH1 0x1F DUP3 ADD AND DUP3 ADD DUP1 PUSH1 0x40 MSTORE POP DUP2 ADD SWAP1 PUSH2 0x1B80 SWAP2 SWAP1 PUSH2 0x2D7D JUMP JUMPDEST POP PUSH2 0x1C30 JUMP JUMPDEST PUSH1 0x0 NOT DUP6 EQ PUSH2 0x1BBB JUMPI PUSH1 0x40 MLOAD PUSH4 0xB6B55F25 PUSH1 0xE0 SHL DUP2 MSTORE PUSH1 0x1 PUSH1 0x1 PUSH1 0xA0 SHL SUB DUP4 AND SWAP1 PUSH4 0xB6B55F25 SWAP1 PUSH2 0x1B2E SWAP1 DUP9 SWAP1 PUSH1 0x4 ADD PUSH2 0x3297 JUMP JUMPDEST DUP2 PUSH1 0x1 PUSH1 0x1 PUSH1 0xA0 SHL SUB AND PUSH4 0xD0E30DB0 PUSH1 0x40 MLOAD DUP2 PUSH4 0xFFFFFFFF AND PUSH1 0xE0 SHL DUP2 MSTORE PUSH1 0x4 ADD PUSH1 0x20 PUSH1 0x40 MLOAD DUP1 DUP4 SUB DUP2 PUSH1 0x0 DUP8 DUP1 EXTCODESIZE ISZERO DUP1 ISZERO PUSH2 0x1BF6 JUMPI PUSH1 0x0 DUP1 REVERT JUMPDEST POP GAS CALL ISZERO DUP1 ISZERO PUSH2 0x1C0A JUMPI RETURNDATASIZE PUSH1 0x0 DUP1 RETURNDATACOPY RETURNDATASIZE PUSH1 0x0 REVERT JUMPDEST POP POP POP POP PUSH1 0x40 MLOAD RETURNDATASIZE PUSH1 0x1F NOT PUSH1 0x1F DUP3 ADD AND DUP3 ADD DUP1 PUSH1 0x40 MSTORE POP DUP2 ADD SWAP1 PUSH2 0x1C2E SWAP2 SWAP1 PUSH2 0x2D7D JUMP JUMPDEST POP JUMPDEST PUSH1 0x40 MLOAD PUSH4 0x70A08231 PUSH1 0xE0 SHL DUP2 MSTORE PUSH1 0x0 SWAP1 PUSH1 0x1 PUSH1 0x1 PUSH1 0xA0 SHL SUB DUP11 AND SWAP1 PUSH4 0x70A08231 SWAP1 PUSH2 0x1C5F SWAP1 ADDRESS SWAP1 PUSH1 0x4 ADD PUSH2 0x2E77 JUMP JUMPDEST PUSH1 0x20 PUSH1 0x40 MLOAD DUP1 DUP4 SUB DUP2 DUP7 DUP1 EXTCODESIZE ISZERO DUP1 ISZERO PUSH2 0x1C77 JUMPI PUSH1 0x0 DUP1 REVERT JUMPDEST POP GAS STATICCALL ISZERO DUP1 ISZERO PUSH2 0x1C8B JUMPI RETURNDATASIZE PUSH1 0x0 DUP1 RETURNDATACOPY RETURNDATASIZE PUSH1 0x0 REVERT JUMPDEST POP POP POP POP PUSH1 0x40 MLOAD RETURNDATASIZE PUSH1 0x1F NOT PUSH1 0x1F DUP3 ADD AND DUP3 ADD DUP1 PUSH1 0x40 MSTORE POP DUP2 ADD SWAP1 PUSH2 0x1CAF SWAP2 SWAP1 PUSH2 0x2D7D JUMP JUMPDEST SWAP1 POP PUSH2 0x1CBB DUP3 DUP3 PUSH2 0x1666 JUMP JUMPDEST SWAP4 POP PUSH1 0x1 PUSH1 0x1 PUSH1 0xA0 SHL SUB DUP9 AND ADDRESS EQ DUP1 ISZERO SWAP1 PUSH2 0x1CD6 JUMPI POP PUSH1 0x0 DUP2 GT JUMPDEST ISZERO PUSH2 0x1CE6 JUMPI PUSH2 0x1CE6 DUP10 DUP10 DUP4 PUSH2 0x2790 JUMP JUMPDEST POP POP POP SWAP6 SWAP5 POP POP POP POP POP JUMP JUMPDEST PUSH1 0x0 DUP2 DUP4 PUSH2 0x1D13 JUMPI PUSH1 0x40 MLOAD PUSH3 0x461BCD PUSH1 0xE5 SHL DUP2 MSTORE PUSH1 0x4 ADD PUSH2 0x1218 SWAP2 SWAP1 PUSH2 0x2F81 JUMP JUMPDEST POP PUSH1 0x0 DUP4 DUP6 DUP2 PUSH2 0x1D1F JUMPI INVALID JUMPDEST DIV SWAP6 SWAP5 POP POP POP POP POP JUMP JUMPDEST PUSH1 0x0 DUP2 DUP5 DUP5 GT ISZERO PUSH2 0x1D4D JUMPI PUSH1 0x40 MLOAD PUSH3 0x461BCD PUSH1 0xE5 SHL DUP2 MSTORE PUSH1 0x4 ADD PUSH2 0x1218 SWAP2 SWAP1 PUSH2 0x2F81 JUMP JUMPDEST POP POP POP SWAP1 SUB SWAP1 JUMP JUMPDEST PUSH1 0x0 DUP1 PUSH2 0x1D61 DUP8 PUSH2 0x10F7 JUMP JUMPDEST SWAP1 POP PUSH1 0x60 PUSH2 0x1D6E DUP9 PUSH2 0xB25 JUMP JUMPDEST SWAP1 POP PUSH2 0x1D7A DUP9 DUP3 PUSH2 0x27AF JUMP JUMPDEST PUSH1 0x0 JUMPDEST DUP2 MLOAD DUP2 LT ISZERO PUSH2 0x2422 JUMPI DUP5 ISZERO DUP1 ISZERO PUSH2 0x1DB8 JUMPI POP DUP3 PUSH1 0x1 PUSH1 0x1 PUSH1 0xA0 SHL SUB AND DUP3 DUP3 DUP2 MLOAD DUP2 LT PUSH2 0x1DA5 JUMPI INVALID JUMPDEST PUSH1 0x20 MUL PUSH1 0x20 ADD ADD MLOAD PUSH1 0x1 PUSH1 0x1 PUSH1 0xA0 SHL SUB AND EQ JUMPDEST ISZERO PUSH2 0x1DC2 JUMPI PUSH2 0x241A JUMP JUMPDEST PUSH1 0x0 DUP3 DUP3 DUP2 MLOAD DUP2 LT PUSH2 0x1DD0 JUMPI INVALID JUMPDEST PUSH1 0x20 MUL PUSH1 0x20 ADD ADD MLOAD PUSH1 0x1 PUSH1 0x1 PUSH1 0xA0 SHL SUB AND PUSH4 0x70A08231 DUP11 PUSH1 0x40 MLOAD DUP3 PUSH4 0xFFFFFFFF AND PUSH1 0xE0 SHL DUP2 MSTORE PUSH1 0x4 ADD PUSH2 0x1E03 SWAP2 SWAP1 PUSH2 0x2E77 JUMP JUMPDEST PUSH1 0x20 PUSH1 0x40 MLOAD DUP1 DUP4 SUB DUP2 DUP7 DUP1 EXTCODESIZE ISZERO DUP1 ISZERO PUSH2 0x1E1B JUMPI PUSH1 0x0 DUP1 REVERT JUMPDEST POP GAS STATICCALL ISZERO DUP1 ISZERO PUSH2 0x1E2F JUMPI RETURNDATASIZE PUSH1 0x0 DUP1 RETURNDATACOPY RETURNDATASIZE PUSH1 0x0 REVERT JUMPDEST POP POP POP POP PUSH1 0x40 MLOAD RETURNDATASIZE PUSH1 0x1F NOT PUSH1 0x1F DUP3 ADD AND DUP3 ADD DUP1 PUSH1 0x40 MSTORE POP DUP2 ADD SWAP1 PUSH2 0x1E53 SWAP2 SWAP1 PUSH2 0x2D7D JUMP JUMPDEST SWAP1 POP PUSH1 0x1 PUSH1 0x1 PUSH1 0xA0 SHL SUB DUP10 AND ADDRESS EQ PUSH2 0x1F02 JUMPI PUSH2 0x1EFF DUP2 DUP5 DUP5 DUP2 MLOAD DUP2 LT PUSH2 0x1E75 JUMPI INVALID JUMPDEST PUSH1 0x20 MUL PUSH1 0x20 ADD ADD MLOAD PUSH1 0x1 PUSH1 0x1 PUSH1 0xA0 SHL SUB AND PUSH4 0xDD62ED3E DUP13 ADDRESS PUSH1 0x40 MLOAD DUP4 PUSH4 0xFFFFFFFF AND PUSH1 0xE0 SHL DUP2 MSTORE PUSH1 0x4 ADD PUSH2 0x1EAA SWAP3 SWAP2 SWAP1 PUSH2 0x2ED2 JUMP JUMPDEST PUSH1 0x20 PUSH1 0x40 MLOAD DUP1 DUP4 SUB DUP2 DUP7 DUP1 EXTCODESIZE ISZERO DUP1 ISZERO PUSH2 0x1EC2 JUMPI PUSH1 0x0 DUP1 REVERT JUMPDEST POP GAS STATICCALL ISZERO DUP1 ISZERO PUSH2 0x1ED6 JUMPI RETURNDATASIZE PUSH1 0x0 DUP1 RETURNDATACOPY RETURNDATASIZE PUSH1 0x0 REVERT JUMPDEST POP POP POP POP PUSH1 0x40 MLOAD RETURNDATASIZE PUSH1 0x1F NOT PUSH1 0x1F DUP3 ADD AND DUP3 ADD DUP1 PUSH1 0x40 MSTORE POP DUP2 ADD SWAP1 PUSH2 0x1EFA SWAP2 SWAP1 PUSH2 0x2D7D JUMP JUMPDEST PUSH2 0x27FD JUMP JUMPDEST SWAP1 POP JUMPDEST PUSH2 0x1F52 DUP2 DUP5 DUP5 DUP2 MLOAD DUP2 LT PUSH2 0x1F12 JUMPI INVALID JUMPDEST PUSH1 0x20 MUL PUSH1 0x20 ADD ADD MLOAD PUSH1 0x1 PUSH1 0x1 PUSH1 0xA0 SHL SUB AND PUSH4 0x75DE2902 PUSH1 0x40 MLOAD DUP2 PUSH4 0xFFFFFFFF AND PUSH1 0xE0 SHL DUP2 MSTORE PUSH1 0x4 ADD PUSH1 0x20 PUSH1 0x40 MLOAD DUP1 DUP4 SUB DUP2 DUP7 DUP1 EXTCODESIZE ISZERO DUP1 ISZERO PUSH2 0x1EC2 JUMPI PUSH1 0x0 DUP1 REVERT JUMPDEST SWAP1 POP DUP1 ISZERO PUSH2 0x2418 JUMPI PUSH1 0x0 NOT DUP8 EQ PUSH2 0x22D1 JUMPI PUSH1 0x0 PUSH2 0x2080 DUP5 DUP5 DUP2 MLOAD DUP2 LT PUSH2 0x1F74 JUMPI INVALID JUMPDEST PUSH1 0x20 MUL PUSH1 0x20 ADD ADD MLOAD PUSH1 0x1 PUSH1 0x1 PUSH1 0xA0 SHL SUB AND PUSH4 0x99530B06 PUSH1 0x40 MLOAD DUP2 PUSH4 0xFFFFFFFF AND PUSH1 0xE0 SHL DUP2 MSTORE PUSH1 0x4 ADD PUSH1 0x20 PUSH1 0x40 MLOAD DUP1 DUP4 SUB DUP2 DUP7 DUP1 EXTCODESIZE ISZERO DUP1 ISZERO PUSH2 0x1FB4 JUMPI PUSH1 0x0 DUP1 REVERT JUMPDEST POP GAS STATICCALL ISZERO DUP1 ISZERO PUSH2 0x1FC8 JUMPI RETURNDATASIZE PUSH1 0x0 DUP1 RETURNDATACOPY RETURNDATASIZE PUSH1 0x0 REVERT JUMPDEST POP POP POP POP PUSH1 0x40 MLOAD RETURNDATASIZE PUSH1 0x1F NOT PUSH1 0x1F DUP3 ADD AND DUP3 ADD DUP1 PUSH1 0x40 MSTORE POP DUP2 ADD SWAP1 PUSH2 0x1FEC SWAP2 SWAP1 PUSH2 0x2D7D JUMP JUMPDEST PUSH2 0x982 DUP7 DUP7 DUP2 MLOAD DUP2 LT PUSH2 0x1FFB JUMPI INVALID JUMPDEST PUSH1 0x20 MUL PUSH1 0x20 ADD ADD MLOAD PUSH1 0x1 PUSH1 0x1 PUSH1 0xA0 SHL SUB AND PUSH4 0x313CE567 PUSH1 0x40 MLOAD DUP2 PUSH4 0xFFFFFFFF AND PUSH1 0xE0 SHL DUP2 MSTORE PUSH1 0x4 ADD PUSH1 0x20 PUSH1 0x40 MLOAD DUP1 DUP4 SUB DUP2 DUP7 DUP1 EXTCODESIZE ISZERO DUP1 ISZERO PUSH2 0x203B JUMPI PUSH1 0x0 DUP1 REVERT JUMPDEST POP GAS STATICCALL ISZERO DUP1 ISZERO PUSH2 0x204F JUMPI RETURNDATASIZE PUSH1 0x0 DUP1 RETURNDATACOPY RETURNDATASIZE PUSH1 0x0 REVERT JUMPDEST POP POP POP POP PUSH1 0x40 MLOAD RETURNDATASIZE PUSH1 0x1F NOT PUSH1 0x1F DUP3 ADD AND DUP3 ADD DUP1 PUSH1 0x40 MSTORE POP DUP2 ADD SWAP1 PUSH2 0x2073 SWAP2 SWAP1 PUSH2 0x2D7D JUMP JUMPDEST PUSH1 0xA EXP PUSH2 0x97C DUP13 DUP12 PUSH2 0x1666 JUMP JUMPDEST SWAP1 POP PUSH1 0x0 DUP2 GT DUP1 ISZERO PUSH2 0x2091 JUMPI POP DUP2 DUP2 LT JUMPDEST ISZERO PUSH2 0x21DF JUMPI PUSH1 0x1 PUSH1 0x1 PUSH1 0xA0 SHL SUB DUP11 AND ADDRESS EQ PUSH2 0x213D JUMPI DUP4 DUP4 DUP2 MLOAD DUP2 LT PUSH2 0x20B2 JUMPI INVALID JUMPDEST PUSH1 0x20 MUL PUSH1 0x20 ADD ADD MLOAD PUSH1 0x1 PUSH1 0x1 PUSH1 0xA0 SHL SUB AND PUSH4 0x23B872DD DUP12 ADDRESS DUP5 PUSH1 0x40 MLOAD DUP5 PUSH4 0xFFFFFFFF AND PUSH1 0xE0 SHL DUP2 MSTORE PUSH1 0x4 ADD PUSH2 0x20E9 SWAP4 SWAP3 SWAP2 SWAP1 PUSH2 0x2EEC JUMP JUMPDEST PUSH1 0x20 PUSH1 0x40 MLOAD DUP1 DUP4 SUB DUP2 PUSH1 0x0 DUP8 DUP1 EXTCODESIZE ISZERO DUP1 ISZERO PUSH2 0x2103 JUMPI PUSH1 0x0 DUP1 REVERT JUMPDEST POP GAS CALL ISZERO DUP1 ISZERO PUSH2 0x2117 JUMPI RETURNDATASIZE PUSH1 0x0 DUP1 RETURNDATACOPY RETURNDATASIZE PUSH1 0x0 REVERT JUMPDEST POP POP POP POP PUSH1 0x40 MLOAD RETURNDATASIZE PUSH1 0x1F NOT PUSH1 0x1F DUP3 ADD AND DUP3 ADD DUP1 PUSH1 0x40 MSTORE POP DUP2 ADD SWAP1 PUSH2 0x213B SWAP2 SWAP1 PUSH2 0x2CB4 JUMP JUMPDEST POP JUMPDEST PUSH2 0x21D8 DUP5 DUP5 DUP2 MLOAD DUP2 LT PUSH2 0x214C JUMPI INVALID JUMPDEST PUSH1 0x20 MUL PUSH1 0x20 ADD ADD MLOAD PUSH1 0x1 PUSH1 0x1 PUSH1 0xA0 SHL SUB AND PUSH4 0x2E1A7D4D DUP4 PUSH1 0x40 MLOAD DUP3 PUSH4 0xFFFFFFFF AND PUSH1 0xE0 SHL DUP2 MSTORE PUSH1 0x4 ADD PUSH2 0x217F SWAP2 SWAP1 PUSH2 0x3297 JUMP JUMPDEST PUSH1 0x20 PUSH1 0x40 MLOAD DUP1 DUP4 SUB DUP2 PUSH1 0x0 DUP8 DUP1 EXTCODESIZE ISZERO DUP1 ISZERO PUSH2 0x2199 JUMPI PUSH1 0x0 DUP1 REVERT JUMPDEST POP GAS CALL ISZERO DUP1 ISZERO PUSH2 0x21AD JUMPI RETURNDATASIZE PUSH1 0x0 DUP1 RETURNDATACOPY RETURNDATASIZE PUSH1 0x0 REVERT JUMPDEST POP POP POP POP PUSH1 0x40 MLOAD RETURNDATASIZE PUSH1 0x1F NOT PUSH1 0x1F DUP3 ADD AND DUP3 ADD DUP1 PUSH1 0x40 MSTORE POP DUP2 ADD SWAP1 PUSH2 0x21D1 SWAP2 SWAP1 PUSH2 0x2D7D JUMP JUMPDEST DUP8 SWAP1 PUSH2 0x15C0 JUMP JUMPDEST SWAP6 POP PUSH2 0x22CB JUMP JUMPDEST PUSH1 0x1 PUSH1 0x1 PUSH1 0xA0 SHL SUB DUP11 AND ADDRESS EQ PUSH2 0x2286 JUMPI DUP4 DUP4 DUP2 MLOAD DUP2 LT PUSH2 0x21FB JUMPI INVALID JUMPDEST PUSH1 0x20 MUL PUSH1 0x20 ADD ADD MLOAD PUSH1 0x1 PUSH1 0x1 PUSH1 0xA0 SHL SUB AND PUSH4 0x23B872DD DUP12 ADDRESS DUP6 PUSH1 0x40 MLOAD DUP5 PUSH4 0xFFFFFFFF AND PUSH1 0xE0 SHL DUP2 MSTORE PUSH1 0x4 ADD PUSH2 0x2232 SWAP4 SWAP3 SWAP2 SWAP1 PUSH2 0x2EEC JUMP JUMPDEST PUSH1 0x20 PUSH1 0x40 MLOAD DUP1 DUP4 SUB DUP2 PUSH1 0x0 DUP8 DUP1 EXTCODESIZE ISZERO DUP1 ISZERO PUSH2 0x224C JUMPI PUSH1 0x0 DUP1 REVERT JUMPDEST POP GAS CALL ISZERO DUP1 ISZERO PUSH2 0x2260 JUMPI RETURNDATASIZE PUSH1 0x0 DUP1 RETURNDATACOPY RETURNDATASIZE PUSH1 0x0 REVERT JUMPDEST POP POP POP POP PUSH1 0x40 MLOAD RETURNDATASIZE PUSH1 0x1F NOT PUSH1 0x1F DUP3 ADD AND DUP3 ADD DUP1 PUSH1 0x40 MSTORE POP DUP2 ADD SWAP1 PUSH2 0x2284 SWAP2 SWAP1 PUSH2 0x2CB4 JUMP JUMPDEST POP JUMPDEST PUSH2 0x22C8 DUP5 DUP5 DUP2 MLOAD DUP2 LT PUSH2 0x2295 JUMPI INVALID JUMPDEST PUSH1 0x20 MUL PUSH1 0x20 ADD ADD MLOAD PUSH1 0x1 PUSH1 0x1 PUSH1 0xA0 SHL SUB AND PUSH4 0x2E1A7D4D DUP5 PUSH1 0x40 MLOAD DUP3 PUSH4 0xFFFFFFFF AND PUSH1 0xE0 SHL DUP2 MSTORE PUSH1 0x4 ADD PUSH2 0x217F SWAP2 SWAP1 PUSH2 0x3297 JUMP JUMPDEST SWAP6 POP JUMPDEST POP PUSH2 0x240B JUMP JUMPDEST PUSH1 0x1 PUSH1 0x1 PUSH1 0xA0 SHL SUB DUP10 AND ADDRESS EQ PUSH2 0x2378 JUMPI DUP3 DUP3 DUP2 MLOAD DUP2 LT PUSH2 0x22ED JUMPI INVALID JUMPDEST PUSH1 0x20 MUL PUSH1 0x20 ADD ADD MLOAD PUSH1 0x1 PUSH1 0x1 PUSH1 0xA0 SHL SUB AND PUSH4 0x23B872DD DUP11 ADDRESS DUP5 PUSH1 0x40 MLOAD DUP5 PUSH4 0xFFFFFFFF AND PUSH1 0xE0 SHL DUP2 MSTORE PUSH1 0x4 ADD PUSH2 0x2324 SWAP4 SWAP3 SWAP2 SWAP1 PUSH2 0x2EEC JUMP JUMPDEST PUSH1 0x20 PUSH1 0x40 MLOAD DUP1 DUP4 SUB DUP2 PUSH1 0x0 DUP8 DUP1 EXTCODESIZE ISZERO DUP1 ISZERO PUSH2 0x233E JUMPI PUSH1 0x0 DUP1 REVERT JUMPDEST POP GAS CALL ISZERO DUP1 ISZERO PUSH2 0x2352 JUMPI RETURNDATASIZE PUSH1 0x0 DUP1 RETURNDATACOPY RETURNDATASIZE PUSH1 0x0 REVERT JUMPDEST POP POP POP POP PUSH1 0x40 MLOAD RETURNDATASIZE PUSH1 0x1F NOT PUSH1 0x1F DUP3 ADD AND DUP3 ADD DUP1 PUSH1 0x40 MSTORE POP DUP2 ADD SWAP1 PUSH2 0x2376 SWAP2 SWAP1 PUSH2 0x2CB4 JUMP JUMPDEST POP JUMPDEST PUSH2 0x2408 DUP4 DUP4 DUP2 MLOAD DUP2 LT PUSH2 0x2387 JUMPI INVALID JUMPDEST PUSH1 0x20 MUL PUSH1 0x20 ADD ADD MLOAD PUSH1 0x1 PUSH1 0x1 PUSH1 0xA0 SHL SUB AND PUSH4 0x3CCFD60B PUSH1 0x40 MLOAD DUP2 PUSH4 0xFFFFFFFF AND PUSH1 0xE0 SHL DUP2 MSTORE PUSH1 0x4 ADD PUSH1 0x20 PUSH1 0x40 MLOAD DUP1 DUP4 SUB DUP2 PUSH1 0x0 DUP8 DUP1 EXTCODESIZE ISZERO DUP1 ISZERO PUSH2 0x23C9 JUMPI PUSH1 0x0 DUP1 REVERT JUMPDEST POP GAS CALL ISZERO DUP1 ISZERO PUSH2 0x23DD JUMPI RETURNDATASIZE PUSH1 0x0 DUP1 RETURNDATACOPY RETURNDATASIZE PUSH1 0x0 REVERT JUMPDEST POP POP POP POP PUSH1 0x40 MLOAD RETURNDATASIZE PUSH1 0x1F NOT PUSH1 0x1F DUP3 ADD AND DUP3 ADD DUP1 PUSH1 0x40 MSTORE POP DUP2 ADD SWAP1 PUSH2 0x2401 SWAP2 SWAP1 PUSH2 0x2D7D JUMP JUMPDEST DUP7 SWAP1 PUSH2 0x15C0 JUMP JUMPDEST SWAP5 POP JUMPDEST DUP5 DUP8 GT PUSH2 0x2418 JUMPI POP PUSH2 0x2422 JUMP JUMPDEST POP JUMPDEST PUSH1 0x1 ADD PUSH2 0x1D7D JUMP JUMPDEST POP DUP5 DUP4 GT DUP1 ISZERO PUSH2 0x2521 JUMPI POP PUSH2 0x2515 DUP3 PUSH1 0x1 PUSH1 0x1 PUSH1 0xA0 SHL SUB AND PUSH4 0x313CE567 PUSH1 0x40 MLOAD DUP2 PUSH4 0xFFFFFFFF AND PUSH1 0xE0 SHL DUP2 MSTORE PUSH1 0x4 ADD PUSH1 0x20 PUSH1 0x40 MLOAD DUP1 DUP4 SUB DUP2 DUP7 DUP1 EXTCODESIZE ISZERO DUP1 ISZERO PUSH2 0x2469 JUMPI PUSH1 0x0 DUP1 REVERT JUMPDEST POP GAS STATICCALL ISZERO DUP1 ISZERO PUSH2 0x247D JUMPI RETURNDATASIZE PUSH1 0x0 DUP1 RETURNDATACOPY RETURNDATASIZE PUSH1 0x0 REVERT JUMPDEST POP POP POP POP PUSH1 0x40 MLOAD RETURNDATASIZE PUSH1 0x1F NOT PUSH1 0x1F DUP3 ADD AND DUP3 ADD DUP1 PUSH1 0x40 MSTORE POP DUP2 ADD SWAP1 PUSH2 0x24A1 SWAP2 SWAP1 PUSH2 0x2D7D JUMP JUMPDEST PUSH1 0xA EXP DUP4 PUSH1 0x1 PUSH1 0x1 PUSH1 0xA0 SHL SUB AND PUSH4 0x99530B06 PUSH1 0x40 MLOAD DUP2 PUSH4 0xFFFFFFFF AND PUSH1 0xE0 SHL DUP2 MSTORE PUSH1 0x4 ADD PUSH1 0x20 PUSH1 0x40 MLOAD DUP1 DUP4 SUB DUP2 DUP7 DUP1 EXTCODESIZE ISZERO DUP1 ISZERO PUSH2 0x24DD JUMPI PUSH1 0x0 DUP1 REVERT JUMPDEST POP GAS STATICCALL ISZERO DUP1 ISZERO PUSH2 0x24F1 JUMPI RETURNDATASIZE PUSH1 0x0 DUP1 RETURNDATACOPY RETURNDATASIZE PUSH1 0x0 REVERT JUMPDEST POP POP POP POP PUSH1 0x40 MLOAD RETURNDATASIZE PUSH1 0x1F NOT PUSH1 0x1F DUP3 ADD AND DUP3 ADD DUP1 PUSH1 0x40 MSTORE POP DUP2 ADD SWAP1 PUSH2 0x982 SWAP2 SWAP1 PUSH2 0x2D7D JUMP JUMPDEST PUSH2 0x251F DUP5 DUP8 PUSH2 0x1666 JUMP JUMPDEST GT JUMPDEST ISZERO PUSH2 0x264F JUMPI PUSH2 0x2530 DUP4 DUP7 PUSH2 0x1666 JUMP JUMPDEST PUSH1 0x40 MLOAD PUSH4 0x6EB1769F PUSH1 0xE1 SHL DUP2 MSTORE PUSH1 0x1 PUSH1 0x1 PUSH1 0xA0 SHL SUB DUP11 AND SWAP1 PUSH4 0xDD62ED3E SWAP1 PUSH2 0x255E SWAP1 ADDRESS SWAP1 DUP8 SWAP1 PUSH1 0x4 ADD PUSH2 0x2ED2 JUMP JUMPDEST PUSH1 0x20 PUSH1 0x40 MLOAD DUP1 DUP4 SUB DUP2 DUP7 DUP1 EXTCODESIZE ISZERO DUP1 ISZERO PUSH2 0x2576 JUMPI PUSH1 0x0 DUP1 REVERT JUMPDEST POP GAS STATICCALL ISZERO DUP1 ISZERO PUSH2 0x258A JUMPI RETURNDATASIZE PUSH1 0x0 DUP1 RETURNDATACOPY RETURNDATASIZE PUSH1 0x0 REVERT JUMPDEST POP POP POP POP PUSH1 0x40 MLOAD RETURNDATASIZE PUSH1 0x1F NOT PUSH1 0x1F DUP3 ADD AND DUP3 ADD DUP1 PUSH1 0x40 MSTORE POP DUP2 ADD SWAP1 PUSH2 0x25AE SWAP2 SWAP1 PUSH2 0x2D7D JUMP JUMPDEST LT ISZERO PUSH2 0x25C1 JUMPI PUSH2 0x25C1 DUP9 DUP4 PUSH1 0x0 NOT PUSH2 0x26CD JUMP JUMPDEST PUSH1 0x1 PUSH1 0x1 PUSH1 0xA0 SHL SUB DUP3 AND PUSH4 0x6E553F65 PUSH2 0x25DA DUP6 DUP9 PUSH2 0x1666 JUMP JUMPDEST DUP10 PUSH1 0x40 MLOAD DUP4 PUSH4 0xFFFFFFFF AND PUSH1 0xE0 SHL DUP2 MSTORE PUSH1 0x4 ADD PUSH2 0x25F8 SWAP3 SWAP2 SWAP1 PUSH2 0x32A0 JUMP JUMPDEST PUSH1 0x20 PUSH1 0x40 MLOAD DUP1 DUP4 SUB DUP2 PUSH1 0x0 DUP8 DUP1 EXTCODESIZE ISZERO DUP1 ISZERO PUSH2 0x2612 JUMPI PUSH1 0x0 DUP1 REVERT JUMPDEST POP GAS CALL ISZERO DUP1 ISZERO PUSH2 0x2626 JUMPI RETURNDATASIZE PUSH1 0x0 DUP1 RETURNDATACOPY RETURNDATASIZE PUSH1 0x0 REVERT JUMPDEST POP POP POP POP PUSH1 0x40 MLOAD RETURNDATASIZE PUSH1 0x1F NOT PUSH1 0x1F DUP3 ADD AND DUP3 ADD DUP1 PUSH1 0x40 MSTORE POP DUP2 ADD SWAP1 PUSH2 0x264A SWAP2 SWAP1 PUSH2 0x2D7D JUMP JUMPDEST POP DUP5 SWAP3 POP JUMPDEST PUSH1 0x1 PUSH1 0x1 PUSH1 0xA0 SHL SUB DUP7 AND ADDRESS EQ PUSH2 0x266A JUMPI PUSH2 0x266A DUP9 DUP8 DUP6 PUSH2 0x2790 JUMP JUMPDEST POP POP SWAP6 SWAP5 POP POP POP POP POP JUMP JUMPDEST PUSH2 0x11B8 DUP5 PUSH4 0x23B872DD PUSH1 0xE0 SHL DUP6 DUP6 DUP6 PUSH1 0x40 MLOAD PUSH1 0x24 ADD PUSH2 0x2696 SWAP4 SWAP3 SWAP2 SWAP1 PUSH2 0x2EEC JUMP JUMPDEST PUSH1 0x40 DUP1 MLOAD PUSH1 0x1F NOT DUP2 DUP5 SUB ADD DUP2 MSTORE SWAP2 SWAP1 MSTORE PUSH1 0x20 DUP2 ADD DUP1 MLOAD PUSH1 0x1 PUSH1 0x1 PUSH1 0xE0 SHL SUB AND PUSH1 0x1 PUSH1 0x1 PUSH1 0xE0 SHL SUB NOT SWAP1 SWAP4 AND SWAP3 SWAP1 SWAP3 OR SWAP1 SWAP2 MSTORE PUSH2 0x2813 JUMP JUMPDEST DUP1 ISZERO DUP1 PUSH2 0x2755 JUMPI POP PUSH1 0x40 MLOAD PUSH4 0x6EB1769F PUSH1 0xE1 SHL DUP2 MSTORE PUSH1 0x1 PUSH1 0x1 PUSH1 0xA0 SHL SUB DUP5 AND SWAP1 PUSH4 0xDD62ED3E SWAP1 PUSH2 0x2703 SWAP1 ADDRESS SWAP1 DUP7 SWAP1 PUSH1 0x4 ADD PUSH2 0x2ED2 JUMP JUMPDEST PUSH1 0x20 PUSH1 0x40 MLOAD DUP1 DUP4 SUB DUP2 DUP7 DUP1 EXTCODESIZE ISZERO DUP1 ISZERO PUSH2 0x271B JUMPI PUSH1 0x0 DUP1 REVERT JUMPDEST POP GAS STATICCALL ISZERO DUP1 ISZERO PUSH2 0x272F JUMPI RETURNDATASIZE PUSH1 0x0 DUP1 RETURNDATACOPY RETURNDATASIZE PUSH1 0x0 REVERT JUMPDEST POP POP POP POP PUSH1 0x40 MLOAD RETURNDATASIZE PUSH1 0x1F NOT PUSH1 0x1F DUP3 ADD AND DUP3 ADD DUP1 PUSH1 0x40 MSTORE POP DUP2 ADD SWAP1 PUSH2 0x2753 SWAP2 SWAP1 PUSH2 0x2D7D JUMP JUMPDEST ISZERO JUMPDEST PUSH2 0x2771 JUMPI PUSH1 0x40 MLOAD PUSH3 0x461BCD PUSH1 0xE5 SHL DUP2 MSTORE PUSH1 0x4 ADD PUSH2 0x1218 SWAP1 PUSH2 0x3241 JUMP JUMPDEST PUSH2 0x1922 DUP4 PUSH4 0x95EA7B3 PUSH1 0xE0 SHL DUP5 DUP5 PUSH1 0x40 MLOAD PUSH1 0x24 ADD PUSH2 0x2696 SWAP3 SWAP2 SWAP1 PUSH2 0x2F10 JUMP JUMPDEST PUSH2 0x1922 DUP4 PUSH4 0xA9059CBB PUSH1 0xE0 SHL DUP5 DUP5 PUSH1 0x40 MLOAD PUSH1 0x24 ADD PUSH2 0x2696 SWAP3 SWAP2 SWAP1 PUSH2 0x2F10 JUMP JUMPDEST PUSH1 0x1 PUSH1 0x1 PUSH1 0xA0 SHL SUB DUP3 AND PUSH1 0x0 SWAP1 DUP2 MSTORE PUSH1 0x1 PUSH1 0x20 MSTORE PUSH1 0x40 SWAP1 KECCAK256 SLOAD DUP2 MLOAD GT ISZERO PUSH2 0x27F9 JUMPI PUSH1 0x1 PUSH1 0x1 PUSH1 0xA0 SHL SUB DUP3 AND PUSH1 0x0 SWAP1 DUP2 MSTORE PUSH1 0x1 PUSH1 0x20 SWAP1 DUP2 MSTORE PUSH1 0x40 SWAP1 SWAP2 KECCAK256 DUP3 MLOAD PUSH2 0x1922 SWAP3 DUP5 ADD SWAP1 PUSH2 0x29A9 JUMP JUMPDEST POP POP JUMP JUMPDEST PUSH1 0x0 DUP2 DUP4 LT PUSH2 0x280C JUMPI DUP2 PUSH2 0x9EC JUMP JUMPDEST POP SWAP1 SWAP2 SWAP1 POP JUMP JUMPDEST PUSH1 0x60 PUSH2 0x2868 DUP3 PUSH1 0x40 MLOAD DUP1 PUSH1 0x40 ADD PUSH1 0x40 MSTORE DUP1 PUSH1 0x20 DUP2 MSTORE PUSH1 0x20 ADD PUSH32 0x5361666545524332303A206C6F772D6C6576656C2063616C6C206661696C6564 DUP2 MSTORE POP DUP6 PUSH1 0x1 PUSH1 0x1 PUSH1 0xA0 SHL SUB AND PUSH2 0x28A2 SWAP1 SWAP3 SWAP2 SWAP1 PUSH4 0xFFFFFFFF AND JUMP JUMPDEST DUP1 MLOAD SWAP1 SWAP2 POP ISZERO PUSH2 0x1922 JUMPI DUP1 DUP1 PUSH1 0x20 ADD SWAP1 MLOAD DUP2 ADD SWAP1 PUSH2 0x2886 SWAP2 SWAP1 PUSH2 0x2CB4 JUMP JUMPDEST PUSH2 0x1922 JUMPI PUSH1 0x40 MLOAD PUSH3 0x461BCD PUSH1 0xE5 SHL DUP2 MSTORE PUSH1 0x4 ADD PUSH2 0x1218 SWAP1 PUSH2 0x31C0 JUMP JUMPDEST PUSH1 0x60 PUSH2 0x6D8 DUP5 DUP5 PUSH1 0x0 DUP6 PUSH1 0x60 PUSH2 0x28B7 DUP6 PUSH2 0x2970 JUMP JUMPDEST PUSH2 0x28D3 JUMPI PUSH1 0x40 MLOAD PUSH3 0x461BCD PUSH1 0xE5 SHL DUP2 MSTORE PUSH1 0x4 ADD PUSH2 0x1218 SWAP1 PUSH2 0x3189 JUMP JUMPDEST PUSH1 0x0 PUSH1 0x60 DUP7 PUSH1 0x1 PUSH1 0x1 PUSH1 0xA0 SHL SUB AND DUP6 DUP8 PUSH1 0x40 MLOAD PUSH2 0x28F0 SWAP2 SWAP1 PUSH2 0x2E01 JUMP JUMPDEST PUSH1 0x0 PUSH1 0x40 MLOAD DUP1 DUP4 SUB DUP2 DUP6 DUP8 GAS CALL SWAP3 POP POP POP RETURNDATASIZE DUP1 PUSH1 0x0 DUP2 EQ PUSH2 0x292D JUMPI PUSH1 0x40 MLOAD SWAP2 POP PUSH1 0x1F NOT PUSH1 0x3F RETURNDATASIZE ADD AND DUP3 ADD PUSH1 0x40 MSTORE RETURNDATASIZE DUP3 MSTORE RETURNDATASIZE PUSH1 0x0 PUSH1 0x20 DUP5 ADD RETURNDATACOPY PUSH2 0x2932 JUMP JUMPDEST PUSH1 0x60 SWAP2 POP JUMPDEST POP SWAP2 POP SWAP2 POP DUP2 ISZERO PUSH2 0x2946 JUMPI SWAP2 POP PUSH2 0x6D8 SWAP1 POP JUMP JUMPDEST DUP1 MLOAD ISZERO PUSH2 0x2956 JUMPI DUP1 MLOAD DUP1 DUP3 PUSH1 0x20 ADD REVERT JUMPDEST DUP4 PUSH1 0x40 MLOAD PUSH3 0x461BCD PUSH1 0xE5 SHL DUP2 MSTORE PUSH1 0x4 ADD PUSH2 0x1218 SWAP2 SWAP1 PUSH2 0x2F81 JUMP JUMPDEST PUSH1 0x0 DUP2 EXTCODEHASH PUSH32 0xC5D2460186F7233C927E7DB2DCC703C0E500B653CA82273B7BFAD8045D85A470 DUP2 DUP2 EQ DUP1 ISZERO SWAP1 PUSH2 0x6D8 JUMPI POP POP ISZERO ISZERO SWAP3 SWAP2 POP POP JUMP JUMPDEST DUP3 DUP1 SLOAD DUP3 DUP3 SSTORE SWAP1 PUSH1 0x0 MSTORE PUSH1 0x20 PUSH1 0x0 KECCAK256 SWAP1 DUP2 ADD SWAP3 DUP3 ISZERO PUSH2 0x29FE JUMPI SWAP2 PUSH1 0x20 MUL DUP3 ADD JUMPDEST DUP3 DUP2 GT ISZERO PUSH2 0x29FE JUMPI DUP3 MLOAD DUP3 SLOAD PUSH1 0x1 PUSH1 0x1 PUSH1 0xA0 SHL SUB NOT AND PUSH1 0x1 PUSH1 0x1 PUSH1 0xA0 SHL SUB SWAP1 SWAP2 AND OR DUP3 SSTORE PUSH1 0x20 SWAP1 SWAP3 ADD SWAP2 PUSH1 0x1 SWAP1 SWAP2 ADD SWAP1 PUSH2 0x29C9 JUMP JUMPDEST POP PUSH2 0x2A0A SWAP3 SWAP2 POP PUSH2 0x2A0E JUMP JUMPDEST POP SWAP1 JUMP JUMPDEST JUMPDEST DUP1 DUP3 GT ISZERO PUSH2 0x2A0A JUMPI DUP1 SLOAD PUSH1 0x1 PUSH1 0x1 PUSH1 0xA0 SHL SUB NOT AND DUP2 SSTORE PUSH1 0x1 ADD PUSH2 0x2A0F JUMP JUMPDEST PUSH1 0x0 DUP1 DUP4 PUSH1 0x1F DUP5 ADD SLT PUSH2 0x2A3E JUMPI DUP2 DUP3 REVERT JUMPDEST POP DUP2 CALLDATALOAD PUSH8 0xFFFFFFFFFFFFFFFF DUP2 GT ISZERO PUSH2 0x2A55 JUMPI DUP2 DUP3 REVERT JUMPDEST PUSH1 0x20 DUP4 ADD SWAP2 POP DUP4 PUSH1 0x20 DUP1 DUP4 MUL DUP6 ADD ADD GT ISZERO PUSH2 0x2A6F JUMPI PUSH1 0x0 DUP1 REVERT JUMPDEST SWAP3 POP SWAP3 SWAP1 POP JUMP JUMPDEST PUSH1 0x0 PUSH1 0x20 DUP3 DUP5 SUB SLT ISZERO PUSH2 0x2A87 JUMPI DUP1 DUP2 REVERT JUMPDEST DUP2 CALLDATALOAD PUSH2 0x9EC DUP2 PUSH2 0x3328 JUMP JUMPDEST PUSH1 0x0 PUSH1 0x20 DUP3 DUP5 SUB SLT ISZERO PUSH2 0x2AA3 JUMPI DUP1 DUP2 REVERT JUMPDEST DUP2 MLOAD PUSH2 0x9EC DUP2 PUSH2 0x3328 JUMP JUMPDEST PUSH1 0x0 DUP1 PUSH1 0x40 DUP4 DUP6 SUB SLT ISZERO PUSH2 0x2AC0 JUMPI DUP1 DUP2 REVERT JUMPDEST DUP3 CALLDATALOAD PUSH2 0x2ACB DUP2 PUSH2 0x3328 JUMP JUMPDEST SWAP2 POP PUSH1 0x20 DUP4 ADD CALLDATALOAD PUSH2 0x2ADB DUP2 PUSH2 0x3328 JUMP JUMPDEST DUP1 SWAP2 POP POP SWAP3 POP SWAP3 SWAP1 POP JUMP JUMPDEST PUSH1 0x0 DUP1 PUSH1 0x0 PUSH1 0x60 DUP5 DUP7 SUB SLT ISZERO PUSH2 0x2AFA JUMPI DUP1 DUP2 REVERT JUMPDEST DUP4 CALLDATALOAD PUSH2 0x2B05 DUP2 PUSH2 0x3328 JUMP JUMPDEST SWAP3 POP PUSH1 0x20 DUP5 ADD CALLDATALOAD PUSH2 0x2B15 DUP2 PUSH2 0x3328 JUMP JUMPDEST SWAP3 SWAP6 SWAP3 SWAP5 POP POP POP PUSH1 0x40 SWAP2 SWAP1 SWAP2 ADD CALLDATALOAD SWAP1 JUMP JUMPDEST PUSH1 0x0 DUP1 PUSH1 0x40 DUP4 DUP6 SUB SLT ISZERO PUSH2 0x2B38 JUMPI DUP2 DUP3 REVERT JUMPDEST DUP3 CALLDATALOAD PUSH2 0x2B43 DUP2 PUSH2 0x3328 JUMP JUMPDEST SWAP5 PUSH1 0x20 SWAP4 SWAP1 SWAP4 ADD CALLDATALOAD SWAP4 POP POP POP JUMP JUMPDEST PUSH1 0x0 DUP1 PUSH1 0x0 DUP1 PUSH1 0x40 DUP6 DUP8 SUB SLT ISZERO PUSH2 0x2B66 JUMPI DUP1 DUP2 REVERT JUMPDEST DUP5 CALLDATALOAD PUSH8 0xFFFFFFFFFFFFFFFF DUP1 DUP3 GT ISZERO PUSH2 0x2B7D JUMPI DUP3 DUP4 REVERT JUMPDEST PUSH2 0x2B89 DUP9 DUP4 DUP10 ADD PUSH2 0x2A2D JUMP JUMPDEST SWAP1 SWAP7 POP SWAP5 POP PUSH1 0x20 DUP8 ADD CALLDATALOAD SWAP2 POP DUP1 DUP3 GT ISZERO PUSH2 0x2BA1 JUMPI DUP3 DUP4 REVERT JUMPDEST POP PUSH2 0x2BAE DUP8 DUP3 DUP9 ADD PUSH2 0x2A2D JUMP JUMPDEST SWAP6 SWAP9 SWAP5 SWAP8 POP SWAP6 POP POP POP POP JUMP JUMPDEST PUSH1 0x0 DUP1 PUSH1 0x0 DUP1 PUSH1 0x0 DUP1 PUSH1 0x80 DUP8 DUP10 SUB SLT ISZERO PUSH2 0x2BD2 JUMPI DUP2 DUP3 REVERT JUMPDEST DUP7 CALLDATALOAD PUSH8 0xFFFFFFFFFFFFFFFF DUP1 DUP3 GT ISZERO PUSH2 0x2BE9 JUMPI DUP4 DUP5 REVERT JUMPDEST PUSH2 0x2BF5 DUP11 DUP4 DUP12 ADD PUSH2 0x2A2D JUMP JUMPDEST SWAP1 SWAP9 POP SWAP7 POP PUSH1 0x20 DUP10 ADD CALLDATALOAD SWAP2 POP DUP1 DUP3 GT ISZERO PUSH2 0x2C0D JUMPI DUP4 DUP5 REVERT JUMPDEST POP PUSH2 0x2C1A DUP10 DUP3 DUP11 ADD PUSH2 0x2A2D JUMP JUMPDEST SWAP1 SWAP6 POP SWAP4 POP POP PUSH1 0x40 DUP8 ADD CALLDATALOAD PUSH2 0x2C2E DUP2 PUSH2 0x3328 JUMP JUMPDEST DUP1 SWAP3 POP POP PUSH1 0x60 DUP8 ADD CALLDATALOAD SWAP1 POP SWAP3 SWAP6 POP SWAP3 SWAP6 POP SWAP3 SWAP6 JUMP JUMPDEST PUSH1 0x0 DUP1 PUSH1 0x0 DUP1 PUSH1 0x0 PUSH1 0x60 DUP7 DUP9 SUB SLT ISZERO PUSH2 0x2C5A JUMPI DUP1 DUP2 REVERT JUMPDEST DUP6 CALLDATALOAD PUSH8 0xFFFFFFFFFFFFFFFF DUP1 DUP3 GT ISZERO PUSH2 0x2C71 JUMPI DUP3 DUP4 REVERT JUMPDEST PUSH2 0x2C7D DUP10 DUP4 DUP11 ADD PUSH2 0x2A2D JUMP JUMPDEST SWAP1 SWAP8 POP SWAP6 POP PUSH1 0x20 DUP9 ADD CALLDATALOAD SWAP2 POP DUP1 DUP3 GT ISZERO PUSH2 0x2C95 JUMPI DUP3 DUP4 REVERT JUMPDEST POP PUSH2 0x2CA2 DUP9 DUP3 DUP10 ADD PUSH2 0x2A2D JUMP JUMPDEST SWAP7 SWAP10 SWAP6 SWAP9 POP SWAP7 PUSH1 0x40 ADD CALLDATALOAD SWAP5 SWAP4 POP POP POP POP JUMP JUMPDEST PUSH1 0x0 PUSH1 0x20 DUP3 DUP5 SUB SLT ISZERO PUSH2 0x2CC5 JUMPI DUP1 DUP2 REVERT JUMPDEST DUP2 MLOAD DUP1 ISZERO ISZERO DUP2 EQ PUSH2 0x9EC JUMPI DUP2 DUP3 REVERT JUMPDEST PUSH1 0x0 PUSH1 0x20 DUP3 DUP5 SUB SLT ISZERO PUSH2 0x2CE5 JUMPI DUP1 DUP2 REVERT JUMPDEST DUP2 MLOAD PUSH8 0xFFFFFFFFFFFFFFFF DUP1 DUP3 GT ISZERO PUSH2 0x2CFC JUMPI DUP3 DUP4 REVERT JUMPDEST DUP2 DUP5 ADD SWAP2 POP DUP5 PUSH1 0x1F DUP4 ADD SLT PUSH2 0x2D0F JUMPI DUP3 DUP4 REVERT JUMPDEST DUP2 MLOAD DUP2 DUP2 GT ISZERO PUSH2 0x2D1D JUMPI DUP4 DUP5 REVERT JUMPDEST PUSH1 0x40 MLOAD PUSH1 0x1F DUP3 ADD PUSH1 0x1F NOT AND DUP2 ADD PUSH1 0x20 ADD DUP4 DUP2 GT DUP3 DUP3 LT OR ISZERO PUSH2 0x2D3D JUMPI DUP6 DUP7 REVERT JUMPDEST PUSH1 0x40 MSTORE DUP2 DUP2 MSTORE DUP4 DUP3 ADD PUSH1 0x20 ADD DUP8 LT ISZERO PUSH2 0x2D54 JUMPI DUP5 DUP6 REVERT JUMPDEST PUSH2 0xB04 DUP3 PUSH1 0x20 DUP4 ADD PUSH1 0x20 DUP8 ADD PUSH2 0x32FC JUMP JUMPDEST PUSH1 0x0 PUSH1 0x20 DUP3 DUP5 SUB SLT ISZERO PUSH2 0x2D76 JUMPI DUP1 DUP2 REVERT JUMPDEST POP CALLDATALOAD SWAP2 SWAP1 POP JUMP JUMPDEST PUSH1 0x0 PUSH1 0x20 DUP3 DUP5 SUB SLT ISZERO PUSH2 0x2D8E JUMPI DUP1 DUP2 REVERT JUMPDEST POP MLOAD SWAP2 SWAP1 POP JUMP JUMPDEST PUSH1 0x0 DUP1 PUSH1 0x40 DUP4 DUP6 SUB SLT ISZERO PUSH2 0x2DA7 JUMPI DUP2 DUP3 REVERT JUMPDEST POP POP DUP1 CALLDATALOAD SWAP3 PUSH1 0x20 SWAP1 SWAP2 ADD CALLDATALOAD SWAP2 POP JUMP JUMPDEST PUSH1 0x0 PUSH1 0x20 DUP3 DUP5 SUB SLT ISZERO PUSH2 0x2DC7 JUMPI DUP1 DUP2 REVERT JUMPDEST DUP2 MLOAD PUSH1 0xFF DUP2 AND DUP2 EQ PUSH2 0x9EC JUMPI DUP2 DUP3 REVERT JUMPDEST PUSH1 0x0 DUP3 DUP5 MSTORE DUP3 DUP3 PUSH1 0x20 DUP7 ADD CALLDATACOPY DUP1 PUSH1 0x20 DUP5 DUP7 ADD ADD MSTORE PUSH1 0x20 PUSH1 0x1F NOT PUSH1 0x1F DUP6 ADD AND DUP6 ADD ADD SWAP1 POP SWAP4 SWAP3 POP POP POP JUMP JUMPDEST PUSH1 0x0 DUP3 MLOAD PUSH2 0x2E13 DUP2 DUP5 PUSH1 0x20 DUP8 ADD PUSH2 0x32FC JUMP JUMPDEST SWAP2 SWAP1 SWAP2 ADD SWAP3 SWAP2 POP POP JUMP JUMPDEST PUSH1 0x0 PUSH6 0x2CB2B0B9371 PUSH1 0xD5 SHL DUP3 MSTORE DUP3 MLOAD PUSH2 0x2E3E DUP2 PUSH1 0x6 DUP6 ADD PUSH1 0x20 DUP8 ADD PUSH2 0x32FC JUMP JUMPDEST SWAP2 SWAP1 SWAP2 ADD PUSH1 0x6 ADD SWAP3 SWAP2 POP POP JUMP JUMPDEST PUSH1 0x0 PUSH1 0x79 PUSH1 0xF8 SHL DUP3 MSTORE DUP3 MLOAD PUSH2 0x2E67 DUP2 PUSH1 0x1 DUP6 ADD PUSH1 0x20 DUP8 ADD PUSH2 0x32FC JUMP JUMPDEST SWAP2 SWAP1 SWAP2 ADD PUSH1 0x1 ADD SWAP3 SWAP2 POP POP JUMP JUMPDEST SWAP1 JUMP JUMPDEST PUSH1 0x1 PUSH1 0x1 PUSH1 0xA0 SHL SUB SWAP2 SWAP1 SWAP2 AND DUP2 MSTORE PUSH1 0x20 ADD SWAP1 JUMP JUMPDEST PUSH1 0x1 PUSH1 0x1 PUSH1 0xA0 SHL SUB DUP8 DUP2 AND DUP3 MSTORE DUP7 AND PUSH1 0x20 DUP3 ADD MSTORE PUSH1 0x40 DUP2 ADD DUP6 SWAP1 MSTORE PUSH1 0x60 DUP2 ADD DUP5 SWAP1 MSTORE PUSH1 0xA0 PUSH1 0x80 DUP3 ADD DUP2 SWAP1 MSTORE PUSH1 0x0 SWAP1 PUSH2 0x2EC6 SWAP1 DUP4 ADD DUP5 DUP7 PUSH2 0x2DD7 JUMP JUMPDEST SWAP9 SWAP8 POP POP POP POP POP POP POP POP JUMP JUMPDEST PUSH1 0x1 PUSH1 0x1 PUSH1 0xA0 SHL SUB SWAP3 DUP4 AND DUP2 MSTORE SWAP2 AND PUSH1 0x20 DUP3 ADD MSTORE PUSH1 0x40 ADD SWAP1 JUMP JUMPDEST PUSH1 0x1 PUSH1 0x1 PUSH1 0xA0 SHL SUB SWAP4 DUP5 AND DUP2 MSTORE SWAP2 SWAP1 SWAP3 AND PUSH1 0x20 DUP3 ADD MSTORE PUSH1 0x40 DUP2 ADD SWAP2 SWAP1 SWAP2 MSTORE PUSH1 0x60 ADD SWAP1 JUMP JUMPDEST PUSH1 0x1 PUSH1 0x1 PUSH1 0xA0 SHL SUB SWAP3 SWAP1 SWAP3 AND DUP3 MSTORE PUSH1 0x20 DUP3 ADD MSTORE PUSH1 0x40 ADD SWAP1 JUMP JUMPDEST PUSH1 0x20 DUP1 DUP3 MSTORE DUP3 MLOAD DUP3 DUP3 ADD DUP2 SWAP1 MSTORE PUSH1 0x0 SWAP2 SWAP1 DUP5 DUP3 ADD SWAP1 PUSH1 0x40 DUP6 ADD SWAP1 DUP5 JUMPDEST DUP2 DUP2 LT ISZERO PUSH2 0x2F6A JUMPI DUP4 MLOAD PUSH1 0x1 PUSH1 0x1 PUSH1 0xA0 SHL SUB AND DUP4 MSTORE SWAP3 DUP5 ADD SWAP3 SWAP2 DUP5 ADD SWAP2 PUSH1 0x1 ADD PUSH2 0x2F45 JUMP JUMPDEST POP SWAP1 SWAP7 SWAP6 POP POP POP POP POP POP JUMP JUMPDEST SWAP1 ISZERO ISZERO DUP2 MSTORE PUSH1 0x20 ADD SWAP1 JUMP JUMPDEST PUSH1 0x0 PUSH1 0x20 DUP3 MSTORE DUP3 MLOAD DUP1 PUSH1 0x20 DUP5 ADD MSTORE PUSH2 0x2FA0 DUP2 PUSH1 0x40 DUP6 ADD PUSH1 0x20 DUP8 ADD PUSH2 0x32FC JUMP JUMPDEST PUSH1 0x1F ADD PUSH1 0x1F NOT AND SWAP2 SWAP1 SWAP2 ADD PUSH1 0x40 ADD SWAP3 SWAP2 POP POP JUMP JUMPDEST PUSH1 0x20 DUP1 DUP3 MSTORE PUSH1 0x23 SWAP1 DUP3 ADD MSTORE PUSH32 0x45524332303A207472616E7366657220746F20746865207A65726F2061646472 PUSH1 0x40 DUP3 ADD MSTORE PUSH3 0x657373 PUSH1 0xE8 SHL PUSH1 0x60 DUP3 ADD MSTORE PUSH1 0x80 ADD SWAP1 JUMP JUMPDEST PUSH1 0x20 DUP1 DUP3 MSTORE PUSH1 0x22 SWAP1 DUP3 ADD MSTORE PUSH32 0x45524332303A20617070726F766520746F20746865207A65726F206164647265 PUSH1 0x40 DUP3 ADD MSTORE PUSH2 0x7373 PUSH1 0xF0 SHL PUSH1 0x60 DUP3 ADD MSTORE PUSH1 0x80 ADD SWAP1 JUMP JUMPDEST PUSH1 0x20 DUP1 DUP3 MSTORE PUSH1 0x1B SWAP1 DUP3 ADD MSTORE PUSH32 0x536166654D6174683A206164646974696F6E206F766572666C6F770000000000 PUSH1 0x40 DUP3 ADD MSTORE PUSH1 0x60 ADD SWAP1 JUMP JUMPDEST PUSH1 0x20 DUP1 DUP3 MSTORE PUSH1 0x3A SWAP1 DUP3 ADD MSTORE PUSH32 0x416464726573733A20756E61626C6520746F2073656E642076616C75652C2072 PUSH1 0x40 DUP3 ADD MSTORE PUSH32 0x6563697069656E74206D61792068617665207265766572746564000000000000 PUSH1 0x60 DUP3 ADD MSTORE PUSH1 0x80 ADD SWAP1 JUMP JUMPDEST PUSH1 0x20 DUP1 DUP3 MSTORE PUSH1 0x1D SWAP1 DUP3 ADD MSTORE PUSH32 0x416464726573733A20696E73756666696369656E742062616C616E6365000000 PUSH1 0x40 DUP3 ADD MSTORE PUSH1 0x60 ADD SWAP1 JUMP JUMPDEST PUSH1 0x20 DUP1 DUP3 MSTORE PUSH1 0x21 SWAP1 DUP3 ADD MSTORE PUSH32 0x536166654D6174683A206D756C7469706C69636174696F6E206F766572666C6F PUSH1 0x40 DUP3 ADD MSTORE PUSH1 0x77 PUSH1 0xF8 SHL PUSH1 0x60 DUP3 ADD MSTORE PUSH1 0x80 ADD SWAP1 JUMP JUMPDEST PUSH1 0x20 DUP1 DUP3 MSTORE PUSH1 0x24 SWAP1 DUP3 ADD MSTORE PUSH32 0x45524332303A20617070726F76652066726F6D20746865207A65726F20616464 PUSH1 0x40 DUP3 ADD MSTORE PUSH4 0x72657373 PUSH1 0xE0 SHL PUSH1 0x60 DUP3 ADD MSTORE PUSH1 0x80 ADD SWAP1 JUMP JUMPDEST PUSH1 0x20 DUP1 DUP3 MSTORE PUSH1 0x1D SWAP1 DUP3 ADD MSTORE PUSH32 0x416464726573733A2063616C6C20746F206E6F6E2D636F6E7472616374000000 PUSH1 0x40 DUP3 ADD MSTORE PUSH1 0x60 ADD SWAP1 JUMP JUMPDEST PUSH1 0x20 DUP1 DUP3 MSTORE PUSH1 0x2A SWAP1 DUP3 ADD MSTORE PUSH32 0x5361666545524332303A204552433230206F7065726174696F6E20646964206E PUSH1 0x40 DUP3 ADD MSTORE PUSH10 0x1BDD081CDD58D8D95959 PUSH1 0xB2 SHL PUSH1 0x60 DUP3 ADD MSTORE PUSH1 0x80 ADD SWAP1 JUMP JUMPDEST PUSH1 0x20 DUP1 DUP3 MSTORE PUSH1 0x1F SWAP1 DUP3 ADD MSTORE PUSH32 0x5265656E7472616E637947756172643A207265656E7472616E742063616C6C00 PUSH1 0x40 DUP3 ADD MSTORE PUSH1 0x60 ADD SWAP1 JUMP JUMPDEST PUSH1 0x20 DUP1 DUP3 MSTORE PUSH1 0x36 SWAP1 DUP3 ADD MSTORE PUSH32 0x5361666545524332303A20617070726F76652066726F6D206E6F6E2D7A65726F PUSH1 0x40 DUP3 ADD MSTORE PUSH22 0x20746F206E6F6E2D7A65726F20616C6C6F77616E6365 PUSH1 0x50 SHL PUSH1 0x60 DUP3 ADD MSTORE PUSH1 0x80 ADD SWAP1 JUMP JUMPDEST SWAP1 DUP2 MSTORE PUSH1 0x20 ADD SWAP1 JUMP JUMPDEST SWAP2 DUP3 MSTORE PUSH1 0x1 PUSH1 0x1 PUSH1 0xA0 SHL SUB AND PUSH1 0x20 DUP3 ADD MSTORE PUSH1 0x40 ADD SWAP1 JUMP JUMPDEST PUSH1 0x0 DUP1 DUP4 CALLDATALOAD PUSH1 0x1E NOT DUP5 CALLDATASIZE SUB ADD DUP2 SLT PUSH2 0x32CD JUMPI DUP3 DUP4 REVERT JUMPDEST DUP4 ADD DUP1 CALLDATALOAD SWAP2 POP PUSH8 0xFFFFFFFFFFFFFFFF DUP3 GT ISZERO PUSH2 0x32E7 JUMPI DUP3 DUP4 REVERT JUMPDEST PUSH1 0x20 ADD SWAP2 POP CALLDATASIZE DUP2 SWAP1 SUB DUP3 SGT ISZERO PUSH2 0x2A6F JUMPI PUSH1 0x0 DUP1 REVERT JUMPDEST PUSH1 0x0 JUMPDEST DUP4 DUP2 LT ISZERO PUSH2 0x3317 JUMPI DUP2 DUP2 ADD MLOAD DUP4 DUP3 ADD MSTORE PUSH1 0x20 ADD PUSH2 0x32FF JUMP JUMPDEST DUP4 DUP2 GT ISZERO PUSH2 0x11B8 JUMPI POP POP PUSH1 0x0 SWAP2 ADD MSTORE JUMP JUMPDEST PUSH1 0x1 PUSH1 0x1 PUSH1 0xA0 SHL SUB DUP2 AND DUP2 EQ PUSH2 0x10F4 JUMPI PUSH1 0x0 DUP1 REVERT INVALID LOG2 PUSH5 0x6970667358 0x22 SLT KECCAK256 0xC PUSH5 0x7DAB020698 0x4E 0xF9 0x1E 0xDC PUSH4 0xF4D00420 0xE3 LOG3 TIMESTAMP PUSH8 0xFAF81430C4B0AD7F DUP10 SWAP5 PUSH16 0x2B64736F6C634300060C003300000000 ",
  "sha1": "be99a1beba6aa1c888b33f424bcfb492b4d4f11c",
  "source": "// SPDX-License-Identifier: GPL-3.0\npragma solidity ^0.6.12;\npragma experimental ABIEncoderV2;\n\nimport {Address} from \"@openzeppelin/contracts/utils/Address.sol\";\nimport {IERC20} from \"@openzeppelin/contracts/token/ERC20/IERC20.sol\";\nimport {SafeMath} from \"@openzeppelin/contracts/math/SafeMath.sol\";\nimport {ReentrancyGuard} from \"@openzeppelin/contracts/utils/ReentrancyGuard.sol\";\n\nimport {VaultAPI, BaseWrapper} from \"./BaseWrapper.sol\";\n\ninterface IERC20Metadata {\n    /**\n     * @dev Returns the name of the token.\n     */\n    function name() external view returns (string memory);\n\n    /**\n     * @dev Returns the symbol of the token.\n     */\n    function symbol() external view returns (string memory);\n\n    /**\n     * @dev Returns the decimals places of the token.\n     */\n    function decimals() external view returns (uint8);\n}\n\ncontract yToken is IERC20, BaseWrapper {\n    using SafeMath for uint256;\n\n    mapping(address => mapping(address => uint256)) public override allowance;\n\n    constructor(address _token, address _registry) public BaseWrapper(_token, _registry) {}\n\n    function name() external view returns (string memory) {\n        return string(abi.encodePacked(\"Yearn \", IERC20Metadata(address(token)).name()));\n    }\n\n    function symbol() external view returns (string memory) {\n        return string(abi.encodePacked(\"y\", IERC20Metadata(address(token)).symbol()));\n    }\n\n    function decimals() external view returns (uint256) {\n        return IERC20Metadata(address(token)).decimals();\n    }\n\n    function totalSupply() external view override returns (uint256 total) {\n        return totalAssets();\n    }\n\n    function balanceOf(address account) external view override returns (uint256 balance) {\n        return totalVaultBalance(account);\n    }\n\n    function _transfer(\n        address sender,\n        address receiver,\n        uint256 amount\n    ) internal {\n        require(receiver != address(0), \"ERC20: transfer to the zero address\");\n        require(amount == _withdraw(sender, receiver, amount, true)); // `true` means use `bestVault`\n        emit Transfer(sender, receiver, amount);\n    }\n\n    function transfer(address receiver, uint256 amount) public virtual override returns (bool) {\n        _transfer(msg.sender, receiver, amount);\n        return true;\n    }\n\n    function _approve(\n        address owner,\n        address spender,\n        uint256 amount\n    ) internal {\n        require(owner != address(0), \"ERC20: approve from the zero address\");\n        require(spender != address(0), \"ERC20: approve to the zero address\");\n\n        allowance[owner][spender] = amount;\n        emit Approval(owner, spender, amount);\n    }\n\n    function approve(address spender, uint256 amount) public override returns (bool) {\n        _approve(msg.sender, spender, amount);\n        return true;\n    }\n\n    function transferFrom(\n        address sender,\n        address receiver,\n        uint256 amount\n    ) public virtual override returns (bool) {\n        _transfer(sender, receiver, amount);\n        _approve(sender, msg.sender, allowance[sender][msg.sender].sub(amount));\n        return true;\n    }\n\n    function increaseAllowance(address spender, uint256 addedValue) public virtual returns (bool) {\n        _approve(msg.sender, spender, allowance[msg.sender][spender].add(addedValue));\n        return true;\n    }\n\n    function decreaseAllowance(address spender, uint256 subtractedValue) public virtual returns (bool) {\n        _approve(msg.sender, spender, allowance[msg.sender][spender].sub(subtractedValue));\n        return true;\n    }\n\n    function deposit(uint256 amount) external returns (uint256) {\n        return _deposit(msg.sender, msg.sender, amount, true); // `true` = pull from sender\n    }\n\n    function withdraw(uint256 amount) external returns (uint256) {\n        return _withdraw(msg.sender, msg.sender, amount, true); // `true` = withdraw from `bestVault`\n    }\n\n    function _permitAll(\n        address user,\n        VaultAPI[] calldata vaults,\n        bytes[] calldata signatures\n    ) internal {\n        require(vaults.length == signatures.length);\n        for (uint256 i = 0; i < vaults.length; i++) {\n            require(vaults[i].permit(user, address(this), uint256(-1), 0, signatures[i]));\n        }\n    }\n\n    function permitAll(VaultAPI[] calldata vaults, bytes[] calldata signatures) public {\n        _permitAll(msg.sender, vaults, signatures);\n    }\n\n    function migrate() external returns (uint256) {\n        return _migrate(msg.sender);\n    }\n\n    function migrate(uint256 amount) external returns (uint256) {\n        return _migrate(msg.sender, amount);\n    }\n\n    function migrate(uint256 amount, uint256 maxMigrationLoss) external returns (uint256) {\n        return _migrate(msg.sender, amount, maxMigrationLoss);\n    }\n\n    function migrate(VaultAPI[] calldata vaults, bytes[] calldata signatures) external returns (uint256) {\n        _permitAll(msg.sender, vaults, signatures);\n        return _migrate(msg.sender);\n    }\n\n    function migrate(\n        VaultAPI[] calldata vaults,\n        bytes[] calldata signatures,\n        uint256 amount\n    ) external returns (uint256) {\n        _permitAll(msg.sender, vaults, signatures);\n        return _migrate(msg.sender, amount);\n    }\n\n    function migrate(\n        VaultAPI[] calldata vaults,\n        bytes[] calldata signatures,\n        address user,\n        uint256 amount\n    ) external returns (uint256) {\n        _permitAll(user, vaults, signatures);\n        return _migrate(user, amount);\n    }\n\n    function revokeAll(VaultAPI[] calldata vaults, bytes[] calldata signatures) external {\n        require(vaults.length == signatures.length);\n        for (uint256 i = 0; i < vaults.length; i++) {\n            require(vaults[i].permit(msg.sender, address(this), 0, 0, signatures[i]));\n        }\n    }\n}\n\ninterface IWETH {\n    function deposit() external payable;\n\n    function withdraw(uint256 wad) external;\n}\n\ncontract yWETH is ReentrancyGuard, yToken {\n    using Address for address payable;\n\n    constructor(address _weth, address _registry) public yToken(_weth, _registry) {}\n\n    function depositETH() public payable returns (uint256) {\n        uint256 amount = msg.value;\n        // NOTE: `BaseWrapper.token` is WETH\n        IWETH(address(token)).deposit{value: amount}();\n        // NOTE: Deposit handles approvals\n        // NOTE: Need to use different method to deposit than `yToken`\n        return _deposit(address(this), msg.sender, amount, false); // `false` = pull from `this`\n    }\n\n    function withdrawETH(uint256 amount) external nonReentrant returns (uint256 withdrawn) {\n        // NOTE: Need to use different method to withdraw than `yToken`\n        withdrawn = _withdraw(msg.sender, address(this), amount, true); // `true` = withdraw from `bestVault`\n        // NOTE: `BaseWrapper.token` is WETH\n        IWETH(address(token)).withdraw(withdrawn);\n        // NOTE: Any unintentionally\n        msg.sender.sendValue(address(this).balance);\n    }\n\n    receive() external payable {\n        if (msg.sender != address(token)) {\n            depositETH();\n        } // else: WETH is sending us back ETH, so don't do anything (to avoid recursion)\n    }\n}\n",
  "sourcePath": "contracts/yToken.sol",
  "type": "contract"
}